{
  "contractName": "CryptoDicks",
  "abi": [
    {
      "inputs": [
        {
          "internalType": "address",
          "name": "_VRFCoordinator",
          "type": "address"
        },
        {
          "internalType": "address",
          "name": "_LinkToken",
          "type": "address"
        },
        {
          "internalType": "bytes32",
          "name": "_keyhash",
          "type": "bytes32"
        }
      ],
      "stateMutability": "nonpayable",
      "type": "constructor"
    },
    {
      "anonymous": false,
      "inputs": [
        {
          "indexed": true,
          "internalType": "address",
          "name": "owner",
          "type": "address"
        },
        {
          "indexed": true,
          "internalType": "address",
          "name": "approved",
          "type": "address"
        },
        {
          "indexed": true,
          "internalType": "uint256",
          "name": "tokenId",
          "type": "uint256"
        }
      ],
      "name": "Approval",
      "type": "event"
    },
    {
      "anonymous": false,
      "inputs": [
        {
          "indexed": true,
          "internalType": "address",
          "name": "owner",
          "type": "address"
        },
        {
          "indexed": true,
          "internalType": "address",
          "name": "operator",
          "type": "address"
        },
        {
          "indexed": false,
          "internalType": "bool",
          "name": "approved",
          "type": "bool"
        }
      ],
      "name": "ApprovalForAll",
      "type": "event"
    },
    {
      "anonymous": false,
      "inputs": [
        {
          "indexed": true,
          "internalType": "address",
          "name": "previousOwner",
          "type": "address"
        },
        {
          "indexed": true,
          "internalType": "address",
          "name": "newOwner",
          "type": "address"
        }
      ],
      "name": "OwnershipTransferred",
      "type": "event"
    },
    {
      "anonymous": false,
      "inputs": [
        {
          "indexed": false,
          "internalType": "uint256",
          "name": "randomNumber",
          "type": "uint256"
        }
      ],
      "name": "ReceiveRandom",
      "type": "event"
    },
    {
      "anonymous": false,
      "inputs": [
        {
          "indexed": true,
          "internalType": "address",
          "name": "from",
          "type": "address"
        },
        {
          "indexed": true,
          "internalType": "address",
          "name": "to",
          "type": "address"
        },
        {
          "indexed": true,
          "internalType": "uint256",
          "name": "tokenId",
          "type": "uint256"
        }
      ],
      "name": "Transfer",
      "type": "event"
    },
    {
      "inputs": [],
      "name": "LinkToken",
      "outputs": [
        {
          "internalType": "address",
          "name": "",
          "type": "address"
        }
      ],
      "stateMutability": "view",
      "type": "function",
      "constant": true
    },
    {
      "inputs": [],
      "name": "VRFCoordinator",
      "outputs": [
        {
          "internalType": "address",
          "name": "",
          "type": "address"
        }
      ],
      "stateMutability": "view",
      "type": "function",
      "constant": true
    },
    {
      "inputs": [
        {
          "internalType": "address",
          "name": "to",
          "type": "address"
        },
        {
          "internalType": "uint256",
          "name": "tokenId",
          "type": "uint256"
        }
      ],
      "name": "approve",
      "outputs": [],
      "stateMutability": "nonpayable",
      "type": "function"
    },
    {
      "inputs": [
        {
          "internalType": "address",
          "name": "owner",
          "type": "address"
        }
      ],
      "name": "balanceOf",
      "outputs": [
        {
          "internalType": "uint256",
          "name": "",
          "type": "uint256"
        }
      ],
      "stateMutability": "view",
      "type": "function",
      "constant": true
    },
    {
      "inputs": [],
      "name": "claimFee",
      "outputs": [
        {
          "internalType": "uint256",
          "name": "",
          "type": "uint256"
        }
      ],
      "stateMutability": "view",
      "type": "function",
      "constant": true
    },
    {
      "inputs": [
        {
          "internalType": "uint256",
          "name": "tokenId",
          "type": "uint256"
        }
      ],
      "name": "getApproved",
      "outputs": [
        {
          "internalType": "address",
          "name": "",
          "type": "address"
        }
      ],
      "stateMutability": "view",
      "type": "function",
      "constant": true
    },
    {
      "inputs": [
        {
          "internalType": "address",
          "name": "owner",
          "type": "address"
        },
        {
          "internalType": "address",
          "name": "operator",
          "type": "address"
        }
      ],
      "name": "isApprovedForAll",
      "outputs": [
        {
          "internalType": "bool",
          "name": "",
          "type": "bool"
        }
      ],
      "stateMutability": "view",
      "type": "function",
      "constant": true
    },
    {
      "inputs": [],
      "name": "name",
      "outputs": [
        {
          "internalType": "string",
          "name": "",
          "type": "string"
        }
      ],
      "stateMutability": "view",
      "type": "function",
      "constant": true
    },
    {
      "inputs": [],
      "name": "owner",
      "outputs": [
        {
          "internalType": "address",
          "name": "",
          "type": "address"
        }
      ],
      "stateMutability": "view",
      "type": "function",
      "constant": true
    },
    {
      "inputs": [
        {
          "internalType": "uint256",
          "name": "tokenId",
          "type": "uint256"
        }
      ],
      "name": "ownerOf",
      "outputs": [
        {
          "internalType": "address",
          "name": "",
          "type": "address"
        }
      ],
      "stateMutability": "view",
      "type": "function",
      "constant": true
    },
    {
      "inputs": [],
      "name": "randomResult",
      "outputs": [
        {
          "internalType": "uint256",
          "name": "",
          "type": "uint256"
        }
      ],
      "stateMutability": "view",
      "type": "function",
      "constant": true
    },
    {
      "inputs": [
        {
          "internalType": "bytes32",
          "name": "requestId",
          "type": "bytes32"
        },
        {
          "internalType": "uint256",
          "name": "randomness",
          "type": "uint256"
        }
      ],
      "name": "rawFulfillRandomness",
      "outputs": [],
      "stateMutability": "nonpayable",
      "type": "function"
    },
    {
      "inputs": [],
      "name": "renounceOwnership",
      "outputs": [],
      "stateMutability": "nonpayable",
      "type": "function"
    },
    {
      "inputs": [
        {
          "internalType": "address",
          "name": "from",
          "type": "address"
        },
        {
          "internalType": "address",
          "name": "to",
          "type": "address"
        },
        {
          "internalType": "uint256",
          "name": "tokenId",
          "type": "uint256"
        }
      ],
      "name": "safeTransferFrom",
      "outputs": [],
      "stateMutability": "nonpayable",
      "type": "function"
    },
    {
      "inputs": [
        {
          "internalType": "address",
          "name": "from",
          "type": "address"
        },
        {
          "internalType": "address",
          "name": "to",
          "type": "address"
        },
        {
          "internalType": "uint256",
          "name": "tokenId",
          "type": "uint256"
        },
        {
          "internalType": "bytes",
          "name": "_data",
          "type": "bytes"
        }
      ],
      "name": "safeTransferFrom",
      "outputs": [],
      "stateMutability": "nonpayable",
      "type": "function"
    },
    {
      "inputs": [
        {
          "internalType": "address",
          "name": "operator",
          "type": "address"
        },
        {
          "internalType": "bool",
          "name": "approved",
          "type": "bool"
        }
      ],
      "name": "setApprovalForAll",
      "outputs": [],
      "stateMutability": "nonpayable",
      "type": "function"
    },
    {
      "inputs": [
        {
          "internalType": "bytes4",
          "name": "interfaceId",
          "type": "bytes4"
        }
      ],
      "name": "supportsInterface",
      "outputs": [
        {
          "internalType": "bool",
          "name": "",
          "type": "bool"
        }
      ],
      "stateMutability": "view",
      "type": "function",
      "constant": true
    },
    {
      "inputs": [],
      "name": "symbol",
      "outputs": [
        {
          "internalType": "string",
          "name": "",
          "type": "string"
        }
      ],
      "stateMutability": "view",
      "type": "function",
      "constant": true
    },
    {
      "inputs": [
        {
          "internalType": "uint256",
          "name": "tokenId",
          "type": "uint256"
        }
      ],
      "name": "tokenURI",
      "outputs": [
        {
          "internalType": "string",
          "name": "",
          "type": "string"
        }
      ],
      "stateMutability": "view",
      "type": "function",
      "constant": true
    },
    {
      "inputs": [],
      "name": "totalSupply",
      "outputs": [
        {
          "internalType": "uint256",
          "name": "",
          "type": "uint256"
        }
      ],
      "stateMutability": "view",
      "type": "function",
      "constant": true
    },
    {
      "inputs": [
        {
          "internalType": "address",
          "name": "from",
          "type": "address"
        },
        {
          "internalType": "address",
          "name": "to",
          "type": "address"
        },
        {
          "internalType": "uint256",
          "name": "tokenId",
          "type": "uint256"
        }
      ],
      "name": "transferFrom",
      "outputs": [],
      "stateMutability": "nonpayable",
      "type": "function"
    },
    {
      "inputs": [
        {
          "internalType": "address",
          "name": "newOwner",
          "type": "address"
        }
      ],
      "name": "transferOwnership",
      "outputs": [],
      "stateMutability": "nonpayable",
      "type": "function"
    },
    {
      "inputs": [],
      "name": "requestNewRandomNumber",
      "outputs": [
        {
          "internalType": "bytes32",
          "name": "",
          "type": "bytes32"
        }
      ],
      "stateMutability": "nonpayable",
      "type": "function"
    },
    {
      "inputs": [],
      "name": "claim",
      "outputs": [],
      "stateMutability": "payable",
      "type": "function",
      "payable": true
    },
    {
      "inputs": [
        {
          "internalType": "string",
          "name": "_baseUri",
          "type": "string"
        }
      ],
      "name": "setBaseURI",
      "outputs": [],
      "stateMutability": "nonpayable",
      "type": "function"
    },
    {
      "inputs": [
        {
          "internalType": "uint256",
          "name": "_newPrice",
          "type": "uint256"
        }
      ],
      "name": "setClaimFee",
      "outputs": [],
      "stateMutability": "nonpayable",
      "type": "function"
    },
    {
      "inputs": [],
      "name": "withdraw",
      "outputs": [],
      "stateMutability": "payable",
      "type": "function",
      "payable": true
    },
    {
      "inputs": [
        {
          "internalType": "uint256",
          "name": "_tokenId",
          "type": "uint256"
        }
      ],
      "name": "get",
      "outputs": [
        {
          "internalType": "uint8",
          "name": "",
          "type": "uint8"
        },
        {
          "internalType": "uint8",
          "name": "",
          "type": "uint8"
        },
        {
          "internalType": "uint8",
          "name": "",
          "type": "uint8"
        },
        {
          "internalType": "uint8",
          "name": "",
          "type": "uint8"
        }
      ],
      "stateMutability": "view",
      "type": "function",
      "constant": true
    },
    {
      "inputs": [],
      "name": "currentSupply",
      "outputs": [
        {
          "internalType": "uint256",
          "name": "",
          "type": "uint256"
        }
      ],
      "stateMutability": "view",
      "type": "function",
      "constant": true
    }
  ],
  "bytecode": "0x60c0604052612710600f556040518060400160405280601681526020017f687474703a2f2f6c6f63616c686f73743a353030302f00000000000000000000815250601090805190602001906200005792919062000c9b565b50662386f26fc100006011553480156200007057600080fd5b50604051620057a9380380620057a9833981810160405281019062000096919062000e24565b82826040518060400160405280600b81526020017f43727970746f4469636b730000000000000000000000000000000000000000008152506040518060400160405280600481526020017f4449434b0000000000000000000000000000000000000000000000000000000081525062000124620001186200029860201b60201c565b620002a060201b60201c565b81600190805190602001906200013c92919062000c9b565b5080600290805190602001906200015592919062000c9b565b5050508173ffffffffffffffffffffffffffffffffffffffff1660a08173ffffffffffffffffffffffffffffffffffffffff16815250508073ffffffffffffffffffffffffffffffffffffffff1660808173ffffffffffffffffffffffffffffffffffffffff1681525050505082600d60006101000a81548173ffffffffffffffffffffffffffffffffffffffff021916908373ffffffffffffffffffffffffffffffffffffffff16021790555081600e60006101000a81548173ffffffffffffffffffffffffffffffffffffffff021916908373ffffffffffffffffffffffffffffffffffffffff16021790555080600a8190555067016345785d8a0000600b8190555060005b600a8110156200028e57620002776200036460201b60201c565b508080620002859062000eb9565b9150506200025d565b505050506200157b565b600033905090565b60008060009054906101000a900473ffffffffffffffffffffffffffffffffffffffff169050816000806101000a81548173ffffffffffffffffffffffffffffffffffffffff021916908373ffffffffffffffffffffffffffffffffffffffff1602179055508173ffffffffffffffffffffffffffffffffffffffff168173ffffffffffffffffffffffffffffffffffffffff167f8be0079c531659141344cd1fd0a4f28419497f9722a3daafe3b4186f6b6457e060405160405180910390a35050565b6000600f546200038060086200048060201b620016851760201c565b106200038b57600080fd5b620003a260086200048e60201b620016931760201c565b6000620003bb60086200048060201b620016851760201c565b9050620003cd620004a460201b60201c565b6012600083815260200190815260200160002060008201518160000160006101000a81548160ff021916908360ff16021790555060208201518160000160016101000a81548160ff021916908360ff16021790555060408201518160000160026101000a81548160ff021916908360ff16021790555060608201518160000160036101000a81548160ff021916908360ff160217905550905050620004793382620005af60201b60201c565b8091505090565b600081600001549050919050565b6001816000016000828254019250508190555050565b620004ae62000d2c565b60008060008060005b6001156200057857620004cf620005d560201b60201c565b8094508195508296508397505050505083838383604051602001620004f8949392919062000f50565b6040516020818303038152906040528051906020012060001c9450600115156013600087815260200190815260200160002060009054906101000a900460ff16151514620005725760016013600087815260200190815260200160002060006101000a81548160ff02191690831515021790555062000578565b620004b7565b60405180608001604052808560ff1681526020018460ff1681526020018360ff1681526020018260ff168152509550505050505090565b620005d18282604051806020016040528060008152506200062d60201b60201c565b5050565b600080600080620005eb6200069b60201b60201c565b620005fb6200069b60201b60201c565b6200060d60036200075c60201b60201c565b6200061f60036200075c60201b60201c565b935093509350935090919293565b6200063f83836200079a60201b60201c565b6200065460008484846200098060201b60201c565b62000696576040517f08c379a00000000000000000000000000000000000000000000000000000000081526004016200068d906200102d565b60405180910390fd5b505050565b600080620006ae62000b2a60201b60201c565b905060006103e8821015620006c7576007905062000754565b611770821015620006dc576006905062000753565b613e80821015620006f1576005905062000752565b620101d082101562000707576004905062000751565b620288708210156200071d576003905062000750565b620595b08210156200073357600290506200074f565b620a29908210156200074957600190506200074e565b600090505b5b5b5b5b5b5b809250505090565b6000620007938260ff166200077662000b2a60201b60201c565b6200078291906200107e565b62000bc460201b620016a91760201c565b9050919050565b600073ffffffffffffffffffffffffffffffffffffffff168273ffffffffffffffffffffffffffffffffffffffff1614156200080d576040517f08c379a0000000000000000000000000000000000000000000000000000000008152600401620008049062001106565b60405180910390fd5b6200081e8162000c1760201b60201c565b1562000861576040517f08c379a0000000000000000000000000000000000000000000000000000000008152600401620008589062001178565b60405180910390fd5b620008756000838362000c8360201b60201c565b6001600460008473ffffffffffffffffffffffffffffffffffffffff1673ffffffffffffffffffffffffffffffffffffffff1681526020019081526020016000206000828254620008c791906200119a565b92505081905550816003600083815260200190815260200160002060006101000a81548173ffffffffffffffffffffffffffffffffffffffff021916908373ffffffffffffffffffffffffffffffffffffffff160217905550808273ffffffffffffffffffffffffffffffffffffffff16600073ffffffffffffffffffffffffffffffffffffffff167fddf252ad1be2c89b69c2b068fc378daa952ba7f163c4a11628f55a4df523b3ef60405160405180910390a45050565b6000620009ae8473ffffffffffffffffffffffffffffffffffffffff1662000c8860201b620016f91760201c565b1562000b1d578373ffffffffffffffffffffffffffffffffffffffff1663150b7a02620009e06200029860201b60201c565b8786866040518563ffffffff1660e01b815260040162000a049493929190620012bd565b6020604051808303816000875af192505050801562000a4357506040513d601f19601f8201168201806040525081019062000a4091906200136e565b60015b62000acc573d806000811462000a76576040519150601f19603f3d011682016040523d82523d6000602084013e62000a7b565b606091505b5060008151141562000ac4576040517f08c379a000000000000000000000000000000000000000000000000000000000815260040162000abb906200102d565b60405180910390fd5b805181602001fd5b63150b7a0260e01b7bffffffffffffffffffffffffffffffffffffffffffffffffffffffff1916817bffffffffffffffffffffffffffffffffffffffffffffffffffffffff19161491505062000b22565b600190505b949350505050565b600062000b4360096200048e60201b620016931760201c565b6000444262000b5e60086200048060201b620016851760201c565b3362000b7660096200048060201b620016851760201c565b60405160200162000b8c95949392919062001415565b60405160208183030381529060405290506000818051906020012060001c9050620f42408162000bbd91906200107e565b9250505090565b600060ff801682111562000c0f576040517f08c379a000000000000000000000000000000000000000000000000000000000815260040162000c0690620014f4565b60405180910390fd5b819050919050565b60008073ffffffffffffffffffffffffffffffffffffffff166003600084815260200190815260200160002060009054906101000a900473ffffffffffffffffffffffffffffffffffffffff1673ffffffffffffffffffffffffffffffffffffffff1614159050919050565b505050565b600080823b905060008111915050919050565b82805462000ca99062001545565b90600052602060002090601f01602090048101928262000ccd576000855562000d19565b82601f1062000ce857805160ff191683800117855562000d19565b8280016001018555821562000d19579182015b8281111562000d1857825182559160200191906001019062000cfb565b5b50905062000d28919062000d60565b5090565b6040518060800160405280600060ff168152602001600060ff168152602001600060ff168152602001600060ff1681525090565b5b8082111562000d7b57600081600090555060010162000d61565b5090565b600080fd5b600073ffffffffffffffffffffffffffffffffffffffff82169050919050565b600062000db18262000d84565b9050919050565b62000dc38162000da4565b811462000dcf57600080fd5b50565b60008151905062000de38162000db8565b92915050565b6000819050919050565b62000dfe8162000de9565b811462000e0a57600080fd5b50565b60008151905062000e1e8162000df3565b92915050565b60008060006060848603121562000e405762000e3f62000d7f565b5b600062000e508682870162000dd2565b935050602062000e638682870162000dd2565b925050604062000e768682870162000e0d565b9150509250925092565b7f4e487b7100000000000000000000000000000000000000000000000000000000600052601160045260246000fd5b6000819050919050565b600062000ec68262000eaf565b91507fffffffffffffffffffffffffffffffffffffffffffffffffffffffffffffffff82141562000efc5762000efb62000e80565b5b600182019050919050565b600060ff82169050919050565b60008160f81b9050919050565b600062000f2e8262000f14565b9050919050565b62000f4a62000f448262000f07565b62000f21565b82525050565b600062000f5e828762000f35565b60018201915062000f70828662000f35565b60018201915062000f82828562000f35565b60018201915062000f94828462000f35565b60018201915081905095945050505050565b600082825260208201905092915050565b7f4552433732313a207472616e7366657220746f206e6f6e20455243373231526560008201527f63656976657220696d706c656d656e7465720000000000000000000000000000602082015250565b60006200101560328362000fa6565b9150620010228262000fb7565b604082019050919050565b60006020820190508181036000830152620010488162001006565b9050919050565b7f4e487b7100000000000000000000000000000000000000000000000000000000600052601260045260246000fd5b60006200108b8262000eaf565b9150620010988362000eaf565b925082620010ab57620010aa6200104f565b5b828206905092915050565b7f4552433732313a206d696e7420746f20746865207a65726f2061646472657373600082015250565b6000620010ee60208362000fa6565b9150620010fb82620010b6565b602082019050919050565b600060208201905081810360008301526200112181620010df565b9050919050565b7f4552433732313a20746f6b656e20616c7265616479206d696e74656400000000600082015250565b600062001160601c8362000fa6565b91506200116d8262001128565b602082019050919050565b60006020820190508181036000830152620011938162001151565b9050919050565b6000620011a78262000eaf565b9150620011b48362000eaf565b9250827fffffffffffffffffffffffffffffffffffffffffffffffffffffffffffffffff03821115620011ec57620011eb62000e80565b5b828201905092915050565b620012028162000da4565b82525050565b620012138162000eaf565b82525050565b600081519050919050565b600082825260208201905092915050565b60005b838110156200125557808201518184015260208101905062001238565b8381111562001265576000848401525b50505050565b6000601f19601f8301169050919050565b6000620012898262001219565b62001295818562001224565b9350620012a781856020860162001235565b620012b2816200126b565b840191505092915050565b6000608082019050620012d46000830187620011f7565b620012e36020830186620011f7565b620012f2604083018562001208565b81810360608301526200130681846200127c565b905095945050505050565b60007fffffffff0000000000000000000000000000000000000000000000000000000082169050919050565b620013488162001311565b81146200135457600080fd5b50565b60008151905062001368816200133d565b92915050565b60006020828403121562001387576200138662000d7f565b5b6000620013978482850162001357565b91505092915050565b6000819050919050565b620013bf620013b98262000eaf565b620013a0565b82525050565b60008160601b9050919050565b6000620013df82620013c5565b9050919050565b6000620013f382620013d2565b9050919050565b6200140f620014098262000da4565b620013e6565b82525050565b6000620014238288620013aa565b602082019150620014358287620013aa565b602082019150620014478286620013aa565b602082019150620014598285620013fa565b6014820191506200146b8284620013aa565b6020820191508190509695505050505050565b7f53616665436173743a2076616c756520646f65736e27742066697420696e203860008201527f2062697473000000000000000000000000000000000000000000000000000000602082015250565b6000620014dc60258362000fa6565b9150620014e9826200147e565b604082019050919050565b600060208201905081810360008301526200150f81620014cd565b9050919050565b7f4e487b7100000000000000000000000000000000000000000000000000000000600052602260045260246000fd5b600060028204905060018216806200155e57607f821691505b6020821081141562001575576200157462001516565b5b50919050565b60805160a0516141fa620015af600039600081816110500152611c1d015260008181610a3d0152611be101526141fa6000f3fe6080604052600436106101c25760003560e01c806355f804b3116100f75780639507d39a11610095578063b88d4fde11610064578063b88d4fde146105f3578063c87b56dd1461061c578063e985e9c514610659578063f2fde38b14610696576101c2565b80639507d39a1461053457806395d89b411461057457806399d32fc41461059f578063a22cb465146105ca576101c2565b8063715018a6116100d1578063715018a61461049e578063771282f6146104b55780638da5cb5b146104e057806394985ddd1461050b576101c2565b806355f804b3146103fb5780636352211e1461042457806370a0823114610461576101c2565b80632e75ab501161016457806342619f661161013e57806342619f661461037257806342842e0e1461039d5780634e71d92d146103c65780634f8e2fdf146103d0576101c2565b80632e75ab501461031457806333b608631461033d5780633ccfd60b14610368576101c2565b8063095ea7b3116101a0578063095ea7b31461026c57806318160ddd1461029557806323b872dd146102c0578063259e3ee2146102e9576101c2565b806301ffc9a7146101c757806306fdde0314610204578063081812fc1461022f575b600080fd5b3480156101d357600080fd5b506101ee60048036038101906101e99190612963565b6106bf565b6040516101fb91906129ab565b60405180910390f35b34801561021057600080fd5b506102196107a1565b6040516102269190612a5f565b60405180910390f35b34801561023b57600080fd5b5061025660048036038101906102519190612ab7565b610833565b6040516102639190612b25565b60405180910390f35b34801561027857600080fd5b50610293600480360381019061028e9190612b6c565b6108b8565b005b3480156102a157600080fd5b506102aa6109d0565b6040516102b79190612bbb565b60405180910390f35b3480156102cc57600080fd5b506102e760048036038101906102e29190612bd6565b6109d6565b005b3480156102f557600080fd5b506102fe610a36565b60405161030b9190612c42565b60405180910390f35b34801561032057600080fd5b5061033b60048036038101906103369190612ab7565b610b29565b005b34801561034957600080fd5b50610352610baf565b60405161035f9190612b25565b60405180910390f35b610370610bd5565b005b34801561037e57600080fd5b50610387610ca1565b6040516103949190612bbb565b60405180910390f35b3480156103a957600080fd5b506103c460048036038101906103bf9190612bd6565b610ca7565b005b6103ce610cc7565b005b3480156103dc57600080fd5b506103e5610d66565b6040516103f29190612b25565b60405180910390f35b34801561040757600080fd5b50610422600480360381019061041d9190612d92565b610d8c565b005b34801561043057600080fd5b5061044b60048036038101906104469190612ab7565b610e22565b6040516104589190612b25565b60405180910390f35b34801561046d57600080fd5b5061048860048036038101906104839190612ddb565b610ed4565b6040516104959190612bbb565b60405180910390f35b3480156104aa57600080fd5b506104b3610f8c565b005b3480156104c157600080fd5b506104ca611014565b6040516104d79190612bbb565b60405180910390f35b3480156104ec57600080fd5b506104f5611025565b6040516105029190612b25565b60405180910390f35b34801561051757600080fd5b50610532600480360381019061052d9190612e34565b61104e565b005b34801561054057600080fd5b5061055b60048036038101906105569190612ab7565b6110ea565b60405161056b9493929190612e90565b60405180910390f35b34801561058057600080fd5b506105896111d7565b6040516105969190612a5f565b60405180910390f35b3480156105ab57600080fd5b506105b4611269565b6040516105c19190612bbb565b60405180910390f35b3480156105d657600080fd5b506105f160048036038101906105ec9190612f01565b61126f565b005b3480156105ff57600080fd5b5061061a60048036038101906106159190612fe2565b6113f0565b005b34801561062857600080fd5b50610643600480360381019061063e9190612ab7565b611452565b6040516106509190612a5f565b60405180910390f35b34801561066557600080fd5b50610680600480360381019061067b9190613065565b6114f9565b60405161068d91906129ab565b60405180910390f35b3480156106a257600080fd5b506106bd60048036038101906106b89190612ddb565b61158d565b005b60007f80ac58cd000000000000000000000000000000000000000000000000000000007bffffffffffffffffffffffffffffffffffffffffffffffffffffffff1916827bffffffffffffffffffffffffffffffffffffffffffffffffffffffff1916148061078a57507f5b5e139f000000000000000000000000000000000000000000000000000000007bffffffffffffffffffffffffffffffffffffffffffffffffffffffff1916827bffffffffffffffffffffffffffffffffffffffffffffffffffffffff1916145b8061079a57506107998261170c565b5b9050919050565b6060600180546107b0906130d4565b80601f01602080910402602001604051908101604052809291908181526020018280546107dc906130d4565b80156108295780601f106107fe57610100808354040283529160200191610829565b820191906000526020600020905b81548152906001019060200180831161080c57829003601f168201915b5050505050905090565b600061083e82611776565b61087d576040517f08c379a000000000000000000000000000000000000000000000000000000000815260040161087490613178565b60405180910390fd5b6005600083815260200190815260200160002060009054906101000a900473ffffffffffffffffffffffffffffffffffffffff169050919050565b60006108c382610e22565b90508073ffffffffffffffffffffffffffffffffffffffff168373ffffffffffffffffffffffffffffffffffffffff161415610934576040517f08c379a000000000000000000000000000000000000000000000000000000000815260040161092b9061320a565b60405180910390fd5b8073ffffffffffffffffffffffffffffffffffffffff166109536117e2565b73ffffffffffffffffffffffffffffffffffffffff16148061098257506109818161097c6117e2565b6114f9565b5b6109c1576040517f08c379a00000000000000000000000000000000000000000000000000000000081526004016109b89061329c565b60405180910390fd5b6109cb83836117ea565b505050565b600f5481565b6109e76109e16117e2565b826118a3565b610a26576040517f08c379a0000000000000000000000000000000000000000000000000000000008152600401610a1d9061332e565b60405180910390fd5b610a31838383611981565b505050565b6000600b547f000000000000000000000000000000000000000000000000000000000000000073ffffffffffffffffffffffffffffffffffffffff166370a08231306040518263ffffffff1660e01b8152600401610a949190612b25565b602060405180830381865afa158015610ab1573d6000803e3d6000fd5b505050506040513d601f19601f82011682018060405250810190610ad59190613363565b1015610b16576040517f08c379a0000000000000000000000000000000000000000000000000000000008152600401610b0d90613402565b60405180910390fd5b610b24600a54600b54611bdd565b905090565b610b316117e2565b73ffffffffffffffffffffffffffffffffffffffff16610b4f611025565b73ffffffffffffffffffffffffffffffffffffffff1614610ba5576040517f08c379a0000000000000000000000000000000000000000000000000000000008152600401610b9c9061346e565b60405180910390fd5b8060118190555050565b600d60009054906101000a900473ffffffffffffffffffffffffffffffffffffffff1681565b610bdd6117e2565b73ffffffffffffffffffffffffffffffffffffffff16610bfb611025565b73ffffffffffffffffffffffffffffffffffffffff1614610c51576040517f08c379a0000000000000000000000000000000000000000000000000000000008152600401610c489061346e565b60405180910390fd5b610c59611025565b73ffffffffffffffffffffffffffffffffffffffff166108fc479081150290604051600060405180830381858888f19350505050158015610c9e573d6000803e3d6000fd5b50565b600c5481565b610cc2838383604051806020016040528060008152506113f0565b505050565b6011543414610d0b576040517f08c379a0000000000000000000000000000000000000000000000000000000008152600401610d02906134da565b60405180910390fd5b610d13611d30565b50610d1c611025565b73ffffffffffffffffffffffffffffffffffffffff166108fc6011549081150290604051600060405180830381858888f19350505050158015610d63573d6000803e3d6000fd5b50565b600e60009054906101000a900473ffffffffffffffffffffffffffffffffffffffff1681565b610d946117e2565b73ffffffffffffffffffffffffffffffffffffffff16610db2611025565b73ffffffffffffffffffffffffffffffffffffffff1614610e08576040517f08c379a0000000000000000000000000000000000000000000000000000000008152600401610dff9061346e565b60405180910390fd5b8060109080519060200190610e1e929190612820565b5050565b6000806003600084815260200190815260200160002060009054906101000a900473ffffffffffffffffffffffffffffffffffffffff169050600073ffffffffffffffffffffffffffffffffffffffff168173ffffffffffffffffffffffffffffffffffffffff161415610ecb576040517f08c379a0000000000000000000000000000000000000000000000000000000008152600401610ec29061356c565b60405180910390fd5b80915050919050565b60008073ffffffffffffffffffffffffffffffffffffffff168273ffffffffffffffffffffffffffffffffffffffff161415610f45576040517f08c379a0000000000000000000000000000000000000000000000000000000008152600401610f3c906135fe565b60405180910390fd5b600460008373ffffffffffffffffffffffffffffffffffffffff1673ffffffffffffffffffffffffffffffffffffffff168152602001908152602001600020549050919050565b610f946117e2565b73ffffffffffffffffffffffffffffffffffffffff16610fb2611025565b73ffffffffffffffffffffffffffffffffffffffff1614611008576040517f08c379a0000000000000000000000000000000000000000000000000000000008152600401610fff9061346e565b60405180910390fd5b6110126000611e14565b565b60006110206008611685565b905090565b60008060009054906101000a900473ffffffffffffffffffffffffffffffffffffffff16905090565b7f000000000000000000000000000000000000000000000000000000000000000073ffffffffffffffffffffffffffffffffffffffff163373ffffffffffffffffffffffffffffffffffffffff16146110dc576040517f08c379a00000000000000000000000000000000000000000000000000000000081526004016110d39061366a565b60405180910390fd5b6110e68282611ed8565b5050565b6000806000806110f985611776565b611138576040517f08c379a000000000000000000000000000000000000000000000000000000000815260040161112f906136d6565b60405180910390fd5b6012600086815260200190815260200160002060000160009054906101000a900460ff166012600087815260200190815260200160002060000160019054906101000a900460ff166012600088815260200190815260200160002060000160029054906101000a900460ff166012600089815260200190815260200160002060000160039054906101000a900460ff1693509350935093509193509193565b6060600280546111e6906130d4565b80601f0160208091040260200160405190810160405280929190818152602001828054611212906130d4565b801561125f5780601f106112345761010080835404028352916020019161125f565b820191906000526020600020905b81548152906001019060200180831161124257829003601f168201915b5050505050905090565b60115481565b6112776117e2565b73ffffffffffffffffffffffffffffffffffffffff168273ffffffffffffffffffffffffffffffffffffffff1614156112e5576040517f08c379a00000000000000000000000000000000000000000000000000000000081526004016112dc90613742565b60405180910390fd5b80600660006112f26117e2565b73ffffffffffffffffffffffffffffffffffffffff1673ffffffffffffffffffffffffffffffffffffffff16815260200190815260200160002060008473ffffffffffffffffffffffffffffffffffffffff1673ffffffffffffffffffffffffffffffffffffffff16815260200190815260200160002060006101000a81548160ff0219169083151502179055508173ffffffffffffffffffffffffffffffffffffffff1661139f6117e2565b73ffffffffffffffffffffffffffffffffffffffff167f17307eab39ab6107e8899845ad3d59bd9653f200f220920489ca2b5937696c31836040516113e491906129ab565b60405180910390a35050565b6114016113fb6117e2565b836118a3565b611440576040517f08c379a00000000000000000000000000000000000000000000000000000000081526004016114379061332e565b60405180910390fd5b61144c84848484611f1a565b50505050565b606061145d82611776565b61149c576040517f08c379a0000000000000000000000000000000000000000000000000000000008152600401611493906137d4565b60405180910390fd5b60006114a6611f76565b905060008151116114c657604051806020016040528060008152506114f1565b806114d084612008565b6040516020016114e1929190613830565b6040516020818303038152906040525b915050919050565b6000600660008473ffffffffffffffffffffffffffffffffffffffff1673ffffffffffffffffffffffffffffffffffffffff16815260200190815260200160002060008373ffffffffffffffffffffffffffffffffffffffff1673ffffffffffffffffffffffffffffffffffffffff16815260200190815260200160002060009054906101000a900460ff16905092915050565b6115956117e2565b73ffffffffffffffffffffffffffffffffffffffff166115b3611025565b73ffffffffffffffffffffffffffffffffffffffff1614611609576040517f08c379a00000000000000000000000000000000000000000000000000000000081526004016116009061346e565b60405180910390fd5b600073ffffffffffffffffffffffffffffffffffffffff168173ffffffffffffffffffffffffffffffffffffffff161415611679576040517f08c379a0000000000000000000000000000000000000000000000000000000008152600401611670906138c6565b60405180910390fd5b61168281611e14565b50565b600081600001549050919050565b6001816000016000828254019250508190555050565b600060ff80168211156116f1576040517f08c379a00000000000000000000000000000000000000000000000000000000081526004016116e890613958565b60405180910390fd5b819050919050565b600080823b905060008111915050919050565b60007f01ffc9a7000000000000000000000000000000000000000000000000000000007bffffffffffffffffffffffffffffffffffffffffffffffffffffffff1916827bffffffffffffffffffffffffffffffffffffffffffffffffffffffff1916149050919050565b60008073ffffffffffffffffffffffffffffffffffffffff166003600084815260200190815260200160002060009054906101000a900473ffffffffffffffffffffffffffffffffffffffff1673ffffffffffffffffffffffffffffffffffffffff1614159050919050565b600033905090565b816005600083815260200190815260200160002060006101000a81548173ffffffffffffffffffffffffffffffffffffffff021916908373ffffffffffffffffffffffffffffffffffffffff160217905550808273ffffffffffffffffffffffffffffffffffffffff1661185d83610e22565b73ffffffffffffffffffffffffffffffffffffffff167f8c5be1e5ebec7d5bd14f71427d1e84f3dd0314c0f7b2291e5b200ac8c7c3b92560405160405180910390a45050565b60006118ae82611776565b6118ed576040517f08c379a00000000000000000000000000000000000000000000000000000000081526004016118e4906139ea565b60405180910390fd5b60006118f883610e22565b90508073ffffffffffffffffffffffffffffffffffffffff168473ffffffffffffffffffffffffffffffffffffffff16148061196757508373ffffffffffffffffffffffffffffffffffffffff1661194f84610833565b73ffffffffffffffffffffffffffffffffffffffff16145b80611978575061197781856114f9565b5b91505092915050565b8273ffffffffffffffffffffffffffffffffffffffff166119a182610e22565b73ffffffffffffffffffffffffffffffffffffffff16146119f7576040517f08c379a00000000000000000000000000000000000000000000000000000000081526004016119ee90613a7c565b60405180910390fd5b600073ffffffffffffffffffffffffffffffffffffffff168273ffffffffffffffffffffffffffffffffffffffff161415611a67576040517f08c379a0000000000000000000000000000000000000000000000000000000008152600401611a5e90613b0e565b60405180910390fd5b611a72838383612169565b611a7d6000826117ea565b6001600460008573ffffffffffffffffffffffffffffffffffffffff1673ffffffffffffffffffffffffffffffffffffffff1681526020019081526020016000206000828254611acd9190613b5d565b925050819055506001600460008473ffffffffffffffffffffffffffffffffffffffff1673ffffffffffffffffffffffffffffffffffffffff1681526020019081526020016000206000828254611b249190613b91565b92505081905550816003600083815260200190815260200160002060006101000a81548173ffffffffffffffffffffffffffffffffffffffff021916908373ffffffffffffffffffffffffffffffffffffffff160217905550808273ffffffffffffffffffffffffffffffffffffffff168473ffffffffffffffffffffffffffffffffffffffff167fddf252ad1be2c89b69c2b068fc378daa952ba7f163c4a11628f55a4df523b3ef60405160405180910390a4505050565b60007f000000000000000000000000000000000000000000000000000000000000000073ffffffffffffffffffffffffffffffffffffffff16634000aea07f000000000000000000000000000000000000000000000000000000000000000084866000604051602001611c51929190613be7565b6040516020818303038152906040526040518463ffffffff1660e01b8152600401611c7e93929190613c65565b6020604051808303816000875af1158015611c9d573d6000803e3d6000fd5b505050506040513d601f19601f82011682018060405250810190611cc19190613cb8565b506000611ce484600030600760008981526020019081526020016000205461216e565b905060016007600086815260200190815260200160002054611d069190613b91565b6007600086815260200190815260200160002081905550611d2784826121aa565b91505092915050565b6000600f54611d3f6008611685565b10611d4957600080fd5b611d536008611693565b6000611d5f6008611685565b9050611d696121dd565b6012600083815260200190815260200160002060008201518160000160006101000a81548160ff021916908360ff16021790555060208201518160000160016101000a81548160ff021916908360ff16021790555060408201518160000160026101000a81548160ff021916908360ff16021790555060608201518160000160036101000a81548160ff021916908360ff160217905550905050611e0d33826122d8565b8091505090565b60008060009054906101000a900473ffffffffffffffffffffffffffffffffffffffff169050816000806101000a81548173ffffffffffffffffffffffffffffffffffffffff021916908373ffffffffffffffffffffffffffffffffffffffff1602179055508173ffffffffffffffffffffffffffffffffffffffff168173ffffffffffffffffffffffffffffffffffffffff167f8be0079c531659141344cd1fd0a4f28419497f9722a3daafe3b4186f6b6457e060405160405180910390a35050565b7f3de5da58d7b33167e6aa24114c9d4575870f2b136747874f1e95b6636beb0b6d81604051611f079190612bbb565b60405180910390a180600c819055505050565b611f25848484611981565b611f31848484846122f6565b611f70576040517f08c379a0000000000000000000000000000000000000000000000000000000008152600401611f6790613d57565b60405180910390fd5b50505050565b606060108054611f85906130d4565b80601f0160208091040260200160405190810160405280929190818152602001828054611fb1906130d4565b8015611ffe5780601f10611fd357610100808354040283529160200191611ffe565b820191906000526020600020905b815481529060010190602001808311611fe157829003601f168201915b5050505050905090565b60606000821415612050576040518060400160405280600181526020017f30000000000000000000000000000000000000000000000000000000000000008152509050612164565b600082905060005b6000821461208257808061206b90613d77565b915050600a8261207b9190613def565b9150612058565b60008167ffffffffffffffff81111561209e5761209d612c67565b5b6040519080825280601f01601f1916602001820160405280156120d05781602001600182028036833780820191505090505b5090505b6000851461215d576001826120e99190613b5d565b9150600a856120f89190613e20565b60306121049190613b91565b60f81b81838151811061211a57612119613e51565b5b60200101907effffffffffffffffffffffffffffffffffffffffffffffffffffffffffffff1916908160001a905350600a856121569190613def565b94506120d4565b8093505050505b919050565b505050565b6000848484846040516020016121879493929190613e80565b6040516020818303038152906040528051906020012060001c9050949350505050565b600082826040516020016121bf929190613f07565b60405160208183030381529060405280519060200120905092915050565b6121e56128a6565b60008060008060005b6001156122a1576121fd61247e565b80945081955082965083975050505050838383836040516020016122249493929190613f69565b6040516020818303038152906040528051906020012060001c9450600115156013600087815260200190815260200160002060009054906101000a900460ff1615151461229c5760016013600087815260200190815260200160002060006101000a81548160ff0219169083151502179055506122a1565b6121ee565b60405180608001604052808560ff1681526020018460ff1681526020018360ff1681526020018260ff168152509550505050505090565b6122f28282604051806020016040528060008152506124b6565b5050565b60006123178473ffffffffffffffffffffffffffffffffffffffff166116f9565b15612471578373ffffffffffffffffffffffffffffffffffffffff1663150b7a026123406117e2565b8786866040518563ffffffff1660e01b81526004016123629493929190613fb7565b6020604051808303816000875af192505050801561239e57506040513d601f19601f8201168201806040525081019061239b9190614018565b60015b612421573d80600081146123ce576040519150601f19603f3d011682016040523d82523d6000602084013e6123d3565b606091505b50600081511415612419576040517f08c379a000000000000000000000000000000000000000000000000000000000815260040161241090613d57565b60405180910390fd5b805181602001fd5b63150b7a0260e01b7bffffffffffffffffffffffffffffffffffffffffffffffffffffffff1916817bffffffffffffffffffffffffffffffffffffffffffffffffffffffff191614915050612476565b600190505b949350505050565b60008060008061248c612511565b612494612511565b61249e60036125bc565b6124a860036125bc565b935093509350935090919293565b6124c083836125e3565b6124cd60008484846122f6565b61250c576040517f08c379a000000000000000000000000000000000000000000000000000000000815260040161250390613d57565b60405180910390fd5b505050565b60008061251c6127b1565b905060006103e882101561253357600790506125b4565b61177082101561254657600690506125b3565b613e8082101561255957600590506125b2565b620101d082101561256d57600490506125b1565b6202887082101561258157600390506125b0565b620595b082101561259557600290506125af565b620a29908210156125a957600190506125ae565b600090505b5b5b5b5b5b5b809250505090565b60006125dc8260ff166125cd6127b1565b6125d79190613e20565b6116a9565b9050919050565b600073ffffffffffffffffffffffffffffffffffffffff168273ffffffffffffffffffffffffffffffffffffffff161415612653576040517f08c379a000000000000000000000000000000000000000000000000000000000815260040161264a90614091565b60405180910390fd5b61265c81611776565b1561269c576040517f08c379a0000000000000000000000000000000000000000000000000000000008152600401612693906140fd565b60405180910390fd5b6126a860008383612169565b6001600460008473ffffffffffffffffffffffffffffffffffffffff1673ffffffffffffffffffffffffffffffffffffffff16815260200190815260200160002060008282546126f89190613b91565b92505081905550816003600083815260200190815260200160002060006101000a81548173ffffffffffffffffffffffffffffffffffffffff021916908373ffffffffffffffffffffffffffffffffffffffff160217905550808273ffffffffffffffffffffffffffffffffffffffff16600073ffffffffffffffffffffffffffffffffffffffff167fddf252ad1be2c89b69c2b068fc378daa952ba7f163c4a11628f55a4df523b3ef60405160405180910390a45050565b60006127bd6009611693565b600044426127cb6008611685565b336127d66009611685565b6040516020016127ea959493929190614165565b60405160208183030381529060405290506000818051906020012060001c9050620f4240816128199190613e20565b9250505090565b82805461282c906130d4565b90600052602060002090601f01602090048101928261284e5760008555612895565b82601f1061286757805160ff1916838001178555612895565b82800160010185558215612895579182015b82811115612894578251825591602001919060010190612879565b5b5090506128a291906128da565b5090565b6040518060800160405280600060ff168152602001600060ff168152602001600060ff168152602001600060ff1681525090565b5b808211156128f35760008160009055506001016128db565b5090565b6000604051905090565b600080fd5b600080fd5b60007fffffffff0000000000000000000000000000000000000000000000000000000082169050919050565b6129408161290b565b811461294b57600080fd5b50565b60008135905061295d81612937565b92915050565b60006020828403121561297957612978612901565b5b60006129878482850161294e565b91505092915050565b60008115159050919050565b6129a581612990565b82525050565b60006020820190506129c0600083018461299c565b92915050565b600081519050919050565b600082825260208201905092915050565b60005b83811015612a005780820151818401526020810190506129e5565b83811115612a0f576000848401525b50505050565b6000601f19601f8301169050919050565b6000612a31826129c6565b612a3b81856129d1565b9350612a4b8185602086016129e2565b612a5481612a15565b840191505092915050565b60006020820190508181036000830152612a798184612a26565b905092915050565b6000819050919050565b612a9481612a81565b8114612a9f57600080fd5b50565b600081359050612ab181612a8b565b92915050565b600060208284031215612acd57612acc612901565b5b6000612adb84828501612aa2565b91505092915050565b600073ffffffffffffffffffffffffffffffffffffffff82169050919050565b6000612b0f82612ae4565b9050919050565b612b1f81612b04565b82525050565b6000602082019050612b3a6000830184612b16565b92915050565b612b4981612b04565b8114612b5457600080fd5b50565b600081359050612b6681612b40565b92915050565b60008060408385031215612b8357612b82612901565b5b6000612b9185828601612b57565b9250506020612ba285828601612aa2565b9150509250929050565b612bb581612a81565b82525050565b6000602082019050612bd06000830184612bac565b92915050565b600080600060608486031215612bef57612bee612901565b5b6000612bfd86828701612b57565b9350506020612c0e86828701612b57565b9250506040612c1f86828701612aa2565b9150509250925092565b6000819050919050565b612c3c81612c29565b82525050565b6000602082019050612c576000830184612c33565b92915050565b600080fd5b600080fd5b7f4e487b7100000000000000000000000000000000000000000000000000000000600052604160045260246000fd5b612c9f82612a15565b810181811067ffffffffffffffff82111715612cbe57612cbd612c67565b5b80604052505050565b6000612cd16128f7565b9050612cdd8282612c96565b919050565b600067ffffffffffffffff821115612cfd57612cfc612c67565b5b612d0682612a15565b9050602081019050919050565b82818337600083830152505050565b6000612d35612d3084612ce2565b612cc7565b905082815260208101848484011115612d5157612d50612c62565b5b612d5c848285612d13565b509392505050565b600082601f830112612d7957612d78612c5d565b5b8135612d89848260208601612d22565b91505092915050565b600060208284031215612da857612da7612901565b5b600082013567ffffffffffffffff811115612dc657612dc5612906565b5b612dd284828501612d64565b91505092915050565b600060208284031215612df157612df0612901565b5b6000612dff84828501612b57565b91505092915050565b612e1181612c29565b8114612e1c57600080fd5b50565b600081359050612e2e81612e08565b92915050565b60008060408385031215612e4b57612e4a612901565b5b6000612e5985828601612e1f565b9250506020612e6a85828601612aa2565b9150509250929050565b600060ff82169050919050565b612e8a81612e74565b82525050565b6000608082019050612ea56000830187612e81565b612eb26020830186612e81565b612ebf6040830185612e81565b612ecc6060830184612e81565b95945050505050565b612ede81612990565b8114612ee957600080fd5b50565b600081359050612efb81612ed5565b92915050565b60008060408385031215612f1857612f17612901565b5b6000612f2685828601612b57565b9250506020612f3785828601612eec565b9150509250929050565b600067ffffffffffffffff821115612f5c57612f5b612c67565b5b612f6582612a15565b9050602081019050919050565b6000612f85612f8084612f41565b612cc7565b905082815260208101848484011115612fa157612fa0612c62565b5b612fac848285612d13565b509392505050565b600082601f830112612fc957612fc8612c5d565b5b8135612fd9848260208601612f72565b91505092915050565b60008060008060808587031215612ffc57612ffb612901565b5b600061300a87828801612b57565b945050602061301b87828801612b57565b935050604061302c87828801612aa2565b925050606085013567ffffffffffffffff81111561304d5761304c612906565b5b61305987828801612fb4565b91505092959194509250565b6000806040838503121561307c5761307b612901565b5b600061308a85828601612b57565b925050602061309b85828601612b57565b9150509250929050565b7f4e487b7100000000000000000000000000000000000000000000000000000000600052602260045260246000fd5b600060028204905060018216806130ec57607f821691505b60208210811415613100576130ff6130a5565b5b50919050565b7f4552433732313a20617070726f76656420717565727920666f72206e6f6e657860008201527f697374656e7420746f6b656e0000000000000000000000000000000000000000602082015250565b6000613162602c836129d1565b915061316d82613106565b604082019050919050565b6000602082019050818103600083015261319181613155565b9050919050565b7f4552433732313a20617070726f76616c20746f2063757272656e74206f776e6560008201527f7200000000000000000000000000000000000000000000000000000000000000602082015250565b60006131f46021836129d1565b91506131ff82613198565b604082019050919050565b60006020820190508181036000830152613223816131e7565b9050919050565b7f4552433732313a20617070726f76652063616c6c6572206973206e6f74206f7760008201527f6e6572206e6f7220617070726f76656420666f7220616c6c0000000000000000602082015250565b60006132866038836129d1565b91506132918261322a565b604082019050919050565b600060208201905081810360008301526132b581613279565b9050919050565b7f4552433732313a207472616e736665722063616c6c6572206973206e6f74206f60008201527f776e6572206e6f7220617070726f766564000000000000000000000000000000602082015250565b60006133186031836129d1565b9150613323826132bc565b604082019050919050565b600060208201905081810360008301526133478161330b565b9050919050565b60008151905061335d81612a8b565b92915050565b60006020828403121561337957613378612901565b5b60006133878482850161334e565b91505092915050565b7f4e6f7420656e6f756768204c494e4b202d2066696c6c20636f6e74726163742060008201527f7769746820666175636574000000000000000000000000000000000000000000602082015250565b60006133ec602b836129d1565b91506133f782613390565b604082019050919050565b6000602082019050818103600083015261341b816133df565b9050919050565b7f4f776e61626c653a2063616c6c6572206973206e6f7420746865206f776e6572600082015250565b60006134586020836129d1565b915061346382613422565b602082019050919050565b600060208201905081810360008301526134878161344b565b9050919050565b7f436c61696d696e672061204e465420636f737473206574686572000000000000600082015250565b60006134c4601a836129d1565b91506134cf8261348e565b602082019050919050565b600060208201905081810360008301526134f3816134b7565b9050919050565b7f4552433732313a206f776e657220717565727920666f72206e6f6e657869737460008201527f656e7420746f6b656e0000000000000000000000000000000000000000000000602082015250565b60006135566029836129d1565b9150613561826134fa565b604082019050919050565b6000602082019050818103600083015261358581613549565b9050919050565b7f4552433732313a2062616c616e636520717565727920666f7220746865207a6560008201527f726f206164647265737300000000000000000000000000000000000000000000602082015250565b60006135e8602a836129d1565b91506135f38261358c565b604082019050919050565b60006020820190508181036000830152613617816135db565b9050919050565b7f4f6e6c7920565246436f6f7264696e61746f722063616e2066756c66696c6c00600082015250565b6000613654601f836129d1565b915061365f8261361e565b602082019050919050565b6000602082019050818103600083015261368381613647565b9050919050565b7f546f6b656e206e6f74206d696e74656420796574000000000000000000000000600082015250565b60006136c06014836129d1565b91506136cb8261368a565b602082019050919050565b600060208201905081810360008301526136ef816136b3565b9050919050565b7f4552433732313a20617070726f766520746f2063616c6c657200000000000000600082015250565b600061372c6019836129d1565b9150613737826136f6565b602082019050919050565b6000602082019050818103600083015261375b8161371f565b9050919050565b7f4552433732314d657461646174613a2055524920717565727920666f72206e6f60008201527f6e6578697374656e7420746f6b656e0000000000000000000000000000000000602082015250565b60006137be602f836129d1565b91506137c982613762565b604082019050919050565b600060208201905081810360008301526137ed816137b1565b9050919050565b600081905092915050565b600061380a826129c6565b61381481856137f4565b93506138248185602086016129e2565b80840191505092915050565b600061383c82856137ff565b915061384882846137ff565b91508190509392505050565b7f4f776e61626c653a206e6577206f776e657220697320746865207a65726f206160008201527f6464726573730000000000000000000000000000000000000000000000000000602082015250565b60006138b06026836129d1565b91506138bb82613854565b604082019050919050565b600060208201905081810360008301526138df816138a3565b9050919050565b7f53616665436173743a2076616c756520646f65736e27742066697420696e203860008201527f2062697473000000000000000000000000000000000000000000000000000000602082015250565b60006139426025836129d1565b915061394d826138e6565b604082019050919050565b6000602082019050818103600083015261397181613935565b9050919050565b7f4552433732313a206f70657261746f7220717565727920666f72206e6f6e657860008201527f697374656e7420746f6b656e0000000000000000000000000000000000000000602082015250565b60006139d4602c836129d1565b91506139df82613978565b604082019050919050565b60006020820190508181036000830152613a03816139c7565b9050919050565b7f4552433732313a207472616e73666572206f6620746f6b656e2074686174206960008201527f73206e6f74206f776e0000000000000000000000000000000000000000000000602082015250565b6000613a666029836129d1565b9150613a7182613a0a565b604082019050919050565b60006020820190508181036000830152613a9581613a59565b9050919050565b7f4552433732313a207472616e7366657220746f20746865207a65726f2061646460008201527f7265737300000000000000000000000000000000000000000000000000000000602082015250565b6000613af86024836129d1565b9150613b0382613a9c565b604082019050919050565b60006020820190508181036000830152613b2781613aeb565b9050919050565b7f4e487b7100000000000000000000000000000000000000000000000000000000600052601160045260246000fd5b6000613b6882612a81565b9150613b7383612a81565b925082821015613b8657613b85613b2e565b5b828203905092915050565b6000613b9c82612a81565b9150613ba783612a81565b9250827fffffffffffffffffffffffffffffffffffffffffffffffffffffffffffffffff03821115613bdc57613bdb613b2e565b5b828201905092915050565b6000604082019050613bfc6000830185612c33565b613c096020830184612bac565b9392505050565b600081519050919050565b600082825260208201905092915050565b6000613c3782613c10565b613c418185613c1b565b9350613c518185602086016129e2565b613c5a81612a15565b840191505092915050565b6000606082019050613c7a6000830186612b16565b613c876020830185612bac565b8181036040830152613c998184613c2c565b9050949350505050565b600081519050613cb281612ed5565b92915050565b600060208284031215613cce57613ccd612901565b5b6000613cdc84828501613ca3565b91505092915050565b7f4552433732313a207472616e7366657220746f206e6f6e20455243373231526560008201527f63656976657220696d706c656d656e7465720000000000000000000000000000602082015250565b6000613d416032836129d1565b9150613d4c82613ce5565b604082019050919050565b60006020820190508181036000830152613d7081613d34565b9050919050565b6000613d8282612a81565b91507fffffffffffffffffffffffffffffffffffffffffffffffffffffffffffffffff821415613db557613db4613b2e565b5b600182019050919050565b7f4e487b7100000000000000000000000000000000000000000000000000000000600052601260045260246000fd5b6000613dfa82612a81565b9150613e0583612a81565b925082613e1557613e14613dc0565b5b828204905092915050565b6000613e2b82612a81565b9150613e3683612a81565b925082613e4657613e45613dc0565b5b828206905092915050565b7f4e487b7100000000000000000000000000000000000000000000000000000000600052603260045260246000fd5b6000608082019050613e956000830187612c33565b613ea26020830186612bac565b613eaf6040830185612b16565b613ebc6060830184612bac565b95945050505050565b6000819050919050565b613ee0613edb82612c29565b613ec5565b82525050565b6000819050919050565b613f01613efc82612a81565b613ee6565b82525050565b6000613f138285613ecf565b602082019150613f238284613ef0565b6020820191508190509392505050565b60008160f81b9050919050565b6000613f4b82613f33565b9050919050565b613f63613f5e82612e74565b613f40565b82525050565b6000613f758287613f52565b600182019150613f858286613f52565b600182019150613f958285613f52565b600182019150613fa58284613f52565b60018201915081905095945050505050565b6000608082019050613fcc6000830187612b16565b613fd96020830186612b16565b613fe66040830185612bac565b8181036060830152613ff88184613c2c565b905095945050505050565b60008151905061401281612937565b92915050565b60006020828403121561402e5761402d612901565b5b600061403c84828501614003565b91505092915050565b7f4552433732313a206d696e7420746f20746865207a65726f2061646472657373600082015250565b600061407b6020836129d1565b915061408682614045565b602082019050919050565b600060208201905081810360008301526140aa8161406e565b9050919050565b7f4552433732313a20746f6b656e20616c7265616479206d696e74656400000000600082015250565b60006140e7601c836129d1565b91506140f2826140b1565b602082019050919050565b60006020820190508181036000830152614116816140da565b9050919050565b60008160601b9050919050565b60006141358261411d565b9050919050565b60006141478261412a565b9050919050565b61415f61415a82612b04565b61413c565b82525050565b60006141718288613ef0565b6020820191506141818287613ef0565b6020820191506141918286613ef0565b6020820191506141a1828561414e565b6014820191506141b18284613ef0565b602082019150819050969550505050505056fea26469706673582212205505926e88d5100c1a92f47641f5175f8700dc476dfb33c27432028f20065f6d64736f6c634300080a0033",
  "immutableReferences": {
    "73": [
      {
        "length": 32,
        "start": 2621
      },
      {
        "length": 32,
        "start": 7137
      }
    ],
    "75": [
      {
        "length": 32,
        "start": 4176
      },
      {
        "length": 32,
        "start": 7197
      }
    ]
  },
  "source": "// SPDX-License-Identifier: MIT\n\npragma solidity >=0.8.3 <0.9.0;\n\nimport \"@openzeppelin/contracts/access/Ownable.sol\";\nimport \"@openzeppelin/contracts/token/ERC721/ERC721.sol\";\nimport \"@openzeppelin/contracts/utils/Counters.sol\";\nimport \"@openzeppelin/contracts/utils/math/SafeMath.sol\";\nimport \"@openzeppelin/contracts/utils/math/SafeCast.sol\";\nimport \"@chainlink/contracts/src/v0.8/VRFConsumerBase.sol\";\n\nimport \"./SafeMath8.sol\";\n\n/// @title The main CryptoDicks ERC721 smart contract.\n/// @author juliencrn\n/// @dev Work in progress, not production ready yet.\ncontract CryptoDicks is Ownable, ERC721, VRFConsumerBase {\n    // Libs\n    using Counters for Counters.Counter;\n    using SafeMath for uint256;\n    using SafeMath8 for uint8;\n    using SafeCast for uint256;\n\n    Counters.Counter internal _currentSupply;\n    Counters.Counter internal _randomNonce;\n\n    // Variable to have a random number from Chainlink\n    bytes32 internal keyHash;\n    uint256 internal fee;\n    uint256 public randomResult;\n    // rinkeby: 0xb3dCcb4Cf7a26f6cf6B120Cf5A73875B7BBc655B\n    address public VRFCoordinator;\n    // rinkeby: 0x01BE23585060835E02B77ef475b0Cc51aA1e0709a\n    address public LinkToken;\n\n    // Contract settings\n    uint256 public totalSupply = 10_000;\n    string internal _currentBaseURI = \"http://localhost:5000/\";\n    uint256 public claimFee = 0.01 ether;\n\n    // NFT properties\n    struct Metadata {\n        uint8 background;\n        uint8 skin;\n        uint8 hat;\n        uint8 eye;\n    }\n\n    // Mapping token ID to Metadata\n    mapping(uint256 => Metadata) idToMetadata;\n\n    // Mapping metadata dna to boolean\n    mapping(uint256 => bool) private _dnaExists;\n\n    // dev purpose\n    // TODO: Remove\n    event ReceiveRandom(uint256 randomNumber);\n\n    // Mapping user address with random number\n    // mapping(address => uint256) public userToRandomNumber;\n\n    /**\n     * Constructor inherits VRFConsumerBase\n     *\n     * Network: Rinkeby\n     * Chainlink VRF Coordinator address: 0xb3dCcb4Cf7a26f6cf6B120Cf5A73875B7BBc655B\n     * LINK token address:                0x01BE23585060835E02B77ef475b0Cc51aA1e0709\n     * Key Hash: 0x2ed0feb3e7fd2022120aa84fab1945545a9f2ffc9076fd6156fa96eaff4c1311\n     */\n    constructor(\n        address _VRFCoordinator,\n        address _LinkToken,\n        bytes32 _keyhash\n    )\n        VRFConsumerBase(_VRFCoordinator, _LinkToken)\n        ERC721(\"CryptoDicks\", \"DICK\")\n    {\n        // Chainlink stuff\n        VRFCoordinator = _VRFCoordinator;\n        LinkToken = _LinkToken;\n        keyHash = _keyhash;\n        fee = 0.1 * 10**18; // 0.1 LINK\n\n        // Mint my own NFT tokens.\n        for (uint256 i = 0; i < 10; i++) {\n            mint();\n        }\n    }\n\n    function requestNewRandomNumber()\n        public\n        returns (\n            // uint256 userProvidedSeed,\n            // string memory name\n            bytes32\n        )\n    {\n        require(\n            LINK.balanceOf(address(this)) >= fee,\n            \"Not enough LINK - fill contract with faucet\"\n        );\n        return requestRandomness(keyHash, fee);\n    }\n\n    function fulfillRandomness(bytes32 _requestId, uint256 _randomNumber)\n        internal\n        override\n    {\n        emit ReceiveRandom(_randomNumber);\n        randomResult = _randomNumber;\n    }\n\n    /// Allow user to mint a token\n    /// @dev takes fees then calls mint() internally.\n    function claim() external payable {\n        require(msg.value == claimFee, \"Claiming a NFT costs ether\");\n\n        mint();\n\n        // Give ether to the contract owner\n        payable(owner()).transfer(claimFee);\n    }\n\n    /// Mint a new NFT\n    /// @return Created token id\n    function mint() internal returns (uint256) {\n        require(_currentSupply.current() < totalSupply);\n\n        // Increment the token supply.\n        _currentSupply.increment();\n        uint256 newTokenId = _currentSupply.current();\n\n        // Generate and save metadata\n        idToMetadata[newTokenId] = _createUniqueNFT();\n\n        // Finally, mint!\n        _safeMint(msg.sender, newTokenId);\n\n        return newTokenId;\n    }\n\n    /// Return the good baseURI overriding the ERC721 method\n    function _baseURI() internal view virtual override returns (string memory) {\n        return _currentBaseURI;\n    }\n\n    /// Allow owner to set new baseURI\n    function setBaseURI(string memory _baseUri) public onlyOwner {\n        _currentBaseURI = _baseUri;\n    }\n\n    /// Allow owner to set new mint fee price, ether price will change.\n    function setClaimFee(uint256 _newPrice) external onlyOwner {\n        claimFee = _newPrice;\n    }\n\n    /// Allow owner to withdraw contract balance.\n    /// @dev Ether are stored in the contract when \"payable->transfer\" is invoked.\n    /// TODO Add unit test\n    function withdraw() external payable onlyOwner {\n        payable(owner()).transfer(address(this).balance);\n    }\n\n    /// For a a given token ID, returns its metadata\n    function get(uint256 _tokenId)\n        external\n        view\n        returns (\n            uint8,\n            uint8,\n            uint8,\n            uint8\n        )\n    {\n        require(_exists(_tokenId), \"Token not minted yet\");\n        return (\n            idToMetadata[_tokenId].background,\n            idToMetadata[_tokenId].skin,\n            idToMetadata[_tokenId].hat,\n            idToMetadata[_tokenId].eye\n        );\n    }\n\n    /// @return the current supply\n    function currentSupply() external view returns (uint256) {\n        return _currentSupply.current();\n    }\n\n    ////////////////////////////////////////////////////////////\n    // Random and Rarity algos\n    ////////////////////////////////////////////////////////////\n\n    /// Create unique metadata combination\n    /// TODO: Test algos part\n    /// @dev this function is the algo part entry point\n    /// @dev exec a infinite loop\n    /// @dev check and mute the _dnaExists mapping\n    /// @return Metadata\n    function _createUniqueNFT() internal returns (Metadata memory) {\n        uint256 dna;\n        uint8 background;\n        uint8 skin;\n        uint8 hat;\n        uint8 eye;\n\n        while (true) {\n            // Generate random metadata\n            (background, skin, hat, eye) = _generateRandomMetadata();\n\n            // Calc the dna\n            dna = uint256(\n                keccak256(abi.encodePacked(background, skin, hat, eye))\n            );\n\n            // If the new dna is unique, save it and leave the loop\n            if (_dnaExists[dna] != true) {\n                _dnaExists[dna] = true;\n                break;\n            }\n        }\n\n        return Metadata(background, skin, hat, eye);\n    }\n\n    /// Generate a random number\n    /// @dev random isn't perfect in Solidity, use Oracle in better approch.\n    /// @return uint256 0-999_999\n    function _getRandomNumber() internal returns (uint256) {\n        _randomNonce.increment();\n\n        bytes memory encoded2 = abi.encodePacked(\n            block.difficulty,\n            block.timestamp,\n            _currentSupply.current(),\n            msg.sender,\n            _randomNonce.current()\n        );\n        uint256 rand = uint256(keccak256(encoded2));\n        return rand % 1_000_000;\n    }\n\n    /// Just generate a Metadata and returns its entries\n    /// @dev contains config per metadata attributes\n    function _generateRandomMetadata()\n        internal\n        returns (\n            uint8,\n            uint8,\n            uint8,\n            uint8\n        )\n    {\n        return (\n            _randomWithRarety(),\n            _randomWithRarety(),\n            _randomUntil(3),\n            _randomUntil(3)\n        );\n    }\n\n    /// @return random uint8 between 0-n with rarety level\n    function _randomUntil(uint8 _optionsCount) internal returns (uint8) {\n        return (_getRandomNumber() % _optionsCount).toUint8();\n    }\n\n    /// @return random uint8 between 0-7 with rarety level\n    function _randomWithRarety() internal returns (uint8) {\n        uint256 rand = _getRandomNumber();\n        uint8 result;\n\n        if (rand < 1_000) {\n            result = 7; // 0.1%\n        } else if (rand < 6_000) {\n            result = 6; // 0.5%\n        } else if (rand < 16_000) {\n            result = 5; // 1%\n        } else if (rand < 66_000) {\n            result = 4; // 5%\n        } else if (rand < 166_000) {\n            result = 3; // 10%\n        } else if (rand < 366_000) {\n            result = 2; // 20%\n        } else if (rand < 666_000) {\n            result = 1; // 30%\n        } else {\n            result = 0;\n        }\n\n        return result;\n    }\n}\n",
  "sourcePath": "/Users/juliencaron/www/ntf/ntf-collectible/contracts/CryptoDicks.sol",
  "compiler": {
    "name": "solc",
    "version": "0.8.10+commit.fc410830.Emscripten.clang"
  },
  "schemaVersion": "3.4.3",
  "updatedAt": "2021-11-30T00:37:42.115Z",
  "networkType": "ethereum",
  "devdoc": {
    "author": "juliencrn",
    "details": "Work in progress, not production ready yet.",
    "kind": "dev",
    "methods": {
      "approve(address,uint256)": {
        "details": "See {IERC721-approve}."
      },
      "balanceOf(address)": {
        "details": "See {IERC721-balanceOf}."
      },
      "claim()": {
        "details": "takes fees then calls mint() internally."
      },
      "currentSupply()": {
        "returns": {
          "_0": "the current supply"
        }
      },
      "getApproved(uint256)": {
        "details": "See {IERC721-getApproved}."
      },
      "isApprovedForAll(address,address)": {
        "details": "See {IERC721-isApprovedForAll}."
      },
      "name()": {
        "details": "See {IERC721Metadata-name}."
      },
      "owner()": {
        "details": "Returns the address of the current owner."
      },
      "ownerOf(uint256)": {
        "details": "See {IERC721-ownerOf}."
      },
      "renounceOwnership()": {
        "details": "Leaves the contract without owner. It will not be possible to call `onlyOwner` functions anymore. Can only be called by the current owner. NOTE: Renouncing ownership will leave the contract without an owner, thereby removing any functionality that is only available to the owner."
      },
      "safeTransferFrom(address,address,uint256)": {
        "details": "See {IERC721-safeTransferFrom}."
      },
      "safeTransferFrom(address,address,uint256,bytes)": {
        "details": "See {IERC721-safeTransferFrom}."
      },
      "setApprovalForAll(address,bool)": {
        "details": "See {IERC721-setApprovalForAll}."
      },
      "supportsInterface(bytes4)": {
        "details": "See {IERC165-supportsInterface}."
      },
      "symbol()": {
        "details": "See {IERC721Metadata-symbol}."
      },
      "tokenURI(uint256)": {
        "details": "See {IERC721Metadata-tokenURI}."
      },
      "transferFrom(address,address,uint256)": {
        "details": "See {IERC721-transferFrom}."
      },
      "transferOwnership(address)": {
        "details": "Transfers ownership of the contract to a new account (`newOwner`). Can only be called by the current owner."
      },
      "withdraw()": {
        "details": "Ether are stored in the contract when \"payable->transfer\" is invoked. TODO Add unit test"
      }
    },
    "title": "The main CryptoDicks ERC721 smart contract.",
    "version": 1
  },
  "userdoc": {
    "kind": "user",
    "methods": {
      "claim()": {
        "notice": "Allow user to mint a token"
      },
      "constructor": {
        "notice": "Constructor inherits VRFConsumerBase Network: Rinkeby Chainlink VRF Coordinator address: 0xb3dCcb4Cf7a26f6cf6B120Cf5A73875B7BBc655B LINK token address:                0x01BE23585060835E02B77ef475b0Cc51aA1e0709 Key Hash: 0x2ed0feb3e7fd2022120aa84fab1945545a9f2ffc9076fd6156fa96eaff4c1311"
      },
      "get(uint256)": {
        "notice": "For a a given token ID, returns its metadata"
      },
      "setBaseURI(string)": {
        "notice": "Allow owner to set new baseURI"
      },
      "setClaimFee(uint256)": {
        "notice": "Allow owner to set new mint fee price, ether price will change."
      },
      "withdraw()": {
        "notice": "Allow owner to withdraw contract balance."
      }
    },
    "version": 1
  }
}