{
  "contractName": "CryptoDicksHelper",
  "abi": [
    {
      "anonymous": false,
      "inputs": [
        {
          "indexed": true,
          "internalType": "address",
          "name": "owner",
          "type": "address"
        },
        {
          "indexed": true,
          "internalType": "address",
          "name": "approved",
          "type": "address"
        },
        {
          "indexed": true,
          "internalType": "uint256",
          "name": "tokenId",
          "type": "uint256"
        }
      ],
      "name": "Approval",
      "type": "event"
    },
    {
      "anonymous": false,
      "inputs": [
        {
          "indexed": true,
          "internalType": "address",
          "name": "owner",
          "type": "address"
        },
        {
          "indexed": true,
          "internalType": "address",
          "name": "operator",
          "type": "address"
        },
        {
          "indexed": false,
          "internalType": "bool",
          "name": "approved",
          "type": "bool"
        }
      ],
      "name": "ApprovalForAll",
      "type": "event"
    },
    {
      "anonymous": false,
      "inputs": [
        {
          "indexed": true,
          "internalType": "address",
          "name": "previousOwner",
          "type": "address"
        },
        {
          "indexed": true,
          "internalType": "address",
          "name": "newOwner",
          "type": "address"
        }
      ],
      "name": "OwnershipTransferred",
      "type": "event"
    },
    {
      "anonymous": false,
      "inputs": [
        {
          "indexed": true,
          "internalType": "address",
          "name": "from",
          "type": "address"
        },
        {
          "indexed": true,
          "internalType": "address",
          "name": "to",
          "type": "address"
        },
        {
          "indexed": true,
          "internalType": "uint256",
          "name": "tokenId",
          "type": "uint256"
        }
      ],
      "name": "Transfer",
      "type": "event"
    },
    {
      "inputs": [
        {
          "internalType": "address",
          "name": "to",
          "type": "address"
        },
        {
          "internalType": "uint256",
          "name": "tokenId",
          "type": "uint256"
        }
      ],
      "name": "approve",
      "outputs": [],
      "stateMutability": "nonpayable",
      "type": "function"
    },
    {
      "inputs": [
        {
          "internalType": "address",
          "name": "owner",
          "type": "address"
        }
      ],
      "name": "balanceOf",
      "outputs": [
        {
          "internalType": "uint256",
          "name": "",
          "type": "uint256"
        }
      ],
      "stateMutability": "view",
      "type": "function"
    },
    {
      "inputs": [],
      "name": "claim",
      "outputs": [],
      "stateMutability": "payable",
      "type": "function"
    },
    {
      "inputs": [],
      "name": "claimFee",
      "outputs": [
        {
          "internalType": "uint256",
          "name": "",
          "type": "uint256"
        }
      ],
      "stateMutability": "view",
      "type": "function"
    },
    {
      "inputs": [],
      "name": "currentSupply",
      "outputs": [
        {
          "internalType": "uint256",
          "name": "",
          "type": "uint256"
        }
      ],
      "stateMutability": "view",
      "type": "function"
    },
    {
      "inputs": [
        {
          "internalType": "uint256",
          "name": "_tokenId",
          "type": "uint256"
        }
      ],
      "name": "get",
      "outputs": [
        {
          "internalType": "uint8",
          "name": "bgColor",
          "type": "uint8"
        },
        {
          "internalType": "uint8",
          "name": "dickColor",
          "type": "uint8"
        },
        {
          "internalType": "uint8",
          "name": "hat",
          "type": "uint8"
        },
        {
          "internalType": "uint8",
          "name": "clothe",
          "type": "uint8"
        },
        {
          "internalType": "uint8",
          "name": "skin",
          "type": "uint8"
        }
      ],
      "stateMutability": "view",
      "type": "function"
    },
    {
      "inputs": [
        {
          "internalType": "uint256",
          "name": "tokenId",
          "type": "uint256"
        }
      ],
      "name": "getApproved",
      "outputs": [
        {
          "internalType": "address",
          "name": "",
          "type": "address"
        }
      ],
      "stateMutability": "view",
      "type": "function"
    },
    {
      "inputs": [
        {
          "internalType": "address",
          "name": "owner",
          "type": "address"
        },
        {
          "internalType": "address",
          "name": "operator",
          "type": "address"
        }
      ],
      "name": "isApprovedForAll",
      "outputs": [
        {
          "internalType": "bool",
          "name": "",
          "type": "bool"
        }
      ],
      "stateMutability": "view",
      "type": "function"
    },
    {
      "inputs": [],
      "name": "name",
      "outputs": [
        {
          "internalType": "string",
          "name": "",
          "type": "string"
        }
      ],
      "stateMutability": "view",
      "type": "function"
    },
    {
      "inputs": [],
      "name": "owner",
      "outputs": [
        {
          "internalType": "address",
          "name": "",
          "type": "address"
        }
      ],
      "stateMutability": "view",
      "type": "function"
    },
    {
      "inputs": [
        {
          "internalType": "uint256",
          "name": "tokenId",
          "type": "uint256"
        }
      ],
      "name": "ownerOf",
      "outputs": [
        {
          "internalType": "address",
          "name": "",
          "type": "address"
        }
      ],
      "stateMutability": "view",
      "type": "function"
    },
    {
      "inputs": [],
      "name": "renounceOwnership",
      "outputs": [],
      "stateMutability": "nonpayable",
      "type": "function"
    },
    {
      "inputs": [
        {
          "internalType": "address",
          "name": "from",
          "type": "address"
        },
        {
          "internalType": "address",
          "name": "to",
          "type": "address"
        },
        {
          "internalType": "uint256",
          "name": "tokenId",
          "type": "uint256"
        }
      ],
      "name": "safeTransferFrom",
      "outputs": [],
      "stateMutability": "nonpayable",
      "type": "function"
    },
    {
      "inputs": [
        {
          "internalType": "address",
          "name": "from",
          "type": "address"
        },
        {
          "internalType": "address",
          "name": "to",
          "type": "address"
        },
        {
          "internalType": "uint256",
          "name": "tokenId",
          "type": "uint256"
        },
        {
          "internalType": "bytes",
          "name": "_data",
          "type": "bytes"
        }
      ],
      "name": "safeTransferFrom",
      "outputs": [],
      "stateMutability": "nonpayable",
      "type": "function"
    },
    {
      "inputs": [
        {
          "internalType": "address",
          "name": "operator",
          "type": "address"
        },
        {
          "internalType": "bool",
          "name": "approved",
          "type": "bool"
        }
      ],
      "name": "setApprovalForAll",
      "outputs": [],
      "stateMutability": "nonpayable",
      "type": "function"
    },
    {
      "inputs": [
        {
          "internalType": "bytes4",
          "name": "interfaceId",
          "type": "bytes4"
        }
      ],
      "name": "supportsInterface",
      "outputs": [
        {
          "internalType": "bool",
          "name": "",
          "type": "bool"
        }
      ],
      "stateMutability": "view",
      "type": "function"
    },
    {
      "inputs": [],
      "name": "symbol",
      "outputs": [
        {
          "internalType": "string",
          "name": "",
          "type": "string"
        }
      ],
      "stateMutability": "view",
      "type": "function"
    },
    {
      "inputs": [
        {
          "internalType": "uint256",
          "name": "tokenId",
          "type": "uint256"
        }
      ],
      "name": "tokenURI",
      "outputs": [
        {
          "internalType": "string",
          "name": "",
          "type": "string"
        }
      ],
      "stateMutability": "view",
      "type": "function"
    },
    {
      "inputs": [],
      "name": "totalSupply",
      "outputs": [
        {
          "internalType": "uint256",
          "name": "",
          "type": "uint256"
        }
      ],
      "stateMutability": "view",
      "type": "function"
    },
    {
      "inputs": [
        {
          "internalType": "address",
          "name": "from",
          "type": "address"
        },
        {
          "internalType": "address",
          "name": "to",
          "type": "address"
        },
        {
          "internalType": "uint256",
          "name": "tokenId",
          "type": "uint256"
        }
      ],
      "name": "transferFrom",
      "outputs": [],
      "stateMutability": "nonpayable",
      "type": "function"
    },
    {
      "inputs": [
        {
          "internalType": "address",
          "name": "newOwner",
          "type": "address"
        }
      ],
      "name": "transferOwnership",
      "outputs": [],
      "stateMutability": "nonpayable",
      "type": "function"
    },
    {
      "inputs": [
        {
          "internalType": "string",
          "name": "_baseURI",
          "type": "string"
        }
      ],
      "name": "setBaseURI",
      "outputs": [],
      "stateMutability": "nonpayable",
      "type": "function"
    },
    {
      "inputs": [
        {
          "internalType": "uint256",
          "name": "_newPrice",
          "type": "uint256"
        }
      ],
      "name": "setClaimFee",
      "outputs": [],
      "stateMutability": "nonpayable",
      "type": "function"
    }
  ],
  "bytecode": "0x60806040526127106009556040518060400160405280601681526020017f687474703a2f2f6c6f63616c686f73743a353030302f00000000000000000000815250600a90805190602001906200005792919062000bb8565b50662386f26fc10000600b553480156200007057600080fd5b506040518060400160405280600b81526020017f43727970746f4469636b730000000000000000000000000000000000000000008152506040518060400160405280600481526020017f4449434b00000000000000000000000000000000000000000000000000000000815250620000fd620000f16200016c60201b60201c565b6200017460201b60201c565b81600190805190602001906200011592919062000bb8565b5080600290805190602001906200012e92919062000bb8565b50505060005b600a81101562000165576200014e6200023860201b60201c565b5080806200015c9062000cdf565b91505062000134565b50620013ed565b600033905090565b60008060009054906101000a900473ffffffffffffffffffffffffffffffffffffffff169050816000806101000a81548173ffffffffffffffffffffffffffffffffffffffff021916908373ffffffffffffffffffffffffffffffffffffffff1602179055508173ffffffffffffffffffffffffffffffffffffffff168173ffffffffffffffffffffffffffffffffffffffff167f8be0079c531659141344cd1fd0a4f28419497f9722a3daafe3b4186f6b6457e060405160405180910390a35050565b60006009546200025460076200037560201b620012bb1760201c565b106200025f57600080fd5b6200027660076200038360201b620012c91760201c565b60006200028f60076200037560201b620012bb1760201c565b9050620002a16200039960201b60201c565b600c600083815260200190815260200160002060008201518160000160006101000a81548160ff021916908360ff16021790555060208201518160000160016101000a81548160ff021916908360ff16021790555060408201518160000160026101000a81548160ff021916908360ff16021790555060608201518160000160036101000a81548160ff021916908360ff16021790555060808201518160000160046101000a81548160ff021916908360ff1602179055509050506200036e3382620004b560201b60201c565b8091505090565b600081600001549050919050565b6001816000016000828254019250508190555050565b620003a362000c49565b6000806000806000805b6001156200047457620003c5620004db60201b60201c565b80955081965082975083985084995050505050508484848484604051602001620003f495949392919062000d76565b6040516020818303038152906040528051906020012060001c955060011515600d600088815260200190815260200160002060009054906101000a900460ff161515146200046e576001600d600088815260200190815260200160002060006101000a81548160ff02191690831515021790555062000474565b620003ad565b6040518060a001604052808660ff1681526020018560ff1681526020018460ff1681526020018360ff1681526020018260ff16815250965050505050505090565b620004d78282604051806020016040528060008152506200054a60201b60201c565b5050565b6000806000806000620004f3620005b860201b60201c565b945062000505620005b860201b60201c565b93506200051960036200067960201b60201c565b92506200052d60036200067960201b60201c565b91506200054160036200067960201b60201c565b90509091929394565b6200055c8383620006b760201b60201c565b6200057160008484846200089d60201b60201c565b620005b3576040517f08c379a0000000000000000000000000000000000000000000000000000000008152600401620005aa9062000e66565b60405180910390fd5b505050565b600080620005cb62000a4760201b60201c565b905060006103e8821015620005e4576007905062000671565b611770821015620005f9576006905062000670565b613e808210156200060e57600590506200066f565b620101d08210156200062457600490506200066e565b620288708210156200063a57600390506200066d565b620595b08210156200065057600290506200066c565b620a29908210156200066657600190506200066b565b600090505b5b5b5b5b5b5b809250505090565b6000620006b08260ff166200069362000a4760201b60201c565b6200069f919062000eb7565b62000ae160201b620012df1760201c565b9050919050565b600073ffffffffffffffffffffffffffffffffffffffff168273ffffffffffffffffffffffffffffffffffffffff1614156200072a576040517f08c379a0000000000000000000000000000000000000000000000000000000008152600401620007219062000f3f565b60405180910390fd5b6200073b8162000b3460201b60201c565b156200077e576040517f08c379a0000000000000000000000000000000000000000000000000000000008152600401620007759062000fb1565b60405180910390fd5b620007926000838362000ba060201b60201c565b6001600460008473ffffffffffffffffffffffffffffffffffffffff1673ffffffffffffffffffffffffffffffffffffffff1681526020019081526020016000206000828254620007e4919062000fd3565b92505081905550816003600083815260200190815260200160002060006101000a81548173ffffffffffffffffffffffffffffffffffffffff021916908373ffffffffffffffffffffffffffffffffffffffff160217905550808273ffffffffffffffffffffffffffffffffffffffff16600073ffffffffffffffffffffffffffffffffffffffff167fddf252ad1be2c89b69c2b068fc378daa952ba7f163c4a11628f55a4df523b3ef60405160405180910390a45050565b6000620008cb8473ffffffffffffffffffffffffffffffffffffffff1662000ba560201b6200132f1760201c565b1562000a3a578373ffffffffffffffffffffffffffffffffffffffff1663150b7a02620008fd6200016c60201b60201c565b8786866040518563ffffffff1660e01b81526004016200092194939291906200112a565b6020604051808303816000875af19250505080156200096057506040513d601f19601f820116820180604052508101906200095d9190620011e0565b60015b620009e9573d806000811462000993576040519150601f19603f3d011682016040523d82523d6000602084013e62000998565b606091505b50600081511415620009e1576040517f08c379a0000000000000000000000000000000000000000000000000000000008152600401620009d89062000e66565b60405180910390fd5b805181602001fd5b63150b7a0260e01b7bffffffffffffffffffffffffffffffffffffffffffffffffffffffff1916817bffffffffffffffffffffffffffffffffffffffffffffffffffffffff19161491505062000a3f565b600190505b949350505050565b600062000a6060086200038360201b620012c91760201c565b6000444262000a7b60076200037560201b620012bb1760201c565b3362000a9360086200037560201b620012bb1760201c565b60405160200162000aa995949392919062001287565b60405160208183030381529060405290506000818051906020012060001c9050620f42408162000ada919062000eb7565b9250505090565b600060ff801682111562000b2c576040517f08c379a000000000000000000000000000000000000000000000000000000000815260040162000b239062001366565b60405180910390fd5b819050919050565b60008073ffffffffffffffffffffffffffffffffffffffff166003600084815260200190815260200160002060009054906101000a900473ffffffffffffffffffffffffffffffffffffffff1673ffffffffffffffffffffffffffffffffffffffff1614159050919050565b505050565b600080823b905060008111915050919050565b82805462000bc690620013b7565b90600052602060002090601f01602090048101928262000bea576000855562000c36565b82601f1062000c0557805160ff191683800117855562000c36565b8280016001018555821562000c36579182015b8281111562000c3557825182559160200191906001019062000c18565b5b50905062000c45919062000c87565b5090565b6040518060a00160405280600060ff168152602001600060ff168152602001600060ff168152602001600060ff168152602001600060ff1681525090565b5b8082111562000ca257600081600090555060010162000c88565b5090565b7f4e487b7100000000000000000000000000000000000000000000000000000000600052601160045260246000fd5b6000819050919050565b600062000cec8262000cd5565b91507fffffffffffffffffffffffffffffffffffffffffffffffffffffffffffffffff82141562000d225762000d2162000ca6565b5b600182019050919050565b600060ff82169050919050565b60008160f81b9050919050565b600062000d548262000d3a565b9050919050565b62000d7062000d6a8262000d2d565b62000d47565b82525050565b600062000d84828862000d5b565b60018201915062000d96828762000d5b565b60018201915062000da8828662000d5b565b60018201915062000dba828562000d5b565b60018201915062000dcc828462000d5b565b6001820191508190509695505050505050565b600082825260208201905092915050565b7f4552433732313a207472616e7366657220746f206e6f6e20455243373231526560008201527f63656976657220696d706c656d656e7465720000000000000000000000000000602082015250565b600062000e4e60328362000ddf565b915062000e5b8262000df0565b604082019050919050565b6000602082019050818103600083015262000e818162000e3f565b9050919050565b7f4e487b7100000000000000000000000000000000000000000000000000000000600052601260045260246000fd5b600062000ec48262000cd5565b915062000ed18362000cd5565b92508262000ee45762000ee362000e88565b5b828206905092915050565b7f4552433732313a206d696e7420746f20746865207a65726f2061646472657373600082015250565b600062000f2760208362000ddf565b915062000f348262000eef565b602082019050919050565b6000602082019050818103600083015262000f5a8162000f18565b9050919050565b7f4552433732313a20746f6b656e20616c7265616479206d696e74656400000000600082015250565b600062000f99601c8362000ddf565b915062000fa68262000f61565b602082019050919050565b6000602082019050818103600083015262000fcc8162000f8a565b9050919050565b600062000fe08262000cd5565b915062000fed8362000cd5565b9250827fffffffffffffffffffffffffffffffffffffffffffffffffffffffffffffffff0382111562001025576200102462000ca6565b5b828201905092915050565b600073ffffffffffffffffffffffffffffffffffffffff82169050919050565b60006200105d8262001030565b9050919050565b6200106f8162001050565b82525050565b620010808162000cd5565b82525050565b600081519050919050565b600082825260208201905092915050565b60005b83811015620010c2578082015181840152602081019050620010a5565b83811115620010d2576000848401525b50505050565b6000601f19601f8301169050919050565b6000620010f68262001086565b62001102818562001091565b935062001114818560208601620010a2565b6200111f81620010d8565b840191505092915050565b600060808201905062001141600083018762001064565b62001150602083018662001064565b6200115f604083018562001075565b8181036060830152620011738184620010e9565b905095945050505050565b600080fd5b60007fffffffff0000000000000000000000000000000000000000000000000000000082169050919050565b620011ba8162001183565b8114620011c657600080fd5b50565b600081519050620011da81620011af565b92915050565b600060208284031215620011f957620011f86200117e565b5b60006200120984828501620011c9565b91505092915050565b6000819050919050565b620012316200122b8262000cd5565b62001212565b82525050565b60008160601b9050919050565b6000620012518262001237565b9050919050565b6000620012658262001244565b9050919050565b620012816200127b8262001050565b62001258565b82525050565b60006200129582886200121c565b602082019150620012a782876200121c565b602082019150620012b982866200121c565b602082019150620012cb82856200126c565b601482019150620012dd82846200121c565b6020820191508190509695505050505050565b7f53616665436173743a2076616c756520646f65736e27742066697420696e203860008201527f2062697473000000000000000000000000000000000000000000000000000000602082015250565b60006200134e60258362000ddf565b91506200135b82620012f0565b604082019050919050565b6000602082019050818103600083015262001381816200133f565b9050919050565b7f4e487b7100000000000000000000000000000000000000000000000000000000600052602260045260246000fd5b60006002820490506001821680620013d057607f821691505b60208210811415620013e757620013e662001388565b5b50919050565b61397b80620013fd6000396000f3fe6080604052600436106101405760003560e01c806370a08231116100b657806399d32fc41161006f57806399d32fc41461043f578063a22cb4651461046a578063b88d4fde14610493578063c87b56dd146104bc578063e985e9c5146104f9578063f2fde38b1461053657610140565b806370a0823114610329578063715018a614610366578063771282f61461037d5780638da5cb5b146103a85780639507d39a146103d357806395d89b411461041457610140565b806323b872dd1161010857806323b872dd1461023e5780632e75ab501461026757806342842e0e146102905780634e71d92d146102b957806355f804b3146102c35780636352211e146102ec57610140565b806301ffc9a71461014557806306fdde0314610182578063081812fc146101ad578063095ea7b3146101ea57806318160ddd14610213575b600080fd5b34801561015157600080fd5b5061016c600480360381019061016791906123e0565b61055f565b6040516101799190612428565b60405180910390f35b34801561018e57600080fd5b50610197610641565b6040516101a491906124dc565b60405180910390f35b3480156101b957600080fd5b506101d460048036038101906101cf9190612534565b6106d3565b6040516101e191906125a2565b60405180910390f35b3480156101f657600080fd5b50610211600480360381019061020c91906125e9565b610758565b005b34801561021f57600080fd5b50610228610870565b6040516102359190612638565b60405180910390f35b34801561024a57600080fd5b5061026560048036038101906102609190612653565b610876565b005b34801561027357600080fd5b5061028e60048036038101906102899190612534565b6108d6565b005b34801561029c57600080fd5b506102b760048036038101906102b29190612653565b61095c565b005b6102c161097c565b005b3480156102cf57600080fd5b506102ea60048036038101906102e591906127db565b610a1b565b005b3480156102f857600080fd5b50610313600480360381019061030e9190612534565b610ab1565b60405161032091906125a2565b60405180910390f35b34801561033557600080fd5b50610350600480360381019061034b9190612824565b610b63565b60405161035d9190612638565b60405180910390f35b34801561037257600080fd5b5061037b610c1b565b005b34801561038957600080fd5b50610392610ca3565b60405161039f9190612638565b60405180910390f35b3480156103b457600080fd5b506103bd610cb4565b6040516103ca91906125a2565b60405180910390f35b3480156103df57600080fd5b506103fa60048036038101906103f59190612534565b610cdd565b60405161040b95949392919061286d565b60405180910390f35b34801561042057600080fd5b50610429610e0d565b60405161043691906124dc565b60405180910390f35b34801561044b57600080fd5b50610454610e9f565b6040516104619190612638565b60405180910390f35b34801561047657600080fd5b50610491600480360381019061048c91906128ec565b610ea5565b005b34801561049f57600080fd5b506104ba60048036038101906104b591906129cd565b611026565b005b3480156104c857600080fd5b506104e360048036038101906104de9190612534565b611088565b6040516104f091906124dc565b60405180910390f35b34801561050557600080fd5b50610520600480360381019061051b9190612a50565b61112f565b60405161052d9190612428565b60405180910390f35b34801561054257600080fd5b5061055d60048036038101906105589190612824565b6111c3565b005b60007f80ac58cd000000000000000000000000000000000000000000000000000000007bffffffffffffffffffffffffffffffffffffffffffffffffffffffff1916827bffffffffffffffffffffffffffffffffffffffffffffffffffffffff1916148061062a57507f5b5e139f000000000000000000000000000000000000000000000000000000007bffffffffffffffffffffffffffffffffffffffffffffffffffffffff1916827bffffffffffffffffffffffffffffffffffffffffffffffffffffffff1916145b8061063a575061063982611342565b5b9050919050565b60606001805461065090612abf565b80601f016020809104026020016040519081016040528092919081815260200182805461067c90612abf565b80156106c95780601f1061069e576101008083540402835291602001916106c9565b820191906000526020600020905b8154815290600101906020018083116106ac57829003601f168201915b5050505050905090565b60006106de826113ac565b61071d576040517f08c379a000000000000000000000000000000000000000000000000000000000815260040161071490612b63565b60405180910390fd5b6005600083815260200190815260200160002060009054906101000a900473ffffffffffffffffffffffffffffffffffffffff169050919050565b600061076382610ab1565b90508073ffffffffffffffffffffffffffffffffffffffff168373ffffffffffffffffffffffffffffffffffffffff1614156107d4576040517f08c379a00000000000000000000000000000000000000000000000000000000081526004016107cb90612bf5565b60405180910390fd5b8073ffffffffffffffffffffffffffffffffffffffff166107f3611418565b73ffffffffffffffffffffffffffffffffffffffff16148061082257506108218161081c611418565b61112f565b5b610861576040517f08c379a000000000000000000000000000000000000000000000000000000000815260040161085890612c87565b60405180910390fd5b61086b8383611420565b505050565b60095481565b610887610881611418565b826114d9565b6108c6576040517f08c379a00000000000000000000000000000000000000000000000000000000081526004016108bd90612d19565b60405180910390fd5b6108d18383836115b7565b505050565b6108de611418565b73ffffffffffffffffffffffffffffffffffffffff166108fc610cb4565b73ffffffffffffffffffffffffffffffffffffffff1614610952576040517f08c379a000000000000000000000000000000000000000000000000000000000815260040161094990612d85565b60405180910390fd5b80600b8190555050565b61097783838360405180602001604052806000815250611026565b505050565b600b5434146109c0576040517f08c379a00000000000000000000000000000000000000000000000000000000081526004016109b790612df1565b60405180910390fd5b6109c8611813565b506109d1610cb4565b73ffffffffffffffffffffffffffffffffffffffff166108fc600b549081150290604051600060405180830381858888f19350505050158015610a18573d6000803e3d6000fd5b50565b610a23611418565b73ffffffffffffffffffffffffffffffffffffffff16610a41610cb4565b73ffffffffffffffffffffffffffffffffffffffff1614610a97576040517f08c379a0000000000000000000000000000000000000000000000000000000008152600401610a8e90612d85565b60405180910390fd5b80600a9080519060200190610aad929190612293565b5050565b6000806003600084815260200190815260200160002060009054906101000a900473ffffffffffffffffffffffffffffffffffffffff169050600073ffffffffffffffffffffffffffffffffffffffff168173ffffffffffffffffffffffffffffffffffffffff161415610b5a576040517f08c379a0000000000000000000000000000000000000000000000000000000008152600401610b5190612e83565b60405180910390fd5b80915050919050565b60008073ffffffffffffffffffffffffffffffffffffffff168273ffffffffffffffffffffffffffffffffffffffff161415610bd4576040517f08c379a0000000000000000000000000000000000000000000000000000000008152600401610bcb90612f15565b60405180910390fd5b600460008373ffffffffffffffffffffffffffffffffffffffff1673ffffffffffffffffffffffffffffffffffffffff168152602001908152602001600020549050919050565b610c23611418565b73ffffffffffffffffffffffffffffffffffffffff16610c41610cb4565b73ffffffffffffffffffffffffffffffffffffffff1614610c97576040517f08c379a0000000000000000000000000000000000000000000000000000000008152600401610c8e90612d85565b60405180910390fd5b610ca16000611918565b565b6000610caf60076112bb565b905090565b60008060009054906101000a900473ffffffffffffffffffffffffffffffffffffffff16905090565b6000806000806000610cee866113ac565b610d2d576040517f08c379a0000000000000000000000000000000000000000000000000000000008152600401610d2490612f81565b60405180910390fd5b6000600c60008881526020019081526020016000206040518060a00160405290816000820160009054906101000a900460ff1660ff1660ff1681526020016000820160019054906101000a900460ff1660ff1660ff1681526020016000820160029054906101000a900460ff1660ff1660ff1681526020016000820160039054906101000a900460ff1660ff1660ff1681526020016000820160049054906101000a900460ff1660ff1660ff1681525050905080600001519550806020015194508060400151935080606001519250806080015191505091939590929450565b606060028054610e1c90612abf565b80601f0160208091040260200160405190810160405280929190818152602001828054610e4890612abf565b8015610e955780601f10610e6a57610100808354040283529160200191610e95565b820191906000526020600020905b815481529060010190602001808311610e7857829003601f168201915b5050505050905090565b600b5481565b610ead611418565b73ffffffffffffffffffffffffffffffffffffffff168273ffffffffffffffffffffffffffffffffffffffff161415610f1b576040517f08c379a0000000000000000000000000000000000000000000000000000000008152600401610f1290612fed565b60405180910390fd5b8060066000610f28611418565b73ffffffffffffffffffffffffffffffffffffffff1673ffffffffffffffffffffffffffffffffffffffff16815260200190815260200160002060008473ffffffffffffffffffffffffffffffffffffffff1673ffffffffffffffffffffffffffffffffffffffff16815260200190815260200160002060006101000a81548160ff0219169083151502179055508173ffffffffffffffffffffffffffffffffffffffff16610fd5611418565b73ffffffffffffffffffffffffffffffffffffffff167f17307eab39ab6107e8899845ad3d59bd9653f200f220920489ca2b5937696c318360405161101a9190612428565b60405180910390a35050565b611037611031611418565b836114d9565b611076576040517f08c379a000000000000000000000000000000000000000000000000000000000815260040161106d90612d19565b60405180910390fd5b611082848484846119dc565b50505050565b6060611093826113ac565b6110d2576040517f08c379a00000000000000000000000000000000000000000000000000000000081526004016110c99061307f565b60405180910390fd5b60006110dc611a38565b905060008151116110fc5760405180602001604052806000815250611127565b8061110684611aca565b6040516020016111179291906130db565b6040516020818303038152906040525b915050919050565b6000600660008473ffffffffffffffffffffffffffffffffffffffff1673ffffffffffffffffffffffffffffffffffffffff16815260200190815260200160002060008373ffffffffffffffffffffffffffffffffffffffff1673ffffffffffffffffffffffffffffffffffffffff16815260200190815260200160002060009054906101000a900460ff16905092915050565b6111cb611418565b73ffffffffffffffffffffffffffffffffffffffff166111e9610cb4565b73ffffffffffffffffffffffffffffffffffffffff161461123f576040517f08c379a000000000000000000000000000000000000000000000000000000000815260040161123690612d85565b60405180910390fd5b600073ffffffffffffffffffffffffffffffffffffffff168173ffffffffffffffffffffffffffffffffffffffff1614156112af576040517f08c379a00000000000000000000000000000000000000000000000000000000081526004016112a690613171565b60405180910390fd5b6112b881611918565b50565b600081600001549050919050565b6001816000016000828254019250508190555050565b600060ff8016821115611327576040517f08c379a000000000000000000000000000000000000000000000000000000000815260040161131e90613203565b60405180910390fd5b819050919050565b600080823b905060008111915050919050565b60007f01ffc9a7000000000000000000000000000000000000000000000000000000007bffffffffffffffffffffffffffffffffffffffffffffffffffffffff1916827bffffffffffffffffffffffffffffffffffffffffffffffffffffffff1916149050919050565b60008073ffffffffffffffffffffffffffffffffffffffff166003600084815260200190815260200160002060009054906101000a900473ffffffffffffffffffffffffffffffffffffffff1673ffffffffffffffffffffffffffffffffffffffff1614159050919050565b600033905090565b816005600083815260200190815260200160002060006101000a81548173ffffffffffffffffffffffffffffffffffffffff021916908373ffffffffffffffffffffffffffffffffffffffff160217905550808273ffffffffffffffffffffffffffffffffffffffff1661149383610ab1565b73ffffffffffffffffffffffffffffffffffffffff167f8c5be1e5ebec7d5bd14f71427d1e84f3dd0314c0f7b2291e5b200ac8c7c3b92560405160405180910390a45050565b60006114e4826113ac565b611523576040517f08c379a000000000000000000000000000000000000000000000000000000000815260040161151a90613295565b60405180910390fd5b600061152e83610ab1565b90508073ffffffffffffffffffffffffffffffffffffffff168473ffffffffffffffffffffffffffffffffffffffff16148061159d57508373ffffffffffffffffffffffffffffffffffffffff16611585846106d3565b73ffffffffffffffffffffffffffffffffffffffff16145b806115ae57506115ad818561112f565b5b91505092915050565b8273ffffffffffffffffffffffffffffffffffffffff166115d782610ab1565b73ffffffffffffffffffffffffffffffffffffffff161461162d576040517f08c379a000000000000000000000000000000000000000000000000000000000815260040161162490613327565b60405180910390fd5b600073ffffffffffffffffffffffffffffffffffffffff168273ffffffffffffffffffffffffffffffffffffffff16141561169d576040517f08c379a0000000000000000000000000000000000000000000000000000000008152600401611694906133b9565b60405180910390fd5b6116a8838383611c2b565b6116b3600082611420565b6001600460008573ffffffffffffffffffffffffffffffffffffffff1673ffffffffffffffffffffffffffffffffffffffff16815260200190815260200160002060008282546117039190613408565b925050819055506001600460008473ffffffffffffffffffffffffffffffffffffffff1673ffffffffffffffffffffffffffffffffffffffff168152602001908152602001600020600082825461175a919061343c565b92505081905550816003600083815260200190815260200160002060006101000a81548173ffffffffffffffffffffffffffffffffffffffff021916908373ffffffffffffffffffffffffffffffffffffffff160217905550808273ffffffffffffffffffffffffffffffffffffffff168473ffffffffffffffffffffffffffffffffffffffff167fddf252ad1be2c89b69c2b068fc378daa952ba7f163c4a11628f55a4df523b3ef60405160405180910390a4505050565b600060095461182260076112bb565b1061182c57600080fd5b61183660076112c9565b600061184260076112bb565b905061184c611c30565b600c600083815260200190815260200160002060008201518160000160006101000a81548160ff021916908360ff16021790555060208201518160000160016101000a81548160ff021916908360ff16021790555060408201518160000160026101000a81548160ff021916908360ff16021790555060608201518160000160036101000a81548160ff021916908360ff16021790555060808201518160000160046101000a81548160ff021916908360ff1602179055509050506119113382611d3c565b8091505090565b60008060009054906101000a900473ffffffffffffffffffffffffffffffffffffffff169050816000806101000a81548173ffffffffffffffffffffffffffffffffffffffff021916908373ffffffffffffffffffffffffffffffffffffffff1602179055508173ffffffffffffffffffffffffffffffffffffffff168173ffffffffffffffffffffffffffffffffffffffff167f8be0079c531659141344cd1fd0a4f28419497f9722a3daafe3b4186f6b6457e060405160405180910390a35050565b6119e78484846115b7565b6119f384848484611d5a565b611a32576040517f08c379a0000000000000000000000000000000000000000000000000000000008152600401611a2990613504565b60405180910390fd5b50505050565b6060600a8054611a4790612abf565b80601f0160208091040260200160405190810160405280929190818152602001828054611a7390612abf565b8015611ac05780601f10611a9557610100808354040283529160200191611ac0565b820191906000526020600020905b815481529060010190602001808311611aa357829003601f168201915b5050505050905090565b60606000821415611b12576040518060400160405280600181526020017f30000000000000000000000000000000000000000000000000000000000000008152509050611c26565b600082905060005b60008214611b44578080611b2d90613524565b915050600a82611b3d919061359c565b9150611b1a565b60008167ffffffffffffffff811115611b6057611b5f6126b0565b5b6040519080825280601f01601f191660200182016040528015611b925781602001600182028036833780820191505090505b5090505b60008514611c1f57600182611bab9190613408565b9150600a85611bba91906135cd565b6030611bc6919061343c565b60f81b818381518110611bdc57611bdb6135fe565b5b60200101907effffffffffffffffffffffffffffffffffffffffffffffffffffffffffffff1916908160001a905350600a85611c18919061359c565b9450611b96565b8093505050505b919050565b505050565b611c38612319565b6000806000806000805b600115611cfb57611c51611ee2565b80955081965082975083985084995050505050508484848484604051602001611c7e959493929190613663565b6040516020818303038152906040528051906020012060001c955060011515600d600088815260200190815260200160002060009054906101000a900460ff16151514611cf6576001600d600088815260200190815260200160002060006101000a81548160ff021916908315150217905550611cfb565b611c42565b6040518060a001604052808660ff1681526020018560ff1681526020018460ff1681526020018360ff1681526020018260ff16815250965050505050505090565b611d56828260405180602001604052806000815250611f29565b5050565b6000611d7b8473ffffffffffffffffffffffffffffffffffffffff1661132f565b15611ed5578373ffffffffffffffffffffffffffffffffffffffff1663150b7a02611da4611418565b8786866040518563ffffffff1660e01b8152600401611dc69493929190613717565b6020604051808303816000875af1925050508015611e0257506040513d601f19601f82011682018060405250810190611dff9190613778565b60015b611e85573d8060008114611e32576040519150601f19603f3d011682016040523d82523d6000602084013e611e37565b606091505b50600081511415611e7d576040517f08c379a0000000000000000000000000000000000000000000000000000000008152600401611e7490613504565b60405180910390fd5b805181602001fd5b63150b7a0260e01b7bffffffffffffffffffffffffffffffffffffffffffffffffffffffff1916817bffffffffffffffffffffffffffffffffffffffffffffffffffffffff191614915050611eda565b600190505b949350505050565b6000806000806000611ef2611f84565b9450611efc611f84565b9350611f08600361202f565b9250611f14600361202f565b9150611f20600361202f565b90509091929394565b611f338383612056565b611f406000848484611d5a565b611f7f576040517f08c379a0000000000000000000000000000000000000000000000000000000008152600401611f7690613504565b60405180910390fd5b505050565b600080611f8f612224565b905060006103e8821015611fa65760079050612027565b611770821015611fb95760069050612026565b613e80821015611fcc5760059050612025565b620101d0821015611fe05760049050612024565b62028870821015611ff45760039050612023565b620595b08210156120085760029050612022565b620a299082101561201c5760019050612021565b600090505b5b5b5b5b5b5b809250505090565b600061204f8260ff16612040612224565b61204a91906135cd565b6112df565b9050919050565b600073ffffffffffffffffffffffffffffffffffffffff168273ffffffffffffffffffffffffffffffffffffffff1614156120c6576040517f08c379a00000000000000000000000000000000000000000000000000000000081526004016120bd906137f1565b60405180910390fd5b6120cf816113ac565b1561210f576040517f08c379a00000000000000000000000000000000000000000000000000000000081526004016121069061385d565b60405180910390fd5b61211b60008383611c2b565b6001600460008473ffffffffffffffffffffffffffffffffffffffff1673ffffffffffffffffffffffffffffffffffffffff168152602001908152602001600020600082825461216b919061343c565b92505081905550816003600083815260200190815260200160002060006101000a81548173ffffffffffffffffffffffffffffffffffffffff021916908373ffffffffffffffffffffffffffffffffffffffff160217905550808273ffffffffffffffffffffffffffffffffffffffff16600073ffffffffffffffffffffffffffffffffffffffff167fddf252ad1be2c89b69c2b068fc378daa952ba7f163c4a11628f55a4df523b3ef60405160405180910390a45050565b600061223060086112c9565b6000444261223e60076112bb565b3361224960086112bb565b60405160200161225d9594939291906138e6565b60405160208183030381529060405290506000818051906020012060001c9050620f42408161228c91906135cd565b9250505090565b82805461229f90612abf565b90600052602060002090601f0160209004810192826122c15760008555612308565b82601f106122da57805160ff1916838001178555612308565b82800160010185558215612308579182015b828111156123075782518255916020019190600101906122ec565b5b5090506123159190612357565b5090565b6040518060a00160405280600060ff168152602001600060ff168152602001600060ff168152602001600060ff168152602001600060ff1681525090565b5b80821115612370576000816000905550600101612358565b5090565b6000604051905090565b600080fd5b600080fd5b60007fffffffff0000000000000000000000000000000000000000000000000000000082169050919050565b6123bd81612388565b81146123c857600080fd5b50565b6000813590506123da816123b4565b92915050565b6000602082840312156123f6576123f561237e565b5b6000612404848285016123cb565b91505092915050565b60008115159050919050565b6124228161240d565b82525050565b600060208201905061243d6000830184612419565b92915050565b600081519050919050565b600082825260208201905092915050565b60005b8381101561247d578082015181840152602081019050612462565b8381111561248c576000848401525b50505050565b6000601f19601f8301169050919050565b60006124ae82612443565b6124b8818561244e565b93506124c881856020860161245f565b6124d181612492565b840191505092915050565b600060208201905081810360008301526124f681846124a3565b905092915050565b6000819050919050565b612511816124fe565b811461251c57600080fd5b50565b60008135905061252e81612508565b92915050565b60006020828403121561254a5761254961237e565b5b60006125588482850161251f565b91505092915050565b600073ffffffffffffffffffffffffffffffffffffffff82169050919050565b600061258c82612561565b9050919050565b61259c81612581565b82525050565b60006020820190506125b76000830184612593565b92915050565b6125c681612581565b81146125d157600080fd5b50565b6000813590506125e3816125bd565b92915050565b60008060408385031215612600576125ff61237e565b5b600061260e858286016125d4565b925050602061261f8582860161251f565b9150509250929050565b612632816124fe565b82525050565b600060208201905061264d6000830184612629565b92915050565b60008060006060848603121561266c5761266b61237e565b5b600061267a868287016125d4565b935050602061268b868287016125d4565b925050604061269c8682870161251f565b9150509250925092565b600080fd5b600080fd5b7f4e487b7100000000000000000000000000000000000000000000000000000000600052604160045260246000fd5b6126e882612492565b810181811067ffffffffffffffff82111715612707576127066126b0565b5b80604052505050565b600061271a612374565b905061272682826126df565b919050565b600067ffffffffffffffff821115612746576127456126b0565b5b61274f82612492565b9050602081019050919050565b82818337600083830152505050565b600061277e6127798461272b565b612710565b90508281526020810184848401111561279a576127996126ab565b5b6127a584828561275c565b509392505050565b600082601f8301126127c2576127c16126a6565b5b81356127d284826020860161276b565b91505092915050565b6000602082840312156127f1576127f061237e565b5b600082013567ffffffffffffffff81111561280f5761280e612383565b5b61281b848285016127ad565b91505092915050565b60006020828403121561283a5761283961237e565b5b6000612848848285016125d4565b91505092915050565b600060ff82169050919050565b61286781612851565b82525050565b600060a082019050612882600083018861285e565b61288f602083018761285e565b61289c604083018661285e565b6128a9606083018561285e565b6128b6608083018461285e565b9695505050505050565b6128c98161240d565b81146128d457600080fd5b50565b6000813590506128e6816128c0565b92915050565b600080604083850312156129035761290261237e565b5b6000612911858286016125d4565b9250506020612922858286016128d7565b9150509250929050565b600067ffffffffffffffff821115612947576129466126b0565b5b61295082612492565b9050602081019050919050565b600061297061296b8461292c565b612710565b90508281526020810184848401111561298c5761298b6126ab565b5b61299784828561275c565b509392505050565b600082601f8301126129b4576129b36126a6565b5b81356129c484826020860161295d565b91505092915050565b600080600080608085870312156129e7576129e661237e565b5b60006129f5878288016125d4565b9450506020612a06878288016125d4565b9350506040612a178782880161251f565b925050606085013567ffffffffffffffff811115612a3857612a37612383565b5b612a448782880161299f565b91505092959194509250565b60008060408385031215612a6757612a6661237e565b5b6000612a75858286016125d4565b9250506020612a86858286016125d4565b9150509250929050565b7f4e487b7100000000000000000000000000000000000000000000000000000000600052602260045260246000fd5b60006002820490506001821680612ad757607f821691505b60208210811415612aeb57612aea612a90565b5b50919050565b7f4552433732313a20617070726f76656420717565727920666f72206e6f6e657860008201527f697374656e7420746f6b656e0000000000000000000000000000000000000000602082015250565b6000612b4d602c8361244e565b9150612b5882612af1565b604082019050919050565b60006020820190508181036000830152612b7c81612b40565b9050919050565b7f4552433732313a20617070726f76616c20746f2063757272656e74206f776e6560008201527f7200000000000000000000000000000000000000000000000000000000000000602082015250565b6000612bdf60218361244e565b9150612bea82612b83565b604082019050919050565b60006020820190508181036000830152612c0e81612bd2565b9050919050565b7f4552433732313a20617070726f76652063616c6c6572206973206e6f74206f7760008201527f6e6572206e6f7220617070726f76656420666f7220616c6c0000000000000000602082015250565b6000612c7160388361244e565b9150612c7c82612c15565b604082019050919050565b60006020820190508181036000830152612ca081612c64565b9050919050565b7f4552433732313a207472616e736665722063616c6c6572206973206e6f74206f60008201527f776e6572206e6f7220617070726f766564000000000000000000000000000000602082015250565b6000612d0360318361244e565b9150612d0e82612ca7565b604082019050919050565b60006020820190508181036000830152612d3281612cf6565b9050919050565b7f4f776e61626c653a2063616c6c6572206973206e6f7420746865206f776e6572600082015250565b6000612d6f60208361244e565b9150612d7a82612d39565b602082019050919050565b60006020820190508181036000830152612d9e81612d62565b9050919050565b7f436c61696d696e672061204e465420636f737473206574686572000000000000600082015250565b6000612ddb601a8361244e565b9150612de682612da5565b602082019050919050565b60006020820190508181036000830152612e0a81612dce565b9050919050565b7f4552433732313a206f776e657220717565727920666f72206e6f6e657869737460008201527f656e7420746f6b656e0000000000000000000000000000000000000000000000602082015250565b6000612e6d60298361244e565b9150612e7882612e11565b604082019050919050565b60006020820190508181036000830152612e9c81612e60565b9050919050565b7f4552433732313a2062616c616e636520717565727920666f7220746865207a6560008201527f726f206164647265737300000000000000000000000000000000000000000000602082015250565b6000612eff602a8361244e565b9150612f0a82612ea3565b604082019050919050565b60006020820190508181036000830152612f2e81612ef2565b9050919050565b7f546f6b656e206e6f74206d696e74656420796574000000000000000000000000600082015250565b6000612f6b60148361244e565b9150612f7682612f35565b602082019050919050565b60006020820190508181036000830152612f9a81612f5e565b9050919050565b7f4552433732313a20617070726f766520746f2063616c6c657200000000000000600082015250565b6000612fd760198361244e565b9150612fe282612fa1565b602082019050919050565b6000602082019050818103600083015261300681612fca565b9050919050565b7f4552433732314d657461646174613a2055524920717565727920666f72206e6f60008201527f6e6578697374656e7420746f6b656e0000000000000000000000000000000000602082015250565b6000613069602f8361244e565b91506130748261300d565b604082019050919050565b600060208201905081810360008301526130988161305c565b9050919050565b600081905092915050565b60006130b582612443565b6130bf818561309f565b93506130cf81856020860161245f565b80840191505092915050565b60006130e782856130aa565b91506130f382846130aa565b91508190509392505050565b7f4f776e61626c653a206e6577206f776e657220697320746865207a65726f206160008201527f6464726573730000000000000000000000000000000000000000000000000000602082015250565b600061315b60268361244e565b9150613166826130ff565b604082019050919050565b6000602082019050818103600083015261318a8161314e565b9050919050565b7f53616665436173743a2076616c756520646f65736e27742066697420696e203860008201527f2062697473000000000000000000000000000000000000000000000000000000602082015250565b60006131ed60258361244e565b91506131f882613191565b604082019050919050565b6000602082019050818103600083015261321c816131e0565b9050919050565b7f4552433732313a206f70657261746f7220717565727920666f72206e6f6e657860008201527f697374656e7420746f6b656e0000000000000000000000000000000000000000602082015250565b600061327f602c8361244e565b915061328a82613223565b604082019050919050565b600060208201905081810360008301526132ae81613272565b9050919050565b7f4552433732313a207472616e73666572206f6620746f6b656e2074686174206960008201527f73206e6f74206f776e0000000000000000000000000000000000000000000000602082015250565b600061331160298361244e565b915061331c826132b5565b604082019050919050565b6000602082019050818103600083015261334081613304565b9050919050565b7f4552433732313a207472616e7366657220746f20746865207a65726f2061646460008201527f7265737300000000000000000000000000000000000000000000000000000000602082015250565b60006133a360248361244e565b91506133ae82613347565b604082019050919050565b600060208201905081810360008301526133d281613396565b9050919050565b7f4e487b7100000000000000000000000000000000000000000000000000000000600052601160045260246000fd5b6000613413826124fe565b915061341e836124fe565b925082821015613431576134306133d9565b5b828203905092915050565b6000613447826124fe565b9150613452836124fe565b9250827fffffffffffffffffffffffffffffffffffffffffffffffffffffffffffffffff03821115613487576134866133d9565b5b828201905092915050565b7f4552433732313a207472616e7366657220746f206e6f6e20455243373231526560008201527f63656976657220696d706c656d656e7465720000000000000000000000000000602082015250565b60006134ee60328361244e565b91506134f982613492565b604082019050919050565b6000602082019050818103600083015261351d816134e1565b9050919050565b600061352f826124fe565b91507fffffffffffffffffffffffffffffffffffffffffffffffffffffffffffffffff821415613562576135616133d9565b5b600182019050919050565b7f4e487b7100000000000000000000000000000000000000000000000000000000600052601260045260246000fd5b60006135a7826124fe565b91506135b2836124fe565b9250826135c2576135c161356d565b5b828204905092915050565b60006135d8826124fe565b91506135e3836124fe565b9250826135f3576135f261356d565b5b828206905092915050565b7f4e487b7100000000000000000000000000000000000000000000000000000000600052603260045260246000fd5b60008160f81b9050919050565b60006136458261362d565b9050919050565b61365d61365882612851565b61363a565b82525050565b600061366f828861364c565b60018201915061367f828761364c565b60018201915061368f828661364c565b60018201915061369f828561364c565b6001820191506136af828461364c565b6001820191508190509695505050505050565b600081519050919050565b600082825260208201905092915050565b60006136e9826136c2565b6136f381856136cd565b935061370381856020860161245f565b61370c81612492565b840191505092915050565b600060808201905061372c6000830187612593565b6137396020830186612593565b6137466040830185612629565b818103606083015261375881846136de565b905095945050505050565b600081519050613772816123b4565b92915050565b60006020828403121561378e5761378d61237e565b5b600061379c84828501613763565b91505092915050565b7f4552433732313a206d696e7420746f20746865207a65726f2061646472657373600082015250565b60006137db60208361244e565b91506137e6826137a5565b602082019050919050565b6000602082019050818103600083015261380a816137ce565b9050919050565b7f4552433732313a20746f6b656e20616c7265616479206d696e74656400000000600082015250565b6000613847601c8361244e565b915061385282613811565b602082019050919050565b600060208201905081810360008301526138768161383a565b9050919050565b6000819050919050565b613898613893826124fe565b61387d565b82525050565b60008160601b9050919050565b60006138b68261389e565b9050919050565b60006138c8826138ab565b9050919050565b6138e06138db82612581565b6138bd565b82525050565b60006138f28288613887565b6020820191506139028287613887565b6020820191506139128286613887565b60208201915061392282856138cf565b6014820191506139328284613887565b602082019150819050969550505050505056fea2646970667358221220faf3556432dda26f7700af4feb19aa608fb3bce3b71d7f7b049a0fb1feb1c28664736f6c634300080a0033",
  "immutableReferences": {},
  "source": "// SPDX-License-Identifier: MIT\n\npragma solidity >=0.8.3 <0.9.0;\n\nimport \"./CryptoDicks.sol\";\n\n/// @title Extends CryptoDicks addind getters & setters.\n/// @author juliencrn\n/// @dev Work in progress, not production ready yet.\ncontract CryptoDicksHelper is CryptoDicks {\n    /// Allow owner to set new baseURI\n    function setBaseURI(string memory _baseURI) public onlyOwner {\n        _currentBaseURI = _baseURI;\n    }\n\n    /// Allow owner to set new mint fee price, ether price will change.\n    function setClaimFee(uint256 _newPrice) external onlyOwner {\n        claimFee = _newPrice;\n    }\n\n    /// Allow owner to withdraw contract balance.\n    /// @dev Ether are stored in the contract when \"payable->transfer\" is invoked.\n    /// TODO Add unit test\n    // function withdraw() external view onlyOwner returns (address payable) {\n    //     payable(owner).transfer(address(this).balance);\n    // }\n}\n",
  "sourcePath": "/Users/juliencaron/www/ntf/ntf-collectible/contracts/CryptoDicksHelper.sol",
  "compiler": {
    "name": "solc",
    "version": "0.8.10+commit.fc410830.Emscripten.clang"
  },
  "schemaVersion": "3.4.3",
  "updatedAt": "2021-11-19T04:19:38.901Z",
  "devdoc": {
    "author": "juliencrn",
    "details": "Work in progress, not production ready yet.",
    "kind": "dev",
    "methods": {
      "approve(address,uint256)": {
        "details": "See {IERC721-approve}."
      },
      "balanceOf(address)": {
        "details": "See {IERC721-balanceOf}."
      },
      "claim()": {
        "details": "takes fees then calls mint() internally."
      },
      "currentSupply()": {
        "returns": {
          "_0": "the current supply"
        }
      },
      "getApproved(uint256)": {
        "details": "See {IERC721-getApproved}."
      },
      "isApprovedForAll(address,address)": {
        "details": "See {IERC721-isApprovedForAll}."
      },
      "name()": {
        "details": "See {IERC721Metadata-name}."
      },
      "owner()": {
        "details": "Returns the address of the current owner."
      },
      "ownerOf(uint256)": {
        "details": "See {IERC721-ownerOf}."
      },
      "renounceOwnership()": {
        "details": "Leaves the contract without owner. It will not be possible to call `onlyOwner` functions anymore. Can only be called by the current owner. NOTE: Renouncing ownership will leave the contract without an owner, thereby removing any functionality that is only available to the owner."
      },
      "safeTransferFrom(address,address,uint256)": {
        "details": "See {IERC721-safeTransferFrom}."
      },
      "safeTransferFrom(address,address,uint256,bytes)": {
        "details": "See {IERC721-safeTransferFrom}."
      },
      "setApprovalForAll(address,bool)": {
        "details": "See {IERC721-setApprovalForAll}."
      },
      "supportsInterface(bytes4)": {
        "details": "See {IERC165-supportsInterface}."
      },
      "symbol()": {
        "details": "See {IERC721Metadata-symbol}."
      },
      "tokenURI(uint256)": {
        "details": "See {IERC721Metadata-tokenURI}."
      },
      "transferFrom(address,address,uint256)": {
        "details": "See {IERC721-transferFrom}."
      },
      "transferOwnership(address)": {
        "details": "Transfers ownership of the contract to a new account (`newOwner`). Can only be called by the current owner."
      }
    },
    "title": "Extends CryptoDicks addind getters & setters.",
    "version": 1
  },
  "userdoc": {
    "kind": "user",
    "methods": {
      "claim()": {
        "notice": "Allow user to mint a token"
      },
      "get(uint256)": {
        "notice": "For a a given token ID, returns its metadata"
      },
      "setBaseURI(string)": {
        "notice": "Allow owner to set new baseURI"
      },
      "setClaimFee(uint256)": {
        "notice": "Allow owner to set new mint fee price, ether price will change."
      }
    },
    "version": 1
  }
}