{
  "contractName": "CryptoDicksNFT",
  "abi": [
    {
      "anonymous": false,
      "inputs": [
        {
          "indexed": true,
          "internalType": "address",
          "name": "owner",
          "type": "address"
        },
        {
          "indexed": true,
          "internalType": "address",
          "name": "approved",
          "type": "address"
        },
        {
          "indexed": true,
          "internalType": "uint256",
          "name": "tokenId",
          "type": "uint256"
        }
      ],
      "name": "Approval",
      "type": "event"
    },
    {
      "anonymous": false,
      "inputs": [
        {
          "indexed": true,
          "internalType": "address",
          "name": "owner",
          "type": "address"
        },
        {
          "indexed": true,
          "internalType": "address",
          "name": "operator",
          "type": "address"
        },
        {
          "indexed": false,
          "internalType": "bool",
          "name": "approved",
          "type": "bool"
        }
      ],
      "name": "ApprovalForAll",
      "type": "event"
    },
    {
      "anonymous": false,
      "inputs": [
        {
          "indexed": true,
          "internalType": "address",
          "name": "previousOwner",
          "type": "address"
        },
        {
          "indexed": true,
          "internalType": "address",
          "name": "newOwner",
          "type": "address"
        }
      ],
      "name": "OwnershipTransferred",
      "type": "event"
    },
    {
      "anonymous": false,
      "inputs": [
        {
          "indexed": true,
          "internalType": "address",
          "name": "from",
          "type": "address"
        },
        {
          "indexed": true,
          "internalType": "address",
          "name": "to",
          "type": "address"
        },
        {
          "indexed": true,
          "internalType": "uint256",
          "name": "tokenId",
          "type": "uint256"
        }
      ],
      "name": "Transfer",
      "type": "event"
    },
    {
      "inputs": [
        {
          "internalType": "address",
          "name": "to",
          "type": "address"
        },
        {
          "internalType": "uint256",
          "name": "tokenId",
          "type": "uint256"
        }
      ],
      "name": "approve",
      "outputs": [],
      "stateMutability": "nonpayable",
      "type": "function"
    },
    {
      "inputs": [
        {
          "internalType": "address",
          "name": "owner",
          "type": "address"
        }
      ],
      "name": "balanceOf",
      "outputs": [
        {
          "internalType": "uint256",
          "name": "",
          "type": "uint256"
        }
      ],
      "stateMutability": "view",
      "type": "function",
      "constant": true
    },
    {
      "inputs": [],
      "name": "claim",
      "outputs": [],
      "stateMutability": "payable",
      "type": "function",
      "payable": true
    },
    {
      "inputs": [],
      "name": "claimFee",
      "outputs": [
        {
          "internalType": "uint256",
          "name": "",
          "type": "uint256"
        }
      ],
      "stateMutability": "view",
      "type": "function",
      "constant": true
    },
    {
      "inputs": [],
      "name": "currentSupply",
      "outputs": [
        {
          "internalType": "uint256",
          "name": "",
          "type": "uint256"
        }
      ],
      "stateMutability": "view",
      "type": "function",
      "constant": true
    },
    {
      "inputs": [
        {
          "internalType": "uint256",
          "name": "_tokenId",
          "type": "uint256"
        }
      ],
      "name": "get",
      "outputs": [
        {
          "internalType": "uint8",
          "name": "background",
          "type": "uint8"
        },
        {
          "internalType": "uint8",
          "name": "skin",
          "type": "uint8"
        },
        {
          "internalType": "uint8",
          "name": "hat",
          "type": "uint8"
        },
        {
          "internalType": "uint8",
          "name": "eye",
          "type": "uint8"
        }
      ],
      "stateMutability": "view",
      "type": "function",
      "constant": true
    },
    {
      "inputs": [
        {
          "internalType": "uint256",
          "name": "tokenId",
          "type": "uint256"
        }
      ],
      "name": "getApproved",
      "outputs": [
        {
          "internalType": "address",
          "name": "",
          "type": "address"
        }
      ],
      "stateMutability": "view",
      "type": "function",
      "constant": true
    },
    {
      "inputs": [
        {
          "internalType": "address",
          "name": "owner",
          "type": "address"
        },
        {
          "internalType": "address",
          "name": "operator",
          "type": "address"
        }
      ],
      "name": "isApprovedForAll",
      "outputs": [
        {
          "internalType": "bool",
          "name": "",
          "type": "bool"
        }
      ],
      "stateMutability": "view",
      "type": "function",
      "constant": true
    },
    {
      "inputs": [],
      "name": "name",
      "outputs": [
        {
          "internalType": "string",
          "name": "",
          "type": "string"
        }
      ],
      "stateMutability": "view",
      "type": "function",
      "constant": true
    },
    {
      "inputs": [],
      "name": "owner",
      "outputs": [
        {
          "internalType": "address",
          "name": "",
          "type": "address"
        }
      ],
      "stateMutability": "view",
      "type": "function",
      "constant": true
    },
    {
      "inputs": [
        {
          "internalType": "uint256",
          "name": "tokenId",
          "type": "uint256"
        }
      ],
      "name": "ownerOf",
      "outputs": [
        {
          "internalType": "address",
          "name": "",
          "type": "address"
        }
      ],
      "stateMutability": "view",
      "type": "function",
      "constant": true
    },
    {
      "inputs": [],
      "name": "renounceOwnership",
      "outputs": [],
      "stateMutability": "nonpayable",
      "type": "function"
    },
    {
      "inputs": [
        {
          "internalType": "address",
          "name": "from",
          "type": "address"
        },
        {
          "internalType": "address",
          "name": "to",
          "type": "address"
        },
        {
          "internalType": "uint256",
          "name": "tokenId",
          "type": "uint256"
        }
      ],
      "name": "safeTransferFrom",
      "outputs": [],
      "stateMutability": "nonpayable",
      "type": "function"
    },
    {
      "inputs": [
        {
          "internalType": "address",
          "name": "from",
          "type": "address"
        },
        {
          "internalType": "address",
          "name": "to",
          "type": "address"
        },
        {
          "internalType": "uint256",
          "name": "tokenId",
          "type": "uint256"
        },
        {
          "internalType": "bytes",
          "name": "_data",
          "type": "bytes"
        }
      ],
      "name": "safeTransferFrom",
      "outputs": [],
      "stateMutability": "nonpayable",
      "type": "function"
    },
    {
      "inputs": [
        {
          "internalType": "address",
          "name": "operator",
          "type": "address"
        },
        {
          "internalType": "bool",
          "name": "approved",
          "type": "bool"
        }
      ],
      "name": "setApprovalForAll",
      "outputs": [],
      "stateMutability": "nonpayable",
      "type": "function"
    },
    {
      "inputs": [
        {
          "internalType": "string",
          "name": "_baseURI",
          "type": "string"
        }
      ],
      "name": "setBaseURI",
      "outputs": [],
      "stateMutability": "nonpayable",
      "type": "function"
    },
    {
      "inputs": [
        {
          "internalType": "uint256",
          "name": "_newPrice",
          "type": "uint256"
        }
      ],
      "name": "setClaimFee",
      "outputs": [],
      "stateMutability": "nonpayable",
      "type": "function"
    },
    {
      "inputs": [
        {
          "internalType": "bytes4",
          "name": "interfaceId",
          "type": "bytes4"
        }
      ],
      "name": "supportsInterface",
      "outputs": [
        {
          "internalType": "bool",
          "name": "",
          "type": "bool"
        }
      ],
      "stateMutability": "view",
      "type": "function",
      "constant": true
    },
    {
      "inputs": [],
      "name": "symbol",
      "outputs": [
        {
          "internalType": "string",
          "name": "",
          "type": "string"
        }
      ],
      "stateMutability": "view",
      "type": "function",
      "constant": true
    },
    {
      "inputs": [
        {
          "internalType": "uint256",
          "name": "tokenId",
          "type": "uint256"
        }
      ],
      "name": "tokenURI",
      "outputs": [
        {
          "internalType": "string",
          "name": "",
          "type": "string"
        }
      ],
      "stateMutability": "view",
      "type": "function",
      "constant": true
    },
    {
      "inputs": [],
      "name": "totalSupply",
      "outputs": [
        {
          "internalType": "uint256",
          "name": "",
          "type": "uint256"
        }
      ],
      "stateMutability": "view",
      "type": "function",
      "constant": true
    },
    {
      "inputs": [
        {
          "internalType": "address",
          "name": "from",
          "type": "address"
        },
        {
          "internalType": "address",
          "name": "to",
          "type": "address"
        },
        {
          "internalType": "uint256",
          "name": "tokenId",
          "type": "uint256"
        }
      ],
      "name": "transferFrom",
      "outputs": [],
      "stateMutability": "nonpayable",
      "type": "function"
    },
    {
      "inputs": [
        {
          "internalType": "address",
          "name": "newOwner",
          "type": "address"
        }
      ],
      "name": "transferOwnership",
      "outputs": [],
      "stateMutability": "nonpayable",
      "type": "function"
    }
  ],
  "bytecode": "0x60806040526127106009556040518060400160405280601681526020017f687474703a2f2f6c6f63616c686f73743a353030302f00000000000000000000815250600a90805190602001906200005792919062000b6f565b50662386f26fc10000600b553480156200007057600080fd5b506040518060400160405280600b81526020017f43727970746f4469636b730000000000000000000000000000000000000000008152506040518060400160405280600481526020017f4449434b00000000000000000000000000000000000000000000000000000000815250620000fd620000f16200016c60201b60201c565b6200017460201b60201c565b81600190805190602001906200011592919062000b6f565b5080600290805190602001906200012e92919062000b6f565b50505060005b600a81101562000165576200014e6200023860201b60201c565b5080806200015c9062000c8c565b91505062000134565b5062001387565b600033905090565b60008060009054906101000a900473ffffffffffffffffffffffffffffffffffffffff169050816000806101000a81548173ffffffffffffffffffffffffffffffffffffffff021916908373ffffffffffffffffffffffffffffffffffffffff1602179055508173ffffffffffffffffffffffffffffffffffffffff168173ffffffffffffffffffffffffffffffffffffffff167f8be0079c531659141344cd1fd0a4f28419497f9722a3daafe3b4186f6b6457e060405160405180910390a35050565b60006009546200025460076200035460201b620012921760201c565b106200025f57600080fd5b6200027660076200036260201b620012a01760201c565b60006200028f60076200035460201b620012921760201c565b9050620002a16200037860201b60201c565b600c600083815260200190815260200160002060008201518160000160006101000a81548160ff021916908360ff16021790555060208201518160000160016101000a81548160ff021916908360ff16021790555060408201518160000160026101000a81548160ff021916908360ff16021790555060608201518160000160036101000a81548160ff021916908360ff1602179055509050506200034d33826200048360201b60201c565b8091505090565b600081600001549050919050565b6001816000016000828254019250508190555050565b6200038262000c00565b60008060008060005b6001156200044c57620003a3620004a960201b60201c565b8094508195508296508397505050505083838383604051602001620003cc949392919062000d23565b6040516020818303038152906040528051906020012060001c945060011515600d600087815260200190815260200160002060009054906101000a900460ff1615151462000446576001600d600087815260200190815260200160002060006101000a81548160ff0219169083151502179055506200044c565b6200038b565b60405180608001604052808560ff1681526020018460ff1681526020018360ff1681526020018260ff168152509550505050505090565b620004a58282604051806020016040528060008152506200050160201b60201c565b5050565b600080600080620004bf6200056f60201b60201c565b9350620004d16200056f60201b60201c565b9250620004e560036200063060201b60201c565b9150620004f960036200063060201b60201c565b905090919293565b6200051383836200066e60201b60201c565b6200052860008484846200085460201b60201c565b6200056a576040517f08c379a0000000000000000000000000000000000000000000000000000000008152600401620005619062000e00565b60405180910390fd5b505050565b60008062000582620009fe60201b60201c565b905060006103e88210156200059b576007905062000628565b611770821015620005b0576006905062000627565b613e80821015620005c5576005905062000626565b620101d0821015620005db576004905062000625565b62028870821015620005f1576003905062000624565b620595b082101562000607576002905062000623565b620a29908210156200061d576001905062000622565b600090505b5b5b5b5b5b5b809250505090565b6000620006678260ff166200064a620009fe60201b60201c565b62000656919062000e51565b62000a9860201b620012b61760201c565b9050919050565b600073ffffffffffffffffffffffffffffffffffffffff168273ffffffffffffffffffffffffffffffffffffffff161415620006e1576040517f08c379a0000000000000000000000000000000000000000000000000000000008152600401620006d89062000ed9565b60405180910390fd5b620006f28162000aeb60201b60201c565b1562000735576040517f08c379a00000000000000000000000000000000000000000000000000000000081526004016200072c9062000f4b565b60405180910390fd5b620007496000838362000b5760201b60201c565b6001600460008473ffffffffffffffffffffffffffffffffffffffff1673ffffffffffffffffffffffffffffffffffffffff16815260200190815260200160002060008282546200079b919062000f6d565b92505081905550816003600083815260200190815260200160002060006101000a81548173ffffffffffffffffffffffffffffffffffffffff021916908373ffffffffffffffffffffffffffffffffffffffff160217905550808273ffffffffffffffffffffffffffffffffffffffff16600073ffffffffffffffffffffffffffffffffffffffff167fddf252ad1be2c89b69c2b068fc378daa952ba7f163c4a11628f55a4df523b3ef60405160405180910390a45050565b6000620008828473ffffffffffffffffffffffffffffffffffffffff1662000b5c60201b620013061760201c565b15620009f1578373ffffffffffffffffffffffffffffffffffffffff1663150b7a02620008b46200016c60201b60201c565b8786866040518563ffffffff1660e01b8152600401620008d89493929190620010c4565b6020604051808303816000875af19250505080156200091757506040513d601f19601f820116820180604052508101906200091491906200117a565b60015b620009a0573d80600081146200094a576040519150601f19603f3d011682016040523d82523d6000602084013e6200094f565b606091505b5060008151141562000998576040517f08c379a00000000000000000000000000000000000000000000000000000000081526004016200098f9062000e00565b60405180910390fd5b805181602001fd5b63150b7a0260e01b7bffffffffffffffffffffffffffffffffffffffffffffffffffffffff1916817bffffffffffffffffffffffffffffffffffffffffffffffffffffffff191614915050620009f6565b600190505b949350505050565b600062000a1760086200036260201b620012a01760201c565b6000444262000a3260076200035460201b620012921760201c565b3362000a4a60086200035460201b620012921760201c565b60405160200162000a6095949392919062001221565b60405160208183030381529060405290506000818051906020012060001c9050620f42408162000a91919062000e51565b9250505090565b600060ff801682111562000ae3576040517f08c379a000000000000000000000000000000000000000000000000000000000815260040162000ada9062001300565b60405180910390fd5b819050919050565b60008073ffffffffffffffffffffffffffffffffffffffff166003600084815260200190815260200160002060009054906101000a900473ffffffffffffffffffffffffffffffffffffffff1673ffffffffffffffffffffffffffffffffffffffff1614159050919050565b505050565b600080823b905060008111915050919050565b82805462000b7d9062001351565b90600052602060002090601f01602090048101928262000ba1576000855562000bed565b82601f1062000bbc57805160ff191683800117855562000bed565b8280016001018555821562000bed579182015b8281111562000bec57825182559160200191906001019062000bcf565b5b50905062000bfc919062000c34565b5090565b6040518060800160405280600060ff168152602001600060ff168152602001600060ff168152602001600060ff1681525090565b5b8082111562000c4f57600081600090555060010162000c35565b5090565b7f4e487b7100000000000000000000000000000000000000000000000000000000600052601160045260246000fd5b6000819050919050565b600062000c998262000c82565b91507fffffffffffffffffffffffffffffffffffffffffffffffffffffffffffffffff82141562000ccf5762000cce62000c53565b5b600182019050919050565b600060ff82169050919050565b60008160f81b9050919050565b600062000d018262000ce7565b9050919050565b62000d1d62000d178262000cda565b62000cf4565b82525050565b600062000d31828762000d08565b60018201915062000d43828662000d08565b60018201915062000d55828562000d08565b60018201915062000d67828462000d08565b60018201915081905095945050505050565b600082825260208201905092915050565b7f4552433732313a207472616e7366657220746f206e6f6e20455243373231526560008201527f63656976657220696d706c656d656e7465720000000000000000000000000000602082015250565b600062000de860328362000d79565b915062000df58262000d8a565b604082019050919050565b6000602082019050818103600083015262000e1b8162000dd9565b9050919050565b7f4e487b7100000000000000000000000000000000000000000000000000000000600052601260045260246000fd5b600062000e5e8262000c82565b915062000e6b8362000c82565b92508262000e7e5762000e7d62000e22565b5b828206905092915050565b7f4552433732313a206d696e7420746f20746865207a65726f2061646472657373600082015250565b600062000ec160208362000d79565b915062000ece8262000e89565b602082019050919050565b6000602082019050818103600083015262000ef48162000eb2565b9050919050565b7f4552433732313a20746f6b656e20616c7265616479206d696e74656400000000600082015250565b600062000f33601c8362000d79565b915062000f408262000efb565b602082019050919050565b6000602082019050818103600083015262000f668162000f24565b9050919050565b600062000f7a8262000c82565b915062000f878362000c82565b9250827fffffffffffffffffffffffffffffffffffffffffffffffffffffffffffffffff0382111562000fbf5762000fbe62000c53565b5b828201905092915050565b600073ffffffffffffffffffffffffffffffffffffffff82169050919050565b600062000ff78262000fca565b9050919050565b620010098162000fea565b82525050565b6200101a8162000c82565b82525050565b600081519050919050565b600082825260208201905092915050565b60005b838110156200105c5780820151818401526020810190506200103f565b838111156200106c576000848401525b50505050565b6000601f19601f8301169050919050565b6000620010908262001020565b6200109c81856200102b565b9350620010ae8185602086016200103c565b620010b98162001072565b840191505092915050565b6000608082019050620010db600083018762000ffe565b620010ea602083018662000ffe565b620010f960408301856200100f565b81810360608301526200110d818462001083565b905095945050505050565b600080fd5b60007fffffffff0000000000000000000000000000000000000000000000000000000082169050919050565b62001154816200111d565b81146200116057600080fd5b50565b600081519050620011748162001149565b92915050565b60006020828403121562001193576200119262001118565b5b6000620011a38482850162001163565b91505092915050565b6000819050919050565b620011cb620011c58262000c82565b620011ac565b82525050565b60008160601b9050919050565b6000620011eb82620011d1565b9050919050565b6000620011ff82620011de565b9050919050565b6200121b620012158262000fea565b620011f2565b82525050565b60006200122f8288620011b6565b602082019150620012418287620011b6565b602082019150620012538286620011b6565b60208201915062001265828562001206565b601482019150620012778284620011b6565b6020820191508190509695505050505050565b7f53616665436173743a2076616c756520646f65736e27742066697420696e203860008201527f2062697473000000000000000000000000000000000000000000000000000000602082015250565b6000620012e860258362000d79565b9150620012f5826200128a565b604082019050919050565b600060208201905081810360008301526200131b81620012d9565b9050919050565b7f4e487b7100000000000000000000000000000000000000000000000000000000600052602260045260246000fd5b600060028204905060018216806200136a57607f821691505b6020821081141562001381576200138062001322565b5b50919050565b6138e880620013976000396000f3fe6080604052600436106101405760003560e01c806370a08231116100b657806399d32fc41161006f57806399d32fc41461043e578063a22cb46514610469578063b88d4fde14610492578063c87b56dd146104bb578063e985e9c5146104f8578063f2fde38b1461053557610140565b806370a0823114610329578063715018a614610366578063771282f61461037d5780638da5cb5b146103a85780639507d39a146103d357806395d89b411461041357610140565b806323b872dd1161010857806323b872dd1461023e5780632e75ab501461026757806342842e0e146102905780634e71d92d146102b957806355f804b3146102c35780636352211e146102ec57610140565b806301ffc9a71461014557806306fdde0314610182578063081812fc146101ad578063095ea7b3146101ea57806318160ddd14610213575b600080fd5b34801561015157600080fd5b5061016c6004803603810190610167919061236c565b61055e565b60405161017991906123b4565b60405180910390f35b34801561018e57600080fd5b50610197610640565b6040516101a49190612468565b60405180910390f35b3480156101b957600080fd5b506101d460048036038101906101cf91906124c0565b6106d2565b6040516101e1919061252e565b60405180910390f35b3480156101f657600080fd5b50610211600480360381019061020c9190612575565b610757565b005b34801561021f57600080fd5b5061022861086f565b60405161023591906125c4565b60405180910390f35b34801561024a57600080fd5b50610265600480360381019061026091906125df565b610875565b005b34801561027357600080fd5b5061028e600480360381019061028991906124c0565b6108d5565b005b34801561029c57600080fd5b506102b760048036038101906102b291906125df565b61095b565b005b6102c161097b565b005b3480156102cf57600080fd5b506102ea60048036038101906102e59190612767565b610a1a565b005b3480156102f857600080fd5b50610313600480360381019061030e91906124c0565b610ab0565b604051610320919061252e565b60405180910390f35b34801561033557600080fd5b50610350600480360381019061034b91906127b0565b610b62565b60405161035d91906125c4565b60405180910390f35b34801561037257600080fd5b5061037b610c1a565b005b34801561038957600080fd5b50610392610ca2565b60405161039f91906125c4565b60405180910390f35b3480156103b457600080fd5b506103bd610cb3565b6040516103ca919061252e565b60405180910390f35b3480156103df57600080fd5b506103fa60048036038101906103f591906124c0565b610cdc565b60405161040a94939291906127f9565b60405180910390f35b34801561041f57600080fd5b50610428610de4565b6040516104359190612468565b60405180910390f35b34801561044a57600080fd5b50610453610e76565b60405161046091906125c4565b60405180910390f35b34801561047557600080fd5b50610490600480360381019061048b919061286a565b610e7c565b005b34801561049e57600080fd5b506104b960048036038101906104b4919061294b565b610ffd565b005b3480156104c757600080fd5b506104e260048036038101906104dd91906124c0565b61105f565b6040516104ef9190612468565b60405180910390f35b34801561050457600080fd5b5061051f600480360381019061051a91906129ce565b611106565b60405161052c91906123b4565b60405180910390f35b34801561054157600080fd5b5061055c600480360381019061055791906127b0565b61119a565b005b60007f80ac58cd000000000000000000000000000000000000000000000000000000007bffffffffffffffffffffffffffffffffffffffffffffffffffffffff1916827bffffffffffffffffffffffffffffffffffffffffffffffffffffffff1916148061062957507f5b5e139f000000000000000000000000000000000000000000000000000000007bffffffffffffffffffffffffffffffffffffffffffffffffffffffff1916827bffffffffffffffffffffffffffffffffffffffffffffffffffffffff1916145b80610639575061063882611319565b5b9050919050565b60606001805461064f90612a3d565b80601f016020809104026020016040519081016040528092919081815260200182805461067b90612a3d565b80156106c85780601f1061069d576101008083540402835291602001916106c8565b820191906000526020600020905b8154815290600101906020018083116106ab57829003601f168201915b5050505050905090565b60006106dd82611383565b61071c576040517f08c379a000000000000000000000000000000000000000000000000000000000815260040161071390612ae1565b60405180910390fd5b6005600083815260200190815260200160002060009054906101000a900473ffffffffffffffffffffffffffffffffffffffff169050919050565b600061076282610ab0565b90508073ffffffffffffffffffffffffffffffffffffffff168373ffffffffffffffffffffffffffffffffffffffff1614156107d3576040517f08c379a00000000000000000000000000000000000000000000000000000000081526004016107ca90612b73565b60405180910390fd5b8073ffffffffffffffffffffffffffffffffffffffff166107f26113ef565b73ffffffffffffffffffffffffffffffffffffffff16148061082157506108208161081b6113ef565b611106565b5b610860576040517f08c379a000000000000000000000000000000000000000000000000000000000815260040161085790612c05565b60405180910390fd5b61086a83836113f7565b505050565b60095481565b6108866108806113ef565b826114b0565b6108c5576040517f08c379a00000000000000000000000000000000000000000000000000000000081526004016108bc90612c97565b60405180910390fd5b6108d083838361158e565b505050565b6108dd6113ef565b73ffffffffffffffffffffffffffffffffffffffff166108fb610cb3565b73ffffffffffffffffffffffffffffffffffffffff1614610951576040517f08c379a000000000000000000000000000000000000000000000000000000000815260040161094890612d03565b60405180910390fd5b80600b8190555050565b61097683838360405180602001604052806000815250610ffd565b505050565b600b5434146109bf576040517f08c379a00000000000000000000000000000000000000000000000000000000081526004016109b690612d6f565b60405180910390fd5b6109c76117ea565b506109d0610cb3565b73ffffffffffffffffffffffffffffffffffffffff166108fc600b549081150290604051600060405180830381858888f19350505050158015610a17573d6000803e3d6000fd5b50565b610a226113ef565b73ffffffffffffffffffffffffffffffffffffffff16610a40610cb3565b73ffffffffffffffffffffffffffffffffffffffff1614610a96576040517f08c379a0000000000000000000000000000000000000000000000000000000008152600401610a8d90612d03565b60405180910390fd5b80600a9080519060200190610aac929190612229565b5050565b6000806003600084815260200190815260200160002060009054906101000a900473ffffffffffffffffffffffffffffffffffffffff169050600073ffffffffffffffffffffffffffffffffffffffff168173ffffffffffffffffffffffffffffffffffffffff161415610b59576040517f08c379a0000000000000000000000000000000000000000000000000000000008152600401610b5090612e01565b60405180910390fd5b80915050919050565b60008073ffffffffffffffffffffffffffffffffffffffff168273ffffffffffffffffffffffffffffffffffffffff161415610bd3576040517f08c379a0000000000000000000000000000000000000000000000000000000008152600401610bca90612e93565b60405180910390fd5b600460008373ffffffffffffffffffffffffffffffffffffffff1673ffffffffffffffffffffffffffffffffffffffff168152602001908152602001600020549050919050565b610c226113ef565b73ffffffffffffffffffffffffffffffffffffffff16610c40610cb3565b73ffffffffffffffffffffffffffffffffffffffff1614610c96576040517f08c379a0000000000000000000000000000000000000000000000000000000008152600401610c8d90612d03565b60405180910390fd5b610ca060006118ce565b565b6000610cae6007611292565b905090565b60008060009054906101000a900473ffffffffffffffffffffffffffffffffffffffff16905090565b600080600080610ceb85611383565b610d2a576040517f08c379a0000000000000000000000000000000000000000000000000000000008152600401610d2190612eff565b60405180910390fd5b6000600c60008781526020019081526020016000206040518060800160405290816000820160009054906101000a900460ff1660ff1660ff1681526020016000820160019054906101000a900460ff1660ff1660ff1681526020016000820160029054906101000a900460ff1660ff1660ff1681526020016000820160039054906101000a900460ff1660ff1660ff1681525050905080600001519450806020015193508060400151925080606001519150509193509193565b606060028054610df390612a3d565b80601f0160208091040260200160405190810160405280929190818152602001828054610e1f90612a3d565b8015610e6c5780601f10610e4157610100808354040283529160200191610e6c565b820191906000526020600020905b815481529060010190602001808311610e4f57829003601f168201915b5050505050905090565b600b5481565b610e846113ef565b73ffffffffffffffffffffffffffffffffffffffff168273ffffffffffffffffffffffffffffffffffffffff161415610ef2576040517f08c379a0000000000000000000000000000000000000000000000000000000008152600401610ee990612f6b565b60405180910390fd5b8060066000610eff6113ef565b73ffffffffffffffffffffffffffffffffffffffff1673ffffffffffffffffffffffffffffffffffffffff16815260200190815260200160002060008473ffffffffffffffffffffffffffffffffffffffff1673ffffffffffffffffffffffffffffffffffffffff16815260200190815260200160002060006101000a81548160ff0219169083151502179055508173ffffffffffffffffffffffffffffffffffffffff16610fac6113ef565b73ffffffffffffffffffffffffffffffffffffffff167f17307eab39ab6107e8899845ad3d59bd9653f200f220920489ca2b5937696c3183604051610ff191906123b4565b60405180910390a35050565b61100e6110086113ef565b836114b0565b61104d576040517f08c379a000000000000000000000000000000000000000000000000000000000815260040161104490612c97565b60405180910390fd5b61105984848484611992565b50505050565b606061106a82611383565b6110a9576040517f08c379a00000000000000000000000000000000000000000000000000000000081526004016110a090612ffd565b60405180910390fd5b60006110b36119ee565b905060008151116110d357604051806020016040528060008152506110fe565b806110dd84611a80565b6040516020016110ee929190613059565b6040516020818303038152906040525b915050919050565b6000600660008473ffffffffffffffffffffffffffffffffffffffff1673ffffffffffffffffffffffffffffffffffffffff16815260200190815260200160002060008373ffffffffffffffffffffffffffffffffffffffff1673ffffffffffffffffffffffffffffffffffffffff16815260200190815260200160002060009054906101000a900460ff16905092915050565b6111a26113ef565b73ffffffffffffffffffffffffffffffffffffffff166111c0610cb3565b73ffffffffffffffffffffffffffffffffffffffff1614611216576040517f08c379a000000000000000000000000000000000000000000000000000000000815260040161120d90612d03565b60405180910390fd5b600073ffffffffffffffffffffffffffffffffffffffff168173ffffffffffffffffffffffffffffffffffffffff161415611286576040517f08c379a000000000000000000000000000000000000000000000000000000000815260040161127d906130ef565b60405180910390fd5b61128f816118ce565b50565b600081600001549050919050565b6001816000016000828254019250508190555050565b600060ff80168211156112fe576040517f08c379a00000000000000000000000000000000000000000000000000000000081526004016112f590613181565b60405180910390fd5b819050919050565b600080823b905060008111915050919050565b60007f01ffc9a7000000000000000000000000000000000000000000000000000000007bffffffffffffffffffffffffffffffffffffffffffffffffffffffff1916827bffffffffffffffffffffffffffffffffffffffffffffffffffffffff1916149050919050565b60008073ffffffffffffffffffffffffffffffffffffffff166003600084815260200190815260200160002060009054906101000a900473ffffffffffffffffffffffffffffffffffffffff1673ffffffffffffffffffffffffffffffffffffffff1614159050919050565b600033905090565b816005600083815260200190815260200160002060006101000a81548173ffffffffffffffffffffffffffffffffffffffff021916908373ffffffffffffffffffffffffffffffffffffffff160217905550808273ffffffffffffffffffffffffffffffffffffffff1661146a83610ab0565b73ffffffffffffffffffffffffffffffffffffffff167f8c5be1e5ebec7d5bd14f71427d1e84f3dd0314c0f7b2291e5b200ac8c7c3b92560405160405180910390a45050565b60006114bb82611383565b6114fa576040517f08c379a00000000000000000000000000000000000000000000000000000000081526004016114f190613213565b60405180910390fd5b600061150583610ab0565b90508073ffffffffffffffffffffffffffffffffffffffff168473ffffffffffffffffffffffffffffffffffffffff16148061157457508373ffffffffffffffffffffffffffffffffffffffff1661155c846106d2565b73ffffffffffffffffffffffffffffffffffffffff16145b8061158557506115848185611106565b5b91505092915050565b8273ffffffffffffffffffffffffffffffffffffffff166115ae82610ab0565b73ffffffffffffffffffffffffffffffffffffffff1614611604576040517f08c379a00000000000000000000000000000000000000000000000000000000081526004016115fb906132a5565b60405180910390fd5b600073ffffffffffffffffffffffffffffffffffffffff168273ffffffffffffffffffffffffffffffffffffffff161415611674576040517f08c379a000000000000000000000000000000000000000000000000000000000815260040161166b90613337565b60405180910390fd5b61167f838383611be1565b61168a6000826113f7565b6001600460008573ffffffffffffffffffffffffffffffffffffffff1673ffffffffffffffffffffffffffffffffffffffff16815260200190815260200160002060008282546116da9190613386565b925050819055506001600460008473ffffffffffffffffffffffffffffffffffffffff1673ffffffffffffffffffffffffffffffffffffffff168152602001908152602001600020600082825461173191906133ba565b92505081905550816003600083815260200190815260200160002060006101000a81548173ffffffffffffffffffffffffffffffffffffffff021916908373ffffffffffffffffffffffffffffffffffffffff160217905550808273ffffffffffffffffffffffffffffffffffffffff168473ffffffffffffffffffffffffffffffffffffffff167fddf252ad1be2c89b69c2b068fc378daa952ba7f163c4a11628f55a4df523b3ef60405160405180910390a4505050565b60006009546117f96007611292565b1061180357600080fd5b61180d60076112a0565b60006118196007611292565b9050611823611be6565b600c600083815260200190815260200160002060008201518160000160006101000a81548160ff021916908360ff16021790555060208201518160000160016101000a81548160ff021916908360ff16021790555060408201518160000160026101000a81548160ff021916908360ff16021790555060608201518160000160036101000a81548160ff021916908360ff1602179055509050506118c73382611ce1565b8091505090565b60008060009054906101000a900473ffffffffffffffffffffffffffffffffffffffff169050816000806101000a81548173ffffffffffffffffffffffffffffffffffffffff021916908373ffffffffffffffffffffffffffffffffffffffff1602179055508173ffffffffffffffffffffffffffffffffffffffff168173ffffffffffffffffffffffffffffffffffffffff167f8be0079c531659141344cd1fd0a4f28419497f9722a3daafe3b4186f6b6457e060405160405180910390a35050565b61199d84848461158e565b6119a984848484611cff565b6119e8576040517f08c379a00000000000000000000000000000000000000000000000000000000081526004016119df90613482565b60405180910390fd5b50505050565b6060600a80546119fd90612a3d565b80601f0160208091040260200160405190810160405280929190818152602001828054611a2990612a3d565b8015611a765780601f10611a4b57610100808354040283529160200191611a76565b820191906000526020600020905b815481529060010190602001808311611a5957829003601f168201915b5050505050905090565b60606000821415611ac8576040518060400160405280600181526020017f30000000000000000000000000000000000000000000000000000000000000008152509050611bdc565b600082905060005b60008214611afa578080611ae3906134a2565b915050600a82611af3919061351a565b9150611ad0565b60008167ffffffffffffffff811115611b1657611b1561263c565b5b6040519080825280601f01601f191660200182016040528015611b485781602001600182028036833780820191505090505b5090505b60008514611bd557600182611b619190613386565b9150600a85611b70919061354b565b6030611b7c91906133ba565b60f81b818381518110611b9257611b9161357c565b5b60200101907effffffffffffffffffffffffffffffffffffffffffffffffffffffffffffff1916908160001a905350600a85611bce919061351a565b9450611b4c565b8093505050505b919050565b505050565b611bee6122af565b60008060008060005b600115611caa57611c06611e87565b8094508195508296508397505050505083838383604051602001611c2d94939291906135e1565b6040516020818303038152906040528051906020012060001c945060011515600d600087815260200190815260200160002060009054906101000a900460ff16151514611ca5576001600d600087815260200190815260200160002060006101000a81548160ff021916908315150217905550611caa565b611bf7565b60405180608001604052808560ff1681526020018460ff1681526020018360ff1681526020018260ff168152509550505050505090565b611cfb828260405180602001604052806000815250611ebf565b5050565b6000611d208473ffffffffffffffffffffffffffffffffffffffff16611306565b15611e7a578373ffffffffffffffffffffffffffffffffffffffff1663150b7a02611d496113ef565b8786866040518563ffffffff1660e01b8152600401611d6b9493929190613684565b6020604051808303816000875af1925050508015611da757506040513d601f19601f82011682018060405250810190611da491906136e5565b60015b611e2a573d8060008114611dd7576040519150601f19603f3d011682016040523d82523d6000602084013e611ddc565b606091505b50600081511415611e22576040517f08c379a0000000000000000000000000000000000000000000000000000000008152600401611e1990613482565b60405180910390fd5b805181602001fd5b63150b7a0260e01b7bffffffffffffffffffffffffffffffffffffffffffffffffffffffff1916817bffffffffffffffffffffffffffffffffffffffffffffffffffffffff191614915050611e7f565b600190505b949350505050565b600080600080611e95611f1a565b9350611e9f611f1a565b9250611eab6003611fc5565b9150611eb76003611fc5565b905090919293565b611ec98383611fec565b611ed66000848484611cff565b611f15576040517f08c379a0000000000000000000000000000000000000000000000000000000008152600401611f0c90613482565b60405180910390fd5b505050565b600080611f256121ba565b905060006103e8821015611f3c5760079050611fbd565b611770821015611f4f5760069050611fbc565b613e80821015611f625760059050611fbb565b620101d0821015611f765760049050611fba565b62028870821015611f8a5760039050611fb9565b620595b0821015611f9e5760029050611fb8565b620a2990821015611fb25760019050611fb7565b600090505b5b5b5b5b5b5b809250505090565b6000611fe58260ff16611fd66121ba565b611fe0919061354b565b6112b6565b9050919050565b600073ffffffffffffffffffffffffffffffffffffffff168273ffffffffffffffffffffffffffffffffffffffff16141561205c576040517f08c379a00000000000000000000000000000000000000000000000000000000081526004016120539061375e565b60405180910390fd5b61206581611383565b156120a5576040517f08c379a000000000000000000000000000000000000000000000000000000000815260040161209c906137ca565b60405180910390fd5b6120b160008383611be1565b6001600460008473ffffffffffffffffffffffffffffffffffffffff1673ffffffffffffffffffffffffffffffffffffffff168152602001908152602001600020600082825461210191906133ba565b92505081905550816003600083815260200190815260200160002060006101000a81548173ffffffffffffffffffffffffffffffffffffffff021916908373ffffffffffffffffffffffffffffffffffffffff160217905550808273ffffffffffffffffffffffffffffffffffffffff16600073ffffffffffffffffffffffffffffffffffffffff167fddf252ad1be2c89b69c2b068fc378daa952ba7f163c4a11628f55a4df523b3ef60405160405180910390a45050565b60006121c660086112a0565b600044426121d46007611292565b336121df6008611292565b6040516020016121f3959493929190613853565b60405160208183030381529060405290506000818051906020012060001c9050620f424081612222919061354b565b9250505090565b82805461223590612a3d565b90600052602060002090601f016020900481019282612257576000855561229e565b82601f1061227057805160ff191683800117855561229e565b8280016001018555821561229e579182015b8281111561229d578251825591602001919060010190612282565b5b5090506122ab91906122e3565b5090565b6040518060800160405280600060ff168152602001600060ff168152602001600060ff168152602001600060ff1681525090565b5b808211156122fc5760008160009055506001016122e4565b5090565b6000604051905090565b600080fd5b600080fd5b60007fffffffff0000000000000000000000000000000000000000000000000000000082169050919050565b61234981612314565b811461235457600080fd5b50565b60008135905061236681612340565b92915050565b6000602082840312156123825761238161230a565b5b600061239084828501612357565b91505092915050565b60008115159050919050565b6123ae81612399565b82525050565b60006020820190506123c960008301846123a5565b92915050565b600081519050919050565b600082825260208201905092915050565b60005b838110156124095780820151818401526020810190506123ee565b83811115612418576000848401525b50505050565b6000601f19601f8301169050919050565b600061243a826123cf565b61244481856123da565b93506124548185602086016123eb565b61245d8161241e565b840191505092915050565b60006020820190508181036000830152612482818461242f565b905092915050565b6000819050919050565b61249d8161248a565b81146124a857600080fd5b50565b6000813590506124ba81612494565b92915050565b6000602082840312156124d6576124d561230a565b5b60006124e4848285016124ab565b91505092915050565b600073ffffffffffffffffffffffffffffffffffffffff82169050919050565b6000612518826124ed565b9050919050565b6125288161250d565b82525050565b6000602082019050612543600083018461251f565b92915050565b6125528161250d565b811461255d57600080fd5b50565b60008135905061256f81612549565b92915050565b6000806040838503121561258c5761258b61230a565b5b600061259a85828601612560565b92505060206125ab858286016124ab565b9150509250929050565b6125be8161248a565b82525050565b60006020820190506125d960008301846125b5565b92915050565b6000806000606084860312156125f8576125f761230a565b5b600061260686828701612560565b935050602061261786828701612560565b9250506040612628868287016124ab565b9150509250925092565b600080fd5b600080fd5b7f4e487b7100000000000000000000000000000000000000000000000000000000600052604160045260246000fd5b6126748261241e565b810181811067ffffffffffffffff821117156126935761269261263c565b5b80604052505050565b60006126a6612300565b90506126b2828261266b565b919050565b600067ffffffffffffffff8211156126d2576126d161263c565b5b6126db8261241e565b9050602081019050919050565b82818337600083830152505050565b600061270a612705846126b7565b61269c565b90508281526020810184848401111561272657612725612637565b5b6127318482856126e8565b509392505050565b600082601f83011261274e5761274d612632565b5b813561275e8482602086016126f7565b91505092915050565b60006020828403121561277d5761277c61230a565b5b600082013567ffffffffffffffff81111561279b5761279a61230f565b5b6127a784828501612739565b91505092915050565b6000602082840312156127c6576127c561230a565b5b60006127d484828501612560565b91505092915050565b600060ff82169050919050565b6127f3816127dd565b82525050565b600060808201905061280e60008301876127ea565b61281b60208301866127ea565b61282860408301856127ea565b61283560608301846127ea565b95945050505050565b61284781612399565b811461285257600080fd5b50565b6000813590506128648161283e565b92915050565b600080604083850312156128815761288061230a565b5b600061288f85828601612560565b92505060206128a085828601612855565b9150509250929050565b600067ffffffffffffffff8211156128c5576128c461263c565b5b6128ce8261241e565b9050602081019050919050565b60006128ee6128e9846128aa565b61269c565b90508281526020810184848401111561290a57612909612637565b5b6129158482856126e8565b509392505050565b600082601f83011261293257612931612632565b5b81356129428482602086016128db565b91505092915050565b600080600080608085870312156129655761296461230a565b5b600061297387828801612560565b945050602061298487828801612560565b9350506040612995878288016124ab565b925050606085013567ffffffffffffffff8111156129b6576129b561230f565b5b6129c28782880161291d565b91505092959194509250565b600080604083850312156129e5576129e461230a565b5b60006129f385828601612560565b9250506020612a0485828601612560565b9150509250929050565b7f4e487b7100000000000000000000000000000000000000000000000000000000600052602260045260246000fd5b60006002820490506001821680612a5557607f821691505b60208210811415612a6957612a68612a0e565b5b50919050565b7f4552433732313a20617070726f76656420717565727920666f72206e6f6e657860008201527f697374656e7420746f6b656e0000000000000000000000000000000000000000602082015250565b6000612acb602c836123da565b9150612ad682612a6f565b604082019050919050565b60006020820190508181036000830152612afa81612abe565b9050919050565b7f4552433732313a20617070726f76616c20746f2063757272656e74206f776e6560008201527f7200000000000000000000000000000000000000000000000000000000000000602082015250565b6000612b5d6021836123da565b9150612b6882612b01565b604082019050919050565b60006020820190508181036000830152612b8c81612b50565b9050919050565b7f4552433732313a20617070726f76652063616c6c6572206973206e6f74206f7760008201527f6e6572206e6f7220617070726f76656420666f7220616c6c0000000000000000602082015250565b6000612bef6038836123da565b9150612bfa82612b93565b604082019050919050565b60006020820190508181036000830152612c1e81612be2565b9050919050565b7f4552433732313a207472616e736665722063616c6c6572206973206e6f74206f60008201527f776e6572206e6f7220617070726f766564000000000000000000000000000000602082015250565b6000612c816031836123da565b9150612c8c82612c25565b604082019050919050565b60006020820190508181036000830152612cb081612c74565b9050919050565b7f4f776e61626c653a2063616c6c6572206973206e6f7420746865206f776e6572600082015250565b6000612ced6020836123da565b9150612cf882612cb7565b602082019050919050565b60006020820190508181036000830152612d1c81612ce0565b9050919050565b7f436c61696d696e672061204e465420636f737473206574686572000000000000600082015250565b6000612d59601a836123da565b9150612d6482612d23565b602082019050919050565b60006020820190508181036000830152612d8881612d4c565b9050919050565b7f4552433732313a206f776e657220717565727920666f72206e6f6e657869737460008201527f656e7420746f6b656e0000000000000000000000000000000000000000000000602082015250565b6000612deb6029836123da565b9150612df682612d8f565b604082019050919050565b60006020820190508181036000830152612e1a81612dde565b9050919050565b7f4552433732313a2062616c616e636520717565727920666f7220746865207a6560008201527f726f206164647265737300000000000000000000000000000000000000000000602082015250565b6000612e7d602a836123da565b9150612e8882612e21565b604082019050919050565b60006020820190508181036000830152612eac81612e70565b9050919050565b7f546f6b656e206e6f74206d696e74656420796574000000000000000000000000600082015250565b6000612ee96014836123da565b9150612ef482612eb3565b602082019050919050565b60006020820190508181036000830152612f1881612edc565b9050919050565b7f4552433732313a20617070726f766520746f2063616c6c657200000000000000600082015250565b6000612f556019836123da565b9150612f6082612f1f565b602082019050919050565b60006020820190508181036000830152612f8481612f48565b9050919050565b7f4552433732314d657461646174613a2055524920717565727920666f72206e6f60008201527f6e6578697374656e7420746f6b656e0000000000000000000000000000000000602082015250565b6000612fe7602f836123da565b9150612ff282612f8b565b604082019050919050565b6000602082019050818103600083015261301681612fda565b9050919050565b600081905092915050565b6000613033826123cf565b61303d818561301d565b935061304d8185602086016123eb565b80840191505092915050565b60006130658285613028565b91506130718284613028565b91508190509392505050565b7f4f776e61626c653a206e6577206f776e657220697320746865207a65726f206160008201527f6464726573730000000000000000000000000000000000000000000000000000602082015250565b60006130d96026836123da565b91506130e48261307d565b604082019050919050565b60006020820190508181036000830152613108816130cc565b9050919050565b7f53616665436173743a2076616c756520646f65736e27742066697420696e203860008201527f2062697473000000000000000000000000000000000000000000000000000000602082015250565b600061316b6025836123da565b91506131768261310f565b604082019050919050565b6000602082019050818103600083015261319a8161315e565b9050919050565b7f4552433732313a206f70657261746f7220717565727920666f72206e6f6e657860008201527f697374656e7420746f6b656e0000000000000000000000000000000000000000602082015250565b60006131fd602c836123da565b9150613208826131a1565b604082019050919050565b6000602082019050818103600083015261322c816131f0565b9050919050565b7f4552433732313a207472616e73666572206f6620746f6b656e2074686174206960008201527f73206e6f74206f776e0000000000000000000000000000000000000000000000602082015250565b600061328f6029836123da565b915061329a82613233565b604082019050919050565b600060208201905081810360008301526132be81613282565b9050919050565b7f4552433732313a207472616e7366657220746f20746865207a65726f2061646460008201527f7265737300000000000000000000000000000000000000000000000000000000602082015250565b60006133216024836123da565b915061332c826132c5565b604082019050919050565b6000602082019050818103600083015261335081613314565b9050919050565b7f4e487b7100000000000000000000000000000000000000000000000000000000600052601160045260246000fd5b60006133918261248a565b915061339c8361248a565b9250828210156133af576133ae613357565b5b828203905092915050565b60006133c58261248a565b91506133d08361248a565b9250827fffffffffffffffffffffffffffffffffffffffffffffffffffffffffffffffff0382111561340557613404613357565b5b828201905092915050565b7f4552433732313a207472616e7366657220746f206e6f6e20455243373231526560008201527f63656976657220696d706c656d656e7465720000000000000000000000000000602082015250565b600061346c6032836123da565b915061347782613410565b604082019050919050565b6000602082019050818103600083015261349b8161345f565b9050919050565b60006134ad8261248a565b91507fffffffffffffffffffffffffffffffffffffffffffffffffffffffffffffffff8214156134e0576134df613357565b5b600182019050919050565b7f4e487b7100000000000000000000000000000000000000000000000000000000600052601260045260246000fd5b60006135258261248a565b91506135308361248a565b9250826135405761353f6134eb565b5b828204905092915050565b60006135568261248a565b91506135618361248a565b925082613571576135706134eb565b5b828206905092915050565b7f4e487b7100000000000000000000000000000000000000000000000000000000600052603260045260246000fd5b60008160f81b9050919050565b60006135c3826135ab565b9050919050565b6135db6135d6826127dd565b6135b8565b82525050565b60006135ed82876135ca565b6001820191506135fd82866135ca565b60018201915061360d82856135ca565b60018201915061361d82846135ca565b60018201915081905095945050505050565b600081519050919050565b600082825260208201905092915050565b60006136568261362f565b613660818561363a565b93506136708185602086016123eb565b6136798161241e565b840191505092915050565b6000608082019050613699600083018761251f565b6136a6602083018661251f565b6136b360408301856125b5565b81810360608301526136c5818461364b565b905095945050505050565b6000815190506136df81612340565b92915050565b6000602082840312156136fb576136fa61230a565b5b6000613709848285016136d0565b91505092915050565b7f4552433732313a206d696e7420746f20746865207a65726f2061646472657373600082015250565b60006137486020836123da565b915061375382613712565b602082019050919050565b600060208201905081810360008301526137778161373b565b9050919050565b7f4552433732313a20746f6b656e20616c7265616479206d696e74656400000000600082015250565b60006137b4601c836123da565b91506137bf8261377e565b602082019050919050565b600060208201905081810360008301526137e3816137a7565b9050919050565b6000819050919050565b6138056138008261248a565b6137ea565b82525050565b60008160601b9050919050565b60006138238261380b565b9050919050565b600061383582613818565b9050919050565b61384d6138488261250d565b61382a565b82525050565b600061385f82886137f4565b60208201915061386f82876137f4565b60208201915061387f82866137f4565b60208201915061388f828561383c565b60148201915061389f82846137f4565b602082019150819050969550505050505056fea264697066735822122054caa38a86d6cc06ec156cbd56c4381efef78d23f07e52278981952c84ece68464736f6c634300080a0033",
  "immutableReferences": {},
  "source": "// SPDX-License-Identifier: MIT\n\npragma solidity >=0.8.3 <0.9.0;\n\nimport \"./CryptoDicksHelper.sol\";\n\n/// @title Extends all CryptoDicks contract, it is the final contract.\n/// @dev Final contract to use\n/// @author juliencrn\ncontract CryptoDicksNFT is CryptoDicksHelper {\n\n}\n",
  "sourcePath": "/Users/juliencaron/www/ntf/ntf-collectible/contracts/CryptoDicksNFT.sol",
  "compiler": {
    "name": "solc",
    "version": "0.8.10+commit.fc410830.Emscripten.clang"
  },
  "schemaVersion": "3.4.3",
  "updatedAt": "2021-11-29T16:09:16.783Z",
  "networkType": "ethereum",
  "devdoc": {
    "author": "juliencrn",
    "details": "Final contract to use",
    "kind": "dev",
    "methods": {
      "approve(address,uint256)": {
        "details": "See {IERC721-approve}."
      },
      "balanceOf(address)": {
        "details": "See {IERC721-balanceOf}."
      },
      "claim()": {
        "details": "takes fees then calls mint() internally."
      },
      "currentSupply()": {
        "returns": {
          "_0": "the current supply"
        }
      },
      "getApproved(uint256)": {
        "details": "See {IERC721-getApproved}."
      },
      "isApprovedForAll(address,address)": {
        "details": "See {IERC721-isApprovedForAll}."
      },
      "name()": {
        "details": "See {IERC721Metadata-name}."
      },
      "owner()": {
        "details": "Returns the address of the current owner."
      },
      "ownerOf(uint256)": {
        "details": "See {IERC721-ownerOf}."
      },
      "renounceOwnership()": {
        "details": "Leaves the contract without owner. It will not be possible to call `onlyOwner` functions anymore. Can only be called by the current owner. NOTE: Renouncing ownership will leave the contract without an owner, thereby removing any functionality that is only available to the owner."
      },
      "safeTransferFrom(address,address,uint256)": {
        "details": "See {IERC721-safeTransferFrom}."
      },
      "safeTransferFrom(address,address,uint256,bytes)": {
        "details": "See {IERC721-safeTransferFrom}."
      },
      "setApprovalForAll(address,bool)": {
        "details": "See {IERC721-setApprovalForAll}."
      },
      "supportsInterface(bytes4)": {
        "details": "See {IERC165-supportsInterface}."
      },
      "symbol()": {
        "details": "See {IERC721Metadata-symbol}."
      },
      "tokenURI(uint256)": {
        "details": "See {IERC721Metadata-tokenURI}."
      },
      "transferFrom(address,address,uint256)": {
        "details": "See {IERC721-transferFrom}."
      },
      "transferOwnership(address)": {
        "details": "Transfers ownership of the contract to a new account (`newOwner`). Can only be called by the current owner."
      }
    },
    "title": "Extends all CryptoDicks contract, it is the final contract.",
    "version": 1
  },
  "userdoc": {
    "kind": "user",
    "methods": {
      "claim()": {
        "notice": "Allow user to mint a token"
      },
      "get(uint256)": {
        "notice": "For a a given token ID, returns its metadata"
      },
      "setBaseURI(string)": {
        "notice": "Allow owner to set new baseURI"
      },
      "setClaimFee(uint256)": {
        "notice": "Allow owner to set new mint fee price, ether price will change."
      }
    },
    "version": 1
  }
}