{
  "contractName": "CryptoDicks",
  "abi": [
    {
      "inputs": [],
      "stateMutability": "nonpayable",
      "type": "constructor"
    },
    {
      "anonymous": false,
      "inputs": [
        {
          "indexed": true,
          "internalType": "address",
          "name": "owner",
          "type": "address"
        },
        {
          "indexed": true,
          "internalType": "address",
          "name": "approved",
          "type": "address"
        },
        {
          "indexed": true,
          "internalType": "uint256",
          "name": "tokenId",
          "type": "uint256"
        }
      ],
      "name": "Approval",
      "type": "event"
    },
    {
      "anonymous": false,
      "inputs": [
        {
          "indexed": true,
          "internalType": "address",
          "name": "owner",
          "type": "address"
        },
        {
          "indexed": true,
          "internalType": "address",
          "name": "operator",
          "type": "address"
        },
        {
          "indexed": false,
          "internalType": "bool",
          "name": "approved",
          "type": "bool"
        }
      ],
      "name": "ApprovalForAll",
      "type": "event"
    },
    {
      "anonymous": false,
      "inputs": [
        {
          "indexed": true,
          "internalType": "address",
          "name": "previousOwner",
          "type": "address"
        },
        {
          "indexed": true,
          "internalType": "address",
          "name": "newOwner",
          "type": "address"
        }
      ],
      "name": "OwnershipTransferred",
      "type": "event"
    },
    {
      "anonymous": false,
      "inputs": [
        {
          "indexed": true,
          "internalType": "address",
          "name": "from",
          "type": "address"
        },
        {
          "indexed": true,
          "internalType": "address",
          "name": "to",
          "type": "address"
        },
        {
          "indexed": true,
          "internalType": "uint256",
          "name": "tokenId",
          "type": "uint256"
        }
      ],
      "name": "Transfer",
      "type": "event"
    },
    {
      "inputs": [
        {
          "internalType": "address",
          "name": "to",
          "type": "address"
        },
        {
          "internalType": "uint256",
          "name": "tokenId",
          "type": "uint256"
        }
      ],
      "name": "approve",
      "outputs": [],
      "stateMutability": "nonpayable",
      "type": "function"
    },
    {
      "inputs": [
        {
          "internalType": "address",
          "name": "owner",
          "type": "address"
        }
      ],
      "name": "balanceOf",
      "outputs": [
        {
          "internalType": "uint256",
          "name": "",
          "type": "uint256"
        }
      ],
      "stateMutability": "view",
      "type": "function"
    },
    {
      "inputs": [],
      "name": "claimFee",
      "outputs": [
        {
          "internalType": "uint256",
          "name": "",
          "type": "uint256"
        }
      ],
      "stateMutability": "view",
      "type": "function"
    },
    {
      "inputs": [
        {
          "internalType": "uint256",
          "name": "tokenId",
          "type": "uint256"
        }
      ],
      "name": "getApproved",
      "outputs": [
        {
          "internalType": "address",
          "name": "",
          "type": "address"
        }
      ],
      "stateMutability": "view",
      "type": "function"
    },
    {
      "inputs": [
        {
          "internalType": "address",
          "name": "owner",
          "type": "address"
        },
        {
          "internalType": "address",
          "name": "operator",
          "type": "address"
        }
      ],
      "name": "isApprovedForAll",
      "outputs": [
        {
          "internalType": "bool",
          "name": "",
          "type": "bool"
        }
      ],
      "stateMutability": "view",
      "type": "function"
    },
    {
      "inputs": [],
      "name": "name",
      "outputs": [
        {
          "internalType": "string",
          "name": "",
          "type": "string"
        }
      ],
      "stateMutability": "view",
      "type": "function"
    },
    {
      "inputs": [],
      "name": "owner",
      "outputs": [
        {
          "internalType": "address",
          "name": "",
          "type": "address"
        }
      ],
      "stateMutability": "view",
      "type": "function"
    },
    {
      "inputs": [
        {
          "internalType": "uint256",
          "name": "tokenId",
          "type": "uint256"
        }
      ],
      "name": "ownerOf",
      "outputs": [
        {
          "internalType": "address",
          "name": "",
          "type": "address"
        }
      ],
      "stateMutability": "view",
      "type": "function"
    },
    {
      "inputs": [],
      "name": "renounceOwnership",
      "outputs": [],
      "stateMutability": "nonpayable",
      "type": "function"
    },
    {
      "inputs": [
        {
          "internalType": "address",
          "name": "from",
          "type": "address"
        },
        {
          "internalType": "address",
          "name": "to",
          "type": "address"
        },
        {
          "internalType": "uint256",
          "name": "tokenId",
          "type": "uint256"
        }
      ],
      "name": "safeTransferFrom",
      "outputs": [],
      "stateMutability": "nonpayable",
      "type": "function"
    },
    {
      "inputs": [
        {
          "internalType": "address",
          "name": "from",
          "type": "address"
        },
        {
          "internalType": "address",
          "name": "to",
          "type": "address"
        },
        {
          "internalType": "uint256",
          "name": "tokenId",
          "type": "uint256"
        },
        {
          "internalType": "bytes",
          "name": "_data",
          "type": "bytes"
        }
      ],
      "name": "safeTransferFrom",
      "outputs": [],
      "stateMutability": "nonpayable",
      "type": "function"
    },
    {
      "inputs": [
        {
          "internalType": "address",
          "name": "operator",
          "type": "address"
        },
        {
          "internalType": "bool",
          "name": "approved",
          "type": "bool"
        }
      ],
      "name": "setApprovalForAll",
      "outputs": [],
      "stateMutability": "nonpayable",
      "type": "function"
    },
    {
      "inputs": [
        {
          "internalType": "string",
          "name": "_baseUri",
          "type": "string"
        }
      ],
      "name": "setBaseURI",
      "outputs": [],
      "stateMutability": "nonpayable",
      "type": "function"
    },
    {
      "inputs": [
        {
          "internalType": "uint256",
          "name": "_newPrice",
          "type": "uint256"
        }
      ],
      "name": "setClaimFee",
      "outputs": [],
      "stateMutability": "nonpayable",
      "type": "function"
    },
    {
      "inputs": [
        {
          "internalType": "bytes4",
          "name": "interfaceId",
          "type": "bytes4"
        }
      ],
      "name": "supportsInterface",
      "outputs": [
        {
          "internalType": "bool",
          "name": "",
          "type": "bool"
        }
      ],
      "stateMutability": "view",
      "type": "function"
    },
    {
      "inputs": [],
      "name": "symbol",
      "outputs": [
        {
          "internalType": "string",
          "name": "",
          "type": "string"
        }
      ],
      "stateMutability": "view",
      "type": "function"
    },
    {
      "inputs": [
        {
          "internalType": "uint256",
          "name": "tokenId",
          "type": "uint256"
        }
      ],
      "name": "tokenURI",
      "outputs": [
        {
          "internalType": "string",
          "name": "",
          "type": "string"
        }
      ],
      "stateMutability": "view",
      "type": "function"
    },
    {
      "inputs": [],
      "name": "totalSupply",
      "outputs": [
        {
          "internalType": "uint256",
          "name": "",
          "type": "uint256"
        }
      ],
      "stateMutability": "view",
      "type": "function"
    },
    {
      "inputs": [
        {
          "internalType": "address",
          "name": "from",
          "type": "address"
        },
        {
          "internalType": "address",
          "name": "to",
          "type": "address"
        },
        {
          "internalType": "uint256",
          "name": "tokenId",
          "type": "uint256"
        }
      ],
      "name": "transferFrom",
      "outputs": [],
      "stateMutability": "nonpayable",
      "type": "function"
    },
    {
      "inputs": [
        {
          "internalType": "address",
          "name": "newOwner",
          "type": "address"
        }
      ],
      "name": "transferOwnership",
      "outputs": [],
      "stateMutability": "nonpayable",
      "type": "function"
    },
    {
      "inputs": [],
      "name": "withdraw",
      "outputs": [],
      "stateMutability": "payable",
      "type": "function"
    },
    {
      "inputs": [],
      "name": "claim",
      "outputs": [],
      "stateMutability": "payable",
      "type": "function"
    },
    {
      "inputs": [
        {
          "internalType": "uint256",
          "name": "_tokenId",
          "type": "uint256"
        }
      ],
      "name": "get",
      "outputs": [
        {
          "internalType": "uint8",
          "name": "background",
          "type": "uint8"
        },
        {
          "internalType": "uint8",
          "name": "skin",
          "type": "uint8"
        },
        {
          "internalType": "uint8",
          "name": "hat",
          "type": "uint8"
        },
        {
          "internalType": "uint8",
          "name": "eye",
          "type": "uint8"
        }
      ],
      "stateMutability": "view",
      "type": "function"
    },
    {
      "inputs": [],
      "name": "currentSupply",
      "outputs": [
        {
          "internalType": "uint256",
          "name": "",
          "type": "uint256"
        }
      ],
      "stateMutability": "view",
      "type": "function"
    }
  ],
  "bytecode": "0x6080604052604051806101a001604052806201388062ffffff16815260200161ea6062ffffff168152602001619c4062ffffff168152602001616d6062ffffff168152602001614e2062ffffff1681526020016132c862ffffff168152602001611f4062ffffff16815260200161138862ffffff168152602001610b5462ffffff1681526020016103e862ffffff168152602001606462ffffff168152602001601e62ffffff168152602001600062ffffff16815250600890600d620000c792919062001146565b50604051806101c001604052806201388062ffffff16815260200161f61862ffffff16815260200161bb8062ffffff168152602001618ca062ffffff16815260200161697862ffffff168152602001614a3862ffffff168152602001612ee062ffffff168152602001611b5862ffffff168152602001610fa062ffffff1681526020016107d062ffffff1681526020016103e862ffffff1681526020016101f462ffffff168152602001603262ffffff168152602001600062ffffff16815250600990600e620001999291906200119f565b5060405180610220016040528062016f3062ffffff168152602001620157c062ffffff1681526020016201405062ffffff168152602001620128e062ffffff1681526020016201117062ffffff16815260200161fa0062ffffff16815260200161e29062ffffff16815260200161cb2062ffffff16815260200161b3b062ffffff168152602001619c4062ffffff1681526020016184d062ffffff168152602001616d6062ffffff1681526020016155f062ffffff168152602001613e8062ffffff16815260200161271062ffffff1681526020016103e862ffffff168152602001600062ffffff16815250600a90601162000297929190620011f8565b506040518060c0016040528061fde861ffff168152602001619c4061ffff168152602001614e2061ffff16815260200161271061ffff168152602001610fa061ffff168152602001600061ffff16815250600b906006620002fa92919062001251565b506040518060400160405280601681526020017f687474703a2f2f6c6f63616c686f73743a353030302f00000000000000000000815250600d908051906020019062000348929190620012a9565b50662386f26fc10000600e55612710600f553480156200036757600080fd5b506040518060400160405280600b81526020017f43727970746f4469636b730000000000000000000000000000000000000000008152506040518060400160405280600481526020017f4449434b000000000000000000000000000000000000000000000000000000008152508160009080519060200190620003ec929190620012a9565b50806001908051906020019062000405929190620012a9565b505050620004286200041c6200046360201b60201c565b6200046b60201b60201c565b60005b600a8110156200045c57620004456200053160201b60201c565b5080806200045390620013c6565b9150506200042b565b5062001bad565b600033905090565b6000600c60009054906101000a900473ffffffffffffffffffffffffffffffffffffffff16905081600c60006101000a81548173ffffffffffffffffffffffffffffffffffffffff021916908373ffffffffffffffffffffffffffffffffffffffff1602179055508173ffffffffffffffffffffffffffffffffffffffff168173ffffffffffffffffffffffffffffffffffffffff167f8be0079c531659141344cd1fd0a4f28419497f9722a3daafe3b4186f6b6457e060405160405180910390a35050565b6000600f546200054d60106200064e60201b620013591760201c565b106200055857600080fd5b6200056f60106200065c60201b620013671760201c565b60006200058860106200064e60201b620013591760201c565b90506200059b816200067260201b60201c565b6011600083815260200190815260200160002060008201518160000160006101000a81548160ff021916908360ff16021790555060208201518160000160016101000a81548160ff021916908360ff16021790555060408201518160000160026101000a81548160ff021916908360ff16021790555060608201518160000160036101000a81548160ff021916908360ff1602179055509050506200064733826200078060201b60201c565b8091505090565b600081600001549050919050565b6001816000016000828254019250508190555050565b6200067c6200133a565b60008060008060005b60011562000747576200069e87620007a660201b60201c565b8094508195508296508397505050505083838383604051602001620006c794939291906200145d565b6040516020818303038152906040528051906020012060001c9450600115156007600087815260200190815260200160002060009054906101000a900460ff16151514620007415760016007600087815260200190815260200160002060006101000a81548160ff02191690831515021790555062000747565b62000685565b60405180608001604052808560ff1681526020018460ff1681526020018360ff1681526020018260ff1681525095505050505050919050565b620007a2828260405180602001604052806000815250620007ff60201b60201c565b5050565b600080600080620007bd856200086d60201b60201c565b620007ce866200093260201b60201c565b620007df87620009f760201b60201c565b620007f08862000abc60201b60201c565b93509350935093509193509193565b62000811838362000b8160201b60201c565b62000826600084848462000d6760201b60201c565b62000868576040517f08c379a00000000000000000000000000000000000000000000000000000000081526004016200085f906200153a565b60405180910390fd5b505050565b60006200088660066200065c60201b620013671760201c565b6200092b620186a0620008a560066200064e60201b620013591760201c565b6008805480602002602001604051908101604052809291908181526020018280548015620008f357602002820191906000526020600020905b815481526020019060010190808311620008de575b50505050507f6261636b000000000000000000000000000000000000000000000000000000008662000f1160201b6200137d1760201c565b9050919050565b60006200094b60066200065c60201b620013671760201c565b620009f0620186a06200096a60066200064e60201b620013591760201c565b6009805480602002602001604051908101604052809291908181526020018280548015620009b857602002820191906000526020600020905b815481526020019060010190808311620009a3575b50505050507f736b696e000000000000000000000000000000000000000000000000000000008662000f1160201b6200137d1760201c565b9050919050565b600062000a1060066200065c60201b620013671760201c565b62000ab5620186a062000a2f60066200064e60201b620013591760201c565b600a80548060200260200160405190810160405280929190818152602001828054801562000a7d57602002820191906000526020600020905b81548152602001906001019080831162000a68575b50505050507f68617400000000000000000000000000000000000000000000000000000000008662000f1160201b6200137d1760201c565b9050919050565b600062000ad560066200065c60201b620013671760201c565b62000b7a620186a062000af460066200064e60201b620013591760201c565b600b80548060200260200160405190810160405280929190818152602001828054801562000b4257602002820191906000526020600020905b81548152602001906001019080831162000b2d575b50505050507f65796500000000000000000000000000000000000000000000000000000000008662000f1160201b6200137d1760201c565b9050919050565b600073ffffffffffffffffffffffffffffffffffffffff168273ffffffffffffffffffffffffffffffffffffffff16141562000bf4576040517f08c379a000000000000000000000000000000000000000000000000000000000815260040162000beb90620015ac565b60405180910390fd5b62000c058162000f4860201b60201c565b1562000c48576040517f08c379a000000000000000000000000000000000000000000000000000000000815260040162000c3f906200161e565b60405180910390fd5b62000c5c6000838362000fb460201b60201c565b6001600360008473ffffffffffffffffffffffffffffffffffffffff1673ffffffffffffffffffffffffffffffffffffffff168152602001908152602001600020600082825462000cae919062001640565b92505081905550816002600083815260200190815260200160002060006101000a81548173ffffffffffffffffffffffffffffffffffffffff021916908373ffffffffffffffffffffffffffffffffffffffff160217905550808273ffffffffffffffffffffffffffffffffffffffff16600073ffffffffffffffffffffffffffffffffffffffff167fddf252ad1be2c89b69c2b068fc378daa952ba7f163c4a11628f55a4df523b3ef60405160405180910390a45050565b600062000d958473ffffffffffffffffffffffffffffffffffffffff1662000fb960201b620013a41760201c565b1562000f04578373ffffffffffffffffffffffffffffffffffffffff1663150b7a0262000dc76200046360201b60201c565b8786866040518563ffffffff1660e01b815260040162000deb949392919062001797565b6020604051808303816000875af192505050801562000e2a57506040513d601f19601f8201168201806040525081019062000e2791906200184d565b60015b62000eb3573d806000811462000e5d576040519150601f19603f3d011682016040523d82523d6000602084013e62000e62565b606091505b5060008151141562000eab576040517f08c379a000000000000000000000000000000000000000000000000000000000815260040162000ea2906200153a565b60405180910390fd5b805181602001fd5b63150b7a0260e01b7bffffffffffffffffffffffffffffffffffffffffffffffffffffffff1916817bffffffffffffffffffffffffffffffffffffffffffffffffffffffff19161491505062000f09565b600190505b949350505050565b60008062000f288787858762000fcc60201b60201c565b905062000f3c81866200103860201b60201c565b91505095945050505050565b60008073ffffffffffffffffffffffffffffffffffffffff166002600084815260200190815260200160002060009054906101000a900473ffffffffffffffffffffffffffffffffffffffff1673ffffffffffffffffffffffffffffffffffffffff1614159050919050565b505050565b600080823b905060008111915050919050565b60006001808662000fde919062001640565b4443323a878a8a60405160200162000ffd979695949392919062001919565b6040516020818303038152906040528051906020012060001c620010229190620019d7565b6200102e919062001640565b9050949350505050565b6000805b8251811015620010af578281815181106200105c576200105b62001a0f565b5b60200260200101518411156200109957620010906001826200107f919062001640565b620010f360201b620013b71760201c565b915050620010ed565b8080620010a690620013c6565b9150506200103c565b506040517f08c379a0000000000000000000000000000000000000000000000000000000008152600401620010e49062001a8e565b60405180910390fd5b92915050565b600060ff80168211156200113e576040517f08c379a0000000000000000000000000000000000000000000000000000000008152600401620011359062001b26565b60405180910390fd5b819050919050565b8280548282559060005260206000209081019282156200118c579160200282015b828111156200118b578251829062ffffff1690559160200191906001019062001167565b5b5090506200119b91906200136e565b5090565b828054828255906000526020600020908101928215620011e5579160200282015b82811115620011e4578251829062ffffff16905591602001919060010190620011c0565b5b509050620011f491906200136e565b5090565b8280548282559060005260206000209081019282156200123e579160200282015b828111156200123d578251829062ffffff1690559160200191906001019062001219565b5b5090506200124d91906200136e565b5090565b82805482825590600052602060002090810192821562001296579160200282015b8281111562001295578251829061ffff1690559160200191906001019062001272565b5b509050620012a591906200136e565b5090565b828054620012b79062001b77565b90600052602060002090601f016020900481019282620012db576000855562001327565b82601f10620012f657805160ff191683800117855562001327565b8280016001018555821562001327579182015b828111156200132657825182559160200191906001019062001309565b5b5090506200133691906200136e565b5090565b6040518060800160405280600060ff168152602001600060ff168152602001600060ff168152602001600060ff1681525090565b5b80821115620013895760008160009055506001016200136f565b5090565b7f4e487b7100000000000000000000000000000000000000000000000000000000600052601160045260246000fd5b6000819050919050565b6000620013d382620013bc565b91507fffffffffffffffffffffffffffffffffffffffffffffffffffffffffffffffff8214156200140957620014086200138d565b5b600182019050919050565b600060ff82169050919050565b60008160f81b9050919050565b60006200143b8262001421565b9050919050565b62001457620014518262001414565b6200142e565b82525050565b60006200146b828762001442565b6001820191506200147d828662001442565b6001820191506200148f828562001442565b600182019150620014a1828462001442565b60018201915081905095945050505050565b600082825260208201905092915050565b7f4552433732313a207472616e7366657220746f206e6f6e20455243373231526560008201527f63656976657220696d706c656d656e7465720000000000000000000000000000602082015250565b600062001522603283620014b3565b91506200152f82620014c4565b604082019050919050565b60006020820190508181036000830152620015558162001513565b9050919050565b7f4552433732313a206d696e7420746f20746865207a65726f2061646472657373600082015250565b600062001594602083620014b3565b9150620015a1826200155c565b602082019050919050565b60006020820190508181036000830152620015c78162001585565b9050919050565b7f4552433732313a20746f6b656e20616c7265616479206d696e74656400000000600082015250565b600062001606601c83620014b3565b91506200161382620015ce565b602082019050919050565b600060208201905081810360008301526200163981620015f7565b9050919050565b60006200164d82620013bc565b91506200165a83620013bc565b9250827fffffffffffffffffffffffffffffffffffffffffffffffffffffffffffffffff038211156200169257620016916200138d565b5b828201905092915050565b600073ffffffffffffffffffffffffffffffffffffffff82169050919050565b6000620016ca826200169d565b9050919050565b620016dc81620016bd565b82525050565b620016ed81620013bc565b82525050565b600081519050919050565b600082825260208201905092915050565b60005b838110156200172f57808201518184015260208101905062001712565b838111156200173f576000848401525b50505050565b6000601f19601f8301169050919050565b60006200176382620016f3565b6200176f8185620016fe565b9350620017818185602086016200170f565b6200178c8162001745565b840191505092915050565b6000608082019050620017ae6000830187620016d1565b620017bd6020830186620016d1565b620017cc6040830185620016e2565b8181036060830152620017e0818462001756565b905095945050505050565b600080fd5b60007fffffffff0000000000000000000000000000000000000000000000000000000082169050919050565b6200182781620017f0565b81146200183357600080fd5b50565b60008151905062001847816200181c565b92915050565b600060208284031215620018665762001865620017eb565b5b6000620018768482850162001836565b91505092915050565b6000819050919050565b6200189e6200189882620013bc565b6200187f565b82525050565b60008160601b9050919050565b6000620018be82620018a4565b9050919050565b6000620018d282620018b1565b9050919050565b620018ee620018e882620016bd565b620018c5565b82525050565b6000819050919050565b620019136200190d82620017f0565b620018f4565b82525050565b600062001927828a62001889565b60208201915062001939828962001889565b6020820191506200194b8288620018d9565b6014820191506200195d828762001889565b6020820191506200196f8286620018fe565b60048201915062001981828562001889565b60208201915062001993828462001889565b60208201915081905098975050505050505050565b7f4e487b7100000000000000000000000000000000000000000000000000000000600052601260045260246000fd5b6000620019e482620013bc565b9150620019f183620013bc565b92508262001a045762001a03620019a8565b5b828206905092915050565b7f4e487b7100000000000000000000000000000000000000000000000000000000600052603260045260246000fd5b7f44657461696c48656c7065723a3a7069636b4974656d733a204e6f206974656d600082015250565b600062001a76602083620014b3565b915062001a838262001a3e565b602082019050919050565b6000602082019050818103600083015262001aa98162001a67565b9050919050565b7f53616665436173743a2076616c756520646f65736e27742066697420696e203860008201527f2062697473000000000000000000000000000000000000000000000000000000602082015250565b600062001b0e602583620014b3565b915062001b1b8262001ab0565b604082019050919050565b6000602082019050818103600083015262001b418162001aff565b9050919050565b7f4e487b7100000000000000000000000000000000000000000000000000000000600052602260045260246000fd5b6000600282049050600182168062001b9057607f821691505b6020821081141562001ba75762001ba662001b48565b5b50919050565b613cc08062001bbd6000396000f3fe60806040526004361061014b5760003560e01c806370a08231116100b657806399d32fc41161006f57806399d32fc414610453578063a22cb4651461047e578063b88d4fde146104a7578063c87b56dd146104d0578063e985e9c51461050d578063f2fde38b1461054a5761014b565b806370a082311461033e578063715018a61461037b578063771282f6146103925780638da5cb5b146103bd5780639507d39a146103e857806395d89b41146104285761014b565b80632e75ab50116101085780632e75ab50146102725780633ccfd60b1461029b57806342842e0e146102a55780634e71d92d146102ce57806355f804b3146102d85780636352211e146103015761014b565b806301ffc9a71461015057806306fdde031461018d578063081812fc146101b8578063095ea7b3146101f557806318160ddd1461021e57806323b872dd14610249575b600080fd5b34801561015c57600080fd5b5061017760048036038101906101729190612695565b610573565b60405161018491906126dd565b60405180910390f35b34801561019957600080fd5b506101a2610655565b6040516101af9190612791565b60405180910390f35b3480156101c457600080fd5b506101df60048036038101906101da91906127e9565b6106e7565b6040516101ec9190612857565b60405180910390f35b34801561020157600080fd5b5061021c6004803603810190610217919061289e565b61076c565b005b34801561022a57600080fd5b50610233610884565b60405161024091906128ed565b60405180910390f35b34801561025557600080fd5b50610270600480360381019061026b9190612908565b61088a565b005b34801561027e57600080fd5b50610299600480360381019061029491906127e9565b6108ea565b005b6102a3610970565b005b3480156102b157600080fd5b506102cc60048036038101906102c79190612908565b610a3c565b005b6102d6610a5c565b005b3480156102e457600080fd5b506102ff60048036038101906102fa9190612a90565b610afb565b005b34801561030d57600080fd5b50610328600480360381019061032391906127e9565b610b91565b6040516103359190612857565b60405180910390f35b34801561034a57600080fd5b5061036560048036038101906103609190612ad9565b610c43565b60405161037291906128ed565b60405180910390f35b34801561038757600080fd5b50610390610cfb565b005b34801561039e57600080fd5b506103a7610d83565b6040516103b491906128ed565b60405180910390f35b3480156103c957600080fd5b506103d2610d94565b6040516103df9190612857565b60405180910390f35b3480156103f457600080fd5b5061040f600480360381019061040a91906127e9565b610dbe565b60405161041f9493929190612b22565b60405180910390f35b34801561043457600080fd5b5061043d610eab565b60405161044a9190612791565b60405180910390f35b34801561045f57600080fd5b50610468610f3d565b60405161047591906128ed565b60405180910390f35b34801561048a57600080fd5b506104a560048036038101906104a09190612b93565b610f43565b005b3480156104b357600080fd5b506104ce60048036038101906104c99190612c74565b6110c4565b005b3480156104dc57600080fd5b506104f760048036038101906104f291906127e9565b611126565b6040516105049190612791565b60405180910390f35b34801561051957600080fd5b50610534600480360381019061052f9190612cf7565b6111cd565b60405161054191906126dd565b60405180910390f35b34801561055657600080fd5b50610571600480360381019061056c9190612ad9565b611261565b005b60007f80ac58cd000000000000000000000000000000000000000000000000000000007bffffffffffffffffffffffffffffffffffffffffffffffffffffffff1916827bffffffffffffffffffffffffffffffffffffffffffffffffffffffff1916148061063e57507f5b5e139f000000000000000000000000000000000000000000000000000000007bffffffffffffffffffffffffffffffffffffffffffffffffffffffff1916827bffffffffffffffffffffffffffffffffffffffffffffffffffffffff1916145b8061064e575061064d82611407565b5b9050919050565b60606000805461066490612d66565b80601f016020809104026020016040519081016040528092919081815260200182805461069090612d66565b80156106dd5780601f106106b2576101008083540402835291602001916106dd565b820191906000526020600020905b8154815290600101906020018083116106c057829003601f168201915b5050505050905090565b60006106f282611471565b610731576040517f08c379a000000000000000000000000000000000000000000000000000000000815260040161072890612e0a565b60405180910390fd5b6004600083815260200190815260200160002060009054906101000a900473ffffffffffffffffffffffffffffffffffffffff169050919050565b600061077782610b91565b90508073ffffffffffffffffffffffffffffffffffffffff168373ffffffffffffffffffffffffffffffffffffffff1614156107e8576040517f08c379a00000000000000000000000000000000000000000000000000000000081526004016107df90612e9c565b60405180910390fd5b8073ffffffffffffffffffffffffffffffffffffffff166108076114dd565b73ffffffffffffffffffffffffffffffffffffffff1614806108365750610835816108306114dd565b6111cd565b5b610875576040517f08c379a000000000000000000000000000000000000000000000000000000000815260040161086c90612f2e565b60405180910390fd5b61087f83836114e5565b505050565b600f5481565b61089b6108956114dd565b8261159e565b6108da576040517f08c379a00000000000000000000000000000000000000000000000000000000081526004016108d190612fc0565b60405180910390fd5b6108e583838361167c565b505050565b6108f26114dd565b73ffffffffffffffffffffffffffffffffffffffff16610910610d94565b73ffffffffffffffffffffffffffffffffffffffff1614610966576040517f08c379a000000000000000000000000000000000000000000000000000000000815260040161095d9061302c565b60405180910390fd5b80600e8190555050565b6109786114dd565b73ffffffffffffffffffffffffffffffffffffffff16610996610d94565b73ffffffffffffffffffffffffffffffffffffffff16146109ec576040517f08c379a00000000000000000000000000000000000000000000000000000000081526004016109e39061302c565b60405180910390fd5b6109f4610d94565b73ffffffffffffffffffffffffffffffffffffffff166108fc479081150290604051600060405180830381858888f19350505050158015610a39573d6000803e3d6000fd5b50565b610a57838383604051806020016040528060008152506110c4565b505050565b600e543414610aa0576040517f08c379a0000000000000000000000000000000000000000000000000000000008152600401610a9790613098565b60405180910390fd5b610aa86118d8565b50610ab1610d94565b73ffffffffffffffffffffffffffffffffffffffff166108fc600e549081150290604051600060405180830381858888f19350505050158015610af8573d6000803e3d6000fd5b50565b610b036114dd565b73ffffffffffffffffffffffffffffffffffffffff16610b21610d94565b73ffffffffffffffffffffffffffffffffffffffff1614610b77576040517f08c379a0000000000000000000000000000000000000000000000000000000008152600401610b6e9061302c565b60405180910390fd5b80600d9080519060200190610b8d929190612552565b5050565b6000806002600084815260200190815260200160002060009054906101000a900473ffffffffffffffffffffffffffffffffffffffff169050600073ffffffffffffffffffffffffffffffffffffffff168173ffffffffffffffffffffffffffffffffffffffff161415610c3a576040517f08c379a0000000000000000000000000000000000000000000000000000000008152600401610c319061312a565b60405180910390fd5b80915050919050565b60008073ffffffffffffffffffffffffffffffffffffffff168273ffffffffffffffffffffffffffffffffffffffff161415610cb4576040517f08c379a0000000000000000000000000000000000000000000000000000000008152600401610cab906131bc565b60405180910390fd5b600360008373ffffffffffffffffffffffffffffffffffffffff1673ffffffffffffffffffffffffffffffffffffffff168152602001908152602001600020549050919050565b610d036114dd565b73ffffffffffffffffffffffffffffffffffffffff16610d21610d94565b73ffffffffffffffffffffffffffffffffffffffff1614610d77576040517f08c379a0000000000000000000000000000000000000000000000000000000008152600401610d6e9061302c565b60405180910390fd5b610d8160006119bd565b565b6000610d8f6010611359565b905090565b6000600c60009054906101000a900473ffffffffffffffffffffffffffffffffffffffff16905090565b600080600080610dcd85611471565b610e0c576040517f08c379a0000000000000000000000000000000000000000000000000000000008152600401610e0390613228565b60405180910390fd5b6011600086815260200190815260200160002060000160009054906101000a900460ff166011600087815260200190815260200160002060000160019054906101000a900460ff166011600088815260200190815260200160002060000160029054906101000a900460ff166011600089815260200190815260200160002060000160039054906101000a900460ff1693509350935093509193509193565b606060018054610eba90612d66565b80601f0160208091040260200160405190810160405280929190818152602001828054610ee690612d66565b8015610f335780601f10610f0857610100808354040283529160200191610f33565b820191906000526020600020905b815481529060010190602001808311610f1657829003601f168201915b5050505050905090565b600e5481565b610f4b6114dd565b73ffffffffffffffffffffffffffffffffffffffff168273ffffffffffffffffffffffffffffffffffffffff161415610fb9576040517f08c379a0000000000000000000000000000000000000000000000000000000008152600401610fb090613294565b60405180910390fd5b8060056000610fc66114dd565b73ffffffffffffffffffffffffffffffffffffffff1673ffffffffffffffffffffffffffffffffffffffff16815260200190815260200160002060008473ffffffffffffffffffffffffffffffffffffffff1673ffffffffffffffffffffffffffffffffffffffff16815260200190815260200160002060006101000a81548160ff0219169083151502179055508173ffffffffffffffffffffffffffffffffffffffff166110736114dd565b73ffffffffffffffffffffffffffffffffffffffff167f17307eab39ab6107e8899845ad3d59bd9653f200f220920489ca2b5937696c31836040516110b891906126dd565b60405180910390a35050565b6110d56110cf6114dd565b8361159e565b611114576040517f08c379a000000000000000000000000000000000000000000000000000000000815260040161110b90612fc0565b60405180910390fd5b61112084848484611a83565b50505050565b606061113182611471565b611170576040517f08c379a000000000000000000000000000000000000000000000000000000000815260040161116790613326565b60405180910390fd5b600061117a611adf565b9050600081511161119a57604051806020016040528060008152506111c5565b806111a484611b71565b6040516020016111b5929190613382565b6040516020818303038152906040525b915050919050565b6000600560008473ffffffffffffffffffffffffffffffffffffffff1673ffffffffffffffffffffffffffffffffffffffff16815260200190815260200160002060008373ffffffffffffffffffffffffffffffffffffffff1673ffffffffffffffffffffffffffffffffffffffff16815260200190815260200160002060009054906101000a900460ff16905092915050565b6112696114dd565b73ffffffffffffffffffffffffffffffffffffffff16611287610d94565b73ffffffffffffffffffffffffffffffffffffffff16146112dd576040517f08c379a00000000000000000000000000000000000000000000000000000000081526004016112d49061302c565b60405180910390fd5b600073ffffffffffffffffffffffffffffffffffffffff168173ffffffffffffffffffffffffffffffffffffffff16141561134d576040517f08c379a000000000000000000000000000000000000000000000000000000000815260040161134490613418565b60405180910390fd5b611356816119bd565b50565b600081600001549050919050565b6001816000016000828254019250508190555050565b60008061138c87878587611cd2565b90506113988186611d36565b91505095945050505050565b600080823b905060008111915050919050565b600060ff80168211156113ff576040517f08c379a00000000000000000000000000000000000000000000000000000000081526004016113f6906134aa565b60405180910390fd5b819050919050565b60007f01ffc9a7000000000000000000000000000000000000000000000000000000007bffffffffffffffffffffffffffffffffffffffffffffffffffffffff1916827bffffffffffffffffffffffffffffffffffffffffffffffffffffffff1916149050919050565b60008073ffffffffffffffffffffffffffffffffffffffff166002600084815260200190815260200160002060009054906101000a900473ffffffffffffffffffffffffffffffffffffffff1673ffffffffffffffffffffffffffffffffffffffff1614159050919050565b600033905090565b816004600083815260200190815260200160002060006101000a81548173ffffffffffffffffffffffffffffffffffffffff021916908373ffffffffffffffffffffffffffffffffffffffff160217905550808273ffffffffffffffffffffffffffffffffffffffff1661155883610b91565b73ffffffffffffffffffffffffffffffffffffffff167f8c5be1e5ebec7d5bd14f71427d1e84f3dd0314c0f7b2291e5b200ac8c7c3b92560405160405180910390a45050565b60006115a982611471565b6115e8576040517f08c379a00000000000000000000000000000000000000000000000000000000081526004016115df9061353c565b60405180910390fd5b60006115f383610b91565b90508073ffffffffffffffffffffffffffffffffffffffff168473ffffffffffffffffffffffffffffffffffffffff16148061166257508373ffffffffffffffffffffffffffffffffffffffff1661164a846106e7565b73ffffffffffffffffffffffffffffffffffffffff16145b80611673575061167281856111cd565b5b91505092915050565b8273ffffffffffffffffffffffffffffffffffffffff1661169c82610b91565b73ffffffffffffffffffffffffffffffffffffffff16146116f2576040517f08c379a00000000000000000000000000000000000000000000000000000000081526004016116e9906135ce565b60405180910390fd5b600073ffffffffffffffffffffffffffffffffffffffff168273ffffffffffffffffffffffffffffffffffffffff161415611762576040517f08c379a000000000000000000000000000000000000000000000000000000000815260040161175990613660565b60405180910390fd5b61176d838383611dd7565b6117786000826114e5565b6001600360008573ffffffffffffffffffffffffffffffffffffffff1673ffffffffffffffffffffffffffffffffffffffff16815260200190815260200160002060008282546117c891906136af565b925050819055506001600360008473ffffffffffffffffffffffffffffffffffffffff1673ffffffffffffffffffffffffffffffffffffffff168152602001908152602001600020600082825461181f91906136e3565b92505081905550816002600083815260200190815260200160002060006101000a81548173ffffffffffffffffffffffffffffffffffffffff021916908373ffffffffffffffffffffffffffffffffffffffff160217905550808273ffffffffffffffffffffffffffffffffffffffff168473ffffffffffffffffffffffffffffffffffffffff167fddf252ad1be2c89b69c2b068fc378daa952ba7f163c4a11628f55a4df523b3ef60405160405180910390a4505050565b6000600f546118e76010611359565b106118f157600080fd5b6118fb6010611367565b60006119076010611359565b905061191281611ddc565b6011600083815260200190815260200160002060008201518160000160006101000a81548160ff021916908360ff16021790555060208201518160000160016101000a81548160ff021916908360ff16021790555060408201518160000160026101000a81548160ff021916908360ff16021790555060608201518160000160036101000a81548160ff021916908360ff1602179055509050506119b63382611eda565b8091505090565b6000600c60009054906101000a900473ffffffffffffffffffffffffffffffffffffffff16905081600c60006101000a81548173ffffffffffffffffffffffffffffffffffffffff021916908373ffffffffffffffffffffffffffffffffffffffff1602179055508173ffffffffffffffffffffffffffffffffffffffff168173ffffffffffffffffffffffffffffffffffffffff167f8be0079c531659141344cd1fd0a4f28419497f9722a3daafe3b4186f6b6457e060405160405180910390a35050565b611a8e84848461167c565b611a9a84848484611ef8565b611ad9576040517f08c379a0000000000000000000000000000000000000000000000000000000008152600401611ad0906137ab565b60405180910390fd5b50505050565b6060600d8054611aee90612d66565b80601f0160208091040260200160405190810160405280929190818152602001828054611b1a90612d66565b8015611b675780601f10611b3c57610100808354040283529160200191611b67565b820191906000526020600020905b815481529060010190602001808311611b4a57829003601f168201915b5050505050905090565b60606000821415611bb9576040518060400160405280600181526020017f30000000000000000000000000000000000000000000000000000000000000008152509050611ccd565b600082905060005b60008214611beb578080611bd4906137cb565b915050600a82611be49190613843565b9150611bc1565b60008167ffffffffffffffff811115611c0757611c06612965565b5b6040519080825280601f01601f191660200182016040528015611c395781602001600182028036833780820191505090505b5090505b60008514611cc657600182611c5291906136af565b9150600a85611c619190613874565b6030611c6d91906136e3565b60f81b818381518110611c8357611c826138a5565b5b60200101907effffffffffffffffffffffffffffffffffffffffffffffffffffffffffffff1916908160001a905350600a85611cbf9190613843565b9450611c3d565b8093505050505b919050565b600060018086611ce291906136e3565b4443323a878a8a604051602001611cff979695949392919061395e565b6040516020818303038152906040528051906020012060001c611d229190613874565b611d2c91906136e3565b9050949350505050565b6000805b8251811015611d9557828181518110611d5657611d556138a5565b5b6020026020010151841115611d8257611d7a600182611d7591906136e3565b6113b7565b915050611dd1565b8080611d8d906137cb565b915050611d3a565b506040517f08c379a0000000000000000000000000000000000000000000000000000000008152600401611dc890613a2b565b60405180910390fd5b92915050565b505050565b611de46125d8565b60008060008060005b600115611ea157611dfd87612080565b8094508195508296508397505050505083838383604051602001611e249493929190613a81565b6040516020818303038152906040528051906020012060001c9450600115156007600087815260200190815260200160002060009054906101000a900460ff16151514611e9c5760016007600087815260200190815260200160002060006101000a81548160ff021916908315150217905550611ea1565b611ded565b60405180608001604052808560ff1681526020018460ff1681526020018360ff1681526020018260ff1681525095505050505050919050565b611ef48282604051806020016040528060008152506120b9565b5050565b6000611f198473ffffffffffffffffffffffffffffffffffffffff166113a4565b15612073578373ffffffffffffffffffffffffffffffffffffffff1663150b7a02611f426114dd565b8786866040518563ffffffff1660e01b8152600401611f649493929190613b24565b6020604051808303816000875af1925050508015611fa057506040513d601f19601f82011682018060405250810190611f9d9190613b85565b60015b612023573d8060008114611fd0576040519150601f19603f3d011682016040523d82523d6000602084013e611fd5565b606091505b5060008151141561201b576040517f08c379a0000000000000000000000000000000000000000000000000000000008152600401612012906137ab565b60405180910390fd5b805181602001fd5b63150b7a0260e01b7bffffffffffffffffffffffffffffffffffffffffffffffffffffffff1916817bffffffffffffffffffffffffffffffffffffffffffffffffffffffff191614915050612078565b600190505b949350505050565b60008060008061208f85612114565b612098866121b0565b6120a18761224c565b6120aa886122e8565b93509350935093509193509193565b6120c38383612384565b6120d06000848484611ef8565b61210f576040517f08c379a0000000000000000000000000000000000000000000000000000000008152600401612106906137ab565b60405180910390fd5b505050565b60006121206006611367565b6121a9620186a06121316006611359565b600880548060200260200160405190810160405280929190818152602001828054801561217d57602002820191906000526020600020905b815481526020019060010190808311612169575b50505050507f6261636b000000000000000000000000000000000000000000000000000000008661137d565b9050919050565b60006121bc6006611367565b612245620186a06121cd6006611359565b600980548060200260200160405190810160405280929190818152602001828054801561221957602002820191906000526020600020905b815481526020019060010190808311612205575b50505050507f736b696e000000000000000000000000000000000000000000000000000000008661137d565b9050919050565b60006122586006611367565b6122e1620186a06122696006611359565b600a8054806020026020016040519081016040528092919081815260200182805480156122b557602002820191906000526020600020905b8154815260200190600101908083116122a1575b50505050507f68617400000000000000000000000000000000000000000000000000000000008661137d565b9050919050565b60006122f46006611367565b61237d620186a06123056006611359565b600b80548060200260200160405190810160405280929190818152602001828054801561235157602002820191906000526020600020905b81548152602001906001019080831161233d575b50505050507f65796500000000000000000000000000000000000000000000000000000000008661137d565b9050919050565b600073ffffffffffffffffffffffffffffffffffffffff168273ffffffffffffffffffffffffffffffffffffffff1614156123f4576040517f08c379a00000000000000000000000000000000000000000000000000000000081526004016123eb90613bfe565b60405180910390fd5b6123fd81611471565b1561243d576040517f08c379a000000000000000000000000000000000000000000000000000000000815260040161243490613c6a565b60405180910390fd5b61244960008383611dd7565b6001600360008473ffffffffffffffffffffffffffffffffffffffff1673ffffffffffffffffffffffffffffffffffffffff168152602001908152602001600020600082825461249991906136e3565b92505081905550816002600083815260200190815260200160002060006101000a81548173ffffffffffffffffffffffffffffffffffffffff021916908373ffffffffffffffffffffffffffffffffffffffff160217905550808273ffffffffffffffffffffffffffffffffffffffff16600073ffffffffffffffffffffffffffffffffffffffff167fddf252ad1be2c89b69c2b068fc378daa952ba7f163c4a11628f55a4df523b3ef60405160405180910390a45050565b82805461255e90612d66565b90600052602060002090601f01602090048101928261258057600085556125c7565b82601f1061259957805160ff19168380011785556125c7565b828001600101855582156125c7579182015b828111156125c65782518255916020019190600101906125ab565b5b5090506125d4919061260c565b5090565b6040518060800160405280600060ff168152602001600060ff168152602001600060ff168152602001600060ff1681525090565b5b8082111561262557600081600090555060010161260d565b5090565b6000604051905090565b600080fd5b600080fd5b60007fffffffff0000000000000000000000000000000000000000000000000000000082169050919050565b6126728161263d565b811461267d57600080fd5b50565b60008135905061268f81612669565b92915050565b6000602082840312156126ab576126aa612633565b5b60006126b984828501612680565b91505092915050565b60008115159050919050565b6126d7816126c2565b82525050565b60006020820190506126f260008301846126ce565b92915050565b600081519050919050565b600082825260208201905092915050565b60005b83811015612732578082015181840152602081019050612717565b83811115612741576000848401525b50505050565b6000601f19601f8301169050919050565b6000612763826126f8565b61276d8185612703565b935061277d818560208601612714565b61278681612747565b840191505092915050565b600060208201905081810360008301526127ab8184612758565b905092915050565b6000819050919050565b6127c6816127b3565b81146127d157600080fd5b50565b6000813590506127e3816127bd565b92915050565b6000602082840312156127ff576127fe612633565b5b600061280d848285016127d4565b91505092915050565b600073ffffffffffffffffffffffffffffffffffffffff82169050919050565b600061284182612816565b9050919050565b61285181612836565b82525050565b600060208201905061286c6000830184612848565b92915050565b61287b81612836565b811461288657600080fd5b50565b60008135905061289881612872565b92915050565b600080604083850312156128b5576128b4612633565b5b60006128c385828601612889565b92505060206128d4858286016127d4565b9150509250929050565b6128e7816127b3565b82525050565b600060208201905061290260008301846128de565b92915050565b60008060006060848603121561292157612920612633565b5b600061292f86828701612889565b935050602061294086828701612889565b9250506040612951868287016127d4565b9150509250925092565b600080fd5b600080fd5b7f4e487b7100000000000000000000000000000000000000000000000000000000600052604160045260246000fd5b61299d82612747565b810181811067ffffffffffffffff821117156129bc576129bb612965565b5b80604052505050565b60006129cf612629565b90506129db8282612994565b919050565b600067ffffffffffffffff8211156129fb576129fa612965565b5b612a0482612747565b9050602081019050919050565b82818337600083830152505050565b6000612a33612a2e846129e0565b6129c5565b905082815260208101848484011115612a4f57612a4e612960565b5b612a5a848285612a11565b509392505050565b600082601f830112612a7757612a7661295b565b5b8135612a87848260208601612a20565b91505092915050565b600060208284031215612aa657612aa5612633565b5b600082013567ffffffffffffffff811115612ac457612ac3612638565b5b612ad084828501612a62565b91505092915050565b600060208284031215612aef57612aee612633565b5b6000612afd84828501612889565b91505092915050565b600060ff82169050919050565b612b1c81612b06565b82525050565b6000608082019050612b376000830187612b13565b612b446020830186612b13565b612b516040830185612b13565b612b5e6060830184612b13565b95945050505050565b612b70816126c2565b8114612b7b57600080fd5b50565b600081359050612b8d81612b67565b92915050565b60008060408385031215612baa57612ba9612633565b5b6000612bb885828601612889565b9250506020612bc985828601612b7e565b9150509250929050565b600067ffffffffffffffff821115612bee57612bed612965565b5b612bf782612747565b9050602081019050919050565b6000612c17612c1284612bd3565b6129c5565b905082815260208101848484011115612c3357612c32612960565b5b612c3e848285612a11565b509392505050565b600082601f830112612c5b57612c5a61295b565b5b8135612c6b848260208601612c04565b91505092915050565b60008060008060808587031215612c8e57612c8d612633565b5b6000612c9c87828801612889565b9450506020612cad87828801612889565b9350506040612cbe878288016127d4565b925050606085013567ffffffffffffffff811115612cdf57612cde612638565b5b612ceb87828801612c46565b91505092959194509250565b60008060408385031215612d0e57612d0d612633565b5b6000612d1c85828601612889565b9250506020612d2d85828601612889565b9150509250929050565b7f4e487b7100000000000000000000000000000000000000000000000000000000600052602260045260246000fd5b60006002820490506001821680612d7e57607f821691505b60208210811415612d9257612d91612d37565b5b50919050565b7f4552433732313a20617070726f76656420717565727920666f72206e6f6e657860008201527f697374656e7420746f6b656e0000000000000000000000000000000000000000602082015250565b6000612df4602c83612703565b9150612dff82612d98565b604082019050919050565b60006020820190508181036000830152612e2381612de7565b9050919050565b7f4552433732313a20617070726f76616c20746f2063757272656e74206f776e6560008201527f7200000000000000000000000000000000000000000000000000000000000000602082015250565b6000612e86602183612703565b9150612e9182612e2a565b604082019050919050565b60006020820190508181036000830152612eb581612e79565b9050919050565b7f4552433732313a20617070726f76652063616c6c6572206973206e6f74206f7760008201527f6e6572206e6f7220617070726f76656420666f7220616c6c0000000000000000602082015250565b6000612f18603883612703565b9150612f2382612ebc565b604082019050919050565b60006020820190508181036000830152612f4781612f0b565b9050919050565b7f4552433732313a207472616e736665722063616c6c6572206973206e6f74206f60008201527f776e6572206e6f7220617070726f766564000000000000000000000000000000602082015250565b6000612faa603183612703565b9150612fb582612f4e565b604082019050919050565b60006020820190508181036000830152612fd981612f9d565b9050919050565b7f4f776e61626c653a2063616c6c6572206973206e6f7420746865206f776e6572600082015250565b6000613016602083612703565b915061302182612fe0565b602082019050919050565b6000602082019050818103600083015261304581613009565b9050919050565b7f436c61696d696e672061204e465420636f737473206574686572000000000000600082015250565b6000613082601a83612703565b915061308d8261304c565b602082019050919050565b600060208201905081810360008301526130b181613075565b9050919050565b7f4552433732313a206f776e657220717565727920666f72206e6f6e657869737460008201527f656e7420746f6b656e0000000000000000000000000000000000000000000000602082015250565b6000613114602983612703565b915061311f826130b8565b604082019050919050565b6000602082019050818103600083015261314381613107565b9050919050565b7f4552433732313a2062616c616e636520717565727920666f7220746865207a6560008201527f726f206164647265737300000000000000000000000000000000000000000000602082015250565b60006131a6602a83612703565b91506131b18261314a565b604082019050919050565b600060208201905081810360008301526131d581613199565b9050919050565b7f546f6b656e206e6f74206d696e74656420796574000000000000000000000000600082015250565b6000613212601483612703565b915061321d826131dc565b602082019050919050565b6000602082019050818103600083015261324181613205565b9050919050565b7f4552433732313a20617070726f766520746f2063616c6c657200000000000000600082015250565b600061327e601983612703565b915061328982613248565b602082019050919050565b600060208201905081810360008301526132ad81613271565b9050919050565b7f4552433732314d657461646174613a2055524920717565727920666f72206e6f60008201527f6e6578697374656e7420746f6b656e0000000000000000000000000000000000602082015250565b6000613310602f83612703565b915061331b826132b4565b604082019050919050565b6000602082019050818103600083015261333f81613303565b9050919050565b600081905092915050565b600061335c826126f8565b6133668185613346565b9350613376818560208601612714565b80840191505092915050565b600061338e8285613351565b915061339a8284613351565b91508190509392505050565b7f4f776e61626c653a206e6577206f776e657220697320746865207a65726f206160008201527f6464726573730000000000000000000000000000000000000000000000000000602082015250565b6000613402602683612703565b915061340d826133a6565b604082019050919050565b60006020820190508181036000830152613431816133f5565b9050919050565b7f53616665436173743a2076616c756520646f65736e27742066697420696e203860008201527f2062697473000000000000000000000000000000000000000000000000000000602082015250565b6000613494602583612703565b915061349f82613438565b604082019050919050565b600060208201905081810360008301526134c381613487565b9050919050565b7f4552433732313a206f70657261746f7220717565727920666f72206e6f6e657860008201527f697374656e7420746f6b656e0000000000000000000000000000000000000000602082015250565b6000613526602c83612703565b9150613531826134ca565b604082019050919050565b6000602082019050818103600083015261355581613519565b9050919050565b7f4552433732313a207472616e73666572206f6620746f6b656e2074686174206960008201527f73206e6f74206f776e0000000000000000000000000000000000000000000000602082015250565b60006135b8602983612703565b91506135c38261355c565b604082019050919050565b600060208201905081810360008301526135e7816135ab565b9050919050565b7f4552433732313a207472616e7366657220746f20746865207a65726f2061646460008201527f7265737300000000000000000000000000000000000000000000000000000000602082015250565b600061364a602483612703565b9150613655826135ee565b604082019050919050565b600060208201905081810360008301526136798161363d565b9050919050565b7f4e487b7100000000000000000000000000000000000000000000000000000000600052601160045260246000fd5b60006136ba826127b3565b91506136c5836127b3565b9250828210156136d8576136d7613680565b5b828203905092915050565b60006136ee826127b3565b91506136f9836127b3565b9250827fffffffffffffffffffffffffffffffffffffffffffffffffffffffffffffffff0382111561372e5761372d613680565b5b828201905092915050565b7f4552433732313a207472616e7366657220746f206e6f6e20455243373231526560008201527f63656976657220696d706c656d656e7465720000000000000000000000000000602082015250565b6000613795603283612703565b91506137a082613739565b604082019050919050565b600060208201905081810360008301526137c481613788565b9050919050565b60006137d6826127b3565b91507fffffffffffffffffffffffffffffffffffffffffffffffffffffffffffffffff82141561380957613808613680565b5b600182019050919050565b7f4e487b7100000000000000000000000000000000000000000000000000000000600052601260045260246000fd5b600061384e826127b3565b9150613859836127b3565b92508261386957613868613814565b5b828204905092915050565b600061387f826127b3565b915061388a836127b3565b92508261389a57613899613814565b5b828206905092915050565b7f4e487b7100000000000000000000000000000000000000000000000000000000600052603260045260246000fd5b6000819050919050565b6138ef6138ea826127b3565b6138d4565b82525050565b60008160601b9050919050565b600061390d826138f5565b9050919050565b600061391f82613902565b9050919050565b61393761393282612836565b613914565b82525050565b6000819050919050565b6139586139538261263d565b61393d565b82525050565b600061396a828a6138de565b60208201915061397a82896138de565b60208201915061398a8288613926565b60148201915061399a82876138de565b6020820191506139aa8286613947565b6004820191506139ba82856138de565b6020820191506139ca82846138de565b60208201915081905098975050505050505050565b7f44657461696c48656c7065723a3a7069636b4974656d733a204e6f206974656d600082015250565b6000613a15602083612703565b9150613a20826139df565b602082019050919050565b60006020820190508181036000830152613a4481613a08565b9050919050565b60008160f81b9050919050565b6000613a6382613a4b565b9050919050565b613a7b613a7682612b06565b613a58565b82525050565b6000613a8d8287613a6a565b600182019150613a9d8286613a6a565b600182019150613aad8285613a6a565b600182019150613abd8284613a6a565b60018201915081905095945050505050565b600081519050919050565b600082825260208201905092915050565b6000613af682613acf565b613b008185613ada565b9350613b10818560208601612714565b613b1981612747565b840191505092915050565b6000608082019050613b396000830187612848565b613b466020830186612848565b613b5360408301856128de565b8181036060830152613b658184613aeb565b905095945050505050565b600081519050613b7f81612669565b92915050565b600060208284031215613b9b57613b9a612633565b5b6000613ba984828501613b70565b91505092915050565b7f4552433732313a206d696e7420746f20746865207a65726f2061646472657373600082015250565b6000613be8602083612703565b9150613bf382613bb2565b602082019050919050565b60006020820190508181036000830152613c1781613bdb565b9050919050565b7f4552433732313a20746f6b656e20616c7265616479206d696e74656400000000600082015250565b6000613c54601c83612703565b9150613c5f82613c1e565b602082019050919050565b60006020820190508181036000830152613c8381613c47565b905091905056fea2646970667358221220ea73f15e27dda2a25624c6225ce2b9a0e0425438a0b8baec10f6f836a401c72f64736f6c634300080a0033",
  "immutableReferences": {},
  "source": "// SPDX-License-Identifier: MIT\n\npragma solidity >=0.8.3 <0.9.0;\n\nimport \"@openzeppelin/contracts/token/ERC721/ERC721.sol\";\nimport \"@openzeppelin/contracts/utils/Counters.sol\";\n\nimport \"./UniqueMetadata.sol\";\nimport \"./Managable.sol\";\n\n/// @title The main CryptoDicks ERC721 smart contract.\n/// @author juliencrn\n/// @dev Work in progress, not production ready yet.\ncontract CryptoDicks is ERC721, UniqueMetadata, Managable {\n    using Counters for Counters.Counter;\n\n    // Supply\n    uint256 public totalSupply = 10_000;\n    Counters.Counter internal _currentSupply;\n\n    // Mapping token ID to Metadata\n    mapping(uint256 => Metadata) idToMetadata;\n\n    constructor() ERC721(\"CryptoDicks\", \"DICK\") {\n        // Mint my own NFT tokens.\n        for (uint256 i = 0; i < 10; i++) {\n            mint();\n        }\n    }\n\n    /// Allow user to mint a token\n    /// @dev takes fees then calls mint() internally.\n    function claim() external payable {\n        require(msg.value == claimFee, \"Claiming a NFT costs ether\");\n\n        mint();\n\n        // Give ether to the contract owner\n        payable(owner()).transfer(claimFee);\n    }\n\n    /// For a a given token ID, returns its metadata\n    function get(uint256 _tokenId)\n        external\n        view\n        returns (\n            uint8 background,\n            uint8 skin,\n            uint8 hat,\n            uint8 eye\n        )\n    {\n        require(_exists(_tokenId), \"Token not minted yet\");\n        return (\n            idToMetadata[_tokenId].background,\n            idToMetadata[_tokenId].skin,\n            idToMetadata[_tokenId].hat,\n            idToMetadata[_tokenId].eye\n        );\n    }\n\n    /// @return the current supply\n    function currentSupply() external view returns (uint256) {\n        return _currentSupply.current();\n    }\n\n    /// Mint a new NFT\n    /// @return Created token id\n    function mint() internal returns (uint256) {\n        require(_currentSupply.current() < totalSupply);\n\n        // Increment the token supply.\n        _currentSupply.increment();\n        uint256 newTokenId = _currentSupply.current();\n\n        // Generate and save metadata\n        idToMetadata[newTokenId] = _createUniqueMetadata(newTokenId);\n\n        // Finally, mint!\n        _safeMint(msg.sender, newTokenId);\n\n        return newTokenId;\n    }\n\n    /// Return the good baseURI overriding the ERC721 method\n    function _baseURI() internal view virtual override returns (string memory) {\n        return _currentBaseURI;\n    }\n}\n",
  "sourcePath": "/Users/juliencaron/www/ntf/ntf-collectible/contracts/CryptoDicks.sol",
  "compiler": {
    "name": "solc",
    "version": "0.8.10+commit.fc410830.Emscripten.clang"
  },
  "schemaVersion": "3.4.3",
  "updatedAt": "2021-11-30T15:47:33.492Z",
  "devdoc": {
    "author": "juliencrn",
    "details": "Work in progress, not production ready yet.",
    "kind": "dev",
    "methods": {
      "approve(address,uint256)": {
        "details": "See {IERC721-approve}."
      },
      "balanceOf(address)": {
        "details": "See {IERC721-balanceOf}."
      },
      "claim()": {
        "details": "takes fees then calls mint() internally."
      },
      "currentSupply()": {
        "returns": {
          "_0": "the current supply"
        }
      },
      "getApproved(uint256)": {
        "details": "See {IERC721-getApproved}."
      },
      "isApprovedForAll(address,address)": {
        "details": "See {IERC721-isApprovedForAll}."
      },
      "name()": {
        "details": "See {IERC721Metadata-name}."
      },
      "owner()": {
        "details": "Returns the address of the current owner."
      },
      "ownerOf(uint256)": {
        "details": "See {IERC721-ownerOf}."
      },
      "renounceOwnership()": {
        "details": "Leaves the contract without owner. It will not be possible to call `onlyOwner` functions anymore. Can only be called by the current owner. NOTE: Renouncing ownership will leave the contract without an owner, thereby removing any functionality that is only available to the owner."
      },
      "safeTransferFrom(address,address,uint256)": {
        "details": "See {IERC721-safeTransferFrom}."
      },
      "safeTransferFrom(address,address,uint256,bytes)": {
        "details": "See {IERC721-safeTransferFrom}."
      },
      "setApprovalForAll(address,bool)": {
        "details": "See {IERC721-setApprovalForAll}."
      },
      "supportsInterface(bytes4)": {
        "details": "See {IERC165-supportsInterface}."
      },
      "symbol()": {
        "details": "See {IERC721Metadata-symbol}."
      },
      "tokenURI(uint256)": {
        "details": "See {IERC721Metadata-tokenURI}."
      },
      "transferFrom(address,address,uint256)": {
        "details": "See {IERC721-transferFrom}."
      },
      "transferOwnership(address)": {
        "details": "Transfers ownership of the contract to a new account (`newOwner`). Can only be called by the current owner."
      },
      "withdraw()": {
        "details": "Ether are stored in the contract when \"payable->transfer\" is invoked. TODO Add unit test"
      }
    },
    "title": "The main CryptoDicks ERC721 smart contract.",
    "version": 1
  },
  "userdoc": {
    "kind": "user",
    "methods": {
      "claim()": {
        "notice": "Allow user to mint a token"
      },
      "get(uint256)": {
        "notice": "For a a given token ID, returns its metadata"
      },
      "setBaseURI(string)": {
        "notice": "Allow owner to set new baseURI"
      },
      "setClaimFee(uint256)": {
        "notice": "Allow owner to set new mint fee price, ether price will change."
      },
      "withdraw()": {
        "notice": "Allow owner to withdraw contract balance."
      }
    },
    "version": 1
  }
}