{
  "contractName": "CryptoDicksFull",
  "abi": [
    {
      "anonymous": false,
      "inputs": [
        {
          "indexed": true,
          "internalType": "address",
          "name": "owner",
          "type": "address"
        },
        {
          "indexed": true,
          "internalType": "address",
          "name": "approved",
          "type": "address"
        },
        {
          "indexed": true,
          "internalType": "uint256",
          "name": "tokenId",
          "type": "uint256"
        }
      ],
      "name": "Approval",
      "type": "event"
    },
    {
      "anonymous": false,
      "inputs": [
        {
          "indexed": true,
          "internalType": "address",
          "name": "owner",
          "type": "address"
        },
        {
          "indexed": true,
          "internalType": "address",
          "name": "operator",
          "type": "address"
        },
        {
          "indexed": false,
          "internalType": "bool",
          "name": "approved",
          "type": "bool"
        }
      ],
      "name": "ApprovalForAll",
      "type": "event"
    },
    {
      "anonymous": false,
      "inputs": [
        {
          "indexed": true,
          "internalType": "address",
          "name": "previousOwner",
          "type": "address"
        },
        {
          "indexed": true,
          "internalType": "address",
          "name": "newOwner",
          "type": "address"
        }
      ],
      "name": "OwnershipTransferred",
      "type": "event"
    },
    {
      "anonymous": false,
      "inputs": [
        {
          "indexed": true,
          "internalType": "address",
          "name": "from",
          "type": "address"
        },
        {
          "indexed": true,
          "internalType": "address",
          "name": "to",
          "type": "address"
        },
        {
          "indexed": true,
          "internalType": "uint256",
          "name": "tokenId",
          "type": "uint256"
        }
      ],
      "name": "Transfer",
      "type": "event"
    },
    {
      "inputs": [],
      "name": "actualSupply",
      "outputs": [
        {
          "internalType": "uint256",
          "name": "",
          "type": "uint256"
        }
      ],
      "stateMutability": "view",
      "type": "function"
    },
    {
      "inputs": [
        {
          "internalType": "address",
          "name": "to",
          "type": "address"
        },
        {
          "internalType": "uint256",
          "name": "tokenId",
          "type": "uint256"
        }
      ],
      "name": "approve",
      "outputs": [],
      "stateMutability": "nonpayable",
      "type": "function"
    },
    {
      "inputs": [
        {
          "internalType": "address",
          "name": "owner",
          "type": "address"
        }
      ],
      "name": "balanceOf",
      "outputs": [
        {
          "internalType": "uint256",
          "name": "",
          "type": "uint256"
        }
      ],
      "stateMutability": "view",
      "type": "function"
    },
    {
      "inputs": [],
      "name": "claim",
      "outputs": [],
      "stateMutability": "payable",
      "type": "function"
    },
    {
      "inputs": [
        {
          "internalType": "uint256",
          "name": "_tokenId",
          "type": "uint256"
        }
      ],
      "name": "get",
      "outputs": [
        {
          "internalType": "uint8",
          "name": "bgColor",
          "type": "uint8"
        },
        {
          "internalType": "uint8",
          "name": "dickColor",
          "type": "uint8"
        },
        {
          "internalType": "uint8",
          "name": "hat",
          "type": "uint8"
        },
        {
          "internalType": "uint8",
          "name": "clothe",
          "type": "uint8"
        },
        {
          "internalType": "uint8",
          "name": "skin",
          "type": "uint8"
        }
      ],
      "stateMutability": "view",
      "type": "function"
    },
    {
      "inputs": [
        {
          "internalType": "uint256",
          "name": "tokenId",
          "type": "uint256"
        }
      ],
      "name": "getApproved",
      "outputs": [
        {
          "internalType": "address",
          "name": "",
          "type": "address"
        }
      ],
      "stateMutability": "view",
      "type": "function"
    },
    {
      "inputs": [
        {
          "internalType": "address",
          "name": "owner",
          "type": "address"
        },
        {
          "internalType": "address",
          "name": "operator",
          "type": "address"
        }
      ],
      "name": "isApprovedForAll",
      "outputs": [
        {
          "internalType": "bool",
          "name": "",
          "type": "bool"
        }
      ],
      "stateMutability": "view",
      "type": "function"
    },
    {
      "inputs": [],
      "name": "name",
      "outputs": [
        {
          "internalType": "string",
          "name": "",
          "type": "string"
        }
      ],
      "stateMutability": "view",
      "type": "function"
    },
    {
      "inputs": [],
      "name": "owner",
      "outputs": [
        {
          "internalType": "address",
          "name": "",
          "type": "address"
        }
      ],
      "stateMutability": "view",
      "type": "function"
    },
    {
      "inputs": [
        {
          "internalType": "uint256",
          "name": "tokenId",
          "type": "uint256"
        }
      ],
      "name": "ownerOf",
      "outputs": [
        {
          "internalType": "address",
          "name": "",
          "type": "address"
        }
      ],
      "stateMutability": "view",
      "type": "function"
    },
    {
      "inputs": [],
      "name": "renounceOwnership",
      "outputs": [],
      "stateMutability": "nonpayable",
      "type": "function"
    },
    {
      "inputs": [
        {
          "internalType": "address",
          "name": "from",
          "type": "address"
        },
        {
          "internalType": "address",
          "name": "to",
          "type": "address"
        },
        {
          "internalType": "uint256",
          "name": "tokenId",
          "type": "uint256"
        }
      ],
      "name": "safeTransferFrom",
      "outputs": [],
      "stateMutability": "nonpayable",
      "type": "function"
    },
    {
      "inputs": [
        {
          "internalType": "address",
          "name": "from",
          "type": "address"
        },
        {
          "internalType": "address",
          "name": "to",
          "type": "address"
        },
        {
          "internalType": "uint256",
          "name": "tokenId",
          "type": "uint256"
        },
        {
          "internalType": "bytes",
          "name": "_data",
          "type": "bytes"
        }
      ],
      "name": "safeTransferFrom",
      "outputs": [],
      "stateMutability": "nonpayable",
      "type": "function"
    },
    {
      "inputs": [
        {
          "internalType": "address",
          "name": "operator",
          "type": "address"
        },
        {
          "internalType": "bool",
          "name": "approved",
          "type": "bool"
        }
      ],
      "name": "setApprovalForAll",
      "outputs": [],
      "stateMutability": "nonpayable",
      "type": "function"
    },
    {
      "inputs": [
        {
          "internalType": "string",
          "name": "baseURI",
          "type": "string"
        }
      ],
      "name": "setBaseURI",
      "outputs": [],
      "stateMutability": "nonpayable",
      "type": "function"
    },
    {
      "inputs": [
        {
          "internalType": "uint256",
          "name": "_newPrice",
          "type": "uint256"
        }
      ],
      "name": "setClaimFee",
      "outputs": [],
      "stateMutability": "nonpayable",
      "type": "function"
    },
    {
      "inputs": [
        {
          "internalType": "bytes4",
          "name": "interfaceId",
          "type": "bytes4"
        }
      ],
      "name": "supportsInterface",
      "outputs": [
        {
          "internalType": "bool",
          "name": "",
          "type": "bool"
        }
      ],
      "stateMutability": "view",
      "type": "function"
    },
    {
      "inputs": [],
      "name": "symbol",
      "outputs": [
        {
          "internalType": "string",
          "name": "",
          "type": "string"
        }
      ],
      "stateMutability": "view",
      "type": "function"
    },
    {
      "inputs": [
        {
          "internalType": "uint256",
          "name": "tokenId",
          "type": "uint256"
        }
      ],
      "name": "tokenURI",
      "outputs": [
        {
          "internalType": "string",
          "name": "",
          "type": "string"
        }
      ],
      "stateMutability": "view",
      "type": "function"
    },
    {
      "inputs": [],
      "name": "totalSupply",
      "outputs": [
        {
          "internalType": "uint256",
          "name": "",
          "type": "uint256"
        }
      ],
      "stateMutability": "view",
      "type": "function"
    },
    {
      "inputs": [
        {
          "internalType": "address",
          "name": "from",
          "type": "address"
        },
        {
          "internalType": "address",
          "name": "to",
          "type": "address"
        },
        {
          "internalType": "uint256",
          "name": "tokenId",
          "type": "uint256"
        }
      ],
      "name": "transferFrom",
      "outputs": [],
      "stateMutability": "nonpayable",
      "type": "function"
    },
    {
      "inputs": [
        {
          "internalType": "address",
          "name": "newOwner",
          "type": "address"
        }
      ],
      "name": "transferOwnership",
      "outputs": [],
      "stateMutability": "nonpayable",
      "type": "function"
    }
  ],
  "bytecode": "0x60806040526127106008556040518060400160405280601681526020017f687474703a2f2f6c6f63616c686f73743a353030302f00000000000000000000815250600990805190602001906200005792919062000f1d565b50662386f26fc10000600a553480156200007057600080fd5b506040518060400160405280600b81526020017f43727970746f4469636b730000000000000000000000000000000000000000008152506040518060400160405280600481526020017f4449434b00000000000000000000000000000000000000000000000000000000815250620000fd620000f16200038760201b60201c565b6200038f60201b60201c565b81600190805190602001906200011592919062000f1d565b5080600290805190602001906200012e92919062000f1d565b50505060007f0e42f327ee3cfa7ccfc084a0bb68d05eb627610303012a67afbf1ecd9b0d32fa905060007f5f1b94249f60809342da726cec530c7133a77dcbed72667722d5d994959bd275905060007f0e42f327ee3cfa7ccfc084a0bb68d05eb627610303012a67afbf1ecd9b0d32fa905060007fc775035f74a58828f4597f2e262e5afdb2ac70a26515d12ffda581858eba032290506001600d600086815260200190815260200160002060006101000a81548160ff0219169083151502179055506001600d600085815260200190815260200160002060006101000a81548160ff02191690831515021790555060011515600d600086815260200190815260200160002060009054906101000a900460ff1615151462000287576040517f08c379a00000000000000000000000000000000000000000000000000000000081526004016200027e906200102e565b60405180910390fd5b60011515600d600084815260200190815260200160002060009054906101000a900460ff16151514620002f1576040517f08c379a0000000000000000000000000000000000000000000000000000000008152600401620002e890620010a0565b60405180910390fd5b60001515600d600083815260200190815260200160002060009054906101000a900460ff161515146200035b576040517f08c379a0000000000000000000000000000000000000000000000000000000008152600401620003529062001112565b60405180910390fd5b6200036b6200045360201b60201c565b506200037c6200045360201b60201c565b5050505050620017a5565b600033905090565b60008060009054906101000a900473ffffffffffffffffffffffffffffffffffffffff169050816000806101000a81548173ffffffffffffffffffffffffffffffffffffffff021916908373ffffffffffffffffffffffffffffffffffffffff1602179055508173ffffffffffffffffffffffffffffffffffffffff168173ffffffffffffffffffffffffffffffffffffffff167f8be0079c531659141344cd1fd0a4f28419497f9722a3daafe3b4186f6b6457e060405160405180910390a35050565b60006008546200046f60076200068360201b6200127f1760201c565b106200047a57600080fd5b6200049160076200069160201b6200128d1760201c565b6000620004aa60076200068360201b6200127f1760201c565b9050600080600080600080620004c5620006a760201b60201c565b809650819750829850839950849a50859b5050505050505060011515600c600088815260200190815260200160002060009054906101000a900460ff1615151462000547576040517f08c379a00000000000000000000000000000000000000000000000000000000081526004016200053e9062001184565b60405180910390fd5b6001600c600088815260200190815260200160002060006101000a81548160ff0219169083151502179055506040518060a001604052808660ff1681526020018560ff1681526020018460ff1681526020018360ff1681526020018260ff16815250600b600089815260200190815260200160002060008201518160000160006101000a81548160ff021916908360ff16021790555060208201518160000160016101000a81548160ff021916908360ff16021790555060408201518160000160026101000a81548160ff021916908360ff16021790555060608201518160000160036101000a81548160ff021916908360ff16021790555060808201518160000160046101000a81548160ff021916908360ff1602179055509050506200067633886200074460201b60201c565b8697505050505050505090565b600081600001549050919050565b6001816000016000828254019250508190555050565b6000806000806000806000806000806000805b6001156200072457620006d26200076a60201b60201c565b809650819750829850839950849a50859b5050505050505060001515600c60008e815260200190815260200160002060009054906101000a900460ff16151514156200071e5762000724565b620006ba565b859b50849a50839950829850819750809650505050505050909192939495565b620007668282604051806020016040528060008152506200093460201b60201c565b5050565b6000806000806000806000620007bb6040518060400160405280600781526020017f6267436f6c6f7200000000000000000000000000000000000000000000000000815250620009a260201b60201c565b90506000620008056040518060400160405280600981526020017f6469636b436f6c6f720000000000000000000000000000000000000000000000815250620009a260201b60201c565b905060006200084f6040518060400160405280600381526020017f686174000000000000000000000000000000000000000000000000000000000081525062000a6660201b60201c565b90506000620008996040518060400160405280600681526020017f636c6f746865000000000000000000000000000000000000000000000000000081525062000a6660201b60201c565b90506000620008e36040518060400160405280600481526020017f736b696e0000000000000000000000000000000000000000000000000000000081525062000a6660201b60201c565b9050848484848460405160200162000900959493929190620011c4565b604051602081830303815290604052805190602001209a508499508398508297508196508095505050505050909192939495565b62000946838362000aa360201b60201c565b6200095b600084848462000c8960201b60201c565b6200099d576040517f08c379a0000000000000000000000000000000000000000000000000000000008152600401620009949062001297565b60405180910390fd5b505050565b600080620009b68362000e3360201b60201c565b905060006103e8821015620009cf576007905062000a5c565b611770821015620009e4576006905062000a5b565b613e80821015620009f9576005905062000a5a565b620101d082101562000a0f576004905062000a59565b6202887082101562000a25576003905062000a58565b620595b082101562000a3b576002905062000a57565b620a299082101562000a51576001905062000a56565b600090505b5b5b5b5b5b5b8092505050919050565b60008062000a7a8362000e3360201b60201c565b905060006207a12082101562000a94576001905062000a99565b600090505b8092505050919050565b600073ffffffffffffffffffffffffffffffffffffffff168273ffffffffffffffffffffffffffffffffffffffff16141562000b16576040517f08c379a000000000000000000000000000000000000000000000000000000000815260040162000b0d9062001309565b60405180910390fd5b62000b278162000e9960201b60201c565b1562000b6a576040517f08c379a000000000000000000000000000000000000000000000000000000000815260040162000b61906200137b565b60405180910390fd5b62000b7e6000838362000f0560201b60201c565b6001600460008473ffffffffffffffffffffffffffffffffffffffff1673ffffffffffffffffffffffffffffffffffffffff168152602001908152602001600020600082825462000bd09190620013d6565b92505081905550816003600083815260200190815260200160002060006101000a81548173ffffffffffffffffffffffffffffffffffffffff021916908373ffffffffffffffffffffffffffffffffffffffff160217905550808273ffffffffffffffffffffffffffffffffffffffff16600073ffffffffffffffffffffffffffffffffffffffff167fddf252ad1be2c89b69c2b068fc378daa952ba7f163c4a11628f55a4df523b3ef60405160405180910390a45050565b600062000cb78473ffffffffffffffffffffffffffffffffffffffff1662000f0a60201b620012a31760201c565b1562000e26578373ffffffffffffffffffffffffffffffffffffffff1663150b7a0262000ce96200038760201b60201c565b8786866040518563ffffffff1660e01b815260040162000d0d94939291906200152d565b6020604051808303816000875af192505050801562000d4c57506040513d601f19601f8201168201806040525081019062000d499190620015e3565b60015b62000dd5573d806000811462000d7f576040519150601f19603f3d011682016040523d82523d6000602084013e62000d84565b606091505b5060008151141562000dcd576040517f08c379a000000000000000000000000000000000000000000000000000000000815260040162000dc49062001297565b60405180910390fd5b805181602001fd5b63150b7a0260e01b7bffffffffffffffffffffffffffffffffffffffffffffffffffffffff1916817bffffffffffffffffffffffffffffffffffffffffffffffffffffffff19161491505062000e2b565b600190505b949350505050565b600080444262000e4f60076200068360201b6200127f1760201c565b8560405160200162000e65949392919062001687565b6040516020818303038152906040528051906020012060001c9050620f42408162000e91919062001708565b915050919050565b60008073ffffffffffffffffffffffffffffffffffffffff166003600084815260200190815260200160002060009054906101000a900473ffffffffffffffffffffffffffffffffffffffff1673ffffffffffffffffffffffffffffffffffffffff1614159050919050565b505050565b600080823b905060008111915050919050565b82805462000f2b906200176f565b90600052602060002090601f01602090048101928262000f4f576000855562000f9b565b82601f1062000f6a57805160ff191683800117855562000f9b565b8280016001018555821562000f9b579182015b8281111562000f9a57825182559160200191906001019062000f7d565b5b50905062000faa919062000fae565b5090565b5b8082111562000fc957600081600090555060010162000faf565b5090565b600082825260208201905092915050565b7f6b657931203d3d20747275650000000000000000000000000000000000000000600082015250565b600062001016600c8362000fcd565b9150620010238262000fde565b602082019050919050565b60006020820190508181036000830152620010498162001007565b9050919050565b7f696e707574496e203d206b657931203d3d207472756500000000000000000000600082015250565b60006200108860168362000fcd565b9150620010958262001050565b602082019050919050565b60006020820190508181036000830152620010bb8162001079565b9050919050565b7f6f7574203d3d2066616c73650000000000000000000000000000000000000000600082015250565b6000620010fa600c8362000fcd565b91506200110782620010c2565b602082019050919050565b600060208201905081810360008301526200112d81620010eb565b9050919050565b7f444e4120616c7265616479206578697374732e00000000000000000000000000600082015250565b60006200116c60138362000fcd565b9150620011798262001134565b602082019050919050565b600060208201905081810360008301526200119f816200115d565b9050919050565b600060ff82169050919050565b620011be81620011a6565b82525050565b600060a082019050620011db6000830188620011b3565b620011ea6020830187620011b3565b620011f96040830186620011b3565b620012086060830185620011b3565b620012176080830184620011b3565b9695505050505050565b7f4552433732313a207472616e7366657220746f206e6f6e20455243373231526560008201527f63656976657220696d706c656d656e7465720000000000000000000000000000602082015250565b60006200127f60328362000fcd565b91506200128c8262001221565b604082019050919050565b60006020820190508181036000830152620012b28162001270565b9050919050565b7f4552433732313a206d696e7420746f20746865207a65726f2061646472657373600082015250565b6000620012f160208362000fcd565b9150620012fe82620012b9565b602082019050919050565b600060208201905081810360008301526200132481620012e2565b9050919050565b7f4552433732313a20746f6b656e20616c7265616479206d696e74656400000000600082015250565b600062001363601c8362000fcd565b915062001370826200132b565b602082019050919050565b60006020820190508181036000830152620013968162001354565b9050919050565b6000819050919050565b7f4e487b7100000000000000000000000000000000000000000000000000000000600052601160045260246000fd5b6000620013e3826200139d565b9150620013f0836200139d565b9250827fffffffffffffffffffffffffffffffffffffffffffffffffffffffffffffffff03821115620014285762001427620013a7565b5b828201905092915050565b600073ffffffffffffffffffffffffffffffffffffffff82169050919050565b6000620014608262001433565b9050919050565b620014728162001453565b82525050565b62001483816200139d565b82525050565b600081519050919050565b600082825260208201905092915050565b60005b83811015620014c5578082015181840152602081019050620014a8565b83811115620014d5576000848401525b50505050565b6000601f19601f8301169050919050565b6000620014f98262001489565b62001505818562001494565b935062001517818560208601620014a5565b6200152281620014db565b840191505092915050565b600060808201905062001544600083018762001467565b62001553602083018662001467565b62001562604083018562001478565b8181036060830152620015768184620014ec565b905095945050505050565b600080fd5b60007fffffffff0000000000000000000000000000000000000000000000000000000082169050919050565b620015bd8162001586565b8114620015c957600080fd5b50565b600081519050620015dd81620015b2565b92915050565b600060208284031215620015fc57620015fb62001581565b5b60006200160c84828501620015cc565b91505092915050565b6000819050919050565b620016346200162e826200139d565b62001615565b82525050565b600081519050919050565b600081905092915050565b60006200165d826200163a565b62001669818562001645565b93506200167b818560208601620014a5565b80840191505092915050565b60006200169582876200161f565b602082019150620016a782866200161f565b602082019150620016b982856200161f565b602082019150620016cb828462001650565b915081905095945050505050565b7f4e487b7100000000000000000000000000000000000000000000000000000000600052601260045260246000fd5b600062001715826200139d565b915062001722836200139d565b925082620017355762001734620016d9565b5b828206905092915050565b7f4e487b7100000000000000000000000000000000000000000000000000000000600052602260045260246000fd5b600060028204905060018216806200178857607f821691505b602082108114156200179f576200179e62001740565b5b50919050565b61398280620017b56000396000f3fe6080604052600436106101355760003560e01c806370a08231116100ab578063a22cb4651161006f578063a22cb46514610409578063b88d4fde14610432578063c87b56dd1461045b578063d9c905b814610498578063e985e9c5146104c3578063f2fde38b1461050057610135565b806370a082311461031e578063715018a61461035b5780638da5cb5b146103725780639507d39a1461039d57806395d89b41146103de57610135565b806323b872dd116100fd57806323b872dd146102335780632e75ab501461025c57806342842e0e146102855780634e71d92d146102ae57806355f804b3146102b85780636352211e146102e157610135565b806301ffc9a71461013a57806306fdde0314610177578063081812fc146101a2578063095ea7b3146101df57806318160ddd14610208575b600080fd5b34801561014657600080fd5b50610161600480360381019061015c91906124d9565b610529565b60405161016e9190612521565b60405180910390f35b34801561018357600080fd5b5061018c61060b565b60405161019991906125d5565b60405180910390f35b3480156101ae57600080fd5b506101c960048036038101906101c4919061262d565b61069d565b6040516101d6919061269b565b60405180910390f35b3480156101eb57600080fd5b50610206600480360381019061020191906126e2565b610722565b005b34801561021457600080fd5b5061021d61083a565b60405161022a9190612731565b60405180910390f35b34801561023f57600080fd5b5061025a6004803603810190610255919061274c565b610840565b005b34801561026857600080fd5b50610283600480360381019061027e919061262d565b6108a0565b005b34801561029157600080fd5b506102ac60048036038101906102a7919061274c565b610926565b005b6102b6610946565b005b3480156102c457600080fd5b506102df60048036038101906102da91906128d4565b6109e5565b005b3480156102ed57600080fd5b506103086004803603810190610303919061262d565b610a7b565b604051610315919061269b565b60405180910390f35b34801561032a57600080fd5b506103456004803603810190610340919061291d565b610b2d565b6040516103529190612731565b60405180910390f35b34801561036757600080fd5b50610370610be5565b005b34801561037e57600080fd5b50610387610c6d565b604051610394919061269b565b60405180910390f35b3480156103a957600080fd5b506103c460048036038101906103bf919061262d565b610c96565b6040516103d5959493929190612966565b60405180910390f35b3480156103ea57600080fd5b506103f3610dc6565b60405161040091906125d5565b60405180910390f35b34801561041557600080fd5b50610430600480360381019061042b91906129e5565b610e58565b005b34801561043e57600080fd5b5061045960048036038101906104549190612ac6565b610fd9565b005b34801561046757600080fd5b50610482600480360381019061047d919061262d565b61103b565b60405161048f91906125d5565b60405180910390f35b3480156104a457600080fd5b506104ad6110e2565b6040516104ba9190612731565b60405180910390f35b3480156104cf57600080fd5b506104ea60048036038101906104e59190612b49565b6110f3565b6040516104f79190612521565b60405180910390f35b34801561050c57600080fd5b506105276004803603810190610522919061291d565b611187565b005b60007f80ac58cd000000000000000000000000000000000000000000000000000000007bffffffffffffffffffffffffffffffffffffffffffffffffffffffff1916827bffffffffffffffffffffffffffffffffffffffffffffffffffffffff191614806105f457507f5b5e139f000000000000000000000000000000000000000000000000000000007bffffffffffffffffffffffffffffffffffffffffffffffffffffffff1916827bffffffffffffffffffffffffffffffffffffffffffffffffffffffff1916145b806106045750610603826112b6565b5b9050919050565b60606001805461061a90612bb8565b80601f016020809104026020016040519081016040528092919081815260200182805461064690612bb8565b80156106935780601f1061066857610100808354040283529160200191610693565b820191906000526020600020905b81548152906001019060200180831161067657829003601f168201915b5050505050905090565b60006106a882611320565b6106e7576040517f08c379a00000000000000000000000000000000000000000000000000000000081526004016106de90612c5c565b60405180910390fd5b6005600083815260200190815260200160002060009054906101000a900473ffffffffffffffffffffffffffffffffffffffff169050919050565b600061072d82610a7b565b90508073ffffffffffffffffffffffffffffffffffffffff168373ffffffffffffffffffffffffffffffffffffffff16141561079e576040517f08c379a000000000000000000000000000000000000000000000000000000000815260040161079590612cee565b60405180910390fd5b8073ffffffffffffffffffffffffffffffffffffffff166107bd61138c565b73ffffffffffffffffffffffffffffffffffffffff1614806107ec57506107eb816107e661138c565b6110f3565b5b61082b576040517f08c379a000000000000000000000000000000000000000000000000000000000815260040161082290612d80565b60405180910390fd5b6108358383611394565b505050565b60085481565b61085161084b61138c565b8261144d565b610890576040517f08c379a000000000000000000000000000000000000000000000000000000000815260040161088790612e12565b60405180910390fd5b61089b83838361152b565b505050565b6108a861138c565b73ffffffffffffffffffffffffffffffffffffffff166108c6610c6d565b73ffffffffffffffffffffffffffffffffffffffff161461091c576040517f08c379a000000000000000000000000000000000000000000000000000000000815260040161091390612e7e565b60405180910390fd5b80600a8190555050565b61094183838360405180602001604052806000815250610fd9565b505050565b600a54341461098a576040517f08c379a000000000000000000000000000000000000000000000000000000000815260040161098190612f10565b60405180910390fd5b610992611787565b5061099b610c6d565b73ffffffffffffffffffffffffffffffffffffffff166108fc600a549081150290604051600060405180830381858888f193505050501580156109e2573d6000803e3d6000fd5b50565b6109ed61138c565b73ffffffffffffffffffffffffffffffffffffffff16610a0b610c6d565b73ffffffffffffffffffffffffffffffffffffffff1614610a61576040517f08c379a0000000000000000000000000000000000000000000000000000000008152600401610a5890612e7e565b60405180910390fd5b8060099080519060200190610a779291906123ca565b5050565b6000806003600084815260200190815260200160002060009054906101000a900473ffffffffffffffffffffffffffffffffffffffff169050600073ffffffffffffffffffffffffffffffffffffffff168173ffffffffffffffffffffffffffffffffffffffff161415610b24576040517f08c379a0000000000000000000000000000000000000000000000000000000008152600401610b1b90612fa2565b60405180910390fd5b80915050919050565b60008073ffffffffffffffffffffffffffffffffffffffff168273ffffffffffffffffffffffffffffffffffffffff161415610b9e576040517f08c379a0000000000000000000000000000000000000000000000000000000008152600401610b9590613034565b60405180910390fd5b600460008373ffffffffffffffffffffffffffffffffffffffff1673ffffffffffffffffffffffffffffffffffffffff168152602001908152602001600020549050919050565b610bed61138c565b73ffffffffffffffffffffffffffffffffffffffff16610c0b610c6d565b73ffffffffffffffffffffffffffffffffffffffff1614610c61576040517f08c379a0000000000000000000000000000000000000000000000000000000008152600401610c5890612e7e565b60405180910390fd5b610c6b600061197c565b565b60008060009054906101000a900473ffffffffffffffffffffffffffffffffffffffff16905090565b6000806000806000610ca786611320565b610ce6576040517f08c379a0000000000000000000000000000000000000000000000000000000008152600401610cdd906130a0565b60405180910390fd5b6000600b60008881526020019081526020016000206040518060a00160405290816000820160009054906101000a900460ff1660ff1660ff1681526020016000820160019054906101000a900460ff1660ff1660ff1681526020016000820160029054906101000a900460ff1660ff1660ff1681526020016000820160039054906101000a900460ff1660ff1660ff1681526020016000820160049054906101000a900460ff1660ff1660ff1681525050905080600001519550806020015194508060400151935080606001519250806080015191505091939590929450565b606060028054610dd590612bb8565b80601f0160208091040260200160405190810160405280929190818152602001828054610e0190612bb8565b8015610e4e5780601f10610e2357610100808354040283529160200191610e4e565b820191906000526020600020905b815481529060010190602001808311610e3157829003601f168201915b5050505050905090565b610e6061138c565b73ffffffffffffffffffffffffffffffffffffffff168273ffffffffffffffffffffffffffffffffffffffff161415610ece576040517f08c379a0000000000000000000000000000000000000000000000000000000008152600401610ec59061310c565b60405180910390fd5b8060066000610edb61138c565b73ffffffffffffffffffffffffffffffffffffffff1673ffffffffffffffffffffffffffffffffffffffff16815260200190815260200160002060008473ffffffffffffffffffffffffffffffffffffffff1673ffffffffffffffffffffffffffffffffffffffff16815260200190815260200160002060006101000a81548160ff0219169083151502179055508173ffffffffffffffffffffffffffffffffffffffff16610f8861138c565b73ffffffffffffffffffffffffffffffffffffffff167f17307eab39ab6107e8899845ad3d59bd9653f200f220920489ca2b5937696c3183604051610fcd9190612521565b60405180910390a35050565b610fea610fe461138c565b8361144d565b611029576040517f08c379a000000000000000000000000000000000000000000000000000000000815260040161102090612e12565b60405180910390fd5b61103584848484611a40565b50505050565b606061104682611320565b611085576040517f08c379a000000000000000000000000000000000000000000000000000000000815260040161107c9061319e565b60405180910390fd5b600061108f611a9c565b905060008151116110af57604051806020016040528060008152506110da565b806110b984611b2e565b6040516020016110ca9291906131fa565b6040516020818303038152906040525b915050919050565b60006110ee600761127f565b905090565b6000600660008473ffffffffffffffffffffffffffffffffffffffff1673ffffffffffffffffffffffffffffffffffffffff16815260200190815260200160002060008373ffffffffffffffffffffffffffffffffffffffff1673ffffffffffffffffffffffffffffffffffffffff16815260200190815260200160002060009054906101000a900460ff16905092915050565b61118f61138c565b73ffffffffffffffffffffffffffffffffffffffff166111ad610c6d565b73ffffffffffffffffffffffffffffffffffffffff1614611203576040517f08c379a00000000000000000000000000000000000000000000000000000000081526004016111fa90612e7e565b60405180910390fd5b600073ffffffffffffffffffffffffffffffffffffffff168173ffffffffffffffffffffffffffffffffffffffff161415611273576040517f08c379a000000000000000000000000000000000000000000000000000000000815260040161126a90613290565b60405180910390fd5b61127c8161197c565b50565b600081600001549050919050565b6001816000016000828254019250508190555050565b600080823b905060008111915050919050565b60007f01ffc9a7000000000000000000000000000000000000000000000000000000007bffffffffffffffffffffffffffffffffffffffffffffffffffffffff1916827bffffffffffffffffffffffffffffffffffffffffffffffffffffffff1916149050919050565b60008073ffffffffffffffffffffffffffffffffffffffff166003600084815260200190815260200160002060009054906101000a900473ffffffffffffffffffffffffffffffffffffffff1673ffffffffffffffffffffffffffffffffffffffff1614159050919050565b600033905090565b816005600083815260200190815260200160002060006101000a81548173ffffffffffffffffffffffffffffffffffffffff021916908373ffffffffffffffffffffffffffffffffffffffff160217905550808273ffffffffffffffffffffffffffffffffffffffff1661140783610a7b565b73ffffffffffffffffffffffffffffffffffffffff167f8c5be1e5ebec7d5bd14f71427d1e84f3dd0314c0f7b2291e5b200ac8c7c3b92560405160405180910390a45050565b600061145882611320565b611497576040517f08c379a000000000000000000000000000000000000000000000000000000000815260040161148e90613322565b60405180910390fd5b60006114a283610a7b565b90508073ffffffffffffffffffffffffffffffffffffffff168473ffffffffffffffffffffffffffffffffffffffff16148061151157508373ffffffffffffffffffffffffffffffffffffffff166114f98461069d565b73ffffffffffffffffffffffffffffffffffffffff16145b80611522575061152181856110f3565b5b91505092915050565b8273ffffffffffffffffffffffffffffffffffffffff1661154b82610a7b565b73ffffffffffffffffffffffffffffffffffffffff16146115a1576040517f08c379a0000000000000000000000000000000000000000000000000000000008152600401611598906133b4565b60405180910390fd5b600073ffffffffffffffffffffffffffffffffffffffff168273ffffffffffffffffffffffffffffffffffffffff161415611611576040517f08c379a000000000000000000000000000000000000000000000000000000000815260040161160890613446565b60405180910390fd5b61161c838383611c8f565b611627600082611394565b6001600460008573ffffffffffffffffffffffffffffffffffffffff1673ffffffffffffffffffffffffffffffffffffffff16815260200190815260200160002060008282546116779190613495565b925050819055506001600460008473ffffffffffffffffffffffffffffffffffffffff1673ffffffffffffffffffffffffffffffffffffffff16815260200190815260200160002060008282546116ce91906134c9565b92505081905550816003600083815260200190815260200160002060006101000a81548173ffffffffffffffffffffffffffffffffffffffff021916908373ffffffffffffffffffffffffffffffffffffffff160217905550808273ffffffffffffffffffffffffffffffffffffffff168473ffffffffffffffffffffffffffffffffffffffff167fddf252ad1be2c89b69c2b068fc378daa952ba7f163c4a11628f55a4df523b3ef60405160405180910390a4505050565b6000600854611796600761127f565b106117a057600080fd5b6117aa600761128d565b60006117b6600761127f565b90506000806000806000806117c9611c94565b809650819750829850839950849a50859b5050505050505060011515600c600088815260200190815260200160002060009054906101000a900460ff16151514611848576040517f08c379a000000000000000000000000000000000000000000000000000000000815260040161183f9061356b565b60405180910390fd5b6001600c600088815260200190815260200160002060006101000a81548160ff0219169083151502179055506040518060a001604052808660ff1681526020018560ff1681526020018460ff1681526020018360ff1681526020018260ff16815250600b600089815260200190815260200160002060008201518160000160006101000a81548160ff021916908360ff16021790555060208201518160000160016101000a81548160ff021916908360ff16021790555060408201518160000160026101000a81548160ff021916908360ff16021790555060608201518160000160036101000a81548160ff021916908360ff16021790555060808201518160000160046101000a81548160ff021916908360ff16021790555090505061196f3388611d25565b8697505050505050505090565b60008060009054906101000a900473ffffffffffffffffffffffffffffffffffffffff169050816000806101000a81548173ffffffffffffffffffffffffffffffffffffffff021916908373ffffffffffffffffffffffffffffffffffffffff1602179055508173ffffffffffffffffffffffffffffffffffffffff168173ffffffffffffffffffffffffffffffffffffffff167f8be0079c531659141344cd1fd0a4f28419497f9722a3daafe3b4186f6b6457e060405160405180910390a35050565b611a4b84848461152b565b611a5784848484611d43565b611a96576040517f08c379a0000000000000000000000000000000000000000000000000000000008152600401611a8d906135fd565b60405180910390fd5b50505050565b606060098054611aab90612bb8565b80601f0160208091040260200160405190810160405280929190818152602001828054611ad790612bb8565b8015611b245780601f10611af957610100808354040283529160200191611b24565b820191906000526020600020905b815481529060010190602001808311611b0757829003601f168201915b5050505050905090565b60606000821415611b76576040518060400160405280600181526020017f30000000000000000000000000000000000000000000000000000000000000008152509050611c8a565b600082905060005b60008214611ba8578080611b919061361d565b915050600a82611ba19190613695565b9150611b7e565b60008167ffffffffffffffff811115611bc457611bc36127a9565b5b6040519080825280601f01601f191660200182016040528015611bf65781602001600182028036833780820191505090505b5090505b60008514611c8357600182611c0f9190613495565b9150600a85611c1e91906136c6565b6030611c2a91906134c9565b60f81b818381518110611c4057611c3f6136f7565b5b60200101907effffffffffffffffffffffffffffffffffffffffffffffffffffffffffffff1916908160001a905350600a85611c7c9190613695565b9450611bfa565b8093505050505b919050565b505050565b6000806000806000806000806000806000805b600115611d0557611cb6611ecb565b809650819750829850839950849a50859b5050505050505060001515600c60008e815260200190815260200160002060009054906101000a900460ff1615151415611d0057611d05565b611ca7565b859b50849a50839950829850819750809650505050505050909192939495565b611d3f82826040518060200160405280600081525061206b565b5050565b6000611d648473ffffffffffffffffffffffffffffffffffffffff166112a3565b15611ebe578373ffffffffffffffffffffffffffffffffffffffff1663150b7a02611d8d61138c565b8786866040518563ffffffff1660e01b8152600401611daf949392919061377b565b6020604051808303816000875af1925050508015611deb57506040513d601f19601f82011682018060405250810190611de891906137dc565b60015b611e6e573d8060008114611e1b576040519150601f19603f3d011682016040523d82523d6000602084013e611e20565b606091505b50600081511415611e66576040517f08c379a0000000000000000000000000000000000000000000000000000000008152600401611e5d906135fd565b60405180910390fd5b805181602001fd5b63150b7a0260e01b7bffffffffffffffffffffffffffffffffffffffffffffffffffffffff1916817bffffffffffffffffffffffffffffffffffffffffffffffffffffffff191614915050611ec3565b600190505b949350505050565b6000806000806000806000611f146040518060400160405280600781526020017f6267436f6c6f72000000000000000000000000000000000000000000000000008152506120c6565b90506000611f566040518060400160405280600981526020017f6469636b436f6c6f7200000000000000000000000000000000000000000000008152506120c6565b90506000611f986040518060400160405280600381526020017f6861740000000000000000000000000000000000000000000000000000000000815250612174565b90506000611fda6040518060400160405280600681526020017f636c6f7468650000000000000000000000000000000000000000000000000000815250612174565b9050600061201c6040518060400160405280600481526020017f736b696e00000000000000000000000000000000000000000000000000000000815250612174565b90508484848484604051602001612037959493929190612966565b604051602081830303815290604052805190602001209a508499508398508297508196508095505050505050909192939495565b61207583836121a7565b6120826000848484611d43565b6120c1576040517f08c379a00000000000000000000000000000000000000000000000000000000081526004016120b8906135fd565b60405180910390fd5b505050565b6000806120d283612375565b905060006103e88210156120e9576007905061216a565b6117708210156120fc5760069050612169565b613e8082101561210f5760059050612168565b620101d08210156121235760049050612167565b620288708210156121375760039050612166565b620595b082101561214b5760029050612165565b620a299082101561215f5760019050612164565b600090505b5b5b5b5b5b5b8092505050919050565b60008061218083612375565b905060006207a120821015612198576001905061219d565b600090505b8092505050919050565b600073ffffffffffffffffffffffffffffffffffffffff168273ffffffffffffffffffffffffffffffffffffffff161415612217576040517f08c379a000000000000000000000000000000000000000000000000000000000815260040161220e90613855565b60405180910390fd5b61222081611320565b15612260576040517f08c379a0000000000000000000000000000000000000000000000000000000008152600401612257906138c1565b60405180910390fd5b61226c60008383611c8f565b6001600460008473ffffffffffffffffffffffffffffffffffffffff1673ffffffffffffffffffffffffffffffffffffffff16815260200190815260200160002060008282546122bc91906134c9565b92505081905550816003600083815260200190815260200160002060006101000a81548173ffffffffffffffffffffffffffffffffffffffff021916908373ffffffffffffffffffffffffffffffffffffffff160217905550808273ffffffffffffffffffffffffffffffffffffffff16600073ffffffffffffffffffffffffffffffffffffffff167fddf252ad1be2c89b69c2b068fc378daa952ba7f163c4a11628f55a4df523b3ef60405160405180910390a45050565b6000804442612384600761127f565b856040516020016123989493929190613902565b6040516020818303038152906040528051906020012060001c9050620f4240816123c291906136c6565b915050919050565b8280546123d690612bb8565b90600052602060002090601f0160209004810192826123f8576000855561243f565b82601f1061241157805160ff191683800117855561243f565b8280016001018555821561243f579182015b8281111561243e578251825591602001919060010190612423565b5b50905061244c9190612450565b5090565b5b80821115612469576000816000905550600101612451565b5090565b6000604051905090565b600080fd5b600080fd5b60007fffffffff0000000000000000000000000000000000000000000000000000000082169050919050565b6124b681612481565b81146124c157600080fd5b50565b6000813590506124d3816124ad565b92915050565b6000602082840312156124ef576124ee612477565b5b60006124fd848285016124c4565b91505092915050565b60008115159050919050565b61251b81612506565b82525050565b60006020820190506125366000830184612512565b92915050565b600081519050919050565b600082825260208201905092915050565b60005b8381101561257657808201518184015260208101905061255b565b83811115612585576000848401525b50505050565b6000601f19601f8301169050919050565b60006125a78261253c565b6125b18185612547565b93506125c1818560208601612558565b6125ca8161258b565b840191505092915050565b600060208201905081810360008301526125ef818461259c565b905092915050565b6000819050919050565b61260a816125f7565b811461261557600080fd5b50565b60008135905061262781612601565b92915050565b60006020828403121561264357612642612477565b5b600061265184828501612618565b91505092915050565b600073ffffffffffffffffffffffffffffffffffffffff82169050919050565b60006126858261265a565b9050919050565b6126958161267a565b82525050565b60006020820190506126b0600083018461268c565b92915050565b6126bf8161267a565b81146126ca57600080fd5b50565b6000813590506126dc816126b6565b92915050565b600080604083850312156126f9576126f8612477565b5b6000612707858286016126cd565b925050602061271885828601612618565b9150509250929050565b61272b816125f7565b82525050565b60006020820190506127466000830184612722565b92915050565b60008060006060848603121561276557612764612477565b5b6000612773868287016126cd565b9350506020612784868287016126cd565b925050604061279586828701612618565b9150509250925092565b600080fd5b600080fd5b7f4e487b7100000000000000000000000000000000000000000000000000000000600052604160045260246000fd5b6127e18261258b565b810181811067ffffffffffffffff82111715612800576127ff6127a9565b5b80604052505050565b600061281361246d565b905061281f82826127d8565b919050565b600067ffffffffffffffff82111561283f5761283e6127a9565b5b6128488261258b565b9050602081019050919050565b82818337600083830152505050565b600061287761287284612824565b612809565b905082815260208101848484011115612893576128926127a4565b5b61289e848285612855565b509392505050565b600082601f8301126128bb576128ba61279f565b5b81356128cb848260208601612864565b91505092915050565b6000602082840312156128ea576128e9612477565b5b600082013567ffffffffffffffff8111156129085761290761247c565b5b612914848285016128a6565b91505092915050565b60006020828403121561293357612932612477565b5b6000612941848285016126cd565b91505092915050565b600060ff82169050919050565b6129608161294a565b82525050565b600060a08201905061297b6000830188612957565b6129886020830187612957565b6129956040830186612957565b6129a26060830185612957565b6129af6080830184612957565b9695505050505050565b6129c281612506565b81146129cd57600080fd5b50565b6000813590506129df816129b9565b92915050565b600080604083850312156129fc576129fb612477565b5b6000612a0a858286016126cd565b9250506020612a1b858286016129d0565b9150509250929050565b600067ffffffffffffffff821115612a4057612a3f6127a9565b5b612a498261258b565b9050602081019050919050565b6000612a69612a6484612a25565b612809565b905082815260208101848484011115612a8557612a846127a4565b5b612a90848285612855565b509392505050565b600082601f830112612aad57612aac61279f565b5b8135612abd848260208601612a56565b91505092915050565b60008060008060808587031215612ae057612adf612477565b5b6000612aee878288016126cd565b9450506020612aff878288016126cd565b9350506040612b1087828801612618565b925050606085013567ffffffffffffffff811115612b3157612b3061247c565b5b612b3d87828801612a98565b91505092959194509250565b60008060408385031215612b6057612b5f612477565b5b6000612b6e858286016126cd565b9250506020612b7f858286016126cd565b9150509250929050565b7f4e487b7100000000000000000000000000000000000000000000000000000000600052602260045260246000fd5b60006002820490506001821680612bd057607f821691505b60208210811415612be457612be3612b89565b5b50919050565b7f4552433732313a20617070726f76656420717565727920666f72206e6f6e657860008201527f697374656e7420746f6b656e0000000000000000000000000000000000000000602082015250565b6000612c46602c83612547565b9150612c5182612bea565b604082019050919050565b60006020820190508181036000830152612c7581612c39565b9050919050565b7f4552433732313a20617070726f76616c20746f2063757272656e74206f776e6560008201527f7200000000000000000000000000000000000000000000000000000000000000602082015250565b6000612cd8602183612547565b9150612ce382612c7c565b604082019050919050565b60006020820190508181036000830152612d0781612ccb565b9050919050565b7f4552433732313a20617070726f76652063616c6c6572206973206e6f74206f7760008201527f6e6572206e6f7220617070726f76656420666f7220616c6c0000000000000000602082015250565b6000612d6a603883612547565b9150612d7582612d0e565b604082019050919050565b60006020820190508181036000830152612d9981612d5d565b9050919050565b7f4552433732313a207472616e736665722063616c6c6572206973206e6f74206f60008201527f776e6572206e6f7220617070726f766564000000000000000000000000000000602082015250565b6000612dfc603183612547565b9150612e0782612da0565b604082019050919050565b60006020820190508181036000830152612e2b81612def565b9050919050565b7f4f776e61626c653a2063616c6c6572206973206e6f7420746865206f776e6572600082015250565b6000612e68602083612547565b9150612e7382612e32565b602082019050919050565b60006020820190508181036000830152612e9781612e5b565b9050919050565b7f436c61696d696e67206120436f6c6c65637469626c6520636f7374732065746860008201527f6572730000000000000000000000000000000000000000000000000000000000602082015250565b6000612efa602383612547565b9150612f0582612e9e565b604082019050919050565b60006020820190508181036000830152612f2981612eed565b9050919050565b7f4552433732313a206f776e657220717565727920666f72206e6f6e657869737460008201527f656e7420746f6b656e0000000000000000000000000000000000000000000000602082015250565b6000612f8c602983612547565b9150612f9782612f30565b604082019050919050565b60006020820190508181036000830152612fbb81612f7f565b9050919050565b7f4552433732313a2062616c616e636520717565727920666f7220746865207a6560008201527f726f206164647265737300000000000000000000000000000000000000000000602082015250565b600061301e602a83612547565b915061302982612fc2565b604082019050919050565b6000602082019050818103600083015261304d81613011565b9050919050565b7f546f6b656e206e6f74206d696e74656420796574000000000000000000000000600082015250565b600061308a601483612547565b915061309582613054565b602082019050919050565b600060208201905081810360008301526130b98161307d565b9050919050565b7f4552433732313a20617070726f766520746f2063616c6c657200000000000000600082015250565b60006130f6601983612547565b9150613101826130c0565b602082019050919050565b60006020820190508181036000830152613125816130e9565b9050919050565b7f4552433732314d657461646174613a2055524920717565727920666f72206e6f60008201527f6e6578697374656e7420746f6b656e0000000000000000000000000000000000602082015250565b6000613188602f83612547565b91506131938261312c565b604082019050919050565b600060208201905081810360008301526131b78161317b565b9050919050565b600081905092915050565b60006131d48261253c565b6131de81856131be565b93506131ee818560208601612558565b80840191505092915050565b600061320682856131c9565b915061321282846131c9565b91508190509392505050565b7f4f776e61626c653a206e6577206f776e657220697320746865207a65726f206160008201527f6464726573730000000000000000000000000000000000000000000000000000602082015250565b600061327a602683612547565b91506132858261321e565b604082019050919050565b600060208201905081810360008301526132a98161326d565b9050919050565b7f4552433732313a206f70657261746f7220717565727920666f72206e6f6e657860008201527f697374656e7420746f6b656e0000000000000000000000000000000000000000602082015250565b600061330c602c83612547565b9150613317826132b0565b604082019050919050565b6000602082019050818103600083015261333b816132ff565b9050919050565b7f4552433732313a207472616e73666572206f6620746f6b656e2074686174206960008201527f73206e6f74206f776e0000000000000000000000000000000000000000000000602082015250565b600061339e602983612547565b91506133a982613342565b604082019050919050565b600060208201905081810360008301526133cd81613391565b9050919050565b7f4552433732313a207472616e7366657220746f20746865207a65726f2061646460008201527f7265737300000000000000000000000000000000000000000000000000000000602082015250565b6000613430602483612547565b915061343b826133d4565b604082019050919050565b6000602082019050818103600083015261345f81613423565b9050919050565b7f4e487b7100000000000000000000000000000000000000000000000000000000600052601160045260246000fd5b60006134a0826125f7565b91506134ab836125f7565b9250828210156134be576134bd613466565b5b828203905092915050565b60006134d4826125f7565b91506134df836125f7565b9250827fffffffffffffffffffffffffffffffffffffffffffffffffffffffffffffffff0382111561351457613513613466565b5b828201905092915050565b7f444e4120616c7265616479206578697374732e00000000000000000000000000600082015250565b6000613555601383612547565b91506135608261351f565b602082019050919050565b6000602082019050818103600083015261358481613548565b9050919050565b7f4552433732313a207472616e7366657220746f206e6f6e20455243373231526560008201527f63656976657220696d706c656d656e7465720000000000000000000000000000602082015250565b60006135e7603283612547565b91506135f28261358b565b604082019050919050565b60006020820190508181036000830152613616816135da565b9050919050565b6000613628826125f7565b91507fffffffffffffffffffffffffffffffffffffffffffffffffffffffffffffffff82141561365b5761365a613466565b5b600182019050919050565b7f4e487b7100000000000000000000000000000000000000000000000000000000600052601260045260246000fd5b60006136a0826125f7565b91506136ab836125f7565b9250826136bb576136ba613666565b5b828204905092915050565b60006136d1826125f7565b91506136dc836125f7565b9250826136ec576136eb613666565b5b828206905092915050565b7f4e487b7100000000000000000000000000000000000000000000000000000000600052603260045260246000fd5b600081519050919050565b600082825260208201905092915050565b600061374d82613726565b6137578185613731565b9350613767818560208601612558565b6137708161258b565b840191505092915050565b6000608082019050613790600083018761268c565b61379d602083018661268c565b6137aa6040830185612722565b81810360608301526137bc8184613742565b905095945050505050565b6000815190506137d6816124ad565b92915050565b6000602082840312156137f2576137f1612477565b5b6000613800848285016137c7565b91505092915050565b7f4552433732313a206d696e7420746f20746865207a65726f2061646472657373600082015250565b600061383f602083612547565b915061384a82613809565b602082019050919050565b6000602082019050818103600083015261386e81613832565b9050919050565b7f4552433732313a20746f6b656e20616c7265616479206d696e74656400000000600082015250565b60006138ab601c83612547565b91506138b682613875565b602082019050919050565b600060208201905081810360008301526138da8161389e565b9050919050565b6000819050919050565b6138fc6138f7826125f7565b6138e1565b82525050565b600061390e82876138eb565b60208201915061391e82866138eb565b60208201915061392e82856138eb565b60208201915061393e82846131c9565b91508190509594505050505056fea2646970667358221220bb6e995b99833a2dce30b20bb95ca25f4d12977013a46e1e167250f8cefe22f464736f6c634300080a0033",
  "immutableReferences": {},
  "source": "// SPDX-License-Identifier: MIT\n\npragma solidity >=0.8.3 <0.9.0;\n\nimport \"./CryptoDicksHelper.sol\";\n\n/// @title Extends all CryptoDicks contract, it is the final contract.\n/// @author juliencrn\ncontract CryptoDicksFull is CryptoDicksHelper {\n\n}\n",
  "sourcePath": "/Users/juliencaron/www/ntf/ntf-collectible/contracts/CryptoDicksFull.sol",
  "compiler": {
    "name": "solc",
    "version": "0.8.10+commit.fc410830.Emscripten.clang"
  },
  "schemaVersion": "3.4.3",
  "updatedAt": "2021-11-18T00:51:48.268Z",
  "devdoc": {
    "author": "juliencrn",
    "kind": "dev",
    "methods": {
      "approve(address,uint256)": {
        "details": "See {IERC721-approve}."
      },
      "balanceOf(address)": {
        "details": "See {IERC721-balanceOf}."
      },
      "getApproved(uint256)": {
        "details": "See {IERC721-getApproved}."
      },
      "isApprovedForAll(address,address)": {
        "details": "See {IERC721-isApprovedForAll}."
      },
      "name()": {
        "details": "See {IERC721Metadata-name}."
      },
      "owner()": {
        "details": "Returns the address of the current owner."
      },
      "ownerOf(uint256)": {
        "details": "See {IERC721-ownerOf}."
      },
      "renounceOwnership()": {
        "details": "Leaves the contract without owner. It will not be possible to call `onlyOwner` functions anymore. Can only be called by the current owner. NOTE: Renouncing ownership will leave the contract without an owner, thereby removing any functionality that is only available to the owner."
      },
      "safeTransferFrom(address,address,uint256)": {
        "details": "See {IERC721-safeTransferFrom}."
      },
      "safeTransferFrom(address,address,uint256,bytes)": {
        "details": "See {IERC721-safeTransferFrom}."
      },
      "setApprovalForAll(address,bool)": {
        "details": "See {IERC721-setApprovalForAll}."
      },
      "supportsInterface(bytes4)": {
        "details": "See {IERC165-supportsInterface}."
      },
      "symbol()": {
        "details": "See {IERC721Metadata-symbol}."
      },
      "tokenURI(uint256)": {
        "details": "See {IERC721Metadata-tokenURI}."
      },
      "transferFrom(address,address,uint256)": {
        "details": "See {IERC721-transferFrom}."
      },
      "transferOwnership(address)": {
        "details": "Transfers ownership of the contract to a new account (`newOwner`). Can only be called by the current owner."
      }
    },
    "title": "Extends all CryptoDicks contract, it is the final contract.",
    "version": 1
  },
  "userdoc": {
    "kind": "user",
    "methods": {
      "setBaseURI(string)": {
        "notice": "Allow owner to set new baseURI"
      },
      "setClaimFee(uint256)": {
        "notice": "Allow owner to set new mint fee price, ether price will change."
      }
    },
    "version": 1
  }
}