{
  "contractName": "CryptoDicks",
  "abi": [
    {
      "inputs": [],
      "stateMutability": "nonpayable",
      "type": "constructor"
    },
    {
      "anonymous": false,
      "inputs": [
        {
          "indexed": true,
          "internalType": "address",
          "name": "owner",
          "type": "address"
        },
        {
          "indexed": true,
          "internalType": "address",
          "name": "approved",
          "type": "address"
        },
        {
          "indexed": true,
          "internalType": "uint256",
          "name": "tokenId",
          "type": "uint256"
        }
      ],
      "name": "Approval",
      "type": "event"
    },
    {
      "anonymous": false,
      "inputs": [
        {
          "indexed": true,
          "internalType": "address",
          "name": "owner",
          "type": "address"
        },
        {
          "indexed": true,
          "internalType": "address",
          "name": "operator",
          "type": "address"
        },
        {
          "indexed": false,
          "internalType": "bool",
          "name": "approved",
          "type": "bool"
        }
      ],
      "name": "ApprovalForAll",
      "type": "event"
    },
    {
      "anonymous": false,
      "inputs": [
        {
          "indexed": true,
          "internalType": "address",
          "name": "previousOwner",
          "type": "address"
        },
        {
          "indexed": true,
          "internalType": "address",
          "name": "newOwner",
          "type": "address"
        }
      ],
      "name": "OwnershipTransferred",
      "type": "event"
    },
    {
      "anonymous": false,
      "inputs": [
        {
          "indexed": true,
          "internalType": "address",
          "name": "from",
          "type": "address"
        },
        {
          "indexed": true,
          "internalType": "address",
          "name": "to",
          "type": "address"
        },
        {
          "indexed": true,
          "internalType": "uint256",
          "name": "tokenId",
          "type": "uint256"
        }
      ],
      "name": "Transfer",
      "type": "event"
    },
    {
      "inputs": [
        {
          "internalType": "address",
          "name": "to",
          "type": "address"
        },
        {
          "internalType": "uint256",
          "name": "tokenId",
          "type": "uint256"
        }
      ],
      "name": "approve",
      "outputs": [],
      "stateMutability": "nonpayable",
      "type": "function"
    },
    {
      "inputs": [
        {
          "internalType": "address",
          "name": "owner",
          "type": "address"
        }
      ],
      "name": "balanceOf",
      "outputs": [
        {
          "internalType": "uint256",
          "name": "",
          "type": "uint256"
        }
      ],
      "stateMutability": "view",
      "type": "function"
    },
    {
      "inputs": [],
      "name": "claimFee",
      "outputs": [
        {
          "internalType": "uint256",
          "name": "",
          "type": "uint256"
        }
      ],
      "stateMutability": "view",
      "type": "function"
    },
    {
      "inputs": [
        {
          "internalType": "uint256",
          "name": "tokenId",
          "type": "uint256"
        }
      ],
      "name": "getApproved",
      "outputs": [
        {
          "internalType": "address",
          "name": "",
          "type": "address"
        }
      ],
      "stateMutability": "view",
      "type": "function"
    },
    {
      "inputs": [
        {
          "internalType": "address",
          "name": "owner",
          "type": "address"
        },
        {
          "internalType": "address",
          "name": "operator",
          "type": "address"
        }
      ],
      "name": "isApprovedForAll",
      "outputs": [
        {
          "internalType": "bool",
          "name": "",
          "type": "bool"
        }
      ],
      "stateMutability": "view",
      "type": "function"
    },
    {
      "inputs": [],
      "name": "name",
      "outputs": [
        {
          "internalType": "string",
          "name": "",
          "type": "string"
        }
      ],
      "stateMutability": "view",
      "type": "function"
    },
    {
      "inputs": [],
      "name": "owner",
      "outputs": [
        {
          "internalType": "address",
          "name": "",
          "type": "address"
        }
      ],
      "stateMutability": "view",
      "type": "function"
    },
    {
      "inputs": [
        {
          "internalType": "uint256",
          "name": "tokenId",
          "type": "uint256"
        }
      ],
      "name": "ownerOf",
      "outputs": [
        {
          "internalType": "address",
          "name": "",
          "type": "address"
        }
      ],
      "stateMutability": "view",
      "type": "function"
    },
    {
      "inputs": [],
      "name": "renounceOwnership",
      "outputs": [],
      "stateMutability": "nonpayable",
      "type": "function"
    },
    {
      "inputs": [
        {
          "internalType": "address",
          "name": "from",
          "type": "address"
        },
        {
          "internalType": "address",
          "name": "to",
          "type": "address"
        },
        {
          "internalType": "uint256",
          "name": "tokenId",
          "type": "uint256"
        }
      ],
      "name": "safeTransferFrom",
      "outputs": [],
      "stateMutability": "nonpayable",
      "type": "function"
    },
    {
      "inputs": [
        {
          "internalType": "address",
          "name": "from",
          "type": "address"
        },
        {
          "internalType": "address",
          "name": "to",
          "type": "address"
        },
        {
          "internalType": "uint256",
          "name": "tokenId",
          "type": "uint256"
        },
        {
          "internalType": "bytes",
          "name": "_data",
          "type": "bytes"
        }
      ],
      "name": "safeTransferFrom",
      "outputs": [],
      "stateMutability": "nonpayable",
      "type": "function"
    },
    {
      "inputs": [
        {
          "internalType": "address",
          "name": "operator",
          "type": "address"
        },
        {
          "internalType": "bool",
          "name": "approved",
          "type": "bool"
        }
      ],
      "name": "setApprovalForAll",
      "outputs": [],
      "stateMutability": "nonpayable",
      "type": "function"
    },
    {
      "inputs": [
        {
          "internalType": "bytes4",
          "name": "interfaceId",
          "type": "bytes4"
        }
      ],
      "name": "supportsInterface",
      "outputs": [
        {
          "internalType": "bool",
          "name": "",
          "type": "bool"
        }
      ],
      "stateMutability": "view",
      "type": "function"
    },
    {
      "inputs": [],
      "name": "symbol",
      "outputs": [
        {
          "internalType": "string",
          "name": "",
          "type": "string"
        }
      ],
      "stateMutability": "view",
      "type": "function"
    },
    {
      "inputs": [
        {
          "internalType": "uint256",
          "name": "tokenId",
          "type": "uint256"
        }
      ],
      "name": "tokenURI",
      "outputs": [
        {
          "internalType": "string",
          "name": "",
          "type": "string"
        }
      ],
      "stateMutability": "view",
      "type": "function"
    },
    {
      "inputs": [],
      "name": "totalSupply",
      "outputs": [
        {
          "internalType": "uint256",
          "name": "",
          "type": "uint256"
        }
      ],
      "stateMutability": "view",
      "type": "function"
    },
    {
      "inputs": [
        {
          "internalType": "address",
          "name": "from",
          "type": "address"
        },
        {
          "internalType": "address",
          "name": "to",
          "type": "address"
        },
        {
          "internalType": "uint256",
          "name": "tokenId",
          "type": "uint256"
        }
      ],
      "name": "transferFrom",
      "outputs": [],
      "stateMutability": "nonpayable",
      "type": "function"
    },
    {
      "inputs": [
        {
          "internalType": "address",
          "name": "newOwner",
          "type": "address"
        }
      ],
      "name": "transferOwnership",
      "outputs": [],
      "stateMutability": "nonpayable",
      "type": "function"
    },
    {
      "inputs": [],
      "name": "claim",
      "outputs": [],
      "stateMutability": "payable",
      "type": "function"
    },
    {
      "inputs": [
        {
          "internalType": "uint256",
          "name": "_tokenId",
          "type": "uint256"
        }
      ],
      "name": "get",
      "outputs": [
        {
          "internalType": "uint8",
          "name": "bgColor",
          "type": "uint8"
        },
        {
          "internalType": "uint8",
          "name": "dickColor",
          "type": "uint8"
        },
        {
          "internalType": "uint8",
          "name": "hat",
          "type": "uint8"
        },
        {
          "internalType": "uint8",
          "name": "clothe",
          "type": "uint8"
        },
        {
          "internalType": "uint8",
          "name": "skin",
          "type": "uint8"
        }
      ],
      "stateMutability": "view",
      "type": "function"
    },
    {
      "inputs": [],
      "name": "currentSupply",
      "outputs": [
        {
          "internalType": "uint256",
          "name": "",
          "type": "uint256"
        }
      ],
      "stateMutability": "view",
      "type": "function"
    }
  ],
  "bytecode": "0x60806040526127106009556040518060400160405280601681526020017f687474703a2f2f6c6f63616c686f73743a353030302f00000000000000000000815250600a90805190602001906200005792919062000bb8565b50662386f26fc10000600b553480156200007057600080fd5b506040518060400160405280600b81526020017f43727970746f4469636b730000000000000000000000000000000000000000008152506040518060400160405280600481526020017f4449434b00000000000000000000000000000000000000000000000000000000815250620000fd620000f16200016c60201b60201c565b6200017460201b60201c565b81600190805190602001906200011592919062000bb8565b5080600290805190602001906200012e92919062000bb8565b50505060005b600a81101562000165576200014e6200023860201b60201c565b5080806200015c9062000cdf565b91505062000134565b50620013ed565b600033905090565b60008060009054906101000a900473ffffffffffffffffffffffffffffffffffffffff169050816000806101000a81548173ffffffffffffffffffffffffffffffffffffffff021916908373ffffffffffffffffffffffffffffffffffffffff1602179055508173ffffffffffffffffffffffffffffffffffffffff168173ffffffffffffffffffffffffffffffffffffffff167f8be0079c531659141344cd1fd0a4f28419497f9722a3daafe3b4186f6b6457e060405160405180910390a35050565b60006009546200025460076200037560201b620011371760201c565b106200025f57600080fd5b6200027660076200038360201b620011451760201c565b60006200028f60076200037560201b620011371760201c565b9050620002a16200039960201b60201c565b600c600083815260200190815260200160002060008201518160000160006101000a81548160ff021916908360ff16021790555060208201518160000160016101000a81548160ff021916908360ff16021790555060408201518160000160026101000a81548160ff021916908360ff16021790555060608201518160000160036101000a81548160ff021916908360ff16021790555060808201518160000160046101000a81548160ff021916908360ff1602179055509050506200036e3382620004b560201b60201c565b8091505090565b600081600001549050919050565b6001816000016000828254019250508190555050565b620003a362000c49565b6000806000806000805b6001156200047457620003c5620004db60201b60201c565b80955081965082975083985084995050505050508484848484604051602001620003f495949392919062000d76565b6040516020818303038152906040528051906020012060001c955060011515600d600088815260200190815260200160002060009054906101000a900460ff161515146200046e576001600d600088815260200190815260200160002060006101000a81548160ff02191690831515021790555062000474565b620003ad565b6040518060a001604052808660ff1681526020018560ff1681526020018460ff1681526020018360ff1681526020018260ff16815250965050505050505090565b620004d78282604051806020016040528060008152506200054a60201b60201c565b5050565b6000806000806000620004f3620005b860201b60201c565b945062000505620005b860201b60201c565b93506200051960036200067960201b60201c565b92506200052d60036200067960201b60201c565b91506200054160036200067960201b60201c565b90509091929394565b6200055c8383620006b760201b60201c565b6200057160008484846200089d60201b60201c565b620005b3576040517f08c379a0000000000000000000000000000000000000000000000000000000008152600401620005aa9062000e66565b60405180910390fd5b505050565b600080620005cb62000a4760201b60201c565b905060006103e8821015620005e4576007905062000671565b611770821015620005f9576006905062000670565b613e808210156200060e57600590506200066f565b620101d08210156200062457600490506200066e565b620288708210156200063a57600390506200066d565b620595b08210156200065057600290506200066c565b620a29908210156200066657600190506200066b565b600090505b5b5b5b5b5b5b809250505090565b6000620006b08260ff166200069362000a4760201b60201c565b6200069f919062000eb7565b62000ae160201b6200115b1760201c565b9050919050565b600073ffffffffffffffffffffffffffffffffffffffff168273ffffffffffffffffffffffffffffffffffffffff1614156200072a576040517f08c379a0000000000000000000000000000000000000000000000000000000008152600401620007219062000f3f565b60405180910390fd5b6200073b8162000b3460201b60201c565b156200077e576040517f08c379a0000000000000000000000000000000000000000000000000000000008152600401620007759062000fb1565b60405180910390fd5b620007926000838362000ba060201b60201c565b6001600460008473ffffffffffffffffffffffffffffffffffffffff1673ffffffffffffffffffffffffffffffffffffffff1681526020019081526020016000206000828254620007e4919062000fd3565b92505081905550816003600083815260200190815260200160002060006101000a81548173ffffffffffffffffffffffffffffffffffffffff021916908373ffffffffffffffffffffffffffffffffffffffff160217905550808273ffffffffffffffffffffffffffffffffffffffff16600073ffffffffffffffffffffffffffffffffffffffff167fddf252ad1be2c89b69c2b068fc378daa952ba7f163c4a11628f55a4df523b3ef60405160405180910390a45050565b6000620008cb8473ffffffffffffffffffffffffffffffffffffffff1662000ba560201b620011ab1760201c565b1562000a3a578373ffffffffffffffffffffffffffffffffffffffff1663150b7a02620008fd6200016c60201b60201c565b8786866040518563ffffffff1660e01b81526004016200092194939291906200112a565b6020604051808303816000875af19250505080156200096057506040513d601f19601f820116820180604052508101906200095d9190620011e0565b60015b620009e9573d806000811462000993576040519150601f19603f3d011682016040523d82523d6000602084013e62000998565b606091505b50600081511415620009e1576040517f08c379a0000000000000000000000000000000000000000000000000000000008152600401620009d89062000e66565b60405180910390fd5b805181602001fd5b63150b7a0260e01b7bffffffffffffffffffffffffffffffffffffffffffffffffffffffff1916817bffffffffffffffffffffffffffffffffffffffffffffffffffffffff19161491505062000a3f565b600190505b949350505050565b600062000a6060086200038360201b620011451760201c565b6000444262000a7b60076200037560201b620011371760201c565b3362000a9360086200037560201b620011371760201c565b60405160200162000aa995949392919062001287565b60405160208183030381529060405290506000818051906020012060001c9050620f42408162000ada919062000eb7565b9250505090565b600060ff801682111562000b2c576040517f08c379a000000000000000000000000000000000000000000000000000000000815260040162000b239062001366565b60405180910390fd5b819050919050565b60008073ffffffffffffffffffffffffffffffffffffffff166003600084815260200190815260200160002060009054906101000a900473ffffffffffffffffffffffffffffffffffffffff1673ffffffffffffffffffffffffffffffffffffffff1614159050919050565b505050565b600080823b905060008111915050919050565b82805462000bc690620013b7565b90600052602060002090601f01602090048101928262000bea576000855562000c36565b82601f1062000c0557805160ff191683800117855562000c36565b8280016001018555821562000c36579182015b8281111562000c3557825182559160200191906001019062000c18565b5b50905062000c45919062000c87565b5090565b6040518060a00160405280600060ff168152602001600060ff168152602001600060ff168152602001600060ff168152602001600060ff1681525090565b5b8082111562000ca257600081600090555060010162000c88565b5090565b7f4e487b7100000000000000000000000000000000000000000000000000000000600052601160045260246000fd5b6000819050919050565b600062000cec8262000cd5565b91507fffffffffffffffffffffffffffffffffffffffffffffffffffffffffffffffff82141562000d225762000d2162000ca6565b5b600182019050919050565b600060ff82169050919050565b60008160f81b9050919050565b600062000d548262000d3a565b9050919050565b62000d7062000d6a8262000d2d565b62000d47565b82525050565b600062000d84828862000d5b565b60018201915062000d96828762000d5b565b60018201915062000da8828662000d5b565b60018201915062000dba828562000d5b565b60018201915062000dcc828462000d5b565b6001820191508190509695505050505050565b600082825260208201905092915050565b7f4552433732313a207472616e7366657220746f206e6f6e20455243373231526560008201527f63656976657220696d706c656d656e7465720000000000000000000000000000602082015250565b600062000e4e60328362000ddf565b915062000e5b8262000df0565b604082019050919050565b6000602082019050818103600083015262000e818162000e3f565b9050919050565b7f4e487b7100000000000000000000000000000000000000000000000000000000600052601260045260246000fd5b600062000ec48262000cd5565b915062000ed18362000cd5565b92508262000ee45762000ee362000e88565b5b828206905092915050565b7f4552433732313a206d696e7420746f20746865207a65726f2061646472657373600082015250565b600062000f2760208362000ddf565b915062000f348262000eef565b602082019050919050565b6000602082019050818103600083015262000f5a8162000f18565b9050919050565b7f4552433732313a20746f6b656e20616c7265616479206d696e74656400000000600082015250565b600062000f99601c8362000ddf565b915062000fa68262000f61565b602082019050919050565b6000602082019050818103600083015262000fcc8162000f8a565b9050919050565b600062000fe08262000cd5565b915062000fed8362000cd5565b9250827fffffffffffffffffffffffffffffffffffffffffffffffffffffffffffffffff0382111562001025576200102462000ca6565b5b828201905092915050565b600073ffffffffffffffffffffffffffffffffffffffff82169050919050565b60006200105d8262001030565b9050919050565b6200106f8162001050565b82525050565b620010808162000cd5565b82525050565b600081519050919050565b600082825260208201905092915050565b60005b83811015620010c2578082015181840152602081019050620010a5565b83811115620010d2576000848401525b50505050565b6000601f19601f8301169050919050565b6000620010f68262001086565b62001102818562001091565b935062001114818560208601620010a2565b6200111f81620010d8565b840191505092915050565b600060808201905062001141600083018762001064565b62001150602083018662001064565b6200115f604083018562001075565b8181036060830152620011738184620010e9565b905095945050505050565b600080fd5b60007fffffffff0000000000000000000000000000000000000000000000000000000082169050919050565b620011ba8162001183565b8114620011c657600080fd5b50565b600081519050620011da81620011af565b92915050565b600060208284031215620011f957620011f86200117e565b5b60006200120984828501620011c9565b91505092915050565b6000819050919050565b620012316200122b8262000cd5565b62001212565b82525050565b60008160601b9050919050565b6000620012518262001237565b9050919050565b6000620012658262001244565b9050919050565b620012816200127b8262001050565b62001258565b82525050565b60006200129582886200121c565b602082019150620012a782876200121c565b602082019150620012b982866200121c565b602082019150620012cb82856200126c565b601482019150620012dd82846200121c565b6020820191508190509695505050505050565b7f53616665436173743a2076616c756520646f65736e27742066697420696e203860008201527f2062697473000000000000000000000000000000000000000000000000000000602082015250565b60006200134e60258362000ddf565b91506200135b82620012f0565b604082019050919050565b6000602082019050818103600083015262001381816200133f565b9050919050565b7f4e487b7100000000000000000000000000000000000000000000000000000000600052602260045260246000fd5b60006002820490506001821680620013d057607f821691505b60208210811415620013e757620013e662001388565b5b50919050565b61366a80620013fd6000396000f3fe60806040526004361061012a5760003560e01c8063715018a6116100ab57806399d32fc41161006f57806399d32fc4146103d7578063a22cb46514610402578063b88d4fde1461042b578063c87b56dd14610454578063e985e9c514610491578063f2fde38b146104ce5761012a565b8063715018a6146102fe578063771282f6146103155780638da5cb5b146103405780639507d39a1461036b57806395d89b41146103ac5761012a565b806323b872dd116100f257806323b872dd1461022857806342842e0e146102515780634e71d92d1461027a5780636352211e1461028457806370a08231146102c15761012a565b806301ffc9a71461012f57806306fdde031461016c578063081812fc14610197578063095ea7b3146101d457806318160ddd146101fd575b600080fd5b34801561013b57600080fd5b50610156600480360381019061015191906121b9565b6104f7565b6040516101639190612201565b60405180910390f35b34801561017857600080fd5b506101816105d9565b60405161018e91906122b5565b60405180910390f35b3480156101a357600080fd5b506101be60048036038101906101b9919061230d565b61066b565b6040516101cb919061237b565b60405180910390f35b3480156101e057600080fd5b506101fb60048036038101906101f691906123c2565b6106f0565b005b34801561020957600080fd5b50610212610808565b60405161021f9190612411565b60405180910390f35b34801561023457600080fd5b5061024f600480360381019061024a919061242c565b61080e565b005b34801561025d57600080fd5b506102786004803603810190610273919061242c565b61086e565b005b61028261088e565b005b34801561029057600080fd5b506102ab60048036038101906102a6919061230d565b61092d565b6040516102b8919061237b565b60405180910390f35b3480156102cd57600080fd5b506102e860048036038101906102e3919061247f565b6109df565b6040516102f59190612411565b60405180910390f35b34801561030a57600080fd5b50610313610a97565b005b34801561032157600080fd5b5061032a610b1f565b6040516103379190612411565b60405180910390f35b34801561034c57600080fd5b50610355610b30565b604051610362919061237b565b60405180910390f35b34801561037757600080fd5b50610392600480360381019061038d919061230d565b610b59565b6040516103a39594939291906124c8565b60405180910390f35b3480156103b857600080fd5b506103c1610c89565b6040516103ce91906122b5565b60405180910390f35b3480156103e357600080fd5b506103ec610d1b565b6040516103f99190612411565b60405180910390f35b34801561040e57600080fd5b5061042960048036038101906104249190612547565b610d21565b005b34801561043757600080fd5b50610452600480360381019061044d91906126bc565b610ea2565b005b34801561046057600080fd5b5061047b6004803603810190610476919061230d565b610f04565b60405161048891906122b5565b60405180910390f35b34801561049d57600080fd5b506104b860048036038101906104b3919061273f565b610fab565b6040516104c59190612201565b60405180910390f35b3480156104da57600080fd5b506104f560048036038101906104f0919061247f565b61103f565b005b60007f80ac58cd000000000000000000000000000000000000000000000000000000007bffffffffffffffffffffffffffffffffffffffffffffffffffffffff1916827bffffffffffffffffffffffffffffffffffffffffffffffffffffffff191614806105c257507f5b5e139f000000000000000000000000000000000000000000000000000000007bffffffffffffffffffffffffffffffffffffffffffffffffffffffff1916827bffffffffffffffffffffffffffffffffffffffffffffffffffffffff1916145b806105d257506105d1826111be565b5b9050919050565b6060600180546105e8906127ae565b80601f0160208091040260200160405190810160405280929190818152602001828054610614906127ae565b80156106615780601f1061063657610100808354040283529160200191610661565b820191906000526020600020905b81548152906001019060200180831161064457829003601f168201915b5050505050905090565b600061067682611228565b6106b5576040517f08c379a00000000000000000000000000000000000000000000000000000000081526004016106ac90612852565b60405180910390fd5b6005600083815260200190815260200160002060009054906101000a900473ffffffffffffffffffffffffffffffffffffffff169050919050565b60006106fb8261092d565b90508073ffffffffffffffffffffffffffffffffffffffff168373ffffffffffffffffffffffffffffffffffffffff16141561076c576040517f08c379a0000000000000000000000000000000000000000000000000000000008152600401610763906128e4565b60405180910390fd5b8073ffffffffffffffffffffffffffffffffffffffff1661078b611294565b73ffffffffffffffffffffffffffffffffffffffff1614806107ba57506107b9816107b4611294565b610fab565b5b6107f9576040517f08c379a00000000000000000000000000000000000000000000000000000000081526004016107f090612976565b60405180910390fd5b610803838361129c565b505050565b60095481565b61081f610819611294565b82611355565b61085e576040517f08c379a000000000000000000000000000000000000000000000000000000000815260040161085590612a08565b60405180910390fd5b610869838383611433565b505050565b61088983838360405180602001604052806000815250610ea2565b505050565b600b5434146108d2576040517f08c379a00000000000000000000000000000000000000000000000000000000081526004016108c990612a74565b60405180910390fd5b6108da61168f565b506108e3610b30565b73ffffffffffffffffffffffffffffffffffffffff166108fc600b549081150290604051600060405180830381858888f1935050505015801561092a573d6000803e3d6000fd5b50565b6000806003600084815260200190815260200160002060009054906101000a900473ffffffffffffffffffffffffffffffffffffffff169050600073ffffffffffffffffffffffffffffffffffffffff168173ffffffffffffffffffffffffffffffffffffffff1614156109d6576040517f08c379a00000000000000000000000000000000000000000000000000000000081526004016109cd90612b06565b60405180910390fd5b80915050919050565b60008073ffffffffffffffffffffffffffffffffffffffff168273ffffffffffffffffffffffffffffffffffffffff161415610a50576040517f08c379a0000000000000000000000000000000000000000000000000000000008152600401610a4790612b98565b60405180910390fd5b600460008373ffffffffffffffffffffffffffffffffffffffff1673ffffffffffffffffffffffffffffffffffffffff168152602001908152602001600020549050919050565b610a9f611294565b73ffffffffffffffffffffffffffffffffffffffff16610abd610b30565b73ffffffffffffffffffffffffffffffffffffffff1614610b13576040517f08c379a0000000000000000000000000000000000000000000000000000000008152600401610b0a90612c04565b60405180910390fd5b610b1d6000611794565b565b6000610b2b6007611137565b905090565b60008060009054906101000a900473ffffffffffffffffffffffffffffffffffffffff16905090565b6000806000806000610b6a86611228565b610ba9576040517f08c379a0000000000000000000000000000000000000000000000000000000008152600401610ba090612c70565b60405180910390fd5b6000600c60008881526020019081526020016000206040518060a00160405290816000820160009054906101000a900460ff1660ff1660ff1681526020016000820160019054906101000a900460ff1660ff1660ff1681526020016000820160029054906101000a900460ff1660ff1660ff1681526020016000820160039054906101000a900460ff1660ff1660ff1681526020016000820160049054906101000a900460ff1660ff1660ff1681525050905080600001519550806020015194508060400151935080606001519250806080015191505091939590929450565b606060028054610c98906127ae565b80601f0160208091040260200160405190810160405280929190818152602001828054610cc4906127ae565b8015610d115780601f10610ce657610100808354040283529160200191610d11565b820191906000526020600020905b815481529060010190602001808311610cf457829003601f168201915b5050505050905090565b600b5481565b610d29611294565b73ffffffffffffffffffffffffffffffffffffffff168273ffffffffffffffffffffffffffffffffffffffff161415610d97576040517f08c379a0000000000000000000000000000000000000000000000000000000008152600401610d8e90612cdc565b60405180910390fd5b8060066000610da4611294565b73ffffffffffffffffffffffffffffffffffffffff1673ffffffffffffffffffffffffffffffffffffffff16815260200190815260200160002060008473ffffffffffffffffffffffffffffffffffffffff1673ffffffffffffffffffffffffffffffffffffffff16815260200190815260200160002060006101000a81548160ff0219169083151502179055508173ffffffffffffffffffffffffffffffffffffffff16610e51611294565b73ffffffffffffffffffffffffffffffffffffffff167f17307eab39ab6107e8899845ad3d59bd9653f200f220920489ca2b5937696c3183604051610e969190612201565b60405180910390a35050565b610eb3610ead611294565b83611355565b610ef2576040517f08c379a0000000000000000000000000000000000000000000000000000000008152600401610ee990612a08565b60405180910390fd5b610efe84848484611858565b50505050565b6060610f0f82611228565b610f4e576040517f08c379a0000000000000000000000000000000000000000000000000000000008152600401610f4590612d6e565b60405180910390fd5b6000610f586118b4565b90506000815111610f785760405180602001604052806000815250610fa3565b80610f8284611946565b604051602001610f93929190612dca565b6040516020818303038152906040525b915050919050565b6000600660008473ffffffffffffffffffffffffffffffffffffffff1673ffffffffffffffffffffffffffffffffffffffff16815260200190815260200160002060008373ffffffffffffffffffffffffffffffffffffffff1673ffffffffffffffffffffffffffffffffffffffff16815260200190815260200160002060009054906101000a900460ff16905092915050565b611047611294565b73ffffffffffffffffffffffffffffffffffffffff16611065610b30565b73ffffffffffffffffffffffffffffffffffffffff16146110bb576040517f08c379a00000000000000000000000000000000000000000000000000000000081526004016110b290612c04565b60405180910390fd5b600073ffffffffffffffffffffffffffffffffffffffff168173ffffffffffffffffffffffffffffffffffffffff16141561112b576040517f08c379a000000000000000000000000000000000000000000000000000000000815260040161112290612e60565b60405180910390fd5b61113481611794565b50565b600081600001549050919050565b6001816000016000828254019250508190555050565b600060ff80168211156111a3576040517f08c379a000000000000000000000000000000000000000000000000000000000815260040161119a90612ef2565b60405180910390fd5b819050919050565b600080823b905060008111915050919050565b60007f01ffc9a7000000000000000000000000000000000000000000000000000000007bffffffffffffffffffffffffffffffffffffffffffffffffffffffff1916827bffffffffffffffffffffffffffffffffffffffffffffffffffffffff1916149050919050565b60008073ffffffffffffffffffffffffffffffffffffffff166003600084815260200190815260200160002060009054906101000a900473ffffffffffffffffffffffffffffffffffffffff1673ffffffffffffffffffffffffffffffffffffffff1614159050919050565b600033905090565b816005600083815260200190815260200160002060006101000a81548173ffffffffffffffffffffffffffffffffffffffff021916908373ffffffffffffffffffffffffffffffffffffffff160217905550808273ffffffffffffffffffffffffffffffffffffffff1661130f8361092d565b73ffffffffffffffffffffffffffffffffffffffff167f8c5be1e5ebec7d5bd14f71427d1e84f3dd0314c0f7b2291e5b200ac8c7c3b92560405160405180910390a45050565b600061136082611228565b61139f576040517f08c379a000000000000000000000000000000000000000000000000000000000815260040161139690612f84565b60405180910390fd5b60006113aa8361092d565b90508073ffffffffffffffffffffffffffffffffffffffff168473ffffffffffffffffffffffffffffffffffffffff16148061141957508373ffffffffffffffffffffffffffffffffffffffff166114018461066b565b73ffffffffffffffffffffffffffffffffffffffff16145b8061142a57506114298185610fab565b5b91505092915050565b8273ffffffffffffffffffffffffffffffffffffffff166114538261092d565b73ffffffffffffffffffffffffffffffffffffffff16146114a9576040517f08c379a00000000000000000000000000000000000000000000000000000000081526004016114a090613016565b60405180910390fd5b600073ffffffffffffffffffffffffffffffffffffffff168273ffffffffffffffffffffffffffffffffffffffff161415611519576040517f08c379a0000000000000000000000000000000000000000000000000000000008152600401611510906130a8565b60405180910390fd5b611524838383611aa7565b61152f60008261129c565b6001600460008573ffffffffffffffffffffffffffffffffffffffff1673ffffffffffffffffffffffffffffffffffffffff168152602001908152602001600020600082825461157f91906130f7565b925050819055506001600460008473ffffffffffffffffffffffffffffffffffffffff1673ffffffffffffffffffffffffffffffffffffffff16815260200190815260200160002060008282546115d6919061312b565b92505081905550816003600083815260200190815260200160002060006101000a81548173ffffffffffffffffffffffffffffffffffffffff021916908373ffffffffffffffffffffffffffffffffffffffff160217905550808273ffffffffffffffffffffffffffffffffffffffff168473ffffffffffffffffffffffffffffffffffffffff167fddf252ad1be2c89b69c2b068fc378daa952ba7f163c4a11628f55a4df523b3ef60405160405180910390a4505050565b600060095461169e6007611137565b106116a857600080fd5b6116b26007611145565b60006116be6007611137565b90506116c8611aac565b600c600083815260200190815260200160002060008201518160000160006101000a81548160ff021916908360ff16021790555060208201518160000160016101000a81548160ff021916908360ff16021790555060408201518160000160026101000a81548160ff021916908360ff16021790555060608201518160000160036101000a81548160ff021916908360ff16021790555060808201518160000160046101000a81548160ff021916908360ff16021790555090505061178d3382611bb8565b8091505090565b60008060009054906101000a900473ffffffffffffffffffffffffffffffffffffffff169050816000806101000a81548173ffffffffffffffffffffffffffffffffffffffff021916908373ffffffffffffffffffffffffffffffffffffffff1602179055508173ffffffffffffffffffffffffffffffffffffffff168173ffffffffffffffffffffffffffffffffffffffff167f8be0079c531659141344cd1fd0a4f28419497f9722a3daafe3b4186f6b6457e060405160405180910390a35050565b611863848484611433565b61186f84848484611bd6565b6118ae576040517f08c379a00000000000000000000000000000000000000000000000000000000081526004016118a5906131f3565b60405180910390fd5b50505050565b6060600a80546118c3906127ae565b80601f01602080910402602001604051908101604052809291908181526020018280546118ef906127ae565b801561193c5780601f106119115761010080835404028352916020019161193c565b820191906000526020600020905b81548152906001019060200180831161191f57829003601f168201915b5050505050905090565b6060600082141561198e576040518060400160405280600181526020017f30000000000000000000000000000000000000000000000000000000000000008152509050611aa2565b600082905060005b600082146119c05780806119a990613213565b915050600a826119b9919061328b565b9150611996565b60008167ffffffffffffffff8111156119dc576119db612591565b5b6040519080825280601f01601f191660200182016040528015611a0e5781602001600182028036833780820191505090505b5090505b60008514611a9b57600182611a2791906130f7565b9150600a85611a3691906132bc565b6030611a42919061312b565b60f81b818381518110611a5857611a576132ed565b5b60200101907effffffffffffffffffffffffffffffffffffffffffffffffffffffffffffff1916908160001a905350600a85611a94919061328b565b9450611a12565b8093505050505b919050565b505050565b611ab461210f565b6000806000806000805b600115611b7757611acd611d5e565b80955081965082975083985084995050505050508484848484604051602001611afa959493929190613352565b6040516020818303038152906040528051906020012060001c955060011515600d600088815260200190815260200160002060009054906101000a900460ff16151514611b72576001600d600088815260200190815260200160002060006101000a81548160ff021916908315150217905550611b77565b611abe565b6040518060a001604052808660ff1681526020018560ff1681526020018460ff1681526020018360ff1681526020018260ff16815250965050505050505090565b611bd2828260405180602001604052806000815250611da5565b5050565b6000611bf78473ffffffffffffffffffffffffffffffffffffffff166111ab565b15611d51578373ffffffffffffffffffffffffffffffffffffffff1663150b7a02611c20611294565b8786866040518563ffffffff1660e01b8152600401611c429493929190613406565b6020604051808303816000875af1925050508015611c7e57506040513d601f19601f82011682018060405250810190611c7b9190613467565b60015b611d01573d8060008114611cae576040519150601f19603f3d011682016040523d82523d6000602084013e611cb3565b606091505b50600081511415611cf9576040517f08c379a0000000000000000000000000000000000000000000000000000000008152600401611cf0906131f3565b60405180910390fd5b805181602001fd5b63150b7a0260e01b7bffffffffffffffffffffffffffffffffffffffffffffffffffffffff1916817bffffffffffffffffffffffffffffffffffffffffffffffffffffffff191614915050611d56565b600190505b949350505050565b6000806000806000611d6e611e00565b9450611d78611e00565b9350611d846003611eab565b9250611d906003611eab565b9150611d9c6003611eab565b90509091929394565b611daf8383611ed2565b611dbc6000848484611bd6565b611dfb576040517f08c379a0000000000000000000000000000000000000000000000000000000008152600401611df2906131f3565b60405180910390fd5b505050565b600080611e0b6120a0565b905060006103e8821015611e225760079050611ea3565b611770821015611e355760069050611ea2565b613e80821015611e485760059050611ea1565b620101d0821015611e5c5760049050611ea0565b62028870821015611e705760039050611e9f565b620595b0821015611e845760029050611e9e565b620a2990821015611e985760019050611e9d565b600090505b5b5b5b5b5b5b809250505090565b6000611ecb8260ff16611ebc6120a0565b611ec691906132bc565b61115b565b9050919050565b600073ffffffffffffffffffffffffffffffffffffffff168273ffffffffffffffffffffffffffffffffffffffff161415611f42576040517f08c379a0000000000000000000000000000000000000000000000000000000008152600401611f39906134e0565b60405180910390fd5b611f4b81611228565b15611f8b576040517f08c379a0000000000000000000000000000000000000000000000000000000008152600401611f829061354c565b60405180910390fd5b611f9760008383611aa7565b6001600460008473ffffffffffffffffffffffffffffffffffffffff1673ffffffffffffffffffffffffffffffffffffffff1681526020019081526020016000206000828254611fe7919061312b565b92505081905550816003600083815260200190815260200160002060006101000a81548173ffffffffffffffffffffffffffffffffffffffff021916908373ffffffffffffffffffffffffffffffffffffffff160217905550808273ffffffffffffffffffffffffffffffffffffffff16600073ffffffffffffffffffffffffffffffffffffffff167fddf252ad1be2c89b69c2b068fc378daa952ba7f163c4a11628f55a4df523b3ef60405160405180910390a45050565b60006120ac6008611145565b600044426120ba6007611137565b336120c56008611137565b6040516020016120d99594939291906135d5565b60405160208183030381529060405290506000818051906020012060001c9050620f42408161210891906132bc565b9250505090565b6040518060a00160405280600060ff168152602001600060ff168152602001600060ff168152602001600060ff168152602001600060ff1681525090565b6000604051905090565b600080fd5b600080fd5b60007fffffffff0000000000000000000000000000000000000000000000000000000082169050919050565b61219681612161565b81146121a157600080fd5b50565b6000813590506121b38161218d565b92915050565b6000602082840312156121cf576121ce612157565b5b60006121dd848285016121a4565b91505092915050565b60008115159050919050565b6121fb816121e6565b82525050565b600060208201905061221660008301846121f2565b92915050565b600081519050919050565b600082825260208201905092915050565b60005b8381101561225657808201518184015260208101905061223b565b83811115612265576000848401525b50505050565b6000601f19601f8301169050919050565b60006122878261221c565b6122918185612227565b93506122a1818560208601612238565b6122aa8161226b565b840191505092915050565b600060208201905081810360008301526122cf818461227c565b905092915050565b6000819050919050565b6122ea816122d7565b81146122f557600080fd5b50565b600081359050612307816122e1565b92915050565b60006020828403121561232357612322612157565b5b6000612331848285016122f8565b91505092915050565b600073ffffffffffffffffffffffffffffffffffffffff82169050919050565b60006123658261233a565b9050919050565b6123758161235a565b82525050565b6000602082019050612390600083018461236c565b92915050565b61239f8161235a565b81146123aa57600080fd5b50565b6000813590506123bc81612396565b92915050565b600080604083850312156123d9576123d8612157565b5b60006123e7858286016123ad565b92505060206123f8858286016122f8565b9150509250929050565b61240b816122d7565b82525050565b60006020820190506124266000830184612402565b92915050565b60008060006060848603121561244557612444612157565b5b6000612453868287016123ad565b9350506020612464868287016123ad565b9250506040612475868287016122f8565b9150509250925092565b60006020828403121561249557612494612157565b5b60006124a3848285016123ad565b91505092915050565b600060ff82169050919050565b6124c2816124ac565b82525050565b600060a0820190506124dd60008301886124b9565b6124ea60208301876124b9565b6124f760408301866124b9565b61250460608301856124b9565b61251160808301846124b9565b9695505050505050565b612524816121e6565b811461252f57600080fd5b50565b6000813590506125418161251b565b92915050565b6000806040838503121561255e5761255d612157565b5b600061256c858286016123ad565b925050602061257d85828601612532565b9150509250929050565b600080fd5b600080fd5b7f4e487b7100000000000000000000000000000000000000000000000000000000600052604160045260246000fd5b6125c98261226b565b810181811067ffffffffffffffff821117156125e8576125e7612591565b5b80604052505050565b60006125fb61214d565b905061260782826125c0565b919050565b600067ffffffffffffffff82111561262757612626612591565b5b6126308261226b565b9050602081019050919050565b82818337600083830152505050565b600061265f61265a8461260c565b6125f1565b90508281526020810184848401111561267b5761267a61258c565b5b61268684828561263d565b509392505050565b600082601f8301126126a3576126a2612587565b5b81356126b384826020860161264c565b91505092915050565b600080600080608085870312156126d6576126d5612157565b5b60006126e4878288016123ad565b94505060206126f5878288016123ad565b9350506040612706878288016122f8565b925050606085013567ffffffffffffffff8111156127275761272661215c565b5b6127338782880161268e565b91505092959194509250565b6000806040838503121561275657612755612157565b5b6000612764858286016123ad565b9250506020612775858286016123ad565b9150509250929050565b7f4e487b7100000000000000000000000000000000000000000000000000000000600052602260045260246000fd5b600060028204905060018216806127c657607f821691505b602082108114156127da576127d961277f565b5b50919050565b7f4552433732313a20617070726f76656420717565727920666f72206e6f6e657860008201527f697374656e7420746f6b656e0000000000000000000000000000000000000000602082015250565b600061283c602c83612227565b9150612847826127e0565b604082019050919050565b6000602082019050818103600083015261286b8161282f565b9050919050565b7f4552433732313a20617070726f76616c20746f2063757272656e74206f776e6560008201527f7200000000000000000000000000000000000000000000000000000000000000602082015250565b60006128ce602183612227565b91506128d982612872565b604082019050919050565b600060208201905081810360008301526128fd816128c1565b9050919050565b7f4552433732313a20617070726f76652063616c6c6572206973206e6f74206f7760008201527f6e6572206e6f7220617070726f76656420666f7220616c6c0000000000000000602082015250565b6000612960603883612227565b915061296b82612904565b604082019050919050565b6000602082019050818103600083015261298f81612953565b9050919050565b7f4552433732313a207472616e736665722063616c6c6572206973206e6f74206f60008201527f776e6572206e6f7220617070726f766564000000000000000000000000000000602082015250565b60006129f2603183612227565b91506129fd82612996565b604082019050919050565b60006020820190508181036000830152612a21816129e5565b9050919050565b7f436c61696d696e672061204e465420636f737473206574686572000000000000600082015250565b6000612a5e601a83612227565b9150612a6982612a28565b602082019050919050565b60006020820190508181036000830152612a8d81612a51565b9050919050565b7f4552433732313a206f776e657220717565727920666f72206e6f6e657869737460008201527f656e7420746f6b656e0000000000000000000000000000000000000000000000602082015250565b6000612af0602983612227565b9150612afb82612a94565b604082019050919050565b60006020820190508181036000830152612b1f81612ae3565b9050919050565b7f4552433732313a2062616c616e636520717565727920666f7220746865207a6560008201527f726f206164647265737300000000000000000000000000000000000000000000602082015250565b6000612b82602a83612227565b9150612b8d82612b26565b604082019050919050565b60006020820190508181036000830152612bb181612b75565b9050919050565b7f4f776e61626c653a2063616c6c6572206973206e6f7420746865206f776e6572600082015250565b6000612bee602083612227565b9150612bf982612bb8565b602082019050919050565b60006020820190508181036000830152612c1d81612be1565b9050919050565b7f546f6b656e206e6f74206d696e74656420796574000000000000000000000000600082015250565b6000612c5a601483612227565b9150612c6582612c24565b602082019050919050565b60006020820190508181036000830152612c8981612c4d565b9050919050565b7f4552433732313a20617070726f766520746f2063616c6c657200000000000000600082015250565b6000612cc6601983612227565b9150612cd182612c90565b602082019050919050565b60006020820190508181036000830152612cf581612cb9565b9050919050565b7f4552433732314d657461646174613a2055524920717565727920666f72206e6f60008201527f6e6578697374656e7420746f6b656e0000000000000000000000000000000000602082015250565b6000612d58602f83612227565b9150612d6382612cfc565b604082019050919050565b60006020820190508181036000830152612d8781612d4b565b9050919050565b600081905092915050565b6000612da48261221c565b612dae8185612d8e565b9350612dbe818560208601612238565b80840191505092915050565b6000612dd68285612d99565b9150612de28284612d99565b91508190509392505050565b7f4f776e61626c653a206e6577206f776e657220697320746865207a65726f206160008201527f6464726573730000000000000000000000000000000000000000000000000000602082015250565b6000612e4a602683612227565b9150612e5582612dee565b604082019050919050565b60006020820190508181036000830152612e7981612e3d565b9050919050565b7f53616665436173743a2076616c756520646f65736e27742066697420696e203860008201527f2062697473000000000000000000000000000000000000000000000000000000602082015250565b6000612edc602583612227565b9150612ee782612e80565b604082019050919050565b60006020820190508181036000830152612f0b81612ecf565b9050919050565b7f4552433732313a206f70657261746f7220717565727920666f72206e6f6e657860008201527f697374656e7420746f6b656e0000000000000000000000000000000000000000602082015250565b6000612f6e602c83612227565b9150612f7982612f12565b604082019050919050565b60006020820190508181036000830152612f9d81612f61565b9050919050565b7f4552433732313a207472616e73666572206f6620746f6b656e2074686174206960008201527f73206e6f74206f776e0000000000000000000000000000000000000000000000602082015250565b6000613000602983612227565b915061300b82612fa4565b604082019050919050565b6000602082019050818103600083015261302f81612ff3565b9050919050565b7f4552433732313a207472616e7366657220746f20746865207a65726f2061646460008201527f7265737300000000000000000000000000000000000000000000000000000000602082015250565b6000613092602483612227565b915061309d82613036565b604082019050919050565b600060208201905081810360008301526130c181613085565b9050919050565b7f4e487b7100000000000000000000000000000000000000000000000000000000600052601160045260246000fd5b6000613102826122d7565b915061310d836122d7565b9250828210156131205761311f6130c8565b5b828203905092915050565b6000613136826122d7565b9150613141836122d7565b9250827fffffffffffffffffffffffffffffffffffffffffffffffffffffffffffffffff03821115613176576131756130c8565b5b828201905092915050565b7f4552433732313a207472616e7366657220746f206e6f6e20455243373231526560008201527f63656976657220696d706c656d656e7465720000000000000000000000000000602082015250565b60006131dd603283612227565b91506131e882613181565b604082019050919050565b6000602082019050818103600083015261320c816131d0565b9050919050565b600061321e826122d7565b91507fffffffffffffffffffffffffffffffffffffffffffffffffffffffffffffffff821415613251576132506130c8565b5b600182019050919050565b7f4e487b7100000000000000000000000000000000000000000000000000000000600052601260045260246000fd5b6000613296826122d7565b91506132a1836122d7565b9250826132b1576132b061325c565b5b828204905092915050565b60006132c7826122d7565b91506132d2836122d7565b9250826132e2576132e161325c565b5b828206905092915050565b7f4e487b7100000000000000000000000000000000000000000000000000000000600052603260045260246000fd5b60008160f81b9050919050565b60006133348261331c565b9050919050565b61334c613347826124ac565b613329565b82525050565b600061335e828861333b565b60018201915061336e828761333b565b60018201915061337e828661333b565b60018201915061338e828561333b565b60018201915061339e828461333b565b6001820191508190509695505050505050565b600081519050919050565b600082825260208201905092915050565b60006133d8826133b1565b6133e281856133bc565b93506133f2818560208601612238565b6133fb8161226b565b840191505092915050565b600060808201905061341b600083018761236c565b613428602083018661236c565b6134356040830185612402565b818103606083015261344781846133cd565b905095945050505050565b6000815190506134618161218d565b92915050565b60006020828403121561347d5761347c612157565b5b600061348b84828501613452565b91505092915050565b7f4552433732313a206d696e7420746f20746865207a65726f2061646472657373600082015250565b60006134ca602083612227565b91506134d582613494565b602082019050919050565b600060208201905081810360008301526134f9816134bd565b9050919050565b7f4552433732313a20746f6b656e20616c7265616479206d696e74656400000000600082015250565b6000613536601c83612227565b915061354182613500565b602082019050919050565b6000602082019050818103600083015261356581613529565b9050919050565b6000819050919050565b613587613582826122d7565b61356c565b82525050565b60008160601b9050919050565b60006135a58261358d565b9050919050565b60006135b78261359a565b9050919050565b6135cf6135ca8261235a565b6135ac565b82525050565b60006135e18288613576565b6020820191506135f18287613576565b6020820191506136018286613576565b60208201915061361182856135be565b6014820191506136218284613576565b602082019150819050969550505050505056fea2646970667358221220681619f4fb7ca1cb8acb50d707aadd110243799ffd02f4d300cb4d40832c60ea64736f6c634300080a0033",
  "immutableReferences": {},
  "source": "// SPDX-License-Identifier: MIT\n\npragma solidity >=0.8.3 <0.9.0;\n\nimport \"@openzeppelin/contracts/access/Ownable.sol\";\nimport \"@openzeppelin/contracts/token/ERC721/ERC721.sol\";\nimport \"@openzeppelin/contracts/utils/Counters.sol\";\nimport \"@openzeppelin/contracts/utils/math/SafeMath.sol\";\nimport \"@openzeppelin/contracts/utils/math/SafeCast.sol\";\nimport \"./SafeMath8.sol\";\n\n/// @title The main CryptoDicks ERC721 smart contract.\n/// @author juliencrn\n/// @dev Work in progress, not production ready yet.\ncontract CryptoDicks is Ownable, ERC721 {\n    // Libs\n    using Counters for Counters.Counter;\n    using SafeMath for uint256;\n    using SafeMath8 for uint8;\n    using SafeCast for uint256;\n\n    Counters.Counter internal _currentSupply;\n    Counters.Counter internal _randomNonce;\n\n    // Contract settings\n    uint256 public totalSupply = 10_000;\n    string internal _currentBaseURI = \"http://localhost:5000/\";\n    uint256 public claimFee = 0.01 ether;\n\n    // NFT properties\n    struct Metadata {\n        uint8 bgColor;\n        uint8 dickColor;\n        uint8 hat;\n        uint8 clothe;\n        uint8 skin;\n    }\n\n    // Mapping token ID to Metadata\n    mapping(uint256 => Metadata) idToMetadata;\n\n    // Mapping metadata dna to boolean\n    mapping(uint256 => bool) private _dnaExists;\n\n    constructor() ERC721(\"CryptoDicks\", \"DICK\") {\n        // Mint my own NFT tokens.\n        for (uint256 i = 0; i < 10; i++) {\n            mint();\n        }\n    }\n\n    /// Allow user to mint a token\n    /// @dev takes fees then calls mint() internally.\n    function claim() external payable {\n        require(msg.value == claimFee, \"Claiming a NFT costs ether\");\n\n        mint();\n\n        // Give ether to the contract owner\n        payable(owner()).transfer(claimFee);\n    }\n\n    /// Mint a new NFT\n    /// @return Created token id\n    function mint() internal returns (uint256) {\n        require(_currentSupply.current() < totalSupply);\n\n        // Increment the token supply.\n        _currentSupply.increment();\n        uint256 newTokenId = _currentSupply.current();\n\n        // Generate and save metadata\n        idToMetadata[newTokenId] = _createUniqueNFT();\n\n        // Finally, mint!\n        _safeMint(msg.sender, newTokenId);\n\n        return newTokenId;\n    }\n\n    /// Return the good baseURI overriding the ERC721 method\n    function _baseURI() internal view virtual override returns (string memory) {\n        return _currentBaseURI;\n    }\n\n    /// For a a given token ID, returns its metadata\n    function get(uint256 _tokenId)\n        external\n        view\n        returns (\n            uint8 bgColor,\n            uint8 dickColor,\n            uint8 hat,\n            uint8 clothe,\n            uint8 skin\n        )\n    {\n        require(_exists(_tokenId), \"Token not minted yet\");\n        Metadata memory metadata = idToMetadata[_tokenId];\n\n        bgColor = metadata.bgColor;\n        dickColor = metadata.dickColor;\n        hat = metadata.hat;\n        clothe = metadata.clothe;\n        skin = metadata.skin;\n    }\n\n    /// @return the current supply\n    function currentSupply() external view returns (uint256) {\n        return _currentSupply.current();\n    }\n\n    ////////////////////////////////////////////////////////////\n    // Random and Rarity algos\n    ////////////////////////////////////////////////////////////\n\n    /// Create unique metadata combination\n    /// TODO: Test algos part\n    /// @dev this function is the algo part entry point\n    /// @dev exec a infinite loop\n    /// @dev check and mute the _dnaExists mapping\n    /// @return Metadata\n    function _createUniqueNFT() internal returns (Metadata memory) {\n        uint256 dna;\n        uint8 bgColor;\n        uint8 dickColor;\n        uint8 hat;\n        uint8 clothe;\n        uint8 skin;\n\n        while (true) {\n            // Generate random metadata\n            (bgColor, dickColor, hat, clothe, skin) = _generateRandomMetadata();\n\n            // Calc the dna\n            dna = uint256(\n                keccak256(\n                    abi.encodePacked(bgColor, dickColor, hat, clothe, skin)\n                )\n            );\n\n            // If the new dna is unique, save it and leave the loop\n            if (_dnaExists[dna] != true) {\n                _dnaExists[dna] = true;\n                break;\n            }\n        }\n\n        return Metadata(bgColor, dickColor, hat, clothe, skin);\n    }\n\n    /// Generate a random number\n    /// @dev random isn't perfect in Solidity, use Oracle in better approch.\n    /// @return uint256 0-999_999\n    function _getRandomNumber() internal returns (uint256) {\n        _randomNonce.increment();\n\n        bytes memory encoded2 = abi.encodePacked(\n            block.difficulty,\n            block.timestamp,\n            _currentSupply.current(),\n            msg.sender,\n            _randomNonce.current()\n        );\n        uint256 rand = uint256(keccak256(encoded2));\n        return rand % 1_000_000;\n    }\n\n    /// Just generate a Metadata and returns its entries\n    /// @dev contains config per metadata attributes\n    function _generateRandomMetadata()\n        internal\n        returns (\n            uint8 bgColor,\n            uint8 dickColor,\n            uint8 hat,\n            uint8 clothe,\n            uint8 skin\n        )\n    {\n        bgColor = _randomWithRarety();\n        dickColor = _randomWithRarety();\n        hat = _randomUntil(3);\n        clothe = _randomUntil(3);\n        skin = _randomUntil(3);\n    }\n\n    /// @return random uint8 between 0-7 with rarety level\n    function _randomUntil(uint8 _optionsCount) internal returns (uint8) {\n        return (_getRandomNumber() % _optionsCount).toUint8();\n    }\n\n    /// @return random uint8 between 0-7 with rarety level\n    function _randomWithRarety() internal returns (uint8) {\n        uint256 rand = _getRandomNumber();\n        uint8 result;\n\n        if (rand < 1_000) {\n            result = 7; // 0.1%\n        } else if (rand < 6_000) {\n            result = 6;\n        } else if (rand < 16_000) {\n            result = 5;\n        } else if (rand < 66_000) {\n            result = 4;\n        } else if (rand < 166_000) {\n            result = 3;\n        } else if (rand < 366_000) {\n            result = 2;\n        } else if (rand < 666_000) {\n            result = 1;\n        } else {\n            result = 0;\n        }\n\n        return result;\n    }\n}\n",
  "sourcePath": "/Users/juliencaron/www/ntf/ntf-collectible/contracts/CryptoDicks.sol",
  "compiler": {
    "name": "solc",
    "version": "0.8.10+commit.fc410830.Emscripten.clang"
  },
  "schemaVersion": "3.4.3",
  "updatedAt": "2021-11-19T04:19:38.879Z",
  "devdoc": {
    "author": "juliencrn",
    "details": "Work in progress, not production ready yet.",
    "kind": "dev",
    "methods": {
      "approve(address,uint256)": {
        "details": "See {IERC721-approve}."
      },
      "balanceOf(address)": {
        "details": "See {IERC721-balanceOf}."
      },
      "claim()": {
        "details": "takes fees then calls mint() internally."
      },
      "currentSupply()": {
        "returns": {
          "_0": "the current supply"
        }
      },
      "getApproved(uint256)": {
        "details": "See {IERC721-getApproved}."
      },
      "isApprovedForAll(address,address)": {
        "details": "See {IERC721-isApprovedForAll}."
      },
      "name()": {
        "details": "See {IERC721Metadata-name}."
      },
      "owner()": {
        "details": "Returns the address of the current owner."
      },
      "ownerOf(uint256)": {
        "details": "See {IERC721-ownerOf}."
      },
      "renounceOwnership()": {
        "details": "Leaves the contract without owner. It will not be possible to call `onlyOwner` functions anymore. Can only be called by the current owner. NOTE: Renouncing ownership will leave the contract without an owner, thereby removing any functionality that is only available to the owner."
      },
      "safeTransferFrom(address,address,uint256)": {
        "details": "See {IERC721-safeTransferFrom}."
      },
      "safeTransferFrom(address,address,uint256,bytes)": {
        "details": "See {IERC721-safeTransferFrom}."
      },
      "setApprovalForAll(address,bool)": {
        "details": "See {IERC721-setApprovalForAll}."
      },
      "supportsInterface(bytes4)": {
        "details": "See {IERC165-supportsInterface}."
      },
      "symbol()": {
        "details": "See {IERC721Metadata-symbol}."
      },
      "tokenURI(uint256)": {
        "details": "See {IERC721Metadata-tokenURI}."
      },
      "transferFrom(address,address,uint256)": {
        "details": "See {IERC721-transferFrom}."
      },
      "transferOwnership(address)": {
        "details": "Transfers ownership of the contract to a new account (`newOwner`). Can only be called by the current owner."
      }
    },
    "title": "The main CryptoDicks ERC721 smart contract.",
    "version": 1
  },
  "userdoc": {
    "kind": "user",
    "methods": {
      "claim()": {
        "notice": "Allow user to mint a token"
      },
      "get(uint256)": {
        "notice": "For a a given token ID, returns its metadata"
      }
    },
    "version": 1
  }
}