{
  "contractName": "CryptoDicks",
  "abi": [
    {
      "inputs": [],
      "stateMutability": "nonpayable",
      "type": "constructor"
    },
    {
      "anonymous": false,
      "inputs": [
        {
          "indexed": true,
          "internalType": "address",
          "name": "owner",
          "type": "address"
        },
        {
          "indexed": true,
          "internalType": "address",
          "name": "approved",
          "type": "address"
        },
        {
          "indexed": true,
          "internalType": "uint256",
          "name": "tokenId",
          "type": "uint256"
        }
      ],
      "name": "Approval",
      "type": "event"
    },
    {
      "anonymous": false,
      "inputs": [
        {
          "indexed": true,
          "internalType": "address",
          "name": "owner",
          "type": "address"
        },
        {
          "indexed": true,
          "internalType": "address",
          "name": "operator",
          "type": "address"
        },
        {
          "indexed": false,
          "internalType": "bool",
          "name": "approved",
          "type": "bool"
        }
      ],
      "name": "ApprovalForAll",
      "type": "event"
    },
    {
      "anonymous": false,
      "inputs": [
        {
          "indexed": true,
          "internalType": "address",
          "name": "previousOwner",
          "type": "address"
        },
        {
          "indexed": true,
          "internalType": "address",
          "name": "newOwner",
          "type": "address"
        }
      ],
      "name": "OwnershipTransferred",
      "type": "event"
    },
    {
      "anonymous": false,
      "inputs": [
        {
          "indexed": true,
          "internalType": "address",
          "name": "from",
          "type": "address"
        },
        {
          "indexed": true,
          "internalType": "address",
          "name": "to",
          "type": "address"
        },
        {
          "indexed": true,
          "internalType": "uint256",
          "name": "tokenId",
          "type": "uint256"
        }
      ],
      "name": "Transfer",
      "type": "event"
    },
    {
      "inputs": [
        {
          "internalType": "address",
          "name": "to",
          "type": "address"
        },
        {
          "internalType": "uint256",
          "name": "tokenId",
          "type": "uint256"
        }
      ],
      "name": "approve",
      "outputs": [],
      "stateMutability": "nonpayable",
      "type": "function"
    },
    {
      "inputs": [
        {
          "internalType": "address",
          "name": "owner",
          "type": "address"
        }
      ],
      "name": "balanceOf",
      "outputs": [
        {
          "internalType": "uint256",
          "name": "",
          "type": "uint256"
        }
      ],
      "stateMutability": "view",
      "type": "function",
      "constant": true
    },
    {
      "inputs": [],
      "name": "claimFee",
      "outputs": [
        {
          "internalType": "uint256",
          "name": "",
          "type": "uint256"
        }
      ],
      "stateMutability": "view",
      "type": "function",
      "constant": true
    },
    {
      "inputs": [
        {
          "internalType": "uint256",
          "name": "tokenId",
          "type": "uint256"
        }
      ],
      "name": "getApproved",
      "outputs": [
        {
          "internalType": "address",
          "name": "",
          "type": "address"
        }
      ],
      "stateMutability": "view",
      "type": "function",
      "constant": true
    },
    {
      "inputs": [
        {
          "internalType": "address",
          "name": "owner",
          "type": "address"
        },
        {
          "internalType": "address",
          "name": "operator",
          "type": "address"
        }
      ],
      "name": "isApprovedForAll",
      "outputs": [
        {
          "internalType": "bool",
          "name": "",
          "type": "bool"
        }
      ],
      "stateMutability": "view",
      "type": "function",
      "constant": true
    },
    {
      "inputs": [],
      "name": "name",
      "outputs": [
        {
          "internalType": "string",
          "name": "",
          "type": "string"
        }
      ],
      "stateMutability": "view",
      "type": "function",
      "constant": true
    },
    {
      "inputs": [],
      "name": "owner",
      "outputs": [
        {
          "internalType": "address",
          "name": "",
          "type": "address"
        }
      ],
      "stateMutability": "view",
      "type": "function",
      "constant": true
    },
    {
      "inputs": [
        {
          "internalType": "uint256",
          "name": "tokenId",
          "type": "uint256"
        }
      ],
      "name": "ownerOf",
      "outputs": [
        {
          "internalType": "address",
          "name": "",
          "type": "address"
        }
      ],
      "stateMutability": "view",
      "type": "function",
      "constant": true
    },
    {
      "inputs": [],
      "name": "renounceOwnership",
      "outputs": [],
      "stateMutability": "nonpayable",
      "type": "function"
    },
    {
      "inputs": [
        {
          "internalType": "address",
          "name": "from",
          "type": "address"
        },
        {
          "internalType": "address",
          "name": "to",
          "type": "address"
        },
        {
          "internalType": "uint256",
          "name": "tokenId",
          "type": "uint256"
        }
      ],
      "name": "safeTransferFrom",
      "outputs": [],
      "stateMutability": "nonpayable",
      "type": "function"
    },
    {
      "inputs": [
        {
          "internalType": "address",
          "name": "from",
          "type": "address"
        },
        {
          "internalType": "address",
          "name": "to",
          "type": "address"
        },
        {
          "internalType": "uint256",
          "name": "tokenId",
          "type": "uint256"
        },
        {
          "internalType": "bytes",
          "name": "_data",
          "type": "bytes"
        }
      ],
      "name": "safeTransferFrom",
      "outputs": [],
      "stateMutability": "nonpayable",
      "type": "function"
    },
    {
      "inputs": [
        {
          "internalType": "address",
          "name": "operator",
          "type": "address"
        },
        {
          "internalType": "bool",
          "name": "approved",
          "type": "bool"
        }
      ],
      "name": "setApprovalForAll",
      "outputs": [],
      "stateMutability": "nonpayable",
      "type": "function"
    },
    {
      "inputs": [
        {
          "internalType": "string",
          "name": "_baseUri",
          "type": "string"
        }
      ],
      "name": "setBaseURI",
      "outputs": [],
      "stateMutability": "nonpayable",
      "type": "function"
    },
    {
      "inputs": [
        {
          "internalType": "uint256",
          "name": "_newPrice",
          "type": "uint256"
        }
      ],
      "name": "setClaimFee",
      "outputs": [],
      "stateMutability": "nonpayable",
      "type": "function"
    },
    {
      "inputs": [
        {
          "internalType": "bytes4",
          "name": "interfaceId",
          "type": "bytes4"
        }
      ],
      "name": "supportsInterface",
      "outputs": [
        {
          "internalType": "bool",
          "name": "",
          "type": "bool"
        }
      ],
      "stateMutability": "view",
      "type": "function",
      "constant": true
    },
    {
      "inputs": [],
      "name": "symbol",
      "outputs": [
        {
          "internalType": "string",
          "name": "",
          "type": "string"
        }
      ],
      "stateMutability": "view",
      "type": "function",
      "constant": true
    },
    {
      "inputs": [
        {
          "internalType": "uint256",
          "name": "tokenId",
          "type": "uint256"
        }
      ],
      "name": "tokenURI",
      "outputs": [
        {
          "internalType": "string",
          "name": "",
          "type": "string"
        }
      ],
      "stateMutability": "view",
      "type": "function",
      "constant": true
    },
    {
      "inputs": [],
      "name": "totalSupply",
      "outputs": [
        {
          "internalType": "uint256",
          "name": "",
          "type": "uint256"
        }
      ],
      "stateMutability": "view",
      "type": "function",
      "constant": true
    },
    {
      "inputs": [
        {
          "internalType": "address",
          "name": "from",
          "type": "address"
        },
        {
          "internalType": "address",
          "name": "to",
          "type": "address"
        },
        {
          "internalType": "uint256",
          "name": "tokenId",
          "type": "uint256"
        }
      ],
      "name": "transferFrom",
      "outputs": [],
      "stateMutability": "nonpayable",
      "type": "function"
    },
    {
      "inputs": [
        {
          "internalType": "address",
          "name": "newOwner",
          "type": "address"
        }
      ],
      "name": "transferOwnership",
      "outputs": [],
      "stateMutability": "nonpayable",
      "type": "function"
    },
    {
      "inputs": [],
      "name": "withdraw",
      "outputs": [],
      "stateMutability": "payable",
      "type": "function",
      "payable": true
    },
    {
      "inputs": [],
      "name": "claim",
      "outputs": [],
      "stateMutability": "payable",
      "type": "function",
      "payable": true
    },
    {
      "inputs": [
        {
          "internalType": "uint256",
          "name": "_tokenId",
          "type": "uint256"
        }
      ],
      "name": "get",
      "outputs": [
        {
          "components": [
            {
              "internalType": "uint8",
              "name": "background",
              "type": "uint8"
            },
            {
              "internalType": "uint8",
              "name": "skin",
              "type": "uint8"
            },
            {
              "internalType": "uint8",
              "name": "hat",
              "type": "uint8"
            },
            {
              "internalType": "uint8",
              "name": "eye",
              "type": "uint8"
            },
            {
              "internalType": "uint8",
              "name": "mouse",
              "type": "uint8"
            },
            {
              "internalType": "uint8",
              "name": "clothe",
              "type": "uint8"
            },
            {
              "internalType": "uint8",
              "name": "arm",
              "type": "uint8"
            },
            {
              "internalType": "uint8",
              "name": "special",
              "type": "uint8"
            }
          ],
          "internalType": "struct UniqueMetadata.Metadata",
          "name": "",
          "type": "tuple"
        }
      ],
      "stateMutability": "view",
      "type": "function",
      "constant": true
    },
    {
      "inputs": [],
      "name": "currentSupply",
      "outputs": [
        {
          "internalType": "uint256",
          "name": "",
          "type": "uint256"
        }
      ],
      "stateMutability": "view",
      "type": "function",
      "constant": true
    }
  ],
  "bytecode": "0x608060405260405180610200016040528062015f9062ffffff1681526020016201388062ffffff1681526020016201117062ffffff16815260200161ea6062ffffff16815260200161c35062ffffff168152602001619c4062ffffff16815260200161753062ffffff1681526020016159d862ffffff168152602001613e8062ffffff168152602001612af862ffffff168152602001611b5862ffffff168152602001610fa062ffffff168152602001610bb862ffffff1681526020016107d062ffffff1681526020016103e862ffffff168152602001600062ffffff168152506008906010620000f2929190620017ed565b50604051806101a0016040528062015f9062ffffff1681526020016201388062ffffff1681526020016201117062ffffff16815260200161ea6062ffffff16815260200161c35062ffffff168152602001619c4062ffffff16815260200161753062ffffff168152602001614e2062ffffff168152602001613a9862ffffff16815260200161271062ffffff16815260200161138862ffffff1681526020016103e862ffffff168152602001600062ffffff16815250600990600d620001ba92919062001846565b506040518061020001604052806201117062ffffff16815260200161fa0062ffffff16815260200161e29062ffffff16815260200161cb2062ffffff16815260200161b3b062ffffff168152602001619c4062ffffff1681526020016184d062ffffff168152602001616d6062ffffff1681526020016155f062ffffff168152602001613e8062ffffff16815260200161271062ffffff16815260200161138862ffffff168152602001610bb862ffffff1681526020016105dc62ffffff1681526020016101f462ffffff168152602001600062ffffff16815250600a906010620002a7929190620017ed565b506040518060e001604052806188b861ffff1681526020016155f061ffff16815260200161271061ffff16815260200161177061ffff168152602001610bb861ffff1681526020016103e861ffff168152602001600061ffff16815250600b906007620003169291906200189f565b506040518060e0016040528061271061ffff16815260200161177061ffff168152602001610dac61ffff1681526020016107d061ffff1681526020016103e861ffff1681526020016103e861ffff168152602001600061ffff16815250600c906007620003859291906200189f565b506040518060600160405280612ee061ffff16815260200161138861ffff168152602001600061ffff16815250600d906003620003c4929190620018f7565b506040518060400160405280611f4061ffff168152602001600061ffff16815250600e906002620003f79291906200194f565b5060405180606001604052806107d061ffff1681526020016103e861ffff168152602001600061ffff16815250600f90600362000436929190620018f7565b506040518060600160405280602c8152602001620065b1602c91396011908051906020019062000468929190620019a7565b50662386f26fc100006012556127106013553480156200048757600080fd5b506040518060400160405280600b81526020017f43727970746f4469636b730000000000000000000000000000000000000000008152506040518060400160405280600481526020017f4449434b0000000000000000000000000000000000000000000000000000000081525081600090805190602001906200050c929190620019a7565b50806001908051906020019062000525929190620019a7565b505050620005486200053c6200058360201b60201c565b6200058b60201b60201c565b60005b60058110156200057c57620005656200065160201b60201c565b508080620005739062001aed565b9150506200054b565b506200230d565b600033905090565b6000601060009054906101000a900473ffffffffffffffffffffffffffffffffffffffff16905081601060006101000a81548173ffffffffffffffffffffffffffffffffffffffff021916908373ffffffffffffffffffffffffffffffffffffffff1602179055508173ffffffffffffffffffffffffffffffffffffffff168173ffffffffffffffffffffffffffffffffffffffff167f8be0079c531659141344cd1fd0a4f28419497f9722a3daafe3b4186f6b6457e060405160405180910390a35050565b60006013546200066d6014620007f160201b620013c71760201c565b106200067857600080fd5b6200068f6014620007ff60201b620013d51760201c565b6000620006a86014620007f160201b620013c71760201c565b9050620006ba6200081560201b60201c565b6015600083815260200190815260200160002060008201518160000160006101000a81548160ff021916908360ff16021790555060208201518160000160016101000a81548160ff021916908360ff16021790555060408201518160000160026101000a81548160ff021916908360ff16021790555060608201518160000160036101000a81548160ff021916908360ff16021790555060808201518160000160046101000a81548160ff021916908360ff16021790555060a08201518160000160056101000a81548160ff021916908360ff16021790555060c08201518160000160066101000a81548160ff021916908360ff16021790555060e08201518160000160076101000a81548160ff021916908360ff160217905550905050620007ea3382620008d260201b60201c565b8091505090565b600081600001549050919050565b6001816000016000828254019250508190555050565b6200081f62001a38565b6200082962001a38565b60005b600115620008ca5762000844620008f860201b60201c565b91506200085782620009eb60201b60201c565b9050600115156007600083815260200190815260200160002060009054906101000a900460ff16151514620008b85760016007600083815260200190815260200160002060006101000a81548160ff021916908315150217905550620008ca565b620008c262001a38565b91506200082c565b819250505090565b620008f482826040518060200160405280600081525062000a4e60201b60201c565b5050565b6200090262001a38565b6000806000806000806000806200091e62000abc60201b60201c565b905060018160ff1610156200095f576200093d62000b7e60201b60201c565b809850819950829a50839b50849c50859d50869e50505050505050506200098c565b6200096f62000c9860201b60201c565b809850819950829a50839b50849c50859d50869e50505050505050505b6040518061010001604052808960ff1681526020018860ff1681526020018760ff1681526020018660ff1681526020018560ff1681526020018460ff1681526020018360ff1681526020018260ff168152509850505050505050505090565b6000816000015182602001518360400151846060015185608001518660a001518760c001518860e0015160405160200162000a2e98979695949392919062001b84565b6040516020818303038152906040528051906020012060001c9050919050565b62000a60838362000ced60201b60201c565b62000a75600084848462000ed360201b60201c565b62000ab7576040517f08c379a000000000000000000000000000000000000000000000000000000000815260040162000aae9062001cad565b60405180910390fd5b505050565b600062000ad56006620007ff60201b620013d51760201c565b62000b79620186a062000af46006620007f160201b620013c71760201c565b600f80548060200260200160405190810160405280929190818152602001828054801562000b4257602002820191906000526020600020905b81548152602001906001019080831162000b2d575b50505050507f73706563000000000000000000000000000000000000000000000000000000006200107d60201b620013eb1760201c565b905090565b60008060008060008060008062000b9a620010b260201b60201c565b9050600062000bae6200117460201b60201c565b9050600062000bc26200123660201b60201c565b9050600062000bd6620012f860201b60201c565b9050600062000bea620013ba60201b60201c565b9050600062000bfe6200147c60201b60201c565b905060018260ff16141562000c2f5785858585600086869c509c509c509c509c509c509c5050505050505062000c8f565b600f8460ff16141562000c5e5785858585600086869c509c509c509c509c509c509c5050505050505062000c8f565b600062000c706200153e60201b60201c565b9050868686868487879d509d509d509d509d509d509d50505050505050505b90919293949596565b60008060008060008060008062000cb4620010b260201b60201c565b9050600062000cc86200117460201b60201c565b9050818160008060008060009850985098509850985098509850505090919293949596565b600073ffffffffffffffffffffffffffffffffffffffff168273ffffffffffffffffffffffffffffffffffffffff16141562000d60576040517f08c379a000000000000000000000000000000000000000000000000000000000815260040162000d579062001d1f565b60405180910390fd5b62000d71816200160060201b60201c565b1562000db4576040517f08c379a000000000000000000000000000000000000000000000000000000000815260040162000dab9062001d91565b60405180910390fd5b62000dc8600083836200166c60201b60201c565b6001600360008473ffffffffffffffffffffffffffffffffffffffff1673ffffffffffffffffffffffffffffffffffffffff168152602001908152602001600020600082825462000e1a919062001db3565b92505081905550816002600083815260200190815260200160002060006101000a81548173ffffffffffffffffffffffffffffffffffffffff021916908373ffffffffffffffffffffffffffffffffffffffff160217905550808273ffffffffffffffffffffffffffffffffffffffff16600073ffffffffffffffffffffffffffffffffffffffff167fddf252ad1be2c89b69c2b068fc378daa952ba7f163c4a11628f55a4df523b3ef60405160405180910390a45050565b600062000f018473ffffffffffffffffffffffffffffffffffffffff166200167160201b620014101760201c565b1562001070578373ffffffffffffffffffffffffffffffffffffffff1663150b7a0262000f336200058360201b60201c565b8786866040518563ffffffff1660e01b815260040162000f57949392919062001f0a565b6020604051808303816000875af192505050801562000f9657506040513d601f19601f8201168201806040525081019062000f93919062001fc0565b60015b6200101f573d806000811462000fc9576040519150601f19603f3d011682016040523d82523d6000602084013e62000fce565b606091505b5060008151141562001017576040517f08c379a00000000000000000000000000000000000000000000000000000000081526004016200100e9062001cad565b60405180910390fd5b805181602001fd5b63150b7a0260e01b7bffffffffffffffffffffffffffffffffffffffffffffffffffffffff1916817bffffffffffffffffffffffffffffffffffffffffffffffffffffffff19161491505062001075565b600190505b949350505050565b600080620010938686856200168460201b60201c565b9050620010a78185620016ed60201b60201c565b915050949350505050565b6000620010cb6006620007ff60201b620013d51760201c565b6200116f620186a0620010ea6006620007f160201b620013c71760201c565b60088054806020026020016040519081016040528092919081815260200182805480156200113857602002820191906000526020600020905b81548152602001906001019080831162001123575b50505050507f6261636b000000000000000000000000000000000000000000000000000000006200107d60201b620013eb1760201c565b905090565b60006200118d6006620007ff60201b620013d51760201c565b62001231620186a0620011ac6006620007f160201b620013c71760201c565b6009805480602002602001604051908101604052809291908181526020018280548015620011fa57602002820191906000526020600020905b815481526020019060010190808311620011e5575b50505050507f736b696e000000000000000000000000000000000000000000000000000000006200107d60201b620013eb1760201c565b905090565b60006200124f6006620007ff60201b620013d51760201c565b620012f3620186a06200126e6006620007f160201b620013c71760201c565b600a805480602002602001604051908101604052809291908181526020018280548015620012bc57602002820191906000526020600020905b815481526020019060010190808311620012a7575b50505050507f68617400000000000000000000000000000000000000000000000000000000006200107d60201b620013eb1760201c565b905090565b6000620013116006620007ff60201b620013d51760201c565b620013b5620186a0620013306006620007f160201b620013c71760201c565b600b8054806020026020016040519081016040528092919081815260200182805480156200137e57602002820191906000526020600020905b81548152602001906001019080831162001369575b50505050507f65796500000000000000000000000000000000000000000000000000000000006200107d60201b620013eb1760201c565b905090565b6000620013d36006620007ff60201b620013d51760201c565b62001477620186a0620013f26006620007f160201b620013c71760201c565b600d8054806020026020016040519081016040528092919081815260200182805480156200144057602002820191906000526020600020905b8154815260200190600101908083116200142b575b50505050507f636c6f74000000000000000000000000000000000000000000000000000000006200107d60201b620013eb1760201c565b905090565b6000620014956006620007ff60201b620013d51760201c565b62001539620186a0620014b46006620007f160201b620013c71760201c565b600e8054806020026020016040519081016040528092919081815260200182805480156200150257602002820191906000526020600020905b815481526020019060010190808311620014ed575b50505050507f61726d73000000000000000000000000000000000000000000000000000000006200107d60201b620013eb1760201c565b905090565b6000620015576006620007ff60201b620013d51760201c565b620015fb620186a0620015766006620007f160201b620013c71760201c565b600c805480602002602001604051908101604052809291908181526020018280548015620015c457602002820191906000526020600020905b815481526020019060010190808311620015af575b50505050507f6d6f7573000000000000000000000000000000000000000000000000000000006200107d60201b620013eb1760201c565b905090565b60008073ffffffffffffffffffffffffffffffffffffffff166002600084815260200190815260200160002060009054906101000a900473ffffffffffffffffffffffffffffffffffffffff1673ffffffffffffffffffffffffffffffffffffffff1614159050919050565b505050565b600080823b905060008111915050919050565b60006001808562001696919062001db3565b4443323a8789604051602001620016b3969594939291906200208c565b6040516020818303038152906040528051906020012060001c620016d8919062002137565b620016e4919062001db3565b90509392505050565b6000805b825181101562001756578281815181106200171157620017106200216f565b5b6020026020010151841115620017405762001737816200179a60201b620014231760201c565b91505062001794565b80806200174d9062001aed565b915050620016f1565b506040517f08c379a00000000000000000000000000000000000000000000000000000000081526004016200178b90620021ee565b60405180910390fd5b92915050565b600060ff8016821115620017e5576040517f08c379a0000000000000000000000000000000000000000000000000000000008152600401620017dc9062002286565b60405180910390fd5b819050919050565b82805482825590600052602060002090810192821562001833579160200282015b8281111562001832578251829062ffffff169055916020019190600101906200180e565b5b50905062001842919062001a95565b5090565b8280548282559060005260206000209081019282156200188c579160200282015b828111156200188b578251829062ffffff1690559160200191906001019062001867565b5b5090506200189b919062001a95565b5090565b828054828255906000526020600020908101928215620018e4579160200282015b82811115620018e3578251829061ffff16905591602001919060010190620018c0565b5b509050620018f3919062001a95565b5090565b8280548282559060005260206000209081019282156200193c579160200282015b828111156200193b578251829061ffff1690559160200191906001019062001918565b5b5090506200194b919062001a95565b5090565b82805482825590600052602060002090810192821562001994579160200282015b8281111562001993578251829061ffff1690559160200191906001019062001970565b5b509050620019a3919062001a95565b5090565b828054620019b590620022d7565b90600052602060002090601f016020900481019282620019d9576000855562001a25565b82601f10620019f457805160ff191683800117855562001a25565b8280016001018555821562001a25579182015b8281111562001a2457825182559160200191906001019062001a07565b5b50905062001a34919062001a95565b5090565b604051806101000160405280600060ff168152602001600060ff168152602001600060ff168152602001600060ff168152602001600060ff168152602001600060ff168152602001600060ff168152602001600060ff1681525090565b5b8082111562001ab057600081600090555060010162001a96565b5090565b7f4e487b7100000000000000000000000000000000000000000000000000000000600052601160045260246000fd5b6000819050919050565b600062001afa8262001ae3565b91507fffffffffffffffffffffffffffffffffffffffffffffffffffffffffffffffff82141562001b305762001b2f62001ab4565b5b600182019050919050565b600060ff82169050919050565b60008160f81b9050919050565b600062001b628262001b48565b9050919050565b62001b7e62001b788262001b3b565b62001b55565b82525050565b600062001b92828b62001b69565b60018201915062001ba4828a62001b69565b60018201915062001bb6828962001b69565b60018201915062001bc8828862001b69565b60018201915062001bda828762001b69565b60018201915062001bec828662001b69565b60018201915062001bfe828562001b69565b60018201915062001c10828462001b69565b6001820191508190509998505050505050505050565b600082825260208201905092915050565b7f4552433732313a207472616e7366657220746f206e6f6e20455243373231526560008201527f63656976657220696d706c656d656e7465720000000000000000000000000000602082015250565b600062001c9560328362001c26565b915062001ca28262001c37565b604082019050919050565b6000602082019050818103600083015262001cc88162001c86565b9050919050565b7f4552433732313a206d696e7420746f20746865207a65726f2061646472657373600082015250565b600062001d0760208362001c26565b915062001d148262001ccf565b602082019050919050565b6000602082019050818103600083015262001d3a8162001cf8565b9050919050565b7f4552433732313a20746f6b656e20616c7265616479206d696e74656400000000600082015250565b600062001d79601c8362001c26565b915062001d868262001d41565b602082019050919050565b6000602082019050818103600083015262001dac8162001d6a565b9050919050565b600062001dc08262001ae3565b915062001dcd8362001ae3565b9250827fffffffffffffffffffffffffffffffffffffffffffffffffffffffffffffffff0382111562001e055762001e0462001ab4565b5b828201905092915050565b600073ffffffffffffffffffffffffffffffffffffffff82169050919050565b600062001e3d8262001e10565b9050919050565b62001e4f8162001e30565b82525050565b62001e608162001ae3565b82525050565b600081519050919050565b600082825260208201905092915050565b60005b8381101562001ea257808201518184015260208101905062001e85565b8381111562001eb2576000848401525b50505050565b6000601f19601f8301169050919050565b600062001ed68262001e66565b62001ee2818562001e71565b935062001ef481856020860162001e82565b62001eff8162001eb8565b840191505092915050565b600060808201905062001f21600083018762001e44565b62001f30602083018662001e44565b62001f3f604083018562001e55565b818103606083015262001f53818462001ec9565b905095945050505050565b600080fd5b60007fffffffff0000000000000000000000000000000000000000000000000000000082169050919050565b62001f9a8162001f63565b811462001fa657600080fd5b50565b60008151905062001fba8162001f8f565b92915050565b60006020828403121562001fd95762001fd862001f5e565b5b600062001fe98482850162001fa9565b91505092915050565b6000819050919050565b620020116200200b8262001ae3565b62001ff2565b82525050565b60008160601b9050919050565b6000620020318262002017565b9050919050565b6000620020458262002024565b9050919050565b620020616200205b8262001e30565b62002038565b82525050565b6000819050919050565b62002086620020808262001f63565b62002067565b82525050565b60006200209a828962001ffc565b602082019150620020ac828862001ffc565b602082019150620020be82876200204c565b601482019150620020d0828662001ffc565b602082019150620020e2828562002071565b600482019150620020f4828462001ffc565b602082019150819050979650505050505050565b7f4e487b7100000000000000000000000000000000000000000000000000000000600052601260045260246000fd5b6000620021448262001ae3565b9150620021518362001ae3565b92508262002164576200216362002108565b5b828206905092915050565b7f4e487b7100000000000000000000000000000000000000000000000000000000600052603260045260246000fd5b7f44657461696c48656c7065723a3a7069636b4974656d733a204e6f206974656d600082015250565b6000620021d660208362001c26565b9150620021e3826200219e565b602082019050919050565b600060208201905081810360008301526200220981620021c7565b9050919050565b7f53616665436173743a2076616c756520646f65736e27742066697420696e203860008201527f2062697473000000000000000000000000000000000000000000000000000000602082015250565b60006200226e60258362001c26565b91506200227b8262002210565b604082019050919050565b60006020820190508181036000830152620022a1816200225f565b9050919050565b7f4e487b7100000000000000000000000000000000000000000000000000000000600052602260045260246000fd5b60006002820490506001821680620022f057607f821691505b60208210811415620023075762002306620022a8565b5b50919050565b614294806200231d6000396000f3fe60806040526004361061014b5760003560e01c806370a08231116100b657806399d32fc41161006f57806399d32fc414610450578063a22cb4651461047b578063b88d4fde146104a4578063c87b56dd146104cd578063e985e9c51461050a578063f2fde38b146105475761014b565b806370a082311461033e578063715018a61461037b578063771282f6146103925780638da5cb5b146103bd5780639507d39a146103e857806395d89b41146104255761014b565b80632e75ab50116101085780632e75ab50146102725780633ccfd60b1461029b57806342842e0e146102a55780634e71d92d146102ce57806355f804b3146102d85780636352211e146103015761014b565b806301ffc9a71461015057806306fdde031461018d578063081812fc146101b8578063095ea7b3146101f557806318160ddd1461021e57806323b872dd14610249575b600080fd5b34801561015c57600080fd5b5061017760048036038101906101729190612bbd565b610570565b6040516101849190612c05565b60405180910390f35b34801561019957600080fd5b506101a2610652565b6040516101af9190612cb9565b60405180910390f35b3480156101c457600080fd5b506101df60048036038101906101da9190612d11565b6106e4565b6040516101ec9190612d7f565b60405180910390f35b34801561020157600080fd5b5061021c60048036038101906102179190612dc6565b610769565b005b34801561022a57600080fd5b50610233610881565b6040516102409190612e15565b60405180910390f35b34801561025557600080fd5b50610270600480360381019061026b9190612e30565b610887565b005b34801561027e57600080fd5b5061029960048036038101906102949190612d11565b6108e7565b005b6102a361096d565b005b3480156102b157600080fd5b506102cc60048036038101906102c79190612e30565b610a39565b005b6102d6610a59565b005b3480156102e457600080fd5b506102ff60048036038101906102fa9190612fb8565b610af8565b005b34801561030d57600080fd5b5061032860048036038101906103239190612d11565b610b8e565b6040516103359190612d7f565b60405180910390f35b34801561034a57600080fd5b5061036560048036038101906103609190613001565b610c40565b6040516103729190612e15565b60405180910390f35b34801561038757600080fd5b50610390610cf8565b005b34801561039e57600080fd5b506103a7610d80565b6040516103b49190612e15565b60405180910390f35b3480156103c957600080fd5b506103d2610d91565b6040516103df9190612d7f565b60405180910390f35b3480156103f457600080fd5b5061040f600480360381019061040a9190612d11565b610dbb565b60405161041c91906130ec565b60405180910390f35b34801561043157600080fd5b5061043a610f19565b6040516104479190612cb9565b60405180910390f35b34801561045c57600080fd5b50610465610fab565b6040516104729190612e15565b60405180910390f35b34801561048757600080fd5b506104a2600480360381019061049d9190613134565b610fb1565b005b3480156104b057600080fd5b506104cb60048036038101906104c69190613215565b611132565b005b3480156104d957600080fd5b506104f460048036038101906104ef9190612d11565b611194565b6040516105019190612cb9565b60405180910390f35b34801561051657600080fd5b50610531600480360381019061052c9190613298565b61123b565b60405161053e9190612c05565b60405180910390f35b34801561055357600080fd5b5061056e60048036038101906105699190613001565b6112cf565b005b60007f80ac58cd000000000000000000000000000000000000000000000000000000007bffffffffffffffffffffffffffffffffffffffffffffffffffffffff1916827bffffffffffffffffffffffffffffffffffffffffffffffffffffffff1916148061063b57507f5b5e139f000000000000000000000000000000000000000000000000000000007bffffffffffffffffffffffffffffffffffffffffffffffffffffffff1916827bffffffffffffffffffffffffffffffffffffffffffffffffffffffff1916145b8061064b575061064a82611473565b5b9050919050565b60606000805461066190613307565b80601f016020809104026020016040519081016040528092919081815260200182805461068d90613307565b80156106da5780601f106106af576101008083540402835291602001916106da565b820191906000526020600020905b8154815290600101906020018083116106bd57829003601f168201915b5050505050905090565b60006106ef826114dd565b61072e576040517f08c379a0000000000000000000000000000000000000000000000000000000008152600401610725906133ab565b60405180910390fd5b6004600083815260200190815260200160002060009054906101000a900473ffffffffffffffffffffffffffffffffffffffff169050919050565b600061077482610b8e565b90508073ffffffffffffffffffffffffffffffffffffffff168373ffffffffffffffffffffffffffffffffffffffff1614156107e5576040517f08c379a00000000000000000000000000000000000000000000000000000000081526004016107dc9061343d565b60405180910390fd5b8073ffffffffffffffffffffffffffffffffffffffff16610804611549565b73ffffffffffffffffffffffffffffffffffffffff16148061083357506108328161082d611549565b61123b565b5b610872576040517f08c379a0000000000000000000000000000000000000000000000000000000008152600401610869906134cf565b60405180910390fd5b61087c8383611551565b505050565b60135481565b610898610892611549565b8261160a565b6108d7576040517f08c379a00000000000000000000000000000000000000000000000000000000081526004016108ce90613561565b60405180910390fd5b6108e28383836116e8565b505050565b6108ef611549565b73ffffffffffffffffffffffffffffffffffffffff1661090d610d91565b73ffffffffffffffffffffffffffffffffffffffff1614610963576040517f08c379a000000000000000000000000000000000000000000000000000000000815260040161095a906135cd565b60405180910390fd5b8060128190555050565b610975611549565b73ffffffffffffffffffffffffffffffffffffffff16610993610d91565b73ffffffffffffffffffffffffffffffffffffffff16146109e9576040517f08c379a00000000000000000000000000000000000000000000000000000000081526004016109e0906135cd565b60405180910390fd5b6109f1610d91565b73ffffffffffffffffffffffffffffffffffffffff166108fc479081150290604051600060405180830381858888f19350505050158015610a36573d6000803e3d6000fd5b50565b610a5483838360405180602001604052806000815250611132565b505050565b6012543414610a9d576040517f08c379a0000000000000000000000000000000000000000000000000000000008152600401610a9490613639565b60405180910390fd5b610aa5611944565b50610aae610d91565b73ffffffffffffffffffffffffffffffffffffffff166108fc6012549081150290604051600060405180830381858888f19350505050158015610af5573d6000803e3d6000fd5b50565b610b00611549565b73ffffffffffffffffffffffffffffffffffffffff16610b1e610d91565b73ffffffffffffffffffffffffffffffffffffffff1614610b74576040517f08c379a0000000000000000000000000000000000000000000000000000000008152600401610b6b906135cd565b60405180910390fd5b8060119080519060200190610b8a929190612a51565b5050565b6000806002600084815260200190815260200160002060009054906101000a900473ffffffffffffffffffffffffffffffffffffffff169050600073ffffffffffffffffffffffffffffffffffffffff168173ffffffffffffffffffffffffffffffffffffffff161415610c37576040517f08c379a0000000000000000000000000000000000000000000000000000000008152600401610c2e906136cb565b60405180910390fd5b80915050919050565b60008073ffffffffffffffffffffffffffffffffffffffff168273ffffffffffffffffffffffffffffffffffffffff161415610cb1576040517f08c379a0000000000000000000000000000000000000000000000000000000008152600401610ca89061375d565b60405180910390fd5b600360008373ffffffffffffffffffffffffffffffffffffffff1673ffffffffffffffffffffffffffffffffffffffff168152602001908152602001600020549050919050565b610d00611549565b73ffffffffffffffffffffffffffffffffffffffff16610d1e610d91565b73ffffffffffffffffffffffffffffffffffffffff1614610d74576040517f08c379a0000000000000000000000000000000000000000000000000000000008152600401610d6b906135cd565b60405180910390fd5b610d7e6000611aac565b565b6000610d8c60146113c7565b905090565b6000601060009054906101000a900473ffffffffffffffffffffffffffffffffffffffff16905090565b610dc3612ad7565b610dcc826114dd565b610e0b576040517f08c379a0000000000000000000000000000000000000000000000000000000008152600401610e02906137c9565b60405180910390fd5b60156000838152602001908152602001600020604051806101000160405290816000820160009054906101000a900460ff1660ff1660ff1681526020016000820160019054906101000a900460ff1660ff1660ff1681526020016000820160029054906101000a900460ff1660ff1660ff1681526020016000820160039054906101000a900460ff1660ff1660ff1681526020016000820160049054906101000a900460ff1660ff1660ff1681526020016000820160059054906101000a900460ff1660ff1660ff1681526020016000820160069054906101000a900460ff1660ff1660ff1681526020016000820160079054906101000a900460ff1660ff1660ff16815250509050919050565b606060018054610f2890613307565b80601f0160208091040260200160405190810160405280929190818152602001828054610f5490613307565b8015610fa15780601f10610f7657610100808354040283529160200191610fa1565b820191906000526020600020905b815481529060010190602001808311610f8457829003601f168201915b5050505050905090565b60125481565b610fb9611549565b73ffffffffffffffffffffffffffffffffffffffff168273ffffffffffffffffffffffffffffffffffffffff161415611027576040517f08c379a000000000000000000000000000000000000000000000000000000000815260040161101e90613835565b60405180910390fd5b8060056000611034611549565b73ffffffffffffffffffffffffffffffffffffffff1673ffffffffffffffffffffffffffffffffffffffff16815260200190815260200160002060008473ffffffffffffffffffffffffffffffffffffffff1673ffffffffffffffffffffffffffffffffffffffff16815260200190815260200160002060006101000a81548160ff0219169083151502179055508173ffffffffffffffffffffffffffffffffffffffff166110e1611549565b73ffffffffffffffffffffffffffffffffffffffff167f17307eab39ab6107e8899845ad3d59bd9653f200f220920489ca2b5937696c31836040516111269190612c05565b60405180910390a35050565b61114361113d611549565b8361160a565b611182576040517f08c379a000000000000000000000000000000000000000000000000000000000815260040161117990613561565b60405180910390fd5b61118e84848484611b72565b50505050565b606061119f826114dd565b6111de576040517f08c379a00000000000000000000000000000000000000000000000000000000081526004016111d5906138c7565b60405180910390fd5b60006111e8611bce565b905060008151116112085760405180602001604052806000815250611233565b8061121284611c60565b604051602001611223929190613923565b6040516020818303038152906040525b915050919050565b6000600560008473ffffffffffffffffffffffffffffffffffffffff1673ffffffffffffffffffffffffffffffffffffffff16815260200190815260200160002060008373ffffffffffffffffffffffffffffffffffffffff1673ffffffffffffffffffffffffffffffffffffffff16815260200190815260200160002060009054906101000a900460ff16905092915050565b6112d7611549565b73ffffffffffffffffffffffffffffffffffffffff166112f5610d91565b73ffffffffffffffffffffffffffffffffffffffff161461134b576040517f08c379a0000000000000000000000000000000000000000000000000000000008152600401611342906135cd565b60405180910390fd5b600073ffffffffffffffffffffffffffffffffffffffff168173ffffffffffffffffffffffffffffffffffffffff1614156113bb576040517f08c379a00000000000000000000000000000000000000000000000000000000081526004016113b2906139b9565b60405180910390fd5b6113c481611aac565b50565b600081600001549050919050565b6001816000016000828254019250508190555050565b6000806113f9868685611dc1565b90506114058185611e22565b915050949350505050565b600080823b905060008111915050919050565b600060ff801682111561146b576040517f08c379a000000000000000000000000000000000000000000000000000000000815260040161146290613a4b565b60405180910390fd5b819050919050565b60007f01ffc9a7000000000000000000000000000000000000000000000000000000007bffffffffffffffffffffffffffffffffffffffffffffffffffffffff1916827bffffffffffffffffffffffffffffffffffffffffffffffffffffffff1916149050919050565b60008073ffffffffffffffffffffffffffffffffffffffff166002600084815260200190815260200160002060009054906101000a900473ffffffffffffffffffffffffffffffffffffffff1673ffffffffffffffffffffffffffffffffffffffff1614159050919050565b600033905090565b816004600083815260200190815260200160002060006101000a81548173ffffffffffffffffffffffffffffffffffffffff021916908373ffffffffffffffffffffffffffffffffffffffff160217905550808273ffffffffffffffffffffffffffffffffffffffff166115c483610b8e565b73ffffffffffffffffffffffffffffffffffffffff167f8c5be1e5ebec7d5bd14f71427d1e84f3dd0314c0f7b2291e5b200ac8c7c3b92560405160405180910390a45050565b6000611615826114dd565b611654576040517f08c379a000000000000000000000000000000000000000000000000000000000815260040161164b90613add565b60405180910390fd5b600061165f83610b8e565b90508073ffffffffffffffffffffffffffffffffffffffff168473ffffffffffffffffffffffffffffffffffffffff1614806116ce57508373ffffffffffffffffffffffffffffffffffffffff166116b6846106e4565b73ffffffffffffffffffffffffffffffffffffffff16145b806116df57506116de818561123b565b5b91505092915050565b8273ffffffffffffffffffffffffffffffffffffffff1661170882610b8e565b73ffffffffffffffffffffffffffffffffffffffff161461175e576040517f08c379a000000000000000000000000000000000000000000000000000000000815260040161175590613b6f565b60405180910390fd5b600073ffffffffffffffffffffffffffffffffffffffff168273ffffffffffffffffffffffffffffffffffffffff1614156117ce576040517f08c379a00000000000000000000000000000000000000000000000000000000081526004016117c590613c01565b60405180910390fd5b6117d9838383611eb7565b6117e4600082611551565b6001600360008573ffffffffffffffffffffffffffffffffffffffff1673ffffffffffffffffffffffffffffffffffffffff16815260200190815260200160002060008282546118349190613c50565b925050819055506001600360008473ffffffffffffffffffffffffffffffffffffffff1673ffffffffffffffffffffffffffffffffffffffff168152602001908152602001600020600082825461188b9190613c84565b92505081905550816002600083815260200190815260200160002060006101000a81548173ffffffffffffffffffffffffffffffffffffffff021916908373ffffffffffffffffffffffffffffffffffffffff160217905550808273ffffffffffffffffffffffffffffffffffffffff168473ffffffffffffffffffffffffffffffffffffffff167fddf252ad1be2c89b69c2b068fc378daa952ba7f163c4a11628f55a4df523b3ef60405160405180910390a4505050565b600060135461195360146113c7565b1061195d57600080fd5b61196760146113d5565b600061197360146113c7565b905061197d611ebc565b6015600083815260200190815260200160002060008201518160000160006101000a81548160ff021916908360ff16021790555060208201518160000160016101000a81548160ff021916908360ff16021790555060408201518160000160026101000a81548160ff021916908360ff16021790555060608201518160000160036101000a81548160ff021916908360ff16021790555060808201518160000160046101000a81548160ff021916908360ff16021790555060a08201518160000160056101000a81548160ff021916908360ff16021790555060c08201518160000160066101000a81548160ff021916908360ff16021790555060e08201518160000160076101000a81548160ff021916908360ff160217905550905050611aa53382611f5f565b8091505090565b6000601060009054906101000a900473ffffffffffffffffffffffffffffffffffffffff16905081601060006101000a81548173ffffffffffffffffffffffffffffffffffffffff021916908373ffffffffffffffffffffffffffffffffffffffff1602179055508173ffffffffffffffffffffffffffffffffffffffff168173ffffffffffffffffffffffffffffffffffffffff167f8be0079c531659141344cd1fd0a4f28419497f9722a3daafe3b4186f6b6457e060405160405180910390a35050565b611b7d8484846116e8565b611b8984848484611f7d565b611bc8576040517f08c379a0000000000000000000000000000000000000000000000000000000008152600401611bbf90613d4c565b60405180910390fd5b50505050565b606060118054611bdd90613307565b80601f0160208091040260200160405190810160405280929190818152602001828054611c0990613307565b8015611c565780601f10611c2b57610100808354040283529160200191611c56565b820191906000526020600020905b815481529060010190602001808311611c3957829003601f168201915b5050505050905090565b60606000821415611ca8576040518060400160405280600181526020017f30000000000000000000000000000000000000000000000000000000000000008152509050611dbc565b600082905060005b60008214611cda578080611cc390613d6c565b915050600a82611cd39190613de4565b9150611cb0565b60008167ffffffffffffffff811115611cf657611cf5612e8d565b5b6040519080825280601f01601f191660200182016040528015611d285781602001600182028036833780820191505090505b5090505b60008514611db557600182611d419190613c50565b9150600a85611d509190613e15565b6030611d5c9190613c84565b60f81b818381518110611d7257611d71613e46565b5b60200101907effffffffffffffffffffffffffffffffffffffffffffffffffffffffffffff1916908160001a905350600a85611dae9190613de4565b9450611d2c565b8093505050505b919050565b600060018085611dd19190613c84565b4443323a8789604051602001611dec96959493929190613eff565b6040516020818303038152906040528051906020012060001c611e0f9190613e15565b611e199190613c84565b90509392505050565b6000805b8251811015611e7557828181518110611e4257611e41613e46565b5b6020026020010151841115611e6257611e5a81611423565b915050611eb1565b8080611e6d90613d6c565b915050611e26565b506040517f08c379a0000000000000000000000000000000000000000000000000000000008152600401611ea890613fbb565b60405180910390fd5b92915050565b505050565b611ec4612ad7565b611ecc612ad7565b60005b600115611f5757611ede612105565b9150611ee9826121dc565b9050600115156007600083815260200190815260200160002060009054906101000a900460ff16151514611f485760016007600083815260200190815260200160002060006101000a81548160ff021916908315150217905550611f57565b611f50612ad7565b9150611ecf565b819250505090565b611f7982826040518060200160405280600081525061223d565b5050565b6000611f9e8473ffffffffffffffffffffffffffffffffffffffff16611410565b156120f8578373ffffffffffffffffffffffffffffffffffffffff1663150b7a02611fc7611549565b8786866040518563ffffffff1660e01b8152600401611fe99493929190614030565b6020604051808303816000875af192505050801561202557506040513d601f19601f820116820180604052508101906120229190614091565b60015b6120a8573d8060008114612055576040519150601f19603f3d011682016040523d82523d6000602084013e61205a565b606091505b506000815114156120a0576040517f08c379a000000000000000000000000000000000000000000000000000000000815260040161209790613d4c565b60405180910390fd5b805181602001fd5b63150b7a0260e01b7bffffffffffffffffffffffffffffffffffffffffffffffffffffffff1916817bffffffffffffffffffffffffffffffffffffffffffffffffffffffff1916149150506120fd565b600190505b949350505050565b61210d612ad7565b600080600080600080600080612121612298565b905060018160ff16101561215857612137612331565b809850819950829a50839b50849c50859d50869e505050505050505061217d565b61216061240f565b809850819950829a50839b50849c50859d50869e50505050505050505b6040518061010001604052808960ff1681526020018860ff1681526020018760ff1681526020018660ff1681526020018560ff1681526020018460ff1681526020018360ff1681526020018260ff168152509850505050505050505090565b6000816000015182602001518360400151846060015185608001518660a001518760c001518860e0015160405160200161221d9897969594939291906140f4565b6040516020818303038152906040528051906020012060001c9050919050565b6122478383612454565b6122546000848484611f7d565b612293576040517f08c379a000000000000000000000000000000000000000000000000000000000815260040161228a90613d4c565b60405180910390fd5b505050565b60006122a460066113d5565b61232c620186a06122b560066113c7565b600f80548060200260200160405190810160405280929190818152602001828054801561230157602002820191906000526020600020905b8154815260200190600101908083116122ed575b50505050507f73706563000000000000000000000000000000000000000000000000000000006113eb565b905090565b600080600080600080600080612345612622565b905060006123516126bb565b9050600061235d612754565b905060006123696127ed565b90506000612375612886565b9050600061238161291f565b905060018260ff1614156123b05785858585600086869c509c509c509c509c509c509c50505050505050612406565b600f8460ff1614156123dd5785858585600086869c509c509c509c509c509c509c50505050505050612406565b60006123e76129b8565b9050868686868487879d509d509d509d509d509d509d50505050505050505b90919293949596565b600080600080600080600080612423612622565b9050600061242f6126bb565b9050818160008060008060009850985098509850985098509850505090919293949596565b600073ffffffffffffffffffffffffffffffffffffffff168273ffffffffffffffffffffffffffffffffffffffff1614156124c4576040517f08c379a00000000000000000000000000000000000000000000000000000000081526004016124bb906141d2565b60405180910390fd5b6124cd816114dd565b1561250d576040517f08c379a00000000000000000000000000000000000000000000000000000000081526004016125049061423e565b60405180910390fd5b61251960008383611eb7565b6001600360008473ffffffffffffffffffffffffffffffffffffffff1673ffffffffffffffffffffffffffffffffffffffff16815260200190815260200160002060008282546125699190613c84565b92505081905550816002600083815260200190815260200160002060006101000a81548173ffffffffffffffffffffffffffffffffffffffff021916908373ffffffffffffffffffffffffffffffffffffffff160217905550808273ffffffffffffffffffffffffffffffffffffffff16600073ffffffffffffffffffffffffffffffffffffffff167fddf252ad1be2c89b69c2b068fc378daa952ba7f163c4a11628f55a4df523b3ef60405160405180910390a45050565b600061262e60066113d5565b6126b6620186a061263f60066113c7565b600880548060200260200160405190810160405280929190818152602001828054801561268b57602002820191906000526020600020905b815481526020019060010190808311612677575b50505050507f6261636b000000000000000000000000000000000000000000000000000000006113eb565b905090565b60006126c760066113d5565b61274f620186a06126d860066113c7565b600980548060200260200160405190810160405280929190818152602001828054801561272457602002820191906000526020600020905b815481526020019060010190808311612710575b50505050507f736b696e000000000000000000000000000000000000000000000000000000006113eb565b905090565b600061276060066113d5565b6127e8620186a061277160066113c7565b600a8054806020026020016040519081016040528092919081815260200182805480156127bd57602002820191906000526020600020905b8154815260200190600101908083116127a9575b50505050507f68617400000000000000000000000000000000000000000000000000000000006113eb565b905090565b60006127f960066113d5565b612881620186a061280a60066113c7565b600b80548060200260200160405190810160405280929190818152602001828054801561285657602002820191906000526020600020905b815481526020019060010190808311612842575b50505050507f65796500000000000000000000000000000000000000000000000000000000006113eb565b905090565b600061289260066113d5565b61291a620186a06128a360066113c7565b600d8054806020026020016040519081016040528092919081815260200182805480156128ef57602002820191906000526020600020905b8154815260200190600101908083116128db575b50505050507f636c6f74000000000000000000000000000000000000000000000000000000006113eb565b905090565b600061292b60066113d5565b6129b3620186a061293c60066113c7565b600e80548060200260200160405190810160405280929190818152602001828054801561298857602002820191906000526020600020905b815481526020019060010190808311612974575b50505050507f61726d73000000000000000000000000000000000000000000000000000000006113eb565b905090565b60006129c460066113d5565b612a4c620186a06129d560066113c7565b600c805480602002602001604051908101604052809291908181526020018280548015612a2157602002820191906000526020600020905b815481526020019060010190808311612a0d575b50505050507f6d6f7573000000000000000000000000000000000000000000000000000000006113eb565b905090565b828054612a5d90613307565b90600052602060002090601f016020900481019282612a7f5760008555612ac6565b82601f10612a9857805160ff1916838001178555612ac6565b82800160010185558215612ac6579182015b82811115612ac5578251825591602001919060010190612aaa565b5b509050612ad39190612b34565b5090565b604051806101000160405280600060ff168152602001600060ff168152602001600060ff168152602001600060ff168152602001600060ff168152602001600060ff168152602001600060ff168152602001600060ff1681525090565b5b80821115612b4d576000816000905550600101612b35565b5090565b6000604051905090565b600080fd5b600080fd5b60007fffffffff0000000000000000000000000000000000000000000000000000000082169050919050565b612b9a81612b65565b8114612ba557600080fd5b50565b600081359050612bb781612b91565b92915050565b600060208284031215612bd357612bd2612b5b565b5b6000612be184828501612ba8565b91505092915050565b60008115159050919050565b612bff81612bea565b82525050565b6000602082019050612c1a6000830184612bf6565b92915050565b600081519050919050565b600082825260208201905092915050565b60005b83811015612c5a578082015181840152602081019050612c3f565b83811115612c69576000848401525b50505050565b6000601f19601f8301169050919050565b6000612c8b82612c20565b612c958185612c2b565b9350612ca5818560208601612c3c565b612cae81612c6f565b840191505092915050565b60006020820190508181036000830152612cd38184612c80565b905092915050565b6000819050919050565b612cee81612cdb565b8114612cf957600080fd5b50565b600081359050612d0b81612ce5565b92915050565b600060208284031215612d2757612d26612b5b565b5b6000612d3584828501612cfc565b91505092915050565b600073ffffffffffffffffffffffffffffffffffffffff82169050919050565b6000612d6982612d3e565b9050919050565b612d7981612d5e565b82525050565b6000602082019050612d946000830184612d70565b92915050565b612da381612d5e565b8114612dae57600080fd5b50565b600081359050612dc081612d9a565b92915050565b60008060408385031215612ddd57612ddc612b5b565b5b6000612deb85828601612db1565b9250506020612dfc85828601612cfc565b9150509250929050565b612e0f81612cdb565b82525050565b6000602082019050612e2a6000830184612e06565b92915050565b600080600060608486031215612e4957612e48612b5b565b5b6000612e5786828701612db1565b9350506020612e6886828701612db1565b9250506040612e7986828701612cfc565b9150509250925092565b600080fd5b600080fd5b7f4e487b7100000000000000000000000000000000000000000000000000000000600052604160045260246000fd5b612ec582612c6f565b810181811067ffffffffffffffff82111715612ee457612ee3612e8d565b5b80604052505050565b6000612ef7612b51565b9050612f038282612ebc565b919050565b600067ffffffffffffffff821115612f2357612f22612e8d565b5b612f2c82612c6f565b9050602081019050919050565b82818337600083830152505050565b6000612f5b612f5684612f08565b612eed565b905082815260208101848484011115612f7757612f76612e88565b5b612f82848285612f39565b509392505050565b600082601f830112612f9f57612f9e612e83565b5b8135612faf848260208601612f48565b91505092915050565b600060208284031215612fce57612fcd612b5b565b5b600082013567ffffffffffffffff811115612fec57612feb612b60565b5b612ff884828501612f8a565b91505092915050565b60006020828403121561301757613016612b5b565b5b600061302584828501612db1565b91505092915050565b600060ff82169050919050565b6130448161302e565b82525050565b61010082016000820151613061600085018261303b565b506020820151613074602085018261303b565b506040820151613087604085018261303b565b50606082015161309a606085018261303b565b5060808201516130ad608085018261303b565b5060a08201516130c060a085018261303b565b5060c08201516130d360c085018261303b565b5060e08201516130e660e085018261303b565b50505050565b600061010082019050613102600083018461304a565b92915050565b61311181612bea565b811461311c57600080fd5b50565b60008135905061312e81613108565b92915050565b6000806040838503121561314b5761314a612b5b565b5b600061315985828601612db1565b925050602061316a8582860161311f565b9150509250929050565b600067ffffffffffffffff82111561318f5761318e612e8d565b5b61319882612c6f565b9050602081019050919050565b60006131b86131b384613174565b612eed565b9050828152602081018484840111156131d4576131d3612e88565b5b6131df848285612f39565b509392505050565b600082601f8301126131fc576131fb612e83565b5b813561320c8482602086016131a5565b91505092915050565b6000806000806080858703121561322f5761322e612b5b565b5b600061323d87828801612db1565b945050602061324e87828801612db1565b935050604061325f87828801612cfc565b925050606085013567ffffffffffffffff8111156132805761327f612b60565b5b61328c878288016131e7565b91505092959194509250565b600080604083850312156132af576132ae612b5b565b5b60006132bd85828601612db1565b92505060206132ce85828601612db1565b9150509250929050565b7f4e487b7100000000000000000000000000000000000000000000000000000000600052602260045260246000fd5b6000600282049050600182168061331f57607f821691505b60208210811415613333576133326132d8565b5b50919050565b7f4552433732313a20617070726f76656420717565727920666f72206e6f6e657860008201527f697374656e7420746f6b656e0000000000000000000000000000000000000000602082015250565b6000613395602c83612c2b565b91506133a082613339565b604082019050919050565b600060208201905081810360008301526133c481613388565b9050919050565b7f4552433732313a20617070726f76616c20746f2063757272656e74206f776e6560008201527f7200000000000000000000000000000000000000000000000000000000000000602082015250565b6000613427602183612c2b565b9150613432826133cb565b604082019050919050565b600060208201905081810360008301526134568161341a565b9050919050565b7f4552433732313a20617070726f76652063616c6c6572206973206e6f74206f7760008201527f6e6572206e6f7220617070726f76656420666f7220616c6c0000000000000000602082015250565b60006134b9603883612c2b565b91506134c48261345d565b604082019050919050565b600060208201905081810360008301526134e8816134ac565b9050919050565b7f4552433732313a207472616e736665722063616c6c6572206973206e6f74206f60008201527f776e6572206e6f7220617070726f766564000000000000000000000000000000602082015250565b600061354b603183612c2b565b9150613556826134ef565b604082019050919050565b6000602082019050818103600083015261357a8161353e565b9050919050565b7f4f776e61626c653a2063616c6c6572206973206e6f7420746865206f776e6572600082015250565b60006135b7602083612c2b565b91506135c282613581565b602082019050919050565b600060208201905081810360008301526135e6816135aa565b9050919050565b7f436c61696d696e672061204e465420636f737473206574686572000000000000600082015250565b6000613623601a83612c2b565b915061362e826135ed565b602082019050919050565b6000602082019050818103600083015261365281613616565b9050919050565b7f4552433732313a206f776e657220717565727920666f72206e6f6e657869737460008201527f656e7420746f6b656e0000000000000000000000000000000000000000000000602082015250565b60006136b5602983612c2b565b91506136c082613659565b604082019050919050565b600060208201905081810360008301526136e4816136a8565b9050919050565b7f4552433732313a2062616c616e636520717565727920666f7220746865207a6560008201527f726f206164647265737300000000000000000000000000000000000000000000602082015250565b6000613747602a83612c2b565b9150613752826136eb565b604082019050919050565b600060208201905081810360008301526137768161373a565b9050919050565b7f546f6b656e206e6f74206d696e74656420796574000000000000000000000000600082015250565b60006137b3601483612c2b565b91506137be8261377d565b602082019050919050565b600060208201905081810360008301526137e2816137a6565b9050919050565b7f4552433732313a20617070726f766520746f2063616c6c657200000000000000600082015250565b600061381f601983612c2b565b915061382a826137e9565b602082019050919050565b6000602082019050818103600083015261384e81613812565b9050919050565b7f4552433732314d657461646174613a2055524920717565727920666f72206e6f60008201527f6e6578697374656e7420746f6b656e0000000000000000000000000000000000602082015250565b60006138b1602f83612c2b565b91506138bc82613855565b604082019050919050565b600060208201905081810360008301526138e0816138a4565b9050919050565b600081905092915050565b60006138fd82612c20565b61390781856138e7565b9350613917818560208601612c3c565b80840191505092915050565b600061392f82856138f2565b915061393b82846138f2565b91508190509392505050565b7f4f776e61626c653a206e6577206f776e657220697320746865207a65726f206160008201527f6464726573730000000000000000000000000000000000000000000000000000602082015250565b60006139a3602683612c2b565b91506139ae82613947565b604082019050919050565b600060208201905081810360008301526139d281613996565b9050919050565b7f53616665436173743a2076616c756520646f65736e27742066697420696e203860008201527f2062697473000000000000000000000000000000000000000000000000000000602082015250565b6000613a35602583612c2b565b9150613a40826139d9565b604082019050919050565b60006020820190508181036000830152613a6481613a28565b9050919050565b7f4552433732313a206f70657261746f7220717565727920666f72206e6f6e657860008201527f697374656e7420746f6b656e0000000000000000000000000000000000000000602082015250565b6000613ac7602c83612c2b565b9150613ad282613a6b565b604082019050919050565b60006020820190508181036000830152613af681613aba565b9050919050565b7f4552433732313a207472616e73666572206f6620746f6b656e2074686174206960008201527f73206e6f74206f776e0000000000000000000000000000000000000000000000602082015250565b6000613b59602983612c2b565b9150613b6482613afd565b604082019050919050565b60006020820190508181036000830152613b8881613b4c565b9050919050565b7f4552433732313a207472616e7366657220746f20746865207a65726f2061646460008201527f7265737300000000000000000000000000000000000000000000000000000000602082015250565b6000613beb602483612c2b565b9150613bf682613b8f565b604082019050919050565b60006020820190508181036000830152613c1a81613bde565b9050919050565b7f4e487b7100000000000000000000000000000000000000000000000000000000600052601160045260246000fd5b6000613c5b82612cdb565b9150613c6683612cdb565b925082821015613c7957613c78613c21565b5b828203905092915050565b6000613c8f82612cdb565b9150613c9a83612cdb565b9250827fffffffffffffffffffffffffffffffffffffffffffffffffffffffffffffffff03821115613ccf57613cce613c21565b5b828201905092915050565b7f4552433732313a207472616e7366657220746f206e6f6e20455243373231526560008201527f63656976657220696d706c656d656e7465720000000000000000000000000000602082015250565b6000613d36603283612c2b565b9150613d4182613cda565b604082019050919050565b60006020820190508181036000830152613d6581613d29565b9050919050565b6000613d7782612cdb565b91507fffffffffffffffffffffffffffffffffffffffffffffffffffffffffffffffff821415613daa57613da9613c21565b5b600182019050919050565b7f4e487b7100000000000000000000000000000000000000000000000000000000600052601260045260246000fd5b6000613def82612cdb565b9150613dfa83612cdb565b925082613e0a57613e09613db5565b5b828204905092915050565b6000613e2082612cdb565b9150613e2b83612cdb565b925082613e3b57613e3a613db5565b5b828206905092915050565b7f4e487b7100000000000000000000000000000000000000000000000000000000600052603260045260246000fd5b6000819050919050565b613e90613e8b82612cdb565b613e75565b82525050565b60008160601b9050919050565b6000613eae82613e96565b9050919050565b6000613ec082613ea3565b9050919050565b613ed8613ed382612d5e565b613eb5565b82525050565b6000819050919050565b613ef9613ef482612b65565b613ede565b82525050565b6000613f0b8289613e7f565b602082019150613f1b8288613e7f565b602082019150613f2b8287613ec7565b601482019150613f3b8286613e7f565b602082019150613f4b8285613ee8565b600482019150613f5b8284613e7f565b602082019150819050979650505050505050565b7f44657461696c48656c7065723a3a7069636b4974656d733a204e6f206974656d600082015250565b6000613fa5602083612c2b565b9150613fb082613f6f565b602082019050919050565b60006020820190508181036000830152613fd481613f98565b9050919050565b600081519050919050565b600082825260208201905092915050565b600061400282613fdb565b61400c8185613fe6565b935061401c818560208601612c3c565b61402581612c6f565b840191505092915050565b60006080820190506140456000830187612d70565b6140526020830186612d70565b61405f6040830185612e06565b81810360608301526140718184613ff7565b905095945050505050565b60008151905061408b81612b91565b92915050565b6000602082840312156140a7576140a6612b5b565b5b60006140b58482850161407c565b91505092915050565b60008160f81b9050919050565b60006140d6826140be565b9050919050565b6140ee6140e98261302e565b6140cb565b82525050565b6000614100828b6140dd565b600182019150614110828a6140dd565b60018201915061412082896140dd565b60018201915061413082886140dd565b60018201915061414082876140dd565b60018201915061415082866140dd565b60018201915061416082856140dd565b60018201915061417082846140dd565b6001820191508190509998505050505050505050565b7f4552433732313a206d696e7420746f20746865207a65726f2061646472657373600082015250565b60006141bc602083612c2b565b91506141c782614186565b602082019050919050565b600060208201905081810360008301526141eb816141af565b9050919050565b7f4552433732313a20746f6b656e20616c7265616479206d696e74656400000000600082015250565b6000614228601c83612c2b565b9150614233826141f2565b602082019050919050565b600060208201905081810360008301526142578161421b565b905091905056fea2646970667358221220d3c5fb73eff06cf43d77c8595fad8814651c7b63c7cf0d33245d591cc7251bc564736f6c634300080a003368747470733a2f2f63727970746f6469636b732d6170692e6865726f6b756170702e636f6d2f746f6b656e2f",
  "immutableReferences": {},
  "source": "// SPDX-License-Identifier: MIT\n\npragma solidity >=0.8.3 <0.9.0;\n\nimport \"@openzeppelin/contracts/token/ERC721/ERC721.sol\";\nimport \"@openzeppelin/contracts/utils/Counters.sol\";\n\nimport \"./UniqueMetadata.sol\";\nimport \"./Managable.sol\";\n\n/// @title The main CryptoDicks ERC721 smart contract.\n/// @author juliencrn\n/// @dev Work in progress, not production ready yet.\ncontract CryptoDicks is ERC721, UniqueMetadata, Managable {\n    using Counters for Counters.Counter;\n\n    // Supply\n    uint256 public totalSupply = 10_000;\n    Counters.Counter internal _currentSupply;\n\n    // Mapping token ID to Metadata\n    mapping(uint256 => Metadata) idToMetadata;\n\n    constructor() ERC721(\"CryptoDicks\", \"DICK\") {\n        // Mint my own NFT tokens.\n        for (uint256 i = 0; i < 5; i++) {\n            mint();\n        }\n    }\n\n    /// Allow user to mint a token\n    /// @dev takes fees then calls mint() internally.\n    function claim() external payable {\n        require(msg.value == claimFee, \"Claiming a NFT costs ether\");\n\n        mint();\n\n        // Give ether to the contract owner\n        payable(owner()).transfer(claimFee);\n    }\n\n    /// For a a given token ID, returns its metadata\n    function get(uint256 _tokenId) external view returns (Metadata memory) {\n        require(_exists(_tokenId), \"Token not minted yet\");\n        return idToMetadata[_tokenId];\n    }\n\n    /// @return the current supply\n    function currentSupply() external view returns (uint256) {\n        return _currentSupply.current();\n    }\n\n    /// Mint a new NFT\n    /// @return Created token id\n    function mint() internal returns (uint256) {\n        require(_currentSupply.current() < totalSupply);\n\n        // Increment the token supply.\n        _currentSupply.increment();\n        uint256 newTokenId = _currentSupply.current();\n\n        // Generate and save metadata\n        idToMetadata[newTokenId] = _createUniqueMetadata();\n\n        // Finally, mint!\n        _safeMint(msg.sender, newTokenId);\n\n        return newTokenId;\n    }\n\n    /// Return the good baseURI overriding the ERC721 method\n    function _baseURI() internal view virtual override returns (string memory) {\n        return _currentBaseURI;\n    }\n}\n",
  "sourcePath": "/Users/juliencaron/www/ntf/ntf-collectible/contracts/CryptoDicks.sol",
  "compiler": {
    "name": "solc",
    "version": "0.8.10+commit.fc410830.Emscripten.clang"
  },
  "schemaVersion": "3.4.3",
  "updatedAt": "2021-12-04T01:04:00.534Z",
  "networkType": "ethereum",
  "devdoc": {
    "author": "juliencrn",
    "details": "Work in progress, not production ready yet.",
    "kind": "dev",
    "methods": {
      "approve(address,uint256)": {
        "details": "See {IERC721-approve}."
      },
      "balanceOf(address)": {
        "details": "See {IERC721-balanceOf}."
      },
      "claim()": {
        "details": "takes fees then calls mint() internally."
      },
      "currentSupply()": {
        "returns": {
          "_0": "the current supply"
        }
      },
      "getApproved(uint256)": {
        "details": "See {IERC721-getApproved}."
      },
      "isApprovedForAll(address,address)": {
        "details": "See {IERC721-isApprovedForAll}."
      },
      "name()": {
        "details": "See {IERC721Metadata-name}."
      },
      "owner()": {
        "details": "Returns the address of the current owner."
      },
      "ownerOf(uint256)": {
        "details": "See {IERC721-ownerOf}."
      },
      "renounceOwnership()": {
        "details": "Leaves the contract without owner. It will not be possible to call `onlyOwner` functions anymore. Can only be called by the current owner. NOTE: Renouncing ownership will leave the contract without an owner, thereby removing any functionality that is only available to the owner."
      },
      "safeTransferFrom(address,address,uint256)": {
        "details": "See {IERC721-safeTransferFrom}."
      },
      "safeTransferFrom(address,address,uint256,bytes)": {
        "details": "See {IERC721-safeTransferFrom}."
      },
      "setApprovalForAll(address,bool)": {
        "details": "See {IERC721-setApprovalForAll}."
      },
      "supportsInterface(bytes4)": {
        "details": "See {IERC165-supportsInterface}."
      },
      "symbol()": {
        "details": "See {IERC721Metadata-symbol}."
      },
      "tokenURI(uint256)": {
        "details": "See {IERC721Metadata-tokenURI}."
      },
      "transferFrom(address,address,uint256)": {
        "details": "See {IERC721-transferFrom}."
      },
      "transferOwnership(address)": {
        "details": "Transfers ownership of the contract to a new account (`newOwner`). Can only be called by the current owner."
      },
      "withdraw()": {
        "details": "Ether are stored in the contract when \"payable->transfer\" is invoked. TODO Add unit test"
      }
    },
    "title": "The main CryptoDicks ERC721 smart contract.",
    "version": 1
  },
  "userdoc": {
    "kind": "user",
    "methods": {
      "claim()": {
        "notice": "Allow user to mint a token"
      },
      "get(uint256)": {
        "notice": "For a a given token ID, returns its metadata"
      },
      "setBaseURI(string)": {
        "notice": "Allow owner to set new baseURI"
      },
      "setClaimFee(uint256)": {
        "notice": "Allow owner to set new mint fee price, ether price will change."
      },
      "withdraw()": {
        "notice": "Allow owner to withdraw contract balance."
      }
    },
    "version": 1
  }
}