{
  "contractName": "CryptoDicks",
  "abi": [
    {
      "inputs": [],
      "stateMutability": "nonpayable",
      "type": "constructor"
    },
    {
      "anonymous": false,
      "inputs": [
        {
          "indexed": true,
          "internalType": "address",
          "name": "owner",
          "type": "address"
        },
        {
          "indexed": true,
          "internalType": "address",
          "name": "approved",
          "type": "address"
        },
        {
          "indexed": true,
          "internalType": "uint256",
          "name": "tokenId",
          "type": "uint256"
        }
      ],
      "name": "Approval",
      "type": "event"
    },
    {
      "anonymous": false,
      "inputs": [
        {
          "indexed": true,
          "internalType": "address",
          "name": "owner",
          "type": "address"
        },
        {
          "indexed": true,
          "internalType": "address",
          "name": "operator",
          "type": "address"
        },
        {
          "indexed": false,
          "internalType": "bool",
          "name": "approved",
          "type": "bool"
        }
      ],
      "name": "ApprovalForAll",
      "type": "event"
    },
    {
      "anonymous": false,
      "inputs": [
        {
          "indexed": true,
          "internalType": "address",
          "name": "previousOwner",
          "type": "address"
        },
        {
          "indexed": true,
          "internalType": "address",
          "name": "newOwner",
          "type": "address"
        }
      ],
      "name": "OwnershipTransferred",
      "type": "event"
    },
    {
      "anonymous": false,
      "inputs": [
        {
          "indexed": true,
          "internalType": "address",
          "name": "from",
          "type": "address"
        },
        {
          "indexed": true,
          "internalType": "address",
          "name": "to",
          "type": "address"
        },
        {
          "indexed": true,
          "internalType": "uint256",
          "name": "tokenId",
          "type": "uint256"
        }
      ],
      "name": "Transfer",
      "type": "event"
    },
    {
      "inputs": [
        {
          "internalType": "address",
          "name": "to",
          "type": "address"
        },
        {
          "internalType": "uint256",
          "name": "tokenId",
          "type": "uint256"
        }
      ],
      "name": "approve",
      "outputs": [],
      "stateMutability": "nonpayable",
      "type": "function"
    },
    {
      "inputs": [
        {
          "internalType": "address",
          "name": "owner",
          "type": "address"
        }
      ],
      "name": "balanceOf",
      "outputs": [
        {
          "internalType": "uint256",
          "name": "",
          "type": "uint256"
        }
      ],
      "stateMutability": "view",
      "type": "function"
    },
    {
      "inputs": [],
      "name": "claimFee",
      "outputs": [
        {
          "internalType": "uint256",
          "name": "",
          "type": "uint256"
        }
      ],
      "stateMutability": "view",
      "type": "function"
    },
    {
      "inputs": [
        {
          "internalType": "uint256",
          "name": "tokenId",
          "type": "uint256"
        }
      ],
      "name": "getApproved",
      "outputs": [
        {
          "internalType": "address",
          "name": "",
          "type": "address"
        }
      ],
      "stateMutability": "view",
      "type": "function"
    },
    {
      "inputs": [
        {
          "internalType": "address",
          "name": "owner",
          "type": "address"
        },
        {
          "internalType": "address",
          "name": "operator",
          "type": "address"
        }
      ],
      "name": "isApprovedForAll",
      "outputs": [
        {
          "internalType": "bool",
          "name": "",
          "type": "bool"
        }
      ],
      "stateMutability": "view",
      "type": "function"
    },
    {
      "inputs": [],
      "name": "name",
      "outputs": [
        {
          "internalType": "string",
          "name": "",
          "type": "string"
        }
      ],
      "stateMutability": "view",
      "type": "function"
    },
    {
      "inputs": [],
      "name": "owner",
      "outputs": [
        {
          "internalType": "address",
          "name": "",
          "type": "address"
        }
      ],
      "stateMutability": "view",
      "type": "function"
    },
    {
      "inputs": [
        {
          "internalType": "uint256",
          "name": "tokenId",
          "type": "uint256"
        }
      ],
      "name": "ownerOf",
      "outputs": [
        {
          "internalType": "address",
          "name": "",
          "type": "address"
        }
      ],
      "stateMutability": "view",
      "type": "function"
    },
    {
      "inputs": [],
      "name": "renounceOwnership",
      "outputs": [],
      "stateMutability": "nonpayable",
      "type": "function"
    },
    {
      "inputs": [
        {
          "internalType": "address",
          "name": "from",
          "type": "address"
        },
        {
          "internalType": "address",
          "name": "to",
          "type": "address"
        },
        {
          "internalType": "uint256",
          "name": "tokenId",
          "type": "uint256"
        }
      ],
      "name": "safeTransferFrom",
      "outputs": [],
      "stateMutability": "nonpayable",
      "type": "function"
    },
    {
      "inputs": [
        {
          "internalType": "address",
          "name": "from",
          "type": "address"
        },
        {
          "internalType": "address",
          "name": "to",
          "type": "address"
        },
        {
          "internalType": "uint256",
          "name": "tokenId",
          "type": "uint256"
        },
        {
          "internalType": "bytes",
          "name": "_data",
          "type": "bytes"
        }
      ],
      "name": "safeTransferFrom",
      "outputs": [],
      "stateMutability": "nonpayable",
      "type": "function"
    },
    {
      "inputs": [
        {
          "internalType": "address",
          "name": "operator",
          "type": "address"
        },
        {
          "internalType": "bool",
          "name": "approved",
          "type": "bool"
        }
      ],
      "name": "setApprovalForAll",
      "outputs": [],
      "stateMutability": "nonpayable",
      "type": "function"
    },
    {
      "inputs": [
        {
          "internalType": "bytes4",
          "name": "interfaceId",
          "type": "bytes4"
        }
      ],
      "name": "supportsInterface",
      "outputs": [
        {
          "internalType": "bool",
          "name": "",
          "type": "bool"
        }
      ],
      "stateMutability": "view",
      "type": "function"
    },
    {
      "inputs": [],
      "name": "symbol",
      "outputs": [
        {
          "internalType": "string",
          "name": "",
          "type": "string"
        }
      ],
      "stateMutability": "view",
      "type": "function"
    },
    {
      "inputs": [
        {
          "internalType": "uint256",
          "name": "tokenId",
          "type": "uint256"
        }
      ],
      "name": "tokenURI",
      "outputs": [
        {
          "internalType": "string",
          "name": "",
          "type": "string"
        }
      ],
      "stateMutability": "view",
      "type": "function"
    },
    {
      "inputs": [],
      "name": "totalSupply",
      "outputs": [
        {
          "internalType": "uint256",
          "name": "",
          "type": "uint256"
        }
      ],
      "stateMutability": "view",
      "type": "function"
    },
    {
      "inputs": [
        {
          "internalType": "address",
          "name": "from",
          "type": "address"
        },
        {
          "internalType": "address",
          "name": "to",
          "type": "address"
        },
        {
          "internalType": "uint256",
          "name": "tokenId",
          "type": "uint256"
        }
      ],
      "name": "transferFrom",
      "outputs": [],
      "stateMutability": "nonpayable",
      "type": "function"
    },
    {
      "inputs": [
        {
          "internalType": "address",
          "name": "newOwner",
          "type": "address"
        }
      ],
      "name": "transferOwnership",
      "outputs": [],
      "stateMutability": "nonpayable",
      "type": "function"
    },
    {
      "inputs": [],
      "name": "claim",
      "outputs": [],
      "stateMutability": "payable",
      "type": "function"
    },
    {
      "inputs": [
        {
          "internalType": "uint256",
          "name": "_tokenId",
          "type": "uint256"
        }
      ],
      "name": "get",
      "outputs": [
        {
          "internalType": "uint8",
          "name": "background",
          "type": "uint8"
        },
        {
          "internalType": "uint8",
          "name": "skin",
          "type": "uint8"
        },
        {
          "internalType": "uint8",
          "name": "hat",
          "type": "uint8"
        },
        {
          "internalType": "uint8",
          "name": "eye",
          "type": "uint8"
        }
      ],
      "stateMutability": "view",
      "type": "function"
    },
    {
      "inputs": [],
      "name": "currentSupply",
      "outputs": [
        {
          "internalType": "uint256",
          "name": "",
          "type": "uint256"
        }
      ],
      "stateMutability": "view",
      "type": "function"
    }
  ],
  "bytecode": "0x60806040526127106009556040518060400160405280601681526020017f687474703a2f2f6c6f63616c686f73743a353030302f00000000000000000000815250600a90805190602001906200005792919062000b6f565b50662386f26fc10000600b553480156200007057600080fd5b506040518060400160405280600b81526020017f43727970746f4469636b730000000000000000000000000000000000000000008152506040518060400160405280600481526020017f4449434b00000000000000000000000000000000000000000000000000000000815250620000fd620000f16200016c60201b60201c565b6200017460201b60201c565b81600190805190602001906200011592919062000b6f565b5080600290805190602001906200012e92919062000b6f565b50505060005b600a81101562000165576200014e6200023860201b60201c565b5080806200015c9062000c8c565b91505062000134565b5062001387565b600033905090565b60008060009054906101000a900473ffffffffffffffffffffffffffffffffffffffff169050816000806101000a81548173ffffffffffffffffffffffffffffffffffffffff021916908373ffffffffffffffffffffffffffffffffffffffff1602179055508173ffffffffffffffffffffffffffffffffffffffff168173ffffffffffffffffffffffffffffffffffffffff167f8be0079c531659141344cd1fd0a4f28419497f9722a3daafe3b4186f6b6457e060405160405180910390a35050565b60006009546200025460076200035460201b6200110e1760201c565b106200025f57600080fd5b6200027660076200036260201b6200111c1760201c565b60006200028f60076200035460201b6200110e1760201c565b9050620002a16200037860201b60201c565b600c600083815260200190815260200160002060008201518160000160006101000a81548160ff021916908360ff16021790555060208201518160000160016101000a81548160ff021916908360ff16021790555060408201518160000160026101000a81548160ff021916908360ff16021790555060608201518160000160036101000a81548160ff021916908360ff1602179055509050506200034d33826200048360201b60201c565b8091505090565b600081600001549050919050565b6001816000016000828254019250508190555050565b6200038262000c00565b60008060008060005b6001156200044c57620003a3620004a960201b60201c565b8094508195508296508397505050505083838383604051602001620003cc949392919062000d23565b6040516020818303038152906040528051906020012060001c945060011515600d600087815260200190815260200160002060009054906101000a900460ff1615151462000446576001600d600087815260200190815260200160002060006101000a81548160ff0219169083151502179055506200044c565b6200038b565b60405180608001604052808560ff1681526020018460ff1681526020018360ff1681526020018260ff168152509550505050505090565b620004a58282604051806020016040528060008152506200050160201b60201c565b5050565b600080600080620004bf6200056f60201b60201c565b9350620004d16200056f60201b60201c565b9250620004e560036200063060201b60201c565b9150620004f960036200063060201b60201c565b905090919293565b6200051383836200066e60201b60201c565b6200052860008484846200085460201b60201c565b6200056a576040517f08c379a0000000000000000000000000000000000000000000000000000000008152600401620005619062000e00565b60405180910390fd5b505050565b60008062000582620009fe60201b60201c565b905060006103e88210156200059b576007905062000628565b611770821015620005b0576006905062000627565b613e80821015620005c5576005905062000626565b620101d0821015620005db576004905062000625565b62028870821015620005f1576003905062000624565b620595b082101562000607576002905062000623565b620a29908210156200061d576001905062000622565b600090505b5b5b5b5b5b5b809250505090565b6000620006678260ff166200064a620009fe60201b60201c565b62000656919062000e51565b62000a9860201b620011321760201c565b9050919050565b600073ffffffffffffffffffffffffffffffffffffffff168273ffffffffffffffffffffffffffffffffffffffff161415620006e1576040517f08c379a0000000000000000000000000000000000000000000000000000000008152600401620006d89062000ed9565b60405180910390fd5b620006f28162000aeb60201b60201c565b1562000735576040517f08c379a00000000000000000000000000000000000000000000000000000000081526004016200072c9062000f4b565b60405180910390fd5b620007496000838362000b5760201b60201c565b6001600460008473ffffffffffffffffffffffffffffffffffffffff1673ffffffffffffffffffffffffffffffffffffffff16815260200190815260200160002060008282546200079b919062000f6d565b92505081905550816003600083815260200190815260200160002060006101000a81548173ffffffffffffffffffffffffffffffffffffffff021916908373ffffffffffffffffffffffffffffffffffffffff160217905550808273ffffffffffffffffffffffffffffffffffffffff16600073ffffffffffffffffffffffffffffffffffffffff167fddf252ad1be2c89b69c2b068fc378daa952ba7f163c4a11628f55a4df523b3ef60405160405180910390a45050565b6000620008828473ffffffffffffffffffffffffffffffffffffffff1662000b5c60201b620011821760201c565b15620009f1578373ffffffffffffffffffffffffffffffffffffffff1663150b7a02620008b46200016c60201b60201c565b8786866040518563ffffffff1660e01b8152600401620008d89493929190620010c4565b6020604051808303816000875af19250505080156200091757506040513d601f19601f820116820180604052508101906200091491906200117a565b60015b620009a0573d80600081146200094a576040519150601f19603f3d011682016040523d82523d6000602084013e6200094f565b606091505b5060008151141562000998576040517f08c379a00000000000000000000000000000000000000000000000000000000081526004016200098f9062000e00565b60405180910390fd5b805181602001fd5b63150b7a0260e01b7bffffffffffffffffffffffffffffffffffffffffffffffffffffffff1916817bffffffffffffffffffffffffffffffffffffffffffffffffffffffff191614915050620009f6565b600190505b949350505050565b600062000a1760086200036260201b6200111c1760201c565b6000444262000a3260076200035460201b6200110e1760201c565b3362000a4a60086200035460201b6200110e1760201c565b60405160200162000a6095949392919062001221565b60405160208183030381529060405290506000818051906020012060001c9050620f42408162000a91919062000e51565b9250505090565b600060ff801682111562000ae3576040517f08c379a000000000000000000000000000000000000000000000000000000000815260040162000ada9062001300565b60405180910390fd5b819050919050565b60008073ffffffffffffffffffffffffffffffffffffffff166003600084815260200190815260200160002060009054906101000a900473ffffffffffffffffffffffffffffffffffffffff1673ffffffffffffffffffffffffffffffffffffffff1614159050919050565b505050565b600080823b905060008111915050919050565b82805462000b7d9062001351565b90600052602060002090601f01602090048101928262000ba1576000855562000bed565b82601f1062000bbc57805160ff191683800117855562000bed565b8280016001018555821562000bed579182015b8281111562000bec57825182559160200191906001019062000bcf565b5b50905062000bfc919062000c34565b5090565b6040518060800160405280600060ff168152602001600060ff168152602001600060ff168152602001600060ff1681525090565b5b8082111562000c4f57600081600090555060010162000c35565b5090565b7f4e487b7100000000000000000000000000000000000000000000000000000000600052601160045260246000fd5b6000819050919050565b600062000c998262000c82565b91507fffffffffffffffffffffffffffffffffffffffffffffffffffffffffffffffff82141562000ccf5762000cce62000c53565b5b600182019050919050565b600060ff82169050919050565b60008160f81b9050919050565b600062000d018262000ce7565b9050919050565b62000d1d62000d178262000cda565b62000cf4565b82525050565b600062000d31828762000d08565b60018201915062000d43828662000d08565b60018201915062000d55828562000d08565b60018201915062000d67828462000d08565b60018201915081905095945050505050565b600082825260208201905092915050565b7f4552433732313a207472616e7366657220746f206e6f6e20455243373231526560008201527f63656976657220696d706c656d656e7465720000000000000000000000000000602082015250565b600062000de860328362000d79565b915062000df58262000d8a565b604082019050919050565b6000602082019050818103600083015262000e1b8162000dd9565b9050919050565b7f4e487b7100000000000000000000000000000000000000000000000000000000600052601260045260246000fd5b600062000e5e8262000c82565b915062000e6b8362000c82565b92508262000e7e5762000e7d62000e22565b5b828206905092915050565b7f4552433732313a206d696e7420746f20746865207a65726f2061646472657373600082015250565b600062000ec160208362000d79565b915062000ece8262000e89565b602082019050919050565b6000602082019050818103600083015262000ef48162000eb2565b9050919050565b7f4552433732313a20746f6b656e20616c7265616479206d696e74656400000000600082015250565b600062000f33601c8362000d79565b915062000f408262000efb565b602082019050919050565b6000602082019050818103600083015262000f668162000f24565b9050919050565b600062000f7a8262000c82565b915062000f878362000c82565b9250827fffffffffffffffffffffffffffffffffffffffffffffffffffffffffffffffff0382111562000fbf5762000fbe62000c53565b5b828201905092915050565b600073ffffffffffffffffffffffffffffffffffffffff82169050919050565b600062000ff78262000fca565b9050919050565b620010098162000fea565b82525050565b6200101a8162000c82565b82525050565b600081519050919050565b600082825260208201905092915050565b60005b838110156200105c5780820151818401526020810190506200103f565b838111156200106c576000848401525b50505050565b6000601f19601f8301169050919050565b6000620010908262001020565b6200109c81856200102b565b9350620010ae8185602086016200103c565b620010b98162001072565b840191505092915050565b6000608082019050620010db600083018762000ffe565b620010ea602083018662000ffe565b620010f960408301856200100f565b81810360608301526200110d818462001083565b905095945050505050565b600080fd5b60007fffffffff0000000000000000000000000000000000000000000000000000000082169050919050565b62001154816200111d565b81146200116057600080fd5b50565b600081519050620011748162001149565b92915050565b60006020828403121562001193576200119262001118565b5b6000620011a38482850162001163565b91505092915050565b6000819050919050565b620011cb620011c58262000c82565b620011ac565b82525050565b60008160601b9050919050565b6000620011eb82620011d1565b9050919050565b6000620011ff82620011de565b9050919050565b6200121b620012158262000fea565b620011f2565b82525050565b60006200122f8288620011b6565b602082019150620012418287620011b6565b602082019150620012538286620011b6565b60208201915062001265828562001206565b601482019150620012778284620011b6565b6020820191508190509695505050505050565b7f53616665436173743a2076616c756520646f65736e27742066697420696e203860008201527f2062697473000000000000000000000000000000000000000000000000000000602082015250565b6000620012e860258362000d79565b9150620012f5826200128a565b604082019050919050565b600060208201905081810360008301526200131b81620012d9565b9050919050565b7f4e487b7100000000000000000000000000000000000000000000000000000000600052602260045260246000fd5b600060028204905060018216806200136a57607f821691505b6020821081141562001381576200138062001322565b5b50919050565b6135d780620013976000396000f3fe60806040526004361061012a5760003560e01c8063715018a6116100ab57806399d32fc41161006f57806399d32fc4146103d6578063a22cb46514610401578063b88d4fde1461042a578063c87b56dd14610453578063e985e9c514610490578063f2fde38b146104cd5761012a565b8063715018a6146102fe578063771282f6146103155780638da5cb5b146103405780639507d39a1461036b57806395d89b41146103ab5761012a565b806323b872dd116100f257806323b872dd1461022857806342842e0e146102515780634e71d92d1461027a5780636352211e1461028457806370a08231146102c15761012a565b806301ffc9a71461012f57806306fdde031461016c578063081812fc14610197578063095ea7b3146101d457806318160ddd146101fd575b600080fd5b34801561013b57600080fd5b5061015660048036038101906101519190612145565b6104f6565b604051610163919061218d565b60405180910390f35b34801561017857600080fd5b506101816105d8565b60405161018e9190612241565b60405180910390f35b3480156101a357600080fd5b506101be60048036038101906101b99190612299565b61066a565b6040516101cb9190612307565b60405180910390f35b3480156101e057600080fd5b506101fb60048036038101906101f6919061234e565b6106ef565b005b34801561020957600080fd5b50610212610807565b60405161021f919061239d565b60405180910390f35b34801561023457600080fd5b5061024f600480360381019061024a91906123b8565b61080d565b005b34801561025d57600080fd5b50610278600480360381019061027391906123b8565b61086d565b005b61028261088d565b005b34801561029057600080fd5b506102ab60048036038101906102a69190612299565b61092c565b6040516102b89190612307565b60405180910390f35b3480156102cd57600080fd5b506102e860048036038101906102e3919061240b565b6109de565b6040516102f5919061239d565b60405180910390f35b34801561030a57600080fd5b50610313610a96565b005b34801561032157600080fd5b5061032a610b1e565b604051610337919061239d565b60405180910390f35b34801561034c57600080fd5b50610355610b2f565b6040516103629190612307565b60405180910390f35b34801561037757600080fd5b50610392600480360381019061038d9190612299565b610b58565b6040516103a29493929190612454565b60405180910390f35b3480156103b757600080fd5b506103c0610c60565b6040516103cd9190612241565b60405180910390f35b3480156103e257600080fd5b506103eb610cf2565b6040516103f8919061239d565b60405180910390f35b34801561040d57600080fd5b50610428600480360381019061042391906124c5565b610cf8565b005b34801561043657600080fd5b50610451600480360381019061044c919061263a565b610e79565b005b34801561045f57600080fd5b5061047a60048036038101906104759190612299565b610edb565b6040516104879190612241565b60405180910390f35b34801561049c57600080fd5b506104b760048036038101906104b291906126bd565b610f82565b6040516104c4919061218d565b60405180910390f35b3480156104d957600080fd5b506104f460048036038101906104ef919061240b565b611016565b005b60007f80ac58cd000000000000000000000000000000000000000000000000000000007bffffffffffffffffffffffffffffffffffffffffffffffffffffffff1916827bffffffffffffffffffffffffffffffffffffffffffffffffffffffff191614806105c157507f5b5e139f000000000000000000000000000000000000000000000000000000007bffffffffffffffffffffffffffffffffffffffffffffffffffffffff1916827bffffffffffffffffffffffffffffffffffffffffffffffffffffffff1916145b806105d157506105d082611195565b5b9050919050565b6060600180546105e79061272c565b80601f01602080910402602001604051908101604052809291908181526020018280546106139061272c565b80156106605780601f1061063557610100808354040283529160200191610660565b820191906000526020600020905b81548152906001019060200180831161064357829003601f168201915b5050505050905090565b6000610675826111ff565b6106b4576040517f08c379a00000000000000000000000000000000000000000000000000000000081526004016106ab906127d0565b60405180910390fd5b6005600083815260200190815260200160002060009054906101000a900473ffffffffffffffffffffffffffffffffffffffff169050919050565b60006106fa8261092c565b90508073ffffffffffffffffffffffffffffffffffffffff168373ffffffffffffffffffffffffffffffffffffffff16141561076b576040517f08c379a000000000000000000000000000000000000000000000000000000000815260040161076290612862565b60405180910390fd5b8073ffffffffffffffffffffffffffffffffffffffff1661078a61126b565b73ffffffffffffffffffffffffffffffffffffffff1614806107b957506107b8816107b361126b565b610f82565b5b6107f8576040517f08c379a00000000000000000000000000000000000000000000000000000000081526004016107ef906128f4565b60405180910390fd5b6108028383611273565b505050565b60095481565b61081e61081861126b565b8261132c565b61085d576040517f08c379a000000000000000000000000000000000000000000000000000000000815260040161085490612986565b60405180910390fd5b61086883838361140a565b505050565b61088883838360405180602001604052806000815250610e79565b505050565b600b5434146108d1576040517f08c379a00000000000000000000000000000000000000000000000000000000081526004016108c8906129f2565b60405180910390fd5b6108d9611666565b506108e2610b2f565b73ffffffffffffffffffffffffffffffffffffffff166108fc600b549081150290604051600060405180830381858888f19350505050158015610929573d6000803e3d6000fd5b50565b6000806003600084815260200190815260200160002060009054906101000a900473ffffffffffffffffffffffffffffffffffffffff169050600073ffffffffffffffffffffffffffffffffffffffff168173ffffffffffffffffffffffffffffffffffffffff1614156109d5576040517f08c379a00000000000000000000000000000000000000000000000000000000081526004016109cc90612a84565b60405180910390fd5b80915050919050565b60008073ffffffffffffffffffffffffffffffffffffffff168273ffffffffffffffffffffffffffffffffffffffff161415610a4f576040517f08c379a0000000000000000000000000000000000000000000000000000000008152600401610a4690612b16565b60405180910390fd5b600460008373ffffffffffffffffffffffffffffffffffffffff1673ffffffffffffffffffffffffffffffffffffffff168152602001908152602001600020549050919050565b610a9e61126b565b73ffffffffffffffffffffffffffffffffffffffff16610abc610b2f565b73ffffffffffffffffffffffffffffffffffffffff1614610b12576040517f08c379a0000000000000000000000000000000000000000000000000000000008152600401610b0990612b82565b60405180910390fd5b610b1c600061174a565b565b6000610b2a600761110e565b905090565b60008060009054906101000a900473ffffffffffffffffffffffffffffffffffffffff16905090565b600080600080610b67856111ff565b610ba6576040517f08c379a0000000000000000000000000000000000000000000000000000000008152600401610b9d90612bee565b60405180910390fd5b6000600c60008781526020019081526020016000206040518060800160405290816000820160009054906101000a900460ff1660ff1660ff1681526020016000820160019054906101000a900460ff1660ff1660ff1681526020016000820160029054906101000a900460ff1660ff1660ff1681526020016000820160039054906101000a900460ff1660ff1660ff1681525050905080600001519450806020015193508060400151925080606001519150509193509193565b606060028054610c6f9061272c565b80601f0160208091040260200160405190810160405280929190818152602001828054610c9b9061272c565b8015610ce85780601f10610cbd57610100808354040283529160200191610ce8565b820191906000526020600020905b815481529060010190602001808311610ccb57829003601f168201915b5050505050905090565b600b5481565b610d0061126b565b73ffffffffffffffffffffffffffffffffffffffff168273ffffffffffffffffffffffffffffffffffffffff161415610d6e576040517f08c379a0000000000000000000000000000000000000000000000000000000008152600401610d6590612c5a565b60405180910390fd5b8060066000610d7b61126b565b73ffffffffffffffffffffffffffffffffffffffff1673ffffffffffffffffffffffffffffffffffffffff16815260200190815260200160002060008473ffffffffffffffffffffffffffffffffffffffff1673ffffffffffffffffffffffffffffffffffffffff16815260200190815260200160002060006101000a81548160ff0219169083151502179055508173ffffffffffffffffffffffffffffffffffffffff16610e2861126b565b73ffffffffffffffffffffffffffffffffffffffff167f17307eab39ab6107e8899845ad3d59bd9653f200f220920489ca2b5937696c3183604051610e6d919061218d565b60405180910390a35050565b610e8a610e8461126b565b8361132c565b610ec9576040517f08c379a0000000000000000000000000000000000000000000000000000000008152600401610ec090612986565b60405180910390fd5b610ed58484848461180e565b50505050565b6060610ee6826111ff565b610f25576040517f08c379a0000000000000000000000000000000000000000000000000000000008152600401610f1c90612cec565b60405180910390fd5b6000610f2f61186a565b90506000815111610f4f5760405180602001604052806000815250610f7a565b80610f59846118fc565b604051602001610f6a929190612d48565b6040516020818303038152906040525b915050919050565b6000600660008473ffffffffffffffffffffffffffffffffffffffff1673ffffffffffffffffffffffffffffffffffffffff16815260200190815260200160002060008373ffffffffffffffffffffffffffffffffffffffff1673ffffffffffffffffffffffffffffffffffffffff16815260200190815260200160002060009054906101000a900460ff16905092915050565b61101e61126b565b73ffffffffffffffffffffffffffffffffffffffff1661103c610b2f565b73ffffffffffffffffffffffffffffffffffffffff1614611092576040517f08c379a000000000000000000000000000000000000000000000000000000000815260040161108990612b82565b60405180910390fd5b600073ffffffffffffffffffffffffffffffffffffffff168173ffffffffffffffffffffffffffffffffffffffff161415611102576040517f08c379a00000000000000000000000000000000000000000000000000000000081526004016110f990612dde565b60405180910390fd5b61110b8161174a565b50565b600081600001549050919050565b6001816000016000828254019250508190555050565b600060ff801682111561117a576040517f08c379a000000000000000000000000000000000000000000000000000000000815260040161117190612e70565b60405180910390fd5b819050919050565b600080823b905060008111915050919050565b60007f01ffc9a7000000000000000000000000000000000000000000000000000000007bffffffffffffffffffffffffffffffffffffffffffffffffffffffff1916827bffffffffffffffffffffffffffffffffffffffffffffffffffffffff1916149050919050565b60008073ffffffffffffffffffffffffffffffffffffffff166003600084815260200190815260200160002060009054906101000a900473ffffffffffffffffffffffffffffffffffffffff1673ffffffffffffffffffffffffffffffffffffffff1614159050919050565b600033905090565b816005600083815260200190815260200160002060006101000a81548173ffffffffffffffffffffffffffffffffffffffff021916908373ffffffffffffffffffffffffffffffffffffffff160217905550808273ffffffffffffffffffffffffffffffffffffffff166112e68361092c565b73ffffffffffffffffffffffffffffffffffffffff167f8c5be1e5ebec7d5bd14f71427d1e84f3dd0314c0f7b2291e5b200ac8c7c3b92560405160405180910390a45050565b6000611337826111ff565b611376576040517f08c379a000000000000000000000000000000000000000000000000000000000815260040161136d90612f02565b60405180910390fd5b60006113818361092c565b90508073ffffffffffffffffffffffffffffffffffffffff168473ffffffffffffffffffffffffffffffffffffffff1614806113f057508373ffffffffffffffffffffffffffffffffffffffff166113d88461066a565b73ffffffffffffffffffffffffffffffffffffffff16145b8061140157506114008185610f82565b5b91505092915050565b8273ffffffffffffffffffffffffffffffffffffffff1661142a8261092c565b73ffffffffffffffffffffffffffffffffffffffff1614611480576040517f08c379a000000000000000000000000000000000000000000000000000000000815260040161147790612f94565b60405180910390fd5b600073ffffffffffffffffffffffffffffffffffffffff168273ffffffffffffffffffffffffffffffffffffffff1614156114f0576040517f08c379a00000000000000000000000000000000000000000000000000000000081526004016114e790613026565b60405180910390fd5b6114fb838383611a5d565b611506600082611273565b6001600460008573ffffffffffffffffffffffffffffffffffffffff1673ffffffffffffffffffffffffffffffffffffffff16815260200190815260200160002060008282546115569190613075565b925050819055506001600460008473ffffffffffffffffffffffffffffffffffffffff1673ffffffffffffffffffffffffffffffffffffffff16815260200190815260200160002060008282546115ad91906130a9565b92505081905550816003600083815260200190815260200160002060006101000a81548173ffffffffffffffffffffffffffffffffffffffff021916908373ffffffffffffffffffffffffffffffffffffffff160217905550808273ffffffffffffffffffffffffffffffffffffffff168473ffffffffffffffffffffffffffffffffffffffff167fddf252ad1be2c89b69c2b068fc378daa952ba7f163c4a11628f55a4df523b3ef60405160405180910390a4505050565b6000600954611675600761110e565b1061167f57600080fd5b611689600761111c565b6000611695600761110e565b905061169f611a62565b600c600083815260200190815260200160002060008201518160000160006101000a81548160ff021916908360ff16021790555060208201518160000160016101000a81548160ff021916908360ff16021790555060408201518160000160026101000a81548160ff021916908360ff16021790555060608201518160000160036101000a81548160ff021916908360ff1602179055509050506117433382611b5d565b8091505090565b60008060009054906101000a900473ffffffffffffffffffffffffffffffffffffffff169050816000806101000a81548173ffffffffffffffffffffffffffffffffffffffff021916908373ffffffffffffffffffffffffffffffffffffffff1602179055508173ffffffffffffffffffffffffffffffffffffffff168173ffffffffffffffffffffffffffffffffffffffff167f8be0079c531659141344cd1fd0a4f28419497f9722a3daafe3b4186f6b6457e060405160405180910390a35050565b61181984848461140a565b61182584848484611b7b565b611864576040517f08c379a000000000000000000000000000000000000000000000000000000000815260040161185b90613171565b60405180910390fd5b50505050565b6060600a80546118799061272c565b80601f01602080910402602001604051908101604052809291908181526020018280546118a59061272c565b80156118f25780601f106118c7576101008083540402835291602001916118f2565b820191906000526020600020905b8154815290600101906020018083116118d557829003601f168201915b5050505050905090565b60606000821415611944576040518060400160405280600181526020017f30000000000000000000000000000000000000000000000000000000000000008152509050611a58565b600082905060005b6000821461197657808061195f90613191565b915050600a8261196f9190613209565b915061194c565b60008167ffffffffffffffff8111156119925761199161250f565b5b6040519080825280601f01601f1916602001820160405280156119c45781602001600182028036833780820191505090505b5090505b60008514611a51576001826119dd9190613075565b9150600a856119ec919061323a565b60306119f891906130a9565b60f81b818381518110611a0e57611a0d61326b565b5b60200101907effffffffffffffffffffffffffffffffffffffffffffffffffffffffffffff1916908160001a905350600a85611a4a9190613209565b94506119c8565b8093505050505b919050565b505050565b611a6a6120a5565b60008060008060005b600115611b2657611a82611d03565b8094508195508296508397505050505083838383604051602001611aa994939291906132d0565b6040516020818303038152906040528051906020012060001c945060011515600d600087815260200190815260200160002060009054906101000a900460ff16151514611b21576001600d600087815260200190815260200160002060006101000a81548160ff021916908315150217905550611b26565b611a73565b60405180608001604052808560ff1681526020018460ff1681526020018360ff1681526020018260ff168152509550505050505090565b611b77828260405180602001604052806000815250611d3b565b5050565b6000611b9c8473ffffffffffffffffffffffffffffffffffffffff16611182565b15611cf6578373ffffffffffffffffffffffffffffffffffffffff1663150b7a02611bc561126b565b8786866040518563ffffffff1660e01b8152600401611be79493929190613373565b6020604051808303816000875af1925050508015611c2357506040513d601f19601f82011682018060405250810190611c2091906133d4565b60015b611ca6573d8060008114611c53576040519150601f19603f3d011682016040523d82523d6000602084013e611c58565b606091505b50600081511415611c9e576040517f08c379a0000000000000000000000000000000000000000000000000000000008152600401611c9590613171565b60405180910390fd5b805181602001fd5b63150b7a0260e01b7bffffffffffffffffffffffffffffffffffffffffffffffffffffffff1916817bffffffffffffffffffffffffffffffffffffffffffffffffffffffff191614915050611cfb565b600190505b949350505050565b600080600080611d11611d96565b9350611d1b611d96565b9250611d276003611e41565b9150611d336003611e41565b905090919293565b611d458383611e68565b611d526000848484611b7b565b611d91576040517f08c379a0000000000000000000000000000000000000000000000000000000008152600401611d8890613171565b60405180910390fd5b505050565b600080611da1612036565b905060006103e8821015611db85760079050611e39565b611770821015611dcb5760069050611e38565b613e80821015611dde5760059050611e37565b620101d0821015611df25760049050611e36565b62028870821015611e065760039050611e35565b620595b0821015611e1a5760029050611e34565b620a2990821015611e2e5760019050611e33565b600090505b5b5b5b5b5b5b809250505090565b6000611e618260ff16611e52612036565b611e5c919061323a565b611132565b9050919050565b600073ffffffffffffffffffffffffffffffffffffffff168273ffffffffffffffffffffffffffffffffffffffff161415611ed8576040517f08c379a0000000000000000000000000000000000000000000000000000000008152600401611ecf9061344d565b60405180910390fd5b611ee1816111ff565b15611f21576040517f08c379a0000000000000000000000000000000000000000000000000000000008152600401611f18906134b9565b60405180910390fd5b611f2d60008383611a5d565b6001600460008473ffffffffffffffffffffffffffffffffffffffff1673ffffffffffffffffffffffffffffffffffffffff1681526020019081526020016000206000828254611f7d91906130a9565b92505081905550816003600083815260200190815260200160002060006101000a81548173ffffffffffffffffffffffffffffffffffffffff021916908373ffffffffffffffffffffffffffffffffffffffff160217905550808273ffffffffffffffffffffffffffffffffffffffff16600073ffffffffffffffffffffffffffffffffffffffff167fddf252ad1be2c89b69c2b068fc378daa952ba7f163c4a11628f55a4df523b3ef60405160405180910390a45050565b6000612042600861111c565b60004442612050600761110e565b3361205b600861110e565b60405160200161206f959493929190613542565b60405160208183030381529060405290506000818051906020012060001c9050620f42408161209e919061323a565b9250505090565b6040518060800160405280600060ff168152602001600060ff168152602001600060ff168152602001600060ff1681525090565b6000604051905090565b600080fd5b600080fd5b60007fffffffff0000000000000000000000000000000000000000000000000000000082169050919050565b612122816120ed565b811461212d57600080fd5b50565b60008135905061213f81612119565b92915050565b60006020828403121561215b5761215a6120e3565b5b600061216984828501612130565b91505092915050565b60008115159050919050565b61218781612172565b82525050565b60006020820190506121a2600083018461217e565b92915050565b600081519050919050565b600082825260208201905092915050565b60005b838110156121e25780820151818401526020810190506121c7565b838111156121f1576000848401525b50505050565b6000601f19601f8301169050919050565b6000612213826121a8565b61221d81856121b3565b935061222d8185602086016121c4565b612236816121f7565b840191505092915050565b6000602082019050818103600083015261225b8184612208565b905092915050565b6000819050919050565b61227681612263565b811461228157600080fd5b50565b6000813590506122938161226d565b92915050565b6000602082840312156122af576122ae6120e3565b5b60006122bd84828501612284565b91505092915050565b600073ffffffffffffffffffffffffffffffffffffffff82169050919050565b60006122f1826122c6565b9050919050565b612301816122e6565b82525050565b600060208201905061231c60008301846122f8565b92915050565b61232b816122e6565b811461233657600080fd5b50565b60008135905061234881612322565b92915050565b60008060408385031215612365576123646120e3565b5b600061237385828601612339565b925050602061238485828601612284565b9150509250929050565b61239781612263565b82525050565b60006020820190506123b2600083018461238e565b92915050565b6000806000606084860312156123d1576123d06120e3565b5b60006123df86828701612339565b93505060206123f086828701612339565b925050604061240186828701612284565b9150509250925092565b600060208284031215612421576124206120e3565b5b600061242f84828501612339565b91505092915050565b600060ff82169050919050565b61244e81612438565b82525050565b60006080820190506124696000830187612445565b6124766020830186612445565b6124836040830185612445565b6124906060830184612445565b95945050505050565b6124a281612172565b81146124ad57600080fd5b50565b6000813590506124bf81612499565b92915050565b600080604083850312156124dc576124db6120e3565b5b60006124ea85828601612339565b92505060206124fb858286016124b0565b9150509250929050565b600080fd5b600080fd5b7f4e487b7100000000000000000000000000000000000000000000000000000000600052604160045260246000fd5b612547826121f7565b810181811067ffffffffffffffff821117156125665761256561250f565b5b80604052505050565b60006125796120d9565b9050612585828261253e565b919050565b600067ffffffffffffffff8211156125a5576125a461250f565b5b6125ae826121f7565b9050602081019050919050565b82818337600083830152505050565b60006125dd6125d88461258a565b61256f565b9050828152602081018484840111156125f9576125f861250a565b5b6126048482856125bb565b509392505050565b600082601f83011261262157612620612505565b5b81356126318482602086016125ca565b91505092915050565b60008060008060808587031215612654576126536120e3565b5b600061266287828801612339565b945050602061267387828801612339565b935050604061268487828801612284565b925050606085013567ffffffffffffffff8111156126a5576126a46120e8565b5b6126b18782880161260c565b91505092959194509250565b600080604083850312156126d4576126d36120e3565b5b60006126e285828601612339565b92505060206126f385828601612339565b9150509250929050565b7f4e487b7100000000000000000000000000000000000000000000000000000000600052602260045260246000fd5b6000600282049050600182168061274457607f821691505b60208210811415612758576127576126fd565b5b50919050565b7f4552433732313a20617070726f76656420717565727920666f72206e6f6e657860008201527f697374656e7420746f6b656e0000000000000000000000000000000000000000602082015250565b60006127ba602c836121b3565b91506127c58261275e565b604082019050919050565b600060208201905081810360008301526127e9816127ad565b9050919050565b7f4552433732313a20617070726f76616c20746f2063757272656e74206f776e6560008201527f7200000000000000000000000000000000000000000000000000000000000000602082015250565b600061284c6021836121b3565b9150612857826127f0565b604082019050919050565b6000602082019050818103600083015261287b8161283f565b9050919050565b7f4552433732313a20617070726f76652063616c6c6572206973206e6f74206f7760008201527f6e6572206e6f7220617070726f76656420666f7220616c6c0000000000000000602082015250565b60006128de6038836121b3565b91506128e982612882565b604082019050919050565b6000602082019050818103600083015261290d816128d1565b9050919050565b7f4552433732313a207472616e736665722063616c6c6572206973206e6f74206f60008201527f776e6572206e6f7220617070726f766564000000000000000000000000000000602082015250565b60006129706031836121b3565b915061297b82612914565b604082019050919050565b6000602082019050818103600083015261299f81612963565b9050919050565b7f436c61696d696e672061204e465420636f737473206574686572000000000000600082015250565b60006129dc601a836121b3565b91506129e7826129a6565b602082019050919050565b60006020820190508181036000830152612a0b816129cf565b9050919050565b7f4552433732313a206f776e657220717565727920666f72206e6f6e657869737460008201527f656e7420746f6b656e0000000000000000000000000000000000000000000000602082015250565b6000612a6e6029836121b3565b9150612a7982612a12565b604082019050919050565b60006020820190508181036000830152612a9d81612a61565b9050919050565b7f4552433732313a2062616c616e636520717565727920666f7220746865207a6560008201527f726f206164647265737300000000000000000000000000000000000000000000602082015250565b6000612b00602a836121b3565b9150612b0b82612aa4565b604082019050919050565b60006020820190508181036000830152612b2f81612af3565b9050919050565b7f4f776e61626c653a2063616c6c6572206973206e6f7420746865206f776e6572600082015250565b6000612b6c6020836121b3565b9150612b7782612b36565b602082019050919050565b60006020820190508181036000830152612b9b81612b5f565b9050919050565b7f546f6b656e206e6f74206d696e74656420796574000000000000000000000000600082015250565b6000612bd86014836121b3565b9150612be382612ba2565b602082019050919050565b60006020820190508181036000830152612c0781612bcb565b9050919050565b7f4552433732313a20617070726f766520746f2063616c6c657200000000000000600082015250565b6000612c446019836121b3565b9150612c4f82612c0e565b602082019050919050565b60006020820190508181036000830152612c7381612c37565b9050919050565b7f4552433732314d657461646174613a2055524920717565727920666f72206e6f60008201527f6e6578697374656e7420746f6b656e0000000000000000000000000000000000602082015250565b6000612cd6602f836121b3565b9150612ce182612c7a565b604082019050919050565b60006020820190508181036000830152612d0581612cc9565b9050919050565b600081905092915050565b6000612d22826121a8565b612d2c8185612d0c565b9350612d3c8185602086016121c4565b80840191505092915050565b6000612d548285612d17565b9150612d608284612d17565b91508190509392505050565b7f4f776e61626c653a206e6577206f776e657220697320746865207a65726f206160008201527f6464726573730000000000000000000000000000000000000000000000000000602082015250565b6000612dc86026836121b3565b9150612dd382612d6c565b604082019050919050565b60006020820190508181036000830152612df781612dbb565b9050919050565b7f53616665436173743a2076616c756520646f65736e27742066697420696e203860008201527f2062697473000000000000000000000000000000000000000000000000000000602082015250565b6000612e5a6025836121b3565b9150612e6582612dfe565b604082019050919050565b60006020820190508181036000830152612e8981612e4d565b9050919050565b7f4552433732313a206f70657261746f7220717565727920666f72206e6f6e657860008201527f697374656e7420746f6b656e0000000000000000000000000000000000000000602082015250565b6000612eec602c836121b3565b9150612ef782612e90565b604082019050919050565b60006020820190508181036000830152612f1b81612edf565b9050919050565b7f4552433732313a207472616e73666572206f6620746f6b656e2074686174206960008201527f73206e6f74206f776e0000000000000000000000000000000000000000000000602082015250565b6000612f7e6029836121b3565b9150612f8982612f22565b604082019050919050565b60006020820190508181036000830152612fad81612f71565b9050919050565b7f4552433732313a207472616e7366657220746f20746865207a65726f2061646460008201527f7265737300000000000000000000000000000000000000000000000000000000602082015250565b60006130106024836121b3565b915061301b82612fb4565b604082019050919050565b6000602082019050818103600083015261303f81613003565b9050919050565b7f4e487b7100000000000000000000000000000000000000000000000000000000600052601160045260246000fd5b600061308082612263565b915061308b83612263565b92508282101561309e5761309d613046565b5b828203905092915050565b60006130b482612263565b91506130bf83612263565b9250827fffffffffffffffffffffffffffffffffffffffffffffffffffffffffffffffff038211156130f4576130f3613046565b5b828201905092915050565b7f4552433732313a207472616e7366657220746f206e6f6e20455243373231526560008201527f63656976657220696d706c656d656e7465720000000000000000000000000000602082015250565b600061315b6032836121b3565b9150613166826130ff565b604082019050919050565b6000602082019050818103600083015261318a8161314e565b9050919050565b600061319c82612263565b91507fffffffffffffffffffffffffffffffffffffffffffffffffffffffffffffffff8214156131cf576131ce613046565b5b600182019050919050565b7f4e487b7100000000000000000000000000000000000000000000000000000000600052601260045260246000fd5b600061321482612263565b915061321f83612263565b92508261322f5761322e6131da565b5b828204905092915050565b600061324582612263565b915061325083612263565b9250826132605761325f6131da565b5b828206905092915050565b7f4e487b7100000000000000000000000000000000000000000000000000000000600052603260045260246000fd5b60008160f81b9050919050565b60006132b28261329a565b9050919050565b6132ca6132c582612438565b6132a7565b82525050565b60006132dc82876132b9565b6001820191506132ec82866132b9565b6001820191506132fc82856132b9565b60018201915061330c82846132b9565b60018201915081905095945050505050565b600081519050919050565b600082825260208201905092915050565b60006133458261331e565b61334f8185613329565b935061335f8185602086016121c4565b613368816121f7565b840191505092915050565b600060808201905061338860008301876122f8565b61339560208301866122f8565b6133a2604083018561238e565b81810360608301526133b4818461333a565b905095945050505050565b6000815190506133ce81612119565b92915050565b6000602082840312156133ea576133e96120e3565b5b60006133f8848285016133bf565b91505092915050565b7f4552433732313a206d696e7420746f20746865207a65726f2061646472657373600082015250565b60006134376020836121b3565b915061344282613401565b602082019050919050565b600060208201905081810360008301526134668161342a565b9050919050565b7f4552433732313a20746f6b656e20616c7265616479206d696e74656400000000600082015250565b60006134a3601c836121b3565b91506134ae8261346d565b602082019050919050565b600060208201905081810360008301526134d281613496565b9050919050565b6000819050919050565b6134f46134ef82612263565b6134d9565b82525050565b60008160601b9050919050565b6000613512826134fa565b9050919050565b600061352482613507565b9050919050565b61353c613537826122e6565b613519565b82525050565b600061354e82886134e3565b60208201915061355e82876134e3565b60208201915061356e82866134e3565b60208201915061357e828561352b565b60148201915061358e82846134e3565b602082019150819050969550505050505056fea2646970667358221220699096b46b42d02352c384230a07d95df8bd94e3a6bc4e78f3523b3e2ca74e4464736f6c634300080a0033",
  "immutableReferences": {},
  "source": "// SPDX-License-Identifier: MIT\n\npragma solidity >=0.8.3 <0.9.0;\n\nimport \"@openzeppelin/contracts/access/Ownable.sol\";\nimport \"@openzeppelin/contracts/token/ERC721/ERC721.sol\";\nimport \"@openzeppelin/contracts/utils/Counters.sol\";\nimport \"@openzeppelin/contracts/utils/math/SafeMath.sol\";\nimport \"@openzeppelin/contracts/utils/math/SafeCast.sol\";\nimport \"./SafeMath8.sol\";\n\n/// @title The main CryptoDicks ERC721 smart contract.\n/// @author juliencrn\n/// @dev Work in progress, not production ready yet.\ncontract CryptoDicks is Ownable, ERC721 {\n    // Libs\n    using Counters for Counters.Counter;\n    using SafeMath for uint256;\n    using SafeMath8 for uint8;\n    using SafeCast for uint256;\n\n    Counters.Counter internal _currentSupply;\n    Counters.Counter internal _randomNonce;\n\n    // Contract settings\n    uint256 public totalSupply = 10_000;\n    string internal _currentBaseURI = \"http://localhost:5000/\";\n    uint256 public claimFee = 0.01 ether;\n\n    // NFT properties\n    struct Metadata {\n        uint8 background;\n        uint8 skin;\n        uint8 hat;\n        uint8 eye;\n    }\n\n    // Mapping token ID to Metadata\n    mapping(uint256 => Metadata) idToMetadata;\n\n    // Mapping metadata dna to boolean\n    mapping(uint256 => bool) private _dnaExists;\n\n    constructor() ERC721(\"CryptoDicks\", \"DICK\") {\n        // Mint my own NFT tokens.\n        for (uint256 i = 0; i < 10; i++) {\n            mint();\n        }\n    }\n\n    /// Allow user to mint a token\n    /// @dev takes fees then calls mint() internally.\n    function claim() external payable {\n        require(msg.value == claimFee, \"Claiming a NFT costs ether\");\n\n        mint();\n\n        // Give ether to the contract owner\n        payable(owner()).transfer(claimFee);\n    }\n\n    /// Mint a new NFT\n    /// @return Created token id\n    function mint() internal returns (uint256) {\n        require(_currentSupply.current() < totalSupply);\n\n        // Increment the token supply.\n        _currentSupply.increment();\n        uint256 newTokenId = _currentSupply.current();\n\n        // Generate and save metadata\n        idToMetadata[newTokenId] = _createUniqueNFT();\n\n        // Finally, mint!\n        _safeMint(msg.sender, newTokenId);\n\n        return newTokenId;\n    }\n\n    /// Return the good baseURI overriding the ERC721 method\n    function _baseURI() internal view virtual override returns (string memory) {\n        return _currentBaseURI;\n    }\n\n    /// For a a given token ID, returns its metadata\n    function get(uint256 _tokenId)\n        external\n        view\n        returns (\n            uint8 background,\n            uint8 skin,\n            uint8 hat,\n            uint8 eye\n        )\n    {\n        require(_exists(_tokenId), \"Token not minted yet\");\n        Metadata memory metadata = idToMetadata[_tokenId];\n\n        background = metadata.background;\n        skin = metadata.skin;\n        hat = metadata.hat;\n        eye = metadata.eye;\n    }\n\n    /// @return the current supply\n    function currentSupply() external view returns (uint256) {\n        return _currentSupply.current();\n    }\n\n    ////////////////////////////////////////////////////////////\n    // Random and Rarity algos\n    ////////////////////////////////////////////////////////////\n\n    /// Create unique metadata combination\n    /// TODO: Test algos part\n    /// @dev this function is the algo part entry point\n    /// @dev exec a infinite loop\n    /// @dev check and mute the _dnaExists mapping\n    /// @return Metadata\n    function _createUniqueNFT() internal returns (Metadata memory) {\n        uint256 dna;\n        uint8 background;\n        uint8 skin;\n        uint8 hat;\n        uint8 eye;\n\n        while (true) {\n            // Generate random metadata\n            (background, skin, hat, eye) = _generateRandomMetadata();\n\n            // Calc the dna\n            dna = uint256(\n                keccak256(abi.encodePacked(background, skin, hat, eye))\n            );\n\n            // If the new dna is unique, save it and leave the loop\n            if (_dnaExists[dna] != true) {\n                _dnaExists[dna] = true;\n                break;\n            }\n        }\n\n        return Metadata(background, skin, hat, eye);\n    }\n\n    /// Generate a random number\n    /// @dev random isn't perfect in Solidity, use Oracle in better approch.\n    /// @return uint256 0-999_999\n    function _getRandomNumber() internal returns (uint256) {\n        _randomNonce.increment();\n\n        bytes memory encoded2 = abi.encodePacked(\n            block.difficulty,\n            block.timestamp,\n            _currentSupply.current(),\n            msg.sender,\n            _randomNonce.current()\n        );\n        uint256 rand = uint256(keccak256(encoded2));\n        return rand % 1_000_000;\n    }\n\n    /// Just generate a Metadata and returns its entries\n    /// @dev contains config per metadata attributes\n    function _generateRandomMetadata()\n        internal\n        returns (\n            uint8 background,\n            uint8 skin,\n            uint8 hat,\n            uint8 eye\n        )\n    {\n        background = _randomWithRarety();\n        skin = _randomWithRarety();\n        hat = _randomUntil(3);\n        eye = _randomUntil(3);\n    }\n\n    /// @return random uint8 between 0-n with rarety level\n    function _randomUntil(uint8 _optionsCount) internal returns (uint8) {\n        return (_getRandomNumber() % _optionsCount).toUint8();\n    }\n\n    /// @return random uint8 between 0-7 with rarety level\n    function _randomWithRarety() internal returns (uint8) {\n        uint256 rand = _getRandomNumber();\n        uint8 result;\n\n        if (rand < 1_000) {\n            result = 7; // 0.1%\n        } else if (rand < 6_000) {\n            result = 6; // 0.5%\n        } else if (rand < 16_000) {\n            result = 5; // 1%\n        } else if (rand < 66_000) {\n            result = 4; // 5%\n        } else if (rand < 166_000) {\n            result = 3; // 10%\n        } else if (rand < 366_000) {\n            result = 2; // 20%\n        } else if (rand < 666_000) {\n            result = 1; // 30%\n        } else {\n            result = 0;\n        }\n\n        return result;\n    }\n}\n",
  "sourcePath": "/Users/juliencaron/www/ntf/ntf-collectible/contracts/CryptoDicks.sol",
  "compiler": {
    "name": "solc",
    "version": "0.8.10+commit.fc410830.Emscripten.clang"
  },
  "schemaVersion": "3.4.3",
  "updatedAt": "2021-11-29T16:09:00.901Z",
  "devdoc": {
    "author": "juliencrn",
    "details": "Work in progress, not production ready yet.",
    "kind": "dev",
    "methods": {
      "approve(address,uint256)": {
        "details": "See {IERC721-approve}."
      },
      "balanceOf(address)": {
        "details": "See {IERC721-balanceOf}."
      },
      "claim()": {
        "details": "takes fees then calls mint() internally."
      },
      "currentSupply()": {
        "returns": {
          "_0": "the current supply"
        }
      },
      "getApproved(uint256)": {
        "details": "See {IERC721-getApproved}."
      },
      "isApprovedForAll(address,address)": {
        "details": "See {IERC721-isApprovedForAll}."
      },
      "name()": {
        "details": "See {IERC721Metadata-name}."
      },
      "owner()": {
        "details": "Returns the address of the current owner."
      },
      "ownerOf(uint256)": {
        "details": "See {IERC721-ownerOf}."
      },
      "renounceOwnership()": {
        "details": "Leaves the contract without owner. It will not be possible to call `onlyOwner` functions anymore. Can only be called by the current owner. NOTE: Renouncing ownership will leave the contract without an owner, thereby removing any functionality that is only available to the owner."
      },
      "safeTransferFrom(address,address,uint256)": {
        "details": "See {IERC721-safeTransferFrom}."
      },
      "safeTransferFrom(address,address,uint256,bytes)": {
        "details": "See {IERC721-safeTransferFrom}."
      },
      "setApprovalForAll(address,bool)": {
        "details": "See {IERC721-setApprovalForAll}."
      },
      "supportsInterface(bytes4)": {
        "details": "See {IERC165-supportsInterface}."
      },
      "symbol()": {
        "details": "See {IERC721Metadata-symbol}."
      },
      "tokenURI(uint256)": {
        "details": "See {IERC721Metadata-tokenURI}."
      },
      "transferFrom(address,address,uint256)": {
        "details": "See {IERC721-transferFrom}."
      },
      "transferOwnership(address)": {
        "details": "Transfers ownership of the contract to a new account (`newOwner`). Can only be called by the current owner."
      }
    },
    "title": "The main CryptoDicks ERC721 smart contract.",
    "version": 1
  },
  "userdoc": {
    "kind": "user",
    "methods": {
      "claim()": {
        "notice": "Allow user to mint a token"
      },
      "get(uint256)": {
        "notice": "For a a given token ID, returns its metadata"
      }
    },
    "version": 1
  }
}