{
  "contractName": "Managable",
  "abi": [
    {
      "anonymous": false,
      "inputs": [
        {
          "indexed": true,
          "internalType": "address",
          "name": "previousOwner",
          "type": "address"
        },
        {
          "indexed": true,
          "internalType": "address",
          "name": "newOwner",
          "type": "address"
        }
      ],
      "name": "OwnershipTransferred",
      "type": "event"
    },
    {
      "inputs": [],
      "name": "claimFee",
      "outputs": [
        {
          "internalType": "uint256",
          "name": "",
          "type": "uint256"
        }
      ],
      "stateMutability": "view",
      "type": "function"
    },
    {
      "inputs": [],
      "name": "owner",
      "outputs": [
        {
          "internalType": "address",
          "name": "",
          "type": "address"
        }
      ],
      "stateMutability": "view",
      "type": "function"
    },
    {
      "inputs": [],
      "name": "renounceOwnership",
      "outputs": [],
      "stateMutability": "nonpayable",
      "type": "function"
    },
    {
      "inputs": [
        {
          "internalType": "address",
          "name": "newOwner",
          "type": "address"
        }
      ],
      "name": "transferOwnership",
      "outputs": [],
      "stateMutability": "nonpayable",
      "type": "function"
    },
    {
      "inputs": [
        {
          "internalType": "string",
          "name": "_baseUri",
          "type": "string"
        }
      ],
      "name": "setBaseURI",
      "outputs": [],
      "stateMutability": "nonpayable",
      "type": "function"
    },
    {
      "inputs": [
        {
          "internalType": "uint256",
          "name": "_newPrice",
          "type": "uint256"
        }
      ],
      "name": "setClaimFee",
      "outputs": [],
      "stateMutability": "nonpayable",
      "type": "function"
    },
    {
      "inputs": [],
      "name": "withdraw",
      "outputs": [],
      "stateMutability": "payable",
      "type": "function"
    }
  ],
  "bytecode": "0x60806040526040518060600160405280602c815260200162000d5e602c9139600190805190602001906200003592919062000141565b50662386f26fc100006002553480156200004e57600080fd5b506200006f620000636200007560201b60201c565b6200007d60201b60201c565b62000256565b600033905090565b60008060009054906101000a900473ffffffffffffffffffffffffffffffffffffffff169050816000806101000a81548173ffffffffffffffffffffffffffffffffffffffff021916908373ffffffffffffffffffffffffffffffffffffffff1602179055508173ffffffffffffffffffffffffffffffffffffffff168173ffffffffffffffffffffffffffffffffffffffff167f8be0079c531659141344cd1fd0a4f28419497f9722a3daafe3b4186f6b6457e060405160405180910390a35050565b8280546200014f9062000220565b90600052602060002090601f016020900481019282620001735760008555620001bf565b82601f106200018e57805160ff1916838001178555620001bf565b82800160010185558215620001bf579182015b82811115620001be578251825591602001919060010190620001a1565b5b509050620001ce9190620001d2565b5090565b5b80821115620001ed576000816000905550600101620001d3565b5090565b7f4e487b7100000000000000000000000000000000000000000000000000000000600052602260045260246000fd5b600060028204905060018216806200023957607f821691505b6020821081141562000250576200024f620001f1565b5b50919050565b610af880620002666000396000f3fe6080604052600436106100705760003560e01c8063715018a61161004e578063715018a6146100d15780638da5cb5b146100e857806399d32fc414610113578063f2fde38b1461013e57610070565b80632e75ab50146100755780633ccfd60b1461009e57806355f804b3146100a8575b600080fd5b34801561008157600080fd5b5061009c600480360381019061009791906106b7565b610167565b005b6100a66101ed565b005b3480156100b457600080fd5b506100cf60048036038101906100ca919061082a565b6102b9565b005b3480156100dd57600080fd5b506100e661034f565b005b3480156100f457600080fd5b506100fd6103d7565b60405161010a91906108b4565b60405180910390f35b34801561011f57600080fd5b50610128610400565b60405161013591906108de565b60405180910390f35b34801561014a57600080fd5b5061016560048036038101906101609190610925565b610406565b005b61016f6104fe565b73ffffffffffffffffffffffffffffffffffffffff1661018d6103d7565b73ffffffffffffffffffffffffffffffffffffffff16146101e3576040517f08c379a00000000000000000000000000000000000000000000000000000000081526004016101da906109af565b60405180910390fd5b8060028190555050565b6101f56104fe565b73ffffffffffffffffffffffffffffffffffffffff166102136103d7565b73ffffffffffffffffffffffffffffffffffffffff1614610269576040517f08c379a0000000000000000000000000000000000000000000000000000000008152600401610260906109af565b60405180910390fd5b6102716103d7565b73ffffffffffffffffffffffffffffffffffffffff166108fc479081150290604051600060405180830381858888f193505050501580156102b6573d6000803e3d6000fd5b50565b6102c16104fe565b73ffffffffffffffffffffffffffffffffffffffff166102df6103d7565b73ffffffffffffffffffffffffffffffffffffffff1614610335576040517f08c379a000000000000000000000000000000000000000000000000000000000815260040161032c906109af565b60405180910390fd5b806001908051906020019061034b9291906105ca565b5050565b6103576104fe565b73ffffffffffffffffffffffffffffffffffffffff166103756103d7565b73ffffffffffffffffffffffffffffffffffffffff16146103cb576040517f08c379a00000000000000000000000000000000000000000000000000000000081526004016103c2906109af565b60405180910390fd5b6103d56000610506565b565b60008060009054906101000a900473ffffffffffffffffffffffffffffffffffffffff16905090565b60025481565b61040e6104fe565b73ffffffffffffffffffffffffffffffffffffffff1661042c6103d7565b73ffffffffffffffffffffffffffffffffffffffff1614610482576040517f08c379a0000000000000000000000000000000000000000000000000000000008152600401610479906109af565b60405180910390fd5b600073ffffffffffffffffffffffffffffffffffffffff168173ffffffffffffffffffffffffffffffffffffffff1614156104f2576040517f08c379a00000000000000000000000000000000000000000000000000000000081526004016104e990610a41565b60405180910390fd5b6104fb81610506565b50565b600033905090565b60008060009054906101000a900473ffffffffffffffffffffffffffffffffffffffff169050816000806101000a81548173ffffffffffffffffffffffffffffffffffffffff021916908373ffffffffffffffffffffffffffffffffffffffff1602179055508173ffffffffffffffffffffffffffffffffffffffff168173ffffffffffffffffffffffffffffffffffffffff167f8be0079c531659141344cd1fd0a4f28419497f9722a3daafe3b4186f6b6457e060405160405180910390a35050565b8280546105d690610a90565b90600052602060002090601f0160209004810192826105f8576000855561063f565b82601f1061061157805160ff191683800117855561063f565b8280016001018555821561063f579182015b8281111561063e578251825591602001919060010190610623565b5b50905061064c9190610650565b5090565b5b80821115610669576000816000905550600101610651565b5090565b6000604051905090565b600080fd5b600080fd5b6000819050919050565b61069481610681565b811461069f57600080fd5b50565b6000813590506106b18161068b565b92915050565b6000602082840312156106cd576106cc610677565b5b60006106db848285016106a2565b91505092915050565b600080fd5b600080fd5b6000601f19601f8301169050919050565b7f4e487b7100000000000000000000000000000000000000000000000000000000600052604160045260246000fd5b610737826106ee565b810181811067ffffffffffffffff82111715610756576107556106ff565b5b80604052505050565b600061076961066d565b9050610775828261072e565b919050565b600067ffffffffffffffff821115610795576107946106ff565b5b61079e826106ee565b9050602081019050919050565b82818337600083830152505050565b60006107cd6107c88461077a565b61075f565b9050828152602081018484840111156107e9576107e86106e9565b5b6107f48482856107ab565b509392505050565b600082601f830112610811576108106106e4565b5b81356108218482602086016107ba565b91505092915050565b6000602082840312156108405761083f610677565b5b600082013567ffffffffffffffff81111561085e5761085d61067c565b5b61086a848285016107fc565b91505092915050565b600073ffffffffffffffffffffffffffffffffffffffff82169050919050565b600061089e82610873565b9050919050565b6108ae81610893565b82525050565b60006020820190506108c960008301846108a5565b92915050565b6108d881610681565b82525050565b60006020820190506108f360008301846108cf565b92915050565b61090281610893565b811461090d57600080fd5b50565b60008135905061091f816108f9565b92915050565b60006020828403121561093b5761093a610677565b5b600061094984828501610910565b91505092915050565b600082825260208201905092915050565b7f4f776e61626c653a2063616c6c6572206973206e6f7420746865206f776e6572600082015250565b6000610999602083610952565b91506109a482610963565b602082019050919050565b600060208201905081810360008301526109c88161098c565b9050919050565b7f4f776e61626c653a206e6577206f776e657220697320746865207a65726f206160008201527f6464726573730000000000000000000000000000000000000000000000000000602082015250565b6000610a2b602683610952565b9150610a36826109cf565b604082019050919050565b60006020820190508181036000830152610a5a81610a1e565b9050919050565b7f4e487b7100000000000000000000000000000000000000000000000000000000600052602260045260246000fd5b60006002820490506001821680610aa857607f821691505b60208210811415610abc57610abb610a61565b5b5091905056fea2646970667358221220e7fe466b246cdd33faf3b0e1d066faacf55ce79201c628ca311a2001fd43b7fe64736f6c634300080a003368747470733a2f2f63727970746f6469636b732d6170692e6865726f6b756170702e636f6d2f746f6b656e2f",
  "immutableReferences": {},
  "source": "// SPDX-License-Identifier: MIT\n\npragma solidity >=0.8.3 <0.9.0;\n\nimport \"@openzeppelin/contracts/access/Ownable.sol\";\n\ncontract Managable is Ownable {\n    // Mutable variables\n    string internal _currentBaseURI =\n        \"https://cryptodicks-api.herokuapp.com/token/\";\n    uint256 public claimFee = 0.01 ether;\n\n    /// Allow owner to set new baseURI\n    function setBaseURI(string memory _baseUri) public onlyOwner {\n        _currentBaseURI = _baseUri;\n    }\n\n    /// Allow owner to set new mint fee price, ether price will change.\n    function setClaimFee(uint256 _newPrice) external onlyOwner {\n        claimFee = _newPrice;\n    }\n\n    /// Allow owner to withdraw contract balance.\n    /// @dev Ether are stored in the contract when \"payable->transfer\" is invoked.\n    /// TODO Add unit test\n    function withdraw() external payable onlyOwner {\n        payable(owner()).transfer(address(this).balance);\n    }\n}\n",
  "sourcePath": "/Users/juliencaron/www/ntf/ntf-collectible/contracts/Managable.sol",
  "compiler": {
    "name": "solc",
    "version": "0.8.10+commit.fc410830.Emscripten.clang"
  },
  "schemaVersion": "3.4.3",
  "updatedAt": "2021-11-30T17:15:18.179Z",
  "devdoc": {
    "kind": "dev",
    "methods": {
      "owner()": {
        "details": "Returns the address of the current owner."
      },
      "renounceOwnership()": {
        "details": "Leaves the contract without owner. It will not be possible to call `onlyOwner` functions anymore. Can only be called by the current owner. NOTE: Renouncing ownership will leave the contract without an owner, thereby removing any functionality that is only available to the owner."
      },
      "transferOwnership(address)": {
        "details": "Transfers ownership of the contract to a new account (`newOwner`). Can only be called by the current owner."
      },
      "withdraw()": {
        "details": "Ether are stored in the contract when \"payable->transfer\" is invoked. TODO Add unit test"
      }
    },
    "version": 1
  },
  "userdoc": {
    "kind": "user",
    "methods": {
      "setBaseURI(string)": {
        "notice": "Allow owner to set new baseURI"
      },
      "setClaimFee(uint256)": {
        "notice": "Allow owner to set new mint fee price, ether price will change."
      },
      "withdraw()": {
        "notice": "Allow owner to withdraw contract balance."
      }
    },
    "version": 1
  }
}