{
  "contractName": "Collectible",
  "abi": [
    {
      "inputs": [],
      "stateMutability": "nonpayable",
      "type": "constructor"
    },
    {
      "anonymous": false,
      "inputs": [
        {
          "indexed": true,
          "internalType": "address",
          "name": "owner",
          "type": "address"
        },
        {
          "indexed": true,
          "internalType": "address",
          "name": "approved",
          "type": "address"
        },
        {
          "indexed": true,
          "internalType": "uint256",
          "name": "tokenId",
          "type": "uint256"
        }
      ],
      "name": "Approval",
      "type": "event"
    },
    {
      "anonymous": false,
      "inputs": [
        {
          "indexed": true,
          "internalType": "address",
          "name": "owner",
          "type": "address"
        },
        {
          "indexed": true,
          "internalType": "address",
          "name": "operator",
          "type": "address"
        },
        {
          "indexed": false,
          "internalType": "bool",
          "name": "approved",
          "type": "bool"
        }
      ],
      "name": "ApprovalForAll",
      "type": "event"
    },
    {
      "anonymous": false,
      "inputs": [
        {
          "indexed": true,
          "internalType": "address",
          "name": "previousOwner",
          "type": "address"
        },
        {
          "indexed": true,
          "internalType": "address",
          "name": "newOwner",
          "type": "address"
        }
      ],
      "name": "OwnershipTransferred",
      "type": "event"
    },
    {
      "anonymous": false,
      "inputs": [
        {
          "indexed": true,
          "internalType": "address",
          "name": "from",
          "type": "address"
        },
        {
          "indexed": true,
          "internalType": "address",
          "name": "to",
          "type": "address"
        },
        {
          "indexed": true,
          "internalType": "uint256",
          "name": "tokenId",
          "type": "uint256"
        }
      ],
      "name": "Transfer",
      "type": "event"
    },
    {
      "inputs": [
        {
          "internalType": "address",
          "name": "to",
          "type": "address"
        },
        {
          "internalType": "uint256",
          "name": "tokenId",
          "type": "uint256"
        }
      ],
      "name": "approve",
      "outputs": [],
      "stateMutability": "nonpayable",
      "type": "function"
    },
    {
      "inputs": [
        {
          "internalType": "address",
          "name": "owner",
          "type": "address"
        }
      ],
      "name": "balanceOf",
      "outputs": [
        {
          "internalType": "uint256",
          "name": "",
          "type": "uint256"
        }
      ],
      "stateMutability": "view",
      "type": "function",
      "constant": true
    },
    {
      "inputs": [
        {
          "internalType": "uint256",
          "name": "tokenId",
          "type": "uint256"
        }
      ],
      "name": "getApproved",
      "outputs": [
        {
          "internalType": "address",
          "name": "",
          "type": "address"
        }
      ],
      "stateMutability": "view",
      "type": "function",
      "constant": true
    },
    {
      "inputs": [
        {
          "internalType": "address",
          "name": "owner",
          "type": "address"
        },
        {
          "internalType": "address",
          "name": "operator",
          "type": "address"
        }
      ],
      "name": "isApprovedForAll",
      "outputs": [
        {
          "internalType": "bool",
          "name": "",
          "type": "bool"
        }
      ],
      "stateMutability": "view",
      "type": "function",
      "constant": true
    },
    {
      "inputs": [],
      "name": "name",
      "outputs": [
        {
          "internalType": "string",
          "name": "",
          "type": "string"
        }
      ],
      "stateMutability": "view",
      "type": "function",
      "constant": true
    },
    {
      "inputs": [],
      "name": "nextCollectibleId",
      "outputs": [
        {
          "internalType": "uint256",
          "name": "",
          "type": "uint256"
        }
      ],
      "stateMutability": "view",
      "type": "function",
      "constant": true
    },
    {
      "inputs": [],
      "name": "owner",
      "outputs": [
        {
          "internalType": "address",
          "name": "",
          "type": "address"
        }
      ],
      "stateMutability": "view",
      "type": "function",
      "constant": true
    },
    {
      "inputs": [
        {
          "internalType": "uint256",
          "name": "tokenId",
          "type": "uint256"
        }
      ],
      "name": "ownerOf",
      "outputs": [
        {
          "internalType": "address",
          "name": "",
          "type": "address"
        }
      ],
      "stateMutability": "view",
      "type": "function",
      "constant": true
    },
    {
      "inputs": [],
      "name": "renounceOwnership",
      "outputs": [],
      "stateMutability": "nonpayable",
      "type": "function"
    },
    {
      "inputs": [
        {
          "internalType": "address",
          "name": "from",
          "type": "address"
        },
        {
          "internalType": "address",
          "name": "to",
          "type": "address"
        },
        {
          "internalType": "uint256",
          "name": "tokenId",
          "type": "uint256"
        }
      ],
      "name": "safeTransferFrom",
      "outputs": [],
      "stateMutability": "nonpayable",
      "type": "function"
    },
    {
      "inputs": [
        {
          "internalType": "address",
          "name": "from",
          "type": "address"
        },
        {
          "internalType": "address",
          "name": "to",
          "type": "address"
        },
        {
          "internalType": "uint256",
          "name": "tokenId",
          "type": "uint256"
        },
        {
          "internalType": "bytes",
          "name": "_data",
          "type": "bytes"
        }
      ],
      "name": "safeTransferFrom",
      "outputs": [],
      "stateMutability": "nonpayable",
      "type": "function"
    },
    {
      "inputs": [
        {
          "internalType": "address",
          "name": "operator",
          "type": "address"
        },
        {
          "internalType": "bool",
          "name": "approved",
          "type": "bool"
        }
      ],
      "name": "setApprovalForAll",
      "outputs": [],
      "stateMutability": "nonpayable",
      "type": "function"
    },
    {
      "inputs": [
        {
          "internalType": "bytes4",
          "name": "interfaceId",
          "type": "bytes4"
        }
      ],
      "name": "supportsInterface",
      "outputs": [
        {
          "internalType": "bool",
          "name": "",
          "type": "bool"
        }
      ],
      "stateMutability": "view",
      "type": "function",
      "constant": true
    },
    {
      "inputs": [],
      "name": "symbol",
      "outputs": [
        {
          "internalType": "string",
          "name": "",
          "type": "string"
        }
      ],
      "stateMutability": "view",
      "type": "function",
      "constant": true
    },
    {
      "inputs": [
        {
          "internalType": "uint256",
          "name": "tokenId",
          "type": "uint256"
        }
      ],
      "name": "tokenURI",
      "outputs": [
        {
          "internalType": "string",
          "name": "",
          "type": "string"
        }
      ],
      "stateMutability": "view",
      "type": "function",
      "constant": true
    },
    {
      "inputs": [],
      "name": "totalSupply",
      "outputs": [
        {
          "internalType": "uint256",
          "name": "",
          "type": "uint256"
        }
      ],
      "stateMutability": "view",
      "type": "function",
      "constant": true
    },
    {
      "inputs": [
        {
          "internalType": "address",
          "name": "from",
          "type": "address"
        },
        {
          "internalType": "address",
          "name": "to",
          "type": "address"
        },
        {
          "internalType": "uint256",
          "name": "tokenId",
          "type": "uint256"
        }
      ],
      "name": "transferFrom",
      "outputs": [],
      "stateMutability": "nonpayable",
      "type": "function"
    },
    {
      "inputs": [
        {
          "internalType": "address",
          "name": "newOwner",
          "type": "address"
        }
      ],
      "name": "transferOwnership",
      "outputs": [],
      "stateMutability": "nonpayable",
      "type": "function"
    },
    {
      "inputs": [
        {
          "internalType": "uint8",
          "name": "_color",
          "type": "uint8"
        },
        {
          "internalType": "string",
          "name": "_text",
          "type": "string"
        }
      ],
      "name": "claim",
      "outputs": [],
      "stateMutability": "payable",
      "type": "function",
      "payable": true
    },
    {
      "inputs": [
        {
          "internalType": "string",
          "name": "baseURI",
          "type": "string"
        }
      ],
      "name": "setBaseURI",
      "outputs": [],
      "stateMutability": "nonpayable",
      "type": "function"
    },
    {
      "inputs": [
        {
          "internalType": "uint256",
          "name": "_tokenId",
          "type": "uint256"
        }
      ],
      "name": "get",
      "outputs": [
        {
          "internalType": "uint256",
          "name": "id",
          "type": "uint256"
        },
        {
          "internalType": "uint8",
          "name": "color",
          "type": "uint8"
        },
        {
          "internalType": "string",
          "name": "text",
          "type": "string"
        }
      ],
      "stateMutability": "view",
      "type": "function",
      "constant": true
    },
    {
      "inputs": [
        {
          "internalType": "uint256",
          "name": "_tokenId",
          "type": "uint256"
        },
        {
          "internalType": "string",
          "name": "_newText",
          "type": "string"
        }
      ],
      "name": "changeText",
      "outputs": [],
      "stateMutability": "nonpayable",
      "type": "function"
    },
    {
      "inputs": [
        {
          "internalType": "uint256",
          "name": "_tokenId",
          "type": "uint256"
        }
      ],
      "name": "getText",
      "outputs": [
        {
          "internalType": "string",
          "name": "",
          "type": "string"
        }
      ],
      "stateMutability": "view",
      "type": "function",
      "constant": true
    }
  ],
  "bytecode": "0x60806040523480156200001157600080fd5b506040518060400160405280600b81526020017f436f6c6c65637469626c650000000000000000000000000000000000000000008152506040518060400160405280600481526020017f434f4c4c000000000000000000000000000000000000000000000000000000008152506200009e62000092620001bf60201b60201c565b620001c760201b60201c565b8160019080519060200190620000b6929190620008be565b508060029080519060200190620000cf929190620008be565b5050506127106007819055506000600881905550620001296040518060400160405280601681526020017f687474703a2f2f6c6f63616c686f73743a353030302f000000000000000000008152506200028b60201b60201c565b6200017160056040518060400160405280600981526020017f4669727374204e465400000000000000000000000000000000000000000000008152506200033660201b60201c565b620001b960016040518060400160405280600a81526020017f5365636f6e64204e4654000000000000000000000000000000000000000000008152506200033660201b60201c565b62000e98565b600033905090565b60008060009054906101000a900473ffffffffffffffffffffffffffffffffffffffff169050816000806101000a81548173ffffffffffffffffffffffffffffffffffffffff021916908373ffffffffffffffffffffffffffffffffffffffff1602179055508173ffffffffffffffffffffffffffffffffffffffff168173ffffffffffffffffffffffffffffffffffffffff167f8be0079c531659141344cd1fd0a4f28419497f9722a3daafe3b4186f6b6457e060405160405180910390a35050565b6200029b620001bf60201b60201c565b73ffffffffffffffffffffffffffffffffffffffff16620002c1620003ed60201b60201c565b73ffffffffffffffffffffffffffffffffffffffff16146200031a576040517f08c379a00000000000000000000000000000000000000000000000000000000081526004016200031190620009cf565b60405180910390fd5b806009908051906020019062000332929190620008be565b5050565b600754600854106200034757600080fd5b6000600854905060086000815480929190620003639062000a2a565b919050555060405180604001604052808460ff16815260200183815250600a600083815260200190815260200160002060008201518160000160006101000a81548160ff021916908360ff1602179055506020820151816001019080519060200190620003d2929190620008be565b50905050620003e833826200041660201b60201c565b505050565b60008060009054906101000a900473ffffffffffffffffffffffffffffffffffffffff16905090565b620004388282604051806020016040528060008152506200043c60201b60201c565b5050565b6200044e8383620004aa60201b60201c565b6200046360008484846200069060201b60201c565b620004a5576040517f08c379a00000000000000000000000000000000000000000000000000000000081526004016200049c9062000aee565b60405180910390fd5b505050565b600073ffffffffffffffffffffffffffffffffffffffff168273ffffffffffffffffffffffffffffffffffffffff1614156200051d576040517f08c379a0000000000000000000000000000000000000000000000000000000008152600401620005149062000b60565b60405180910390fd5b6200052e816200083a60201b60201c565b1562000571576040517f08c379a0000000000000000000000000000000000000000000000000000000008152600401620005689062000bd2565b60405180910390fd5b6200058560008383620008a660201b60201c565b6001600460008473ffffffffffffffffffffffffffffffffffffffff1673ffffffffffffffffffffffffffffffffffffffff1681526020019081526020016000206000828254620005d7919062000bf4565b92505081905550816003600083815260200190815260200160002060006101000a81548173ffffffffffffffffffffffffffffffffffffffff021916908373ffffffffffffffffffffffffffffffffffffffff160217905550808273ffffffffffffffffffffffffffffffffffffffff16600073ffffffffffffffffffffffffffffffffffffffff167fddf252ad1be2c89b69c2b068fc378daa952ba7f163c4a11628f55a4df523b3ef60405160405180910390a45050565b6000620006be8473ffffffffffffffffffffffffffffffffffffffff16620008ab60201b6200146f1760201c565b156200082d578373ffffffffffffffffffffffffffffffffffffffff1663150b7a02620006f0620001bf60201b60201c565b8786866040518563ffffffff1660e01b815260040162000714949392919062000d4b565b6020604051808303816000875af19250505080156200075357506040513d601f19601f8201168201806040525081019062000750919062000e01565b60015b620007dc573d806000811462000786576040519150601f19603f3d011682016040523d82523d6000602084013e6200078b565b606091505b50600081511415620007d4576040517f08c379a0000000000000000000000000000000000000000000000000000000008152600401620007cb9062000aee565b60405180910390fd5b805181602001fd5b63150b7a0260e01b7bffffffffffffffffffffffffffffffffffffffffffffffffffffffff1916817bffffffffffffffffffffffffffffffffffffffffffffffffffffffff19161491505062000832565b600190505b949350505050565b60008073ffffffffffffffffffffffffffffffffffffffff166003600084815260200190815260200160002060009054906101000a900473ffffffffffffffffffffffffffffffffffffffff1673ffffffffffffffffffffffffffffffffffffffff1614159050919050565b505050565b600080823b905060008111915050919050565b828054620008cc9062000e62565b90600052602060002090601f016020900481019282620008f057600085556200093c565b82601f106200090b57805160ff19168380011785556200093c565b828001600101855582156200093c579182015b828111156200093b5782518255916020019190600101906200091e565b5b5090506200094b91906200094f565b5090565b5b808211156200096a57600081600090555060010162000950565b5090565b600082825260208201905092915050565b7f4f776e61626c653a2063616c6c6572206973206e6f7420746865206f776e6572600082015250565b6000620009b76020836200096e565b9150620009c4826200097f565b602082019050919050565b60006020820190508181036000830152620009ea81620009a8565b9050919050565b7f4e487b7100000000000000000000000000000000000000000000000000000000600052601160045260246000fd5b6000819050919050565b600062000a378262000a20565b91507fffffffffffffffffffffffffffffffffffffffffffffffffffffffffffffffff82141562000a6d5762000a6c620009f1565b5b600182019050919050565b7f4552433732313a207472616e7366657220746f206e6f6e20455243373231526560008201527f63656976657220696d706c656d656e7465720000000000000000000000000000602082015250565b600062000ad66032836200096e565b915062000ae38262000a78565b604082019050919050565b6000602082019050818103600083015262000b098162000ac7565b9050919050565b7f4552433732313a206d696e7420746f20746865207a65726f2061646472657373600082015250565b600062000b486020836200096e565b915062000b558262000b10565b602082019050919050565b6000602082019050818103600083015262000b7b8162000b39565b9050919050565b7f4552433732313a20746f6b656e20616c7265616479206d696e74656400000000600082015250565b600062000bba601c836200096e565b915062000bc78262000b82565b602082019050919050565b6000602082019050818103600083015262000bed8162000bab565b9050919050565b600062000c018262000a20565b915062000c0e8362000a20565b9250827fffffffffffffffffffffffffffffffffffffffffffffffffffffffffffffffff0382111562000c465762000c45620009f1565b5b828201905092915050565b600073ffffffffffffffffffffffffffffffffffffffff82169050919050565b600062000c7e8262000c51565b9050919050565b62000c908162000c71565b82525050565b62000ca18162000a20565b82525050565b600081519050919050565b600082825260208201905092915050565b60005b8381101562000ce357808201518184015260208101905062000cc6565b8381111562000cf3576000848401525b50505050565b6000601f19601f8301169050919050565b600062000d178262000ca7565b62000d23818562000cb2565b935062000d3581856020860162000cc3565b62000d408162000cf9565b840191505092915050565b600060808201905062000d62600083018762000c85565b62000d71602083018662000c85565b62000d80604083018562000c96565b818103606083015262000d94818462000d0a565b905095945050505050565b600080fd5b60007fffffffff0000000000000000000000000000000000000000000000000000000082169050919050565b62000ddb8162000da4565b811462000de757600080fd5b50565b60008151905062000dfb8162000dd0565b92915050565b60006020828403121562000e1a5762000e1962000d9f565b5b600062000e2a8482850162000dea565b91505092915050565b7f4e487b7100000000000000000000000000000000000000000000000000000000600052602260045260246000fd5b6000600282049050600182168062000e7b57607f821691505b6020821081141562000e925762000e9162000e33565b5b50919050565b6137268062000ea86000396000f3fe6080604052600436106101405760003560e01c8063715018a6116100b6578063b88d4fde1161006f578063b88d4fde1461046e578063c87b56dd14610497578063e86e6fcc146104d4578063e985e9c5146104ff578063f2fde38b1461053c578063f7f17f6e1461056557610140565b8063715018a61461035c5780637f4ef9d4146103735780638da5cb5b146103b05780639507d39a146103db57806395d89b411461041a578063a22cb4651461044557610140565b806318160ddd1161010857806318160ddd1461023c57806323b872dd1461026757806342842e0e1461029057806355f804b3146102b95780636352211e146102e257806370a082311461031f57610140565b806301ffc9a71461014557806306fdde0314610182578063081812fc146101ad578063095ea7b3146101ea5780630c4c37cc14610213575b600080fd5b34801561015157600080fd5b5061016c600480360381019061016791906121f3565b610581565b604051610179919061223b565b60405180910390f35b34801561018e57600080fd5b50610197610663565b6040516101a491906122ef565b60405180910390f35b3480156101b957600080fd5b506101d460048036038101906101cf9190612347565b6106f5565b6040516101e191906123b5565b60405180910390f35b3480156101f657600080fd5b50610211600480360381019061020c91906123fc565b61077a565b005b34801561021f57600080fd5b5061023a60048036038101906102359190612571565b610892565b005b34801561024857600080fd5b5061025161097f565b60405161025e91906125dc565b60405180910390f35b34801561027357600080fd5b5061028e600480360381019061028991906125f7565b610985565b005b34801561029c57600080fd5b506102b760048036038101906102b291906125f7565b6109e5565b005b3480156102c557600080fd5b506102e060048036038101906102db919061264a565b610a05565b005b3480156102ee57600080fd5b5061030960048036038101906103049190612347565b610a9b565b60405161031691906123b5565b60405180910390f35b34801561032b57600080fd5b5061034660048036038101906103419190612693565b610b4d565b60405161035391906125dc565b60405180910390f35b34801561036857600080fd5b50610371610c05565b005b34801561037f57600080fd5b5061039a60048036038101906103959190612347565b610c8d565b6040516103a791906122ef565b60405180910390f35b3480156103bc57600080fd5b506103c5610db5565b6040516103d291906123b5565b60405180910390f35b3480156103e757600080fd5b5061040260048036038101906103fd9190612347565b610dde565b604051610411939291906126dc565b60405180910390f35b34801561042657600080fd5b5061042f610f15565b60405161043c91906122ef565b60405180910390f35b34801561045157600080fd5b5061046c60048036038101906104679190612746565b610fa7565b005b34801561047a57600080fd5b5061049560048036038101906104909190612827565b611128565b005b3480156104a357600080fd5b506104be60048036038101906104b99190612347565b61118a565b6040516104cb91906122ef565b60405180910390f35b3480156104e057600080fd5b506104e9611231565b6040516104f691906125dc565b60405180910390f35b34801561050b57600080fd5b50610526600480360381019061052191906128aa565b611237565b604051610533919061223b565b60405180910390f35b34801561054857600080fd5b50610563600480360381019061055e9190612693565b6112cb565b005b61057f600480360381019061057a9190612916565b6113c3565b005b60007f80ac58cd000000000000000000000000000000000000000000000000000000007bffffffffffffffffffffffffffffffffffffffffffffffffffffffff1916827bffffffffffffffffffffffffffffffffffffffffffffffffffffffff1916148061064c57507f5b5e139f000000000000000000000000000000000000000000000000000000007bffffffffffffffffffffffffffffffffffffffffffffffffffffffff1916827bffffffffffffffffffffffffffffffffffffffffffffffffffffffff1916145b8061065c575061065b82611482565b5b9050919050565b606060018054610672906129a1565b80601f016020809104026020016040519081016040528092919081815260200182805461069e906129a1565b80156106eb5780601f106106c0576101008083540402835291602001916106eb565b820191906000526020600020905b8154815290600101906020018083116106ce57829003601f168201915b5050505050905090565b6000610700826114ec565b61073f576040517f08c379a000000000000000000000000000000000000000000000000000000000815260040161073690612a45565b60405180910390fd5b6005600083815260200190815260200160002060009054906101000a900473ffffffffffffffffffffffffffffffffffffffff169050919050565b600061078582610a9b565b90508073ffffffffffffffffffffffffffffffffffffffff168373ffffffffffffffffffffffffffffffffffffffff1614156107f6576040517f08c379a00000000000000000000000000000000000000000000000000000000081526004016107ed90612ad7565b60405180910390fd5b8073ffffffffffffffffffffffffffffffffffffffff16610815611558565b73ffffffffffffffffffffffffffffffffffffffff16148061084457506108438161083e611558565b611237565b5b610883576040517f08c379a000000000000000000000000000000000000000000000000000000000815260040161087a90612b69565b60405180910390fd5b61088d8383611560565b505050565b61089b826114ec565b6108da576040517f08c379a00000000000000000000000000000000000000000000000000000000081526004016108d190612bd5565b60405180910390fd5b3373ffffffffffffffffffffffffffffffffffffffff166108fa83610a9b565b73ffffffffffffffffffffffffffffffffffffffff1614610950576040517f08c379a000000000000000000000000000000000000000000000000000000000815260040161094790612c67565b60405180910390fd5b80600a6000848152602001908152602001600020600101908051906020019061097a9291906120e4565b505050565b60075481565b610996610990611558565b82611619565b6109d5576040517f08c379a00000000000000000000000000000000000000000000000000000000081526004016109cc90612cf9565b60405180910390fd5b6109e08383836116f7565b505050565b610a0083838360405180602001604052806000815250611128565b505050565b610a0d611558565b73ffffffffffffffffffffffffffffffffffffffff16610a2b610db5565b73ffffffffffffffffffffffffffffffffffffffff1614610a81576040517f08c379a0000000000000000000000000000000000000000000000000000000008152600401610a7890612d65565b60405180910390fd5b8060099080519060200190610a979291906120e4565b5050565b6000806003600084815260200190815260200160002060009054906101000a900473ffffffffffffffffffffffffffffffffffffffff169050600073ffffffffffffffffffffffffffffffffffffffff168173ffffffffffffffffffffffffffffffffffffffff161415610b44576040517f08c379a0000000000000000000000000000000000000000000000000000000008152600401610b3b90612df7565b60405180910390fd5b80915050919050565b60008073ffffffffffffffffffffffffffffffffffffffff168273ffffffffffffffffffffffffffffffffffffffff161415610bbe576040517f08c379a0000000000000000000000000000000000000000000000000000000008152600401610bb590612e89565b60405180910390fd5b600460008373ffffffffffffffffffffffffffffffffffffffff1673ffffffffffffffffffffffffffffffffffffffff168152602001908152602001600020549050919050565b610c0d611558565b73ffffffffffffffffffffffffffffffffffffffff16610c2b610db5565b73ffffffffffffffffffffffffffffffffffffffff1614610c81576040517f08c379a0000000000000000000000000000000000000000000000000000000008152600401610c7890612d65565b60405180910390fd5b610c8b6000611953565b565b6060610c98826114ec565b610cd7576040517f08c379a0000000000000000000000000000000000000000000000000000000008152600401610cce90612bd5565b60405180910390fd5b6000600a60008481526020019081526020016000206040518060400160405290816000820160009054906101000a900460ff1660ff1660ff168152602001600182018054610d24906129a1565b80601f0160208091040260200160405190810160405280929190818152602001828054610d50906129a1565b8015610d9d5780601f10610d7257610100808354040283529160200191610d9d565b820191906000526020600020905b815481529060010190602001808311610d8057829003601f168201915b50505050508152505090508060200151915050919050565b60008060009054906101000a900473ffffffffffffffffffffffffffffffffffffffff16905090565b6000806060610dec846114ec565b610e2b576040517f08c379a0000000000000000000000000000000000000000000000000000000008152600401610e2290612bd5565b60405180910390fd5b6000600a60008681526020019081526020016000206040518060400160405290816000820160009054906101000a900460ff1660ff1660ff168152602001600182018054610e78906129a1565b80601f0160208091040260200160405190810160405280929190818152602001828054610ea4906129a1565b8015610ef15780601f10610ec657610100808354040283529160200191610ef1565b820191906000526020600020905b815481529060010190602001808311610ed457829003601f168201915b50505050508152505090508493508060000151925080602001519150509193909250565b606060028054610f24906129a1565b80601f0160208091040260200160405190810160405280929190818152602001828054610f50906129a1565b8015610f9d5780601f10610f7257610100808354040283529160200191610f9d565b820191906000526020600020905b815481529060010190602001808311610f8057829003601f168201915b5050505050905090565b610faf611558565b73ffffffffffffffffffffffffffffffffffffffff168273ffffffffffffffffffffffffffffffffffffffff16141561101d576040517f08c379a000000000000000000000000000000000000000000000000000000000815260040161101490612ef5565b60405180910390fd5b806006600061102a611558565b73ffffffffffffffffffffffffffffffffffffffff1673ffffffffffffffffffffffffffffffffffffffff16815260200190815260200160002060008473ffffffffffffffffffffffffffffffffffffffff1673ffffffffffffffffffffffffffffffffffffffff16815260200190815260200160002060006101000a81548160ff0219169083151502179055508173ffffffffffffffffffffffffffffffffffffffff166110d7611558565b73ffffffffffffffffffffffffffffffffffffffff167f17307eab39ab6107e8899845ad3d59bd9653f200f220920489ca2b5937696c318360405161111c919061223b565b60405180910390a35050565b611139611133611558565b83611619565b611178576040517f08c379a000000000000000000000000000000000000000000000000000000000815260040161116f90612cf9565b60405180910390fd5b61118484848484611a17565b50505050565b6060611195826114ec565b6111d4576040517f08c379a00000000000000000000000000000000000000000000000000000000081526004016111cb90612f87565b60405180910390fd5b60006111de611a73565b905060008151116111fe5760405180602001604052806000815250611229565b8061120884611b05565b604051602001611219929190612fe3565b6040516020818303038152906040525b915050919050565b60085481565b6000600660008473ffffffffffffffffffffffffffffffffffffffff1673ffffffffffffffffffffffffffffffffffffffff16815260200190815260200160002060008373ffffffffffffffffffffffffffffffffffffffff1673ffffffffffffffffffffffffffffffffffffffff16815260200190815260200160002060009054906101000a900460ff16905092915050565b6112d3611558565b73ffffffffffffffffffffffffffffffffffffffff166112f1610db5565b73ffffffffffffffffffffffffffffffffffffffff1614611347576040517f08c379a000000000000000000000000000000000000000000000000000000000815260040161133e90612d65565b60405180910390fd5b600073ffffffffffffffffffffffffffffffffffffffff168173ffffffffffffffffffffffffffffffffffffffff1614156113b7576040517f08c379a00000000000000000000000000000000000000000000000000000000081526004016113ae90613079565b60405180910390fd5b6113c081611953565b50565b662386f26fc10000341461140c576040517f08c379a00000000000000000000000000000000000000000000000000000000081526004016114039061310b565b60405180910390fd5b6114168282611c66565b61141e610db5565b73ffffffffffffffffffffffffffffffffffffffff166108fc662386f26fc100009081150290604051600060405180830381858888f1935050505015801561146a573d6000803e3d6000fd5b505050565b600080823b905060008111915050919050565b60007f01ffc9a7000000000000000000000000000000000000000000000000000000007bffffffffffffffffffffffffffffffffffffffffffffffffffffffff1916827bffffffffffffffffffffffffffffffffffffffffffffffffffffffff1916149050919050565b60008073ffffffffffffffffffffffffffffffffffffffff166003600084815260200190815260200160002060009054906101000a900473ffffffffffffffffffffffffffffffffffffffff1673ffffffffffffffffffffffffffffffffffffffff1614159050919050565b600033905090565b816005600083815260200190815260200160002060006101000a81548173ffffffffffffffffffffffffffffffffffffffff021916908373ffffffffffffffffffffffffffffffffffffffff160217905550808273ffffffffffffffffffffffffffffffffffffffff166115d383610a9b565b73ffffffffffffffffffffffffffffffffffffffff167f8c5be1e5ebec7d5bd14f71427d1e84f3dd0314c0f7b2291e5b200ac8c7c3b92560405160405180910390a45050565b6000611624826114ec565b611663576040517f08c379a000000000000000000000000000000000000000000000000000000000815260040161165a9061319d565b60405180910390fd5b600061166e83610a9b565b90508073ffffffffffffffffffffffffffffffffffffffff168473ffffffffffffffffffffffffffffffffffffffff1614806116dd57508373ffffffffffffffffffffffffffffffffffffffff166116c5846106f5565b73ffffffffffffffffffffffffffffffffffffffff16145b806116ee57506116ed8185611237565b5b91505092915050565b8273ffffffffffffffffffffffffffffffffffffffff1661171782610a9b565b73ffffffffffffffffffffffffffffffffffffffff161461176d576040517f08c379a00000000000000000000000000000000000000000000000000000000081526004016117649061322f565b60405180910390fd5b600073ffffffffffffffffffffffffffffffffffffffff168273ffffffffffffffffffffffffffffffffffffffff1614156117dd576040517f08c379a00000000000000000000000000000000000000000000000000000000081526004016117d4906132c1565b60405180910390fd5b6117e8838383611d10565b6117f3600082611560565b6001600460008573ffffffffffffffffffffffffffffffffffffffff1673ffffffffffffffffffffffffffffffffffffffff16815260200190815260200160002060008282546118439190613310565b925050819055506001600460008473ffffffffffffffffffffffffffffffffffffffff1673ffffffffffffffffffffffffffffffffffffffff168152602001908152602001600020600082825461189a9190613344565b92505081905550816003600083815260200190815260200160002060006101000a81548173ffffffffffffffffffffffffffffffffffffffff021916908373ffffffffffffffffffffffffffffffffffffffff160217905550808273ffffffffffffffffffffffffffffffffffffffff168473ffffffffffffffffffffffffffffffffffffffff167fddf252ad1be2c89b69c2b068fc378daa952ba7f163c4a11628f55a4df523b3ef60405160405180910390a4505050565b60008060009054906101000a900473ffffffffffffffffffffffffffffffffffffffff169050816000806101000a81548173ffffffffffffffffffffffffffffffffffffffff021916908373ffffffffffffffffffffffffffffffffffffffff1602179055508173ffffffffffffffffffffffffffffffffffffffff168173ffffffffffffffffffffffffffffffffffffffff167f8be0079c531659141344cd1fd0a4f28419497f9722a3daafe3b4186f6b6457e060405160405180910390a35050565b611a228484846116f7565b611a2e84848484611d15565b611a6d576040517f08c379a0000000000000000000000000000000000000000000000000000000008152600401611a649061340c565b60405180910390fd5b50505050565b606060098054611a82906129a1565b80601f0160208091040260200160405190810160405280929190818152602001828054611aae906129a1565b8015611afb5780601f10611ad057610100808354040283529160200191611afb565b820191906000526020600020905b815481529060010190602001808311611ade57829003601f168201915b5050505050905090565b60606000821415611b4d576040518060400160405280600181526020017f30000000000000000000000000000000000000000000000000000000000000008152509050611c61565b600082905060005b60008214611b7f578080611b689061342c565b915050600a82611b7891906134a4565b9150611b55565b60008167ffffffffffffffff811115611b9b57611b9a612446565b5b6040519080825280601f01601f191660200182016040528015611bcd5781602001600182028036833780820191505090505b5090505b60008514611c5a57600182611be69190613310565b9150600a85611bf591906134d5565b6030611c019190613344565b60f81b818381518110611c1757611c16613506565b5b60200101907effffffffffffffffffffffffffffffffffffffffffffffffffffffffffffff1916908160001a905350600a85611c5391906134a4565b9450611bd1565b8093505050505b919050565b60075460085410611c7657600080fd5b6000600854905060086000815480929190611c909061342c565b919050555060405180604001604052808460ff16815260200183815250600a600083815260200190815260200160002060008201518160000160006101000a81548160ff021916908360ff1602179055506020820151816001019080519060200190611cfd9291906120e4565b50905050611d0b3382611e9d565b505050565b505050565b6000611d368473ffffffffffffffffffffffffffffffffffffffff1661146f565b15611e90578373ffffffffffffffffffffffffffffffffffffffff1663150b7a02611d5f611558565b8786866040518563ffffffff1660e01b8152600401611d81949392919061358a565b6020604051808303816000875af1925050508015611dbd57506040513d601f19601f82011682018060405250810190611dba91906135eb565b60015b611e40573d8060008114611ded576040519150601f19603f3d011682016040523d82523d6000602084013e611df2565b606091505b50600081511415611e38576040517f08c379a0000000000000000000000000000000000000000000000000000000008152600401611e2f9061340c565b60405180910390fd5b805181602001fd5b63150b7a0260e01b7bffffffffffffffffffffffffffffffffffffffffffffffffffffffff1916817bffffffffffffffffffffffffffffffffffffffffffffffffffffffff191614915050611e95565b600190505b949350505050565b611eb7828260405180602001604052806000815250611ebb565b5050565b611ec58383611f16565b611ed26000848484611d15565b611f11576040517f08c379a0000000000000000000000000000000000000000000000000000000008152600401611f089061340c565b60405180910390fd5b505050565b600073ffffffffffffffffffffffffffffffffffffffff168273ffffffffffffffffffffffffffffffffffffffff161415611f86576040517f08c379a0000000000000000000000000000000000000000000000000000000008152600401611f7d90613664565b60405180910390fd5b611f8f816114ec565b15611fcf576040517f08c379a0000000000000000000000000000000000000000000000000000000008152600401611fc6906136d0565b60405180910390fd5b611fdb60008383611d10565b6001600460008473ffffffffffffffffffffffffffffffffffffffff1673ffffffffffffffffffffffffffffffffffffffff168152602001908152602001600020600082825461202b9190613344565b92505081905550816003600083815260200190815260200160002060006101000a81548173ffffffffffffffffffffffffffffffffffffffff021916908373ffffffffffffffffffffffffffffffffffffffff160217905550808273ffffffffffffffffffffffffffffffffffffffff16600073ffffffffffffffffffffffffffffffffffffffff167fddf252ad1be2c89b69c2b068fc378daa952ba7f163c4a11628f55a4df523b3ef60405160405180910390a45050565b8280546120f0906129a1565b90600052602060002090601f0160209004810192826121125760008555612159565b82601f1061212b57805160ff1916838001178555612159565b82800160010185558215612159579182015b8281111561215857825182559160200191906001019061213d565b5b509050612166919061216a565b5090565b5b8082111561218357600081600090555060010161216b565b5090565b6000604051905090565b600080fd5b600080fd5b60007fffffffff0000000000000000000000000000000000000000000000000000000082169050919050565b6121d08161219b565b81146121db57600080fd5b50565b6000813590506121ed816121c7565b92915050565b60006020828403121561220957612208612191565b5b6000612217848285016121de565b91505092915050565b60008115159050919050565b61223581612220565b82525050565b6000602082019050612250600083018461222c565b92915050565b600081519050919050565b600082825260208201905092915050565b60005b83811015612290578082015181840152602081019050612275565b8381111561229f576000848401525b50505050565b6000601f19601f8301169050919050565b60006122c182612256565b6122cb8185612261565b93506122db818560208601612272565b6122e4816122a5565b840191505092915050565b6000602082019050818103600083015261230981846122b6565b905092915050565b6000819050919050565b61232481612311565b811461232f57600080fd5b50565b6000813590506123418161231b565b92915050565b60006020828403121561235d5761235c612191565b5b600061236b84828501612332565b91505092915050565b600073ffffffffffffffffffffffffffffffffffffffff82169050919050565b600061239f82612374565b9050919050565b6123af81612394565b82525050565b60006020820190506123ca60008301846123a6565b92915050565b6123d981612394565b81146123e457600080fd5b50565b6000813590506123f6816123d0565b92915050565b6000806040838503121561241357612412612191565b5b6000612421858286016123e7565b925050602061243285828601612332565b9150509250929050565b600080fd5b600080fd5b7f4e487b7100000000000000000000000000000000000000000000000000000000600052604160045260246000fd5b61247e826122a5565b810181811067ffffffffffffffff8211171561249d5761249c612446565b5b80604052505050565b60006124b0612187565b90506124bc8282612475565b919050565b600067ffffffffffffffff8211156124dc576124db612446565b5b6124e5826122a5565b9050602081019050919050565b82818337600083830152505050565b600061251461250f846124c1565b6124a6565b9050828152602081018484840111156125305761252f612441565b5b61253b8482856124f2565b509392505050565b600082601f8301126125585761255761243c565b5b8135612568848260208601612501565b91505092915050565b6000806040838503121561258857612587612191565b5b600061259685828601612332565b925050602083013567ffffffffffffffff8111156125b7576125b6612196565b5b6125c385828601612543565b9150509250929050565b6125d681612311565b82525050565b60006020820190506125f160008301846125cd565b92915050565b6000806000606084860312156126105761260f612191565b5b600061261e868287016123e7565b935050602061262f868287016123e7565b925050604061264086828701612332565b9150509250925092565b6000602082840312156126605761265f612191565b5b600082013567ffffffffffffffff81111561267e5761267d612196565b5b61268a84828501612543565b91505092915050565b6000602082840312156126a9576126a8612191565b5b60006126b7848285016123e7565b91505092915050565b600060ff82169050919050565b6126d6816126c0565b82525050565b60006060820190506126f160008301866125cd565b6126fe60208301856126cd565b818103604083015261271081846122b6565b9050949350505050565b61272381612220565b811461272e57600080fd5b50565b6000813590506127408161271a565b92915050565b6000806040838503121561275d5761275c612191565b5b600061276b858286016123e7565b925050602061277c85828601612731565b9150509250929050565b600067ffffffffffffffff8211156127a1576127a0612446565b5b6127aa826122a5565b9050602081019050919050565b60006127ca6127c584612786565b6124a6565b9050828152602081018484840111156127e6576127e5612441565b5b6127f18482856124f2565b509392505050565b600082601f83011261280e5761280d61243c565b5b813561281e8482602086016127b7565b91505092915050565b6000806000806080858703121561284157612840612191565b5b600061284f878288016123e7565b9450506020612860878288016123e7565b935050604061287187828801612332565b925050606085013567ffffffffffffffff81111561289257612891612196565b5b61289e878288016127f9565b91505092959194509250565b600080604083850312156128c1576128c0612191565b5b60006128cf858286016123e7565b92505060206128e0858286016123e7565b9150509250929050565b6128f3816126c0565b81146128fe57600080fd5b50565b600081359050612910816128ea565b92915050565b6000806040838503121561292d5761292c612191565b5b600061293b85828601612901565b925050602083013567ffffffffffffffff81111561295c5761295b612196565b5b61296885828601612543565b9150509250929050565b7f4e487b7100000000000000000000000000000000000000000000000000000000600052602260045260246000fd5b600060028204905060018216806129b957607f821691505b602082108114156129cd576129cc612972565b5b50919050565b7f4552433732313a20617070726f76656420717565727920666f72206e6f6e657860008201527f697374656e7420746f6b656e0000000000000000000000000000000000000000602082015250565b6000612a2f602c83612261565b9150612a3a826129d3565b604082019050919050565b60006020820190508181036000830152612a5e81612a22565b9050919050565b7f4552433732313a20617070726f76616c20746f2063757272656e74206f776e6560008201527f7200000000000000000000000000000000000000000000000000000000000000602082015250565b6000612ac1602183612261565b9150612acc82612a65565b604082019050919050565b60006020820190508181036000830152612af081612ab4565b9050919050565b7f4552433732313a20617070726f76652063616c6c6572206973206e6f74206f7760008201527f6e6572206e6f7220617070726f76656420666f7220616c6c0000000000000000602082015250565b6000612b53603883612261565b9150612b5e82612af7565b604082019050919050565b60006020820190508181036000830152612b8281612b46565b9050919050565b7f546f6b656e206e6f74206d696e74656420796574000000000000000000000000600082015250565b6000612bbf601483612261565b9150612bca82612b89565b602082019050919050565b60006020820190508181036000830152612bee81612bb2565b9050919050565b7f4f6e6c7920746865206f776e6572206f662074686973204e46542063616e206360008201527f68616e6765206974732074657874000000000000000000000000000000000000602082015250565b6000612c51602e83612261565b9150612c5c82612bf5565b604082019050919050565b60006020820190508181036000830152612c8081612c44565b9050919050565b7f4552433732313a207472616e736665722063616c6c6572206973206e6f74206f60008201527f776e6572206e6f7220617070726f766564000000000000000000000000000000602082015250565b6000612ce3603183612261565b9150612cee82612c87565b604082019050919050565b60006020820190508181036000830152612d1281612cd6565b9050919050565b7f4f776e61626c653a2063616c6c6572206973206e6f7420746865206f776e6572600082015250565b6000612d4f602083612261565b9150612d5a82612d19565b602082019050919050565b60006020820190508181036000830152612d7e81612d42565b9050919050565b7f4552433732313a206f776e657220717565727920666f72206e6f6e657869737460008201527f656e7420746f6b656e0000000000000000000000000000000000000000000000602082015250565b6000612de1602983612261565b9150612dec82612d85565b604082019050919050565b60006020820190508181036000830152612e1081612dd4565b9050919050565b7f4552433732313a2062616c616e636520717565727920666f7220746865207a6560008201527f726f206164647265737300000000000000000000000000000000000000000000602082015250565b6000612e73602a83612261565b9150612e7e82612e17565b604082019050919050565b60006020820190508181036000830152612ea281612e66565b9050919050565b7f4552433732313a20617070726f766520746f2063616c6c657200000000000000600082015250565b6000612edf601983612261565b9150612eea82612ea9565b602082019050919050565b60006020820190508181036000830152612f0e81612ed2565b9050919050565b7f4552433732314d657461646174613a2055524920717565727920666f72206e6f60008201527f6e6578697374656e7420746f6b656e0000000000000000000000000000000000602082015250565b6000612f71602f83612261565b9150612f7c82612f15565b604082019050919050565b60006020820190508181036000830152612fa081612f64565b9050919050565b600081905092915050565b6000612fbd82612256565b612fc78185612fa7565b9350612fd7818560208601612272565b80840191505092915050565b6000612fef8285612fb2565b9150612ffb8284612fb2565b91508190509392505050565b7f4f776e61626c653a206e6577206f776e657220697320746865207a65726f206160008201527f6464726573730000000000000000000000000000000000000000000000000000602082015250565b6000613063602683612261565b915061306e82613007565b604082019050919050565b6000602082019050818103600083015261309281613056565b9050919050565b7f436c61696d696e67206120436f6c6c65637469626c6520636f73747320302e3060008201527f3120657468657200000000000000000000000000000000000000000000000000602082015250565b60006130f5602783612261565b915061310082613099565b604082019050919050565b60006020820190508181036000830152613124816130e8565b9050919050565b7f4552433732313a206f70657261746f7220717565727920666f72206e6f6e657860008201527f697374656e7420746f6b656e0000000000000000000000000000000000000000602082015250565b6000613187602c83612261565b91506131928261312b565b604082019050919050565b600060208201905081810360008301526131b68161317a565b9050919050565b7f4552433732313a207472616e73666572206f6620746f6b656e2074686174206960008201527f73206e6f74206f776e0000000000000000000000000000000000000000000000602082015250565b6000613219602983612261565b9150613224826131bd565b604082019050919050565b600060208201905081810360008301526132488161320c565b9050919050565b7f4552433732313a207472616e7366657220746f20746865207a65726f2061646460008201527f7265737300000000000000000000000000000000000000000000000000000000602082015250565b60006132ab602483612261565b91506132b68261324f565b604082019050919050565b600060208201905081810360008301526132da8161329e565b9050919050565b7f4e487b7100000000000000000000000000000000000000000000000000000000600052601160045260246000fd5b600061331b82612311565b915061332683612311565b925082821015613339576133386132e1565b5b828203905092915050565b600061334f82612311565b915061335a83612311565b9250827fffffffffffffffffffffffffffffffffffffffffffffffffffffffffffffffff0382111561338f5761338e6132e1565b5b828201905092915050565b7f4552433732313a207472616e7366657220746f206e6f6e20455243373231526560008201527f63656976657220696d706c656d656e7465720000000000000000000000000000602082015250565b60006133f6603283612261565b91506134018261339a565b604082019050919050565b60006020820190508181036000830152613425816133e9565b9050919050565b600061343782612311565b91507fffffffffffffffffffffffffffffffffffffffffffffffffffffffffffffffff82141561346a576134696132e1565b5b600182019050919050565b7f4e487b7100000000000000000000000000000000000000000000000000000000600052601260045260246000fd5b60006134af82612311565b91506134ba83612311565b9250826134ca576134c9613475565b5b828204905092915050565b60006134e082612311565b91506134eb83612311565b9250826134fb576134fa613475565b5b828206905092915050565b7f4e487b7100000000000000000000000000000000000000000000000000000000600052603260045260246000fd5b600081519050919050565b600082825260208201905092915050565b600061355c82613535565b6135668185613540565b9350613576818560208601612272565b61357f816122a5565b840191505092915050565b600060808201905061359f60008301876123a6565b6135ac60208301866123a6565b6135b960408301856125cd565b81810360608301526135cb8184613551565b905095945050505050565b6000815190506135e5816121c7565b92915050565b60006020828403121561360157613600612191565b5b600061360f848285016135d6565b91505092915050565b7f4552433732313a206d696e7420746f20746865207a65726f2061646472657373600082015250565b600061364e602083612261565b915061365982613618565b602082019050919050565b6000602082019050818103600083015261367d81613641565b9050919050565b7f4552433732313a20746f6b656e20616c7265616479206d696e74656400000000600082015250565b60006136ba601c83612261565b91506136c582613684565b602082019050919050565b600060208201905081810360008301526136e9816136ad565b905091905056fea2646970667358221220d455a34a66cf4226c3e87d627a91cb067df1ef38e3ed0733ef6b27178c5e7bc164736f6c634300080a0033",
  "immutableReferences": {},
  "source": "pragma solidity >=0.8.3 <0.9.0;\n\nimport \"@openzeppelin/contracts/access/Ownable.sol\";\nimport \"@openzeppelin/contracts/token/ERC721/ERC721.sol\";\n\ncontract Collectible is Ownable, ERC721 {\n    // Collection options\n    uint256 public totalSupply;\n    uint256 public nextCollectibleId;\n    string private _currentBaseURI;\n\n    // Store NFT properties\n    struct NFTProperties {\n        // TODO: Can I use a enum instead? [red, blue, etc]\n        uint8 color;\n        // TODO: If it's unnecessary, remove string prop, it takes memory.\n        string text;\n    }\n    mapping(uint256 => NFTProperties) idToProperties;\n\n    constructor() ERC721(\"Collectible\", \"COLL\") {\n        totalSupply = 10_000;\n        nextCollectibleId = 0;\n\n        // TODO: Replace by API URI when available using ENV variable\n        setBaseURI(\"http://localhost:5000/\");\n\n        // Mint my own NFT tokens.\n        mint(5, \"First NFT\");\n        mint(1, \"Second NFT\");\n    }\n\n    // Claim is the public function to mint an NFT, it uses mint() internaly.\n    function claim(uint8 _color, string memory _text) external payable {\n        require(\n            msg.value == 0.01 ether,\n            \"Claiming a Collectible costs 0.01 ether\"\n        );\n\n        mint(_color, _text);\n\n        // Give 0.01 ether to the contract owner\n        payable(owner()).transfer(0.01 ether);\n    }\n\n    function mint(uint8 _color, string memory _text) internal {\n        require(nextCollectibleId < totalSupply);\n\n        uint256 tokenId = nextCollectibleId;\n        nextCollectibleId++;\n\n        idToProperties[tokenId] = NFTProperties(_color, _text);\n        _safeMint(msg.sender, tokenId);\n    }\n\n    function setBaseURI(string memory baseURI) public onlyOwner {\n        _currentBaseURI = baseURI;\n    }\n\n    function _baseURI() internal view virtual override returns (string memory) {\n        return _currentBaseURI;\n    }\n\n    function get(uint256 _tokenId)\n        external\n        view\n        returns (\n            uint256 id,\n            uint8 color,\n            string memory text\n        )\n    {\n        require(_exists(_tokenId), \"Token not minted yet\");\n        NFTProperties memory properties = idToProperties[_tokenId];\n        id = _tokenId;\n        color = properties.color;\n        text = properties.text;\n    }\n\n    // Example of update NFT property\n    function changeText(uint256 _tokenId, string memory _newText) public {\n        require(_exists(_tokenId), \"Token not minted yet\");\n        require(\n            ownerOf(_tokenId) == msg.sender,\n            \"Only the owner of this NFT can change its text\"\n        );\n\n        idToProperties[_tokenId].text = _newText;\n    }\n\n    function getText(uint256 _tokenId) external view returns (string memory) {\n        require(_exists(_tokenId), \"Token not minted yet\");\n\n        NFTProperties memory properties = idToProperties[_tokenId];\n        return properties.text;\n    }\n}\n",
  "sourcePath": "/Users/juliencaron/www/ntf/ntf-collectible/contracts/Collectible.sol",
  "compiler": {
    "name": "solc",
    "version": "0.8.10+commit.fc410830.Emscripten.clang"
  },
  "schemaVersion": "3.4.3",
  "updatedAt": "2021-11-11T05:07:18.839Z",
  "networkType": "ethereum",
  "devdoc": {
    "kind": "dev",
    "methods": {
      "approve(address,uint256)": {
        "details": "See {IERC721-approve}."
      },
      "balanceOf(address)": {
        "details": "See {IERC721-balanceOf}."
      },
      "getApproved(uint256)": {
        "details": "See {IERC721-getApproved}."
      },
      "isApprovedForAll(address,address)": {
        "details": "See {IERC721-isApprovedForAll}."
      },
      "name()": {
        "details": "See {IERC721Metadata-name}."
      },
      "owner()": {
        "details": "Returns the address of the current owner."
      },
      "ownerOf(uint256)": {
        "details": "See {IERC721-ownerOf}."
      },
      "renounceOwnership()": {
        "details": "Leaves the contract without owner. It will not be possible to call `onlyOwner` functions anymore. Can only be called by the current owner. NOTE: Renouncing ownership will leave the contract without an owner, thereby removing any functionality that is only available to the owner."
      },
      "safeTransferFrom(address,address,uint256)": {
        "details": "See {IERC721-safeTransferFrom}."
      },
      "safeTransferFrom(address,address,uint256,bytes)": {
        "details": "See {IERC721-safeTransferFrom}."
      },
      "setApprovalForAll(address,bool)": {
        "details": "See {IERC721-setApprovalForAll}."
      },
      "supportsInterface(bytes4)": {
        "details": "See {IERC165-supportsInterface}."
      },
      "symbol()": {
        "details": "See {IERC721Metadata-symbol}."
      },
      "tokenURI(uint256)": {
        "details": "See {IERC721Metadata-tokenURI}."
      },
      "transferFrom(address,address,uint256)": {
        "details": "See {IERC721-transferFrom}."
      },
      "transferOwnership(address)": {
        "details": "Transfers ownership of the contract to a new account (`newOwner`). Can only be called by the current owner."
      }
    },
    "version": 1
  },
  "userdoc": {
    "kind": "user",
    "methods": {},
    "version": 1
  }
}